{
  "address": "0x8ca81c6aAEe9829Bc1417D1F2492E614584c3FE4",
  "abi": [
    {
      "inputs": [
        {
          "internalType": "address",
          "name": "_primaryAdmin",
          "type": "address"
        },
        {
          "internalType": "address",
          "name": "_tokenAddress",
          "type": "address"
        },
        {
          "internalType": "string",
          "name": "_name",
          "type": "string"
        },
        {
          "internalType": "string",
          "name": "_description",
          "type": "string"
        },
        {
          "internalType": "uint256",
          "name": "_cycle",
          "type": "uint256"
        },
        {
          "internalType": "address[]",
          "name": "_builders",
          "type": "address[]"
        },
        {
          "internalType": "uint256[]",
          "name": "_caps",
          "type": "uint256[]"
        },
        {
          "internalType": "bool",
          "name": "_requiresApproval",
          "type": "bool"
        },
        {
          "internalType": "bool",
          "name": "_allowApplications",
          "type": "bool"
        }
      ],
      "stateMutability": "nonpayable",
      "type": "constructor"
    },
    {
      "inputs": [],
      "name": "AccessDenied",
      "type": "error"
    },
    {
      "inputs": [],
      "name": "AlreadyWithdrawnOneTime",
      "type": "error"
    },
    {
      "inputs": [
        {
          "internalType": "uint256",
          "name": "provided",
          "type": "uint256"
        },
        {
          "internalType": "uint256",
          "name": "minimum",
          "type": "uint256"
        }
      ],
      "name": "BelowMinimumCap",
      "type": "error"
    },
    {
      "inputs": [],
      "name": "BuilderAlreadyExists",
      "type": "error"
    },
    {
      "inputs": [],
      "name": "ContractIsLocked",
      "type": "error"
    },
    {
      "inputs": [
        {
          "internalType": "address",
          "name": "token",
          "type": "address"
        },
        {
          "internalType": "address",
          "name": "to",
          "type": "address"
        },
        {
          "internalType": "uint256",
          "name": "amount",
          "type": "uint256"
        }
      ],
      "name": "ERC20FundsTransferFailed",
      "type": "error"
    },
    {
      "inputs": [
        {
          "internalType": "address",
          "name": "token",
          "type": "address"
        },
        {
          "internalType": "address",
          "name": "recipient",
          "type": "address"
        }
      ],
      "name": "ERC20SendingFailed",
      "type": "error"
    },
    {
      "inputs": [],
      "name": "ERC20TransferFailed",
      "type": "error"
    },
    {
      "inputs": [],
      "name": "EtherSendingFailed",
      "type": "error"
    },
    {
      "inputs": [
        {
          "internalType": "uint256",
          "name": "requested",
          "type": "uint256"
        },
        {
          "internalType": "uint256",
          "name": "unlocked",
          "type": "uint256"
        }
      ],
      "name": "InsufficientFundsInContract",
      "type": "error"
    },
    {
      "inputs": [
        {
          "internalType": "uint256",
          "name": "requested",
          "type": "uint256"
        },
        {
          "internalType": "uint256",
          "name": "unlocked",
          "type": "uint256"
        }
      ],
      "name": "InsufficientInStream",
      "type": "error"
    },
    {
      "inputs": [],
      "name": "InvalidBuilderAddress",
      "type": "error"
    },
    {
      "inputs": [],
      "name": "InvalidNewAdminAddress",
      "type": "error"
    },
    {
      "inputs": [],
      "name": "InvalidTokenAddress",
      "type": "error"
    },
    {
      "inputs": [],
      "name": "LengthsMismatch",
      "type": "error"
    },
    {
      "inputs": [],
      "name": "MaxBuildersReached",
      "type": "error"
    },
    {
      "inputs": [
        {
          "internalType": "uint256",
          "name": "providedLength",
          "type": "uint256"
        },
        {
          "internalType": "uint256",
          "name": "maxLength",
          "type": "uint256"
        }
      ],
      "name": "MaxNameLength",
      "type": "error"
    },
    {
      "inputs": [
        {
          "internalType": "address",
          "name": "builder",
          "type": "address"
        }
      ],
      "name": "NoActiveStreamForBuilder",
      "type": "error"
    },
    {
      "inputs": [],
      "name": "NoFundsInContract",
      "type": "error"
    },
    {
      "inputs": [],
      "name": "NoValueSent",
      "type": "error"
    },
    {
      "inputs": [],
      "name": "NoWithdrawRequest",
      "type": "error"
    },
    {
      "inputs": [],
      "name": "NotAuthorized",
      "type": "error"
    },
    {
      "inputs": [],
      "name": "PendingWithdrawRequestExists",
      "type": "error"
    },
    {
      "inputs": [],
      "name": "WithdrawRequestAlreadyCompleted",
      "type": "error"
    },
    {
      "inputs": [],
      "name": "WithdrawRequestNotApproved",
      "type": "error"
    },
    {
      "inputs": [],
      "name": "WithdrawRequestNotFound",
      "type": "error"
    },
    {
      "anonymous": false,
      "inputs": [
        {
          "indexed": true,
          "internalType": "address",
          "name": "to",
          "type": "address"
        },
        {
          "indexed": false,
          "internalType": "uint256",
          "name": "amount",
          "type": "uint256"
        }
      ],
      "name": "AddBuilder",
      "type": "event"
    },
    {
      "anonymous": false,
      "inputs": [
        {
          "indexed": true,
          "internalType": "address",
          "name": "to",
          "type": "address"
        }
      ],
      "name": "AdminAdded",
      "type": "event"
    },
    {
      "anonymous": false,
      "inputs": [
        {
          "indexed": true,
          "internalType": "address",
          "name": "to",
          "type": "address"
        }
      ],
      "name": "AdminRemoved",
      "type": "event"
    },
    {
      "anonymous": false,
      "inputs": [
        {
          "indexed": false,
          "internalType": "bool",
          "name": "allowApplications",
          "type": "bool"
        }
      ],
      "name": "AllowApplicationsChanged",
      "type": "event"
    },
    {
      "anonymous": false,
      "inputs": [
        {
          "indexed": true,
          "internalType": "address",
          "name": "builder",
          "type": "address"
        },
        {
          "indexed": false,
          "internalType": "bool",
          "name": "requiresApproval",
          "type": "bool"
        }
      ],
      "name": "ApprovalRequirementChanged",
      "type": "event"
    },
    {
      "anonymous": false,
      "inputs": [
        {
          "indexed": false,
          "internalType": "uint256",
          "name": "amount",
          "type": "uint256"
        }
      ],
      "name": "ContractDrained",
      "type": "event"
    },
    {
      "anonymous": false,
      "inputs": [
        {
          "indexed": false,
          "internalType": "bool",
          "name": "locked",
          "type": "bool"
        }
      ],
      "name": "ContractLocked",
      "type": "event"
    },
    {
      "anonymous": false,
      "inputs": [
        {
          "indexed": true,
          "internalType": "address",
          "name": "token",
          "type": "address"
        },
        {
          "indexed": true,
          "internalType": "address",
          "name": "from",
          "type": "address"
        },
        {
          "indexed": false,
          "internalType": "uint256",
          "name": "amount",
          "type": "uint256"
        }
      ],
      "name": "ERC20FundsReceived",
      "type": "event"
    },
    {
      "anonymous": false,
      "inputs": [
        {
          "indexed": true,
          "internalType": "address",
          "name": "from",
          "type": "address"
        },
        {
          "indexed": false,
          "internalType": "uint256",
          "name": "amount",
          "type": "uint256"
        }
      ],
      "name": "FundsReceived",
      "type": "event"
    },
    {
      "anonymous": false,
      "inputs": [
        {
          "indexed": true,
          "internalType": "address",
          "name": "newAdmin",
          "type": "address"
        }
      ],
      "name": "PrimaryAdminTransferred",
      "type": "event"
    },
    {
      "anonymous": false,
      "inputs": [
        {
          "indexed": true,
          "internalType": "bytes32",
          "name": "role",
          "type": "bytes32"
        },
        {
          "indexed": true,
          "internalType": "bytes32",
          "name": "previousAdminRole",
          "type": "bytes32"
        },
        {
          "indexed": true,
          "internalType": "bytes32",
          "name": "newAdminRole",
          "type": "bytes32"
        }
      ],
      "name": "RoleAdminChanged",
      "type": "event"
    },
    {
      "anonymous": false,
      "inputs": [
        {
          "indexed": true,
          "internalType": "bytes32",
          "name": "role",
          "type": "bytes32"
        },
        {
          "indexed": true,
          "internalType": "address",
          "name": "account",
          "type": "address"
        },
        {
          "indexed": true,
          "internalType": "address",
          "name": "sender",
          "type": "address"
        }
      ],
      "name": "RoleGranted",
      "type": "event"
    },
    {
      "anonymous": false,
      "inputs": [
        {
          "indexed": true,
          "internalType": "bytes32",
          "name": "role",
          "type": "bytes32"
        },
        {
          "indexed": true,
          "internalType": "address",
          "name": "account",
          "type": "address"
        },
        {
          "indexed": true,
          "internalType": "address",
          "name": "sender",
          "type": "address"
        }
      ],
      "name": "RoleRevoked",
      "type": "event"
    },
    {
      "anonymous": false,
      "inputs": [
        {
          "indexed": true,
          "internalType": "address",
          "name": "to",
          "type": "address"
        },
        {
          "indexed": false,
          "internalType": "uint256",
          "name": "amount",
          "type": "uint256"
        }
      ],
      "name": "UpdateBuilder",
      "type": "event"
    },
    {
      "anonymous": false,
      "inputs": [
        {
          "indexed": true,
          "internalType": "address",
          "name": "to",
          "type": "address"
        },
        {
          "indexed": false,
          "internalType": "uint256",
          "name": "amount",
          "type": "uint256"
        },
        {
          "indexed": false,
          "internalType": "string",
          "name": "reason",
          "type": "string"
        }
      ],
      "name": "Withdraw",
      "type": "event"
    },
    {
      "anonymous": false,
      "inputs": [
        {
          "indexed": true,
          "internalType": "address",
          "name": "builder",
          "type": "address"
        },
        {
          "indexed": false,
          "internalType": "uint256",
          "name": "requestId",
          "type": "uint256"
        }
      ],
      "name": "WithdrawApproved",
      "type": "event"
    },
    {
      "anonymous": false,
      "inputs": [
        {
          "indexed": true,
          "internalType": "address",
          "name": "builder",
          "type": "address"
        },
        {
          "indexed": false,
          "internalType": "uint256",
          "name": "requestId",
          "type": "uint256"
        },
        {
          "indexed": false,
          "internalType": "uint256",
          "name": "amount",
          "type": "uint256"
        }
      ],
      "name": "WithdrawCompleted",
      "type": "event"
    },
    {
      "anonymous": false,
      "inputs": [
        {
          "indexed": true,
          "internalType": "address",
          "name": "builder",
          "type": "address"
        },
        {
          "indexed": false,
          "internalType": "uint256",
          "name": "requestId",
          "type": "uint256"
        }
      ],
      "name": "WithdrawRejected",
      "type": "event"
    },
    {
      "anonymous": false,
      "inputs": [
        {
          "indexed": true,
          "internalType": "address",
          "name": "builder",
          "type": "address"
        },
        {
          "indexed": false,
          "internalType": "uint256",
          "name": "requestId",
          "type": "uint256"
        },
        {
          "indexed": false,
          "internalType": "uint256",
          "name": "amount",
          "type": "uint256"
        },
        {
          "indexed": false,
          "internalType": "string",
          "name": "reason",
          "type": "string"
        }
      ],
      "name": "WithdrawRequested",
      "type": "event"
    },
    {
      "inputs": [],
      "name": "DEFAULT_ADMIN_ROLE",
      "outputs": [
        {
          "internalType": "bytes32",
          "name": "",
          "type": "bytes32"
        }
      ],
      "stateMutability": "view",
      "type": "function"
    },
    {
      "inputs": [
        {
          "internalType": "uint256",
          "name": "",
          "type": "uint256"
        }
      ],
      "name": "activeBuilders",
      "outputs": [
        {
          "internalType": "address",
          "name": "",
          "type": "address"
        }
      ],
      "stateMutability": "view",
      "type": "function"
    },
    {
      "inputs": [
        {
          "internalType": "address[]",
          "name": "_builders",
          "type": "address[]"
        },
        {
          "internalType": "uint256[]",
          "name": "_caps",
          "type": "uint256[]"
        }
      ],
      "name": "addBatch",
      "outputs": [],
      "stateMutability": "nonpayable",
      "type": "function"
    },
    {
      "inputs": [
        {
          "internalType": "address payable",
          "name": "_builder",
          "type": "address"
        },
        {
          "internalType": "uint256",
          "name": "_cap",
          "type": "uint256"
        }
      ],
      "name": "addBuilderStream",
      "outputs": [],
      "stateMutability": "nonpayable",
      "type": "function"
    },
    {
      "inputs": [
        {
          "internalType": "address[]",
          "name": "_builders",
          "type": "address[]"
        }
      ],
      "name": "allBuildersData",
      "outputs": [
        {
          "components": [
            {
              "internalType": "uint256",
              "name": "cap",
              "type": "uint256"
            },
            {
              "internalType": "uint256",
              "name": "last",
              "type": "uint256"
            }
          ],
          "internalType": "struct ICohortStructs.BuilderStreamInfo[]",
          "name": "",
          "type": "tuple[]"
        }
      ],
      "stateMutability": "view",
      "type": "function"
    },
    {
      "inputs": [],
      "name": "allowApplications",
      "outputs": [
        {
          "internalType": "bool",
          "name": "",
          "type": "bool"
        }
      ],
      "stateMutability": "view",
      "type": "function"
    },
    {
      "inputs": [
        {
          "internalType": "address",
          "name": "_builder",
          "type": "address"
        },
        {
          "internalType": "uint256",
          "name": "_requestId",
          "type": "uint256"
        }
      ],
      "name": "approveWithdraw",
      "outputs": [],
      "stateMutability": "nonpayable",
      "type": "function"
    },
    {
      "inputs": [
        {
          "internalType": "address",
          "name": "",
          "type": "address"
        }
      ],
      "name": "builderIndex",
      "outputs": [
        {
          "internalType": "uint256",
          "name": "",
          "type": "uint256"
        }
      ],
      "stateMutability": "view",
      "type": "function"
    },
    {
      "inputs": [],
      "name": "cycle",
      "outputs": [
        {
          "internalType": "uint256",
          "name": "",
          "type": "uint256"
        }
      ],
      "stateMutability": "view",
      "type": "function"
    },
    {
      "inputs": [],
      "name": "description",
      "outputs": [
        {
          "internalType": "string",
          "name": "",
          "type": "string"
        }
      ],
      "stateMutability": "view",
      "type": "function"
    },
    {
      "inputs": [
        {
          "internalType": "address",
          "name": "_token",
          "type": "address"
        }
      ],
      "name": "drainContract",
      "outputs": [],
      "stateMutability": "nonpayable",
      "type": "function"
    },
    {
      "inputs": [
        {
          "internalType": "uint256",
          "name": "_amount",
          "type": "uint256"
        }
      ],
      "name": "fundContract",
      "outputs": [],
      "stateMutability": "payable",
      "type": "function"
    },
    {
      "inputs": [
        {
          "internalType": "bytes32",
          "name": "role",
          "type": "bytes32"
        }
      ],
      "name": "getRoleAdmin",
      "outputs": [
        {
          "internalType": "bytes32",
          "name": "",
          "type": "bytes32"
        }
      ],
      "stateMutability": "view",
      "type": "function"
    },
    {
      "inputs": [
        {
          "internalType": "bytes32",
          "name": "role",
          "type": "bytes32"
        },
        {
          "internalType": "address",
          "name": "account",
          "type": "address"
        }
      ],
      "name": "grantRole",
      "outputs": [],
      "stateMutability": "nonpayable",
      "type": "function"
    },
    {
      "inputs": [
        {
          "internalType": "bytes32",
          "name": "role",
          "type": "bytes32"
        },
        {
          "internalType": "address",
          "name": "account",
          "type": "address"
        }
      ],
      "name": "hasRole",
      "outputs": [
        {
          "internalType": "bool",
          "name": "",
          "type": "bool"
        }
      ],
      "stateMutability": "view",
      "type": "function"
    },
    {
      "inputs": [
        {
          "internalType": "address",
          "name": "_address",
          "type": "address"
        }
      ],
      "name": "isAdmin",
      "outputs": [
        {
          "internalType": "bool",
          "name": "",
          "type": "bool"
        }
      ],
      "stateMutability": "view",
      "type": "function"
    },
    {
      "inputs": [],
      "name": "isERC20",
      "outputs": [
        {
          "internalType": "bool",
          "name": "",
          "type": "bool"
        }
      ],
      "stateMutability": "view",
      "type": "function"
    },
    {
      "inputs": [],
      "name": "isONETIME",
      "outputs": [
        {
          "internalType": "bool",
          "name": "",
          "type": "bool"
        }
      ],
      "stateMutability": "view",
      "type": "function"
    },
    {
      "inputs": [],
      "name": "locked",
      "outputs": [
        {
          "internalType": "bool",
          "name": "",
          "type": "bool"
        }
      ],
      "stateMutability": "view",
      "type": "function"
    },
    {
      "inputs": [
        {
          "internalType": "address",
          "name": "adminAddress",
          "type": "address"
        },
        {
          "internalType": "bool",
          "name": "shouldGrant",
          "type": "bool"
        }
      ],
      "name": "modifyAdminRole",
      "outputs": [],
      "stateMutability": "nonpayable",
      "type": "function"
    },
    {
      "inputs": [],
      "name": "name",
      "outputs": [
        {
          "internalType": "string",
          "name": "",
          "type": "string"
        }
      ],
      "stateMutability": "view",
      "type": "function"
    },
    {
      "inputs": [],
      "name": "primaryAdmin",
      "outputs": [
        {
          "internalType": "address",
          "name": "",
          "type": "address"
        }
      ],
      "stateMutability": "view",
      "type": "function"
    },
    {
      "inputs": [
        {
          "internalType": "address",
          "name": "_builder",
          "type": "address"
        },
        {
          "internalType": "uint256",
          "name": "_requestId",
          "type": "uint256"
        }
      ],
      "name": "rejectWithdraw",
      "outputs": [],
      "stateMutability": "nonpayable",
      "type": "function"
    },
    {
      "inputs": [
        {
          "internalType": "address",
          "name": "_builder",
          "type": "address"
        }
      ],
      "name": "removeBuilderStream",
      "outputs": [],
      "stateMutability": "nonpayable",
      "type": "function"
    },
    {
      "inputs": [
        {
          "internalType": "bytes32",
          "name": "role",
          "type": "bytes32"
        },
        {
          "internalType": "address",
          "name": "account",
          "type": "address"
        }
      ],
      "name": "renounceRole",
      "outputs": [],
      "stateMutability": "nonpayable",
      "type": "function"
    },
    {
      "inputs": [],
      "name": "requireApprovalForWithdrawals",
      "outputs": [
        {
          "internalType": "bool",
          "name": "",
          "type": "bool"
        }
      ],
      "stateMutability": "view",
      "type": "function"
    },
    {
      "inputs": [
        {
          "internalType": "address",
          "name": "",
          "type": "address"
        }
      ],
      "name": "requiresApproval",
      "outputs": [
        {
          "internalType": "bool",
          "name": "",
          "type": "bool"
        }
      ],
      "stateMutability": "view",
      "type": "function"
    },
    {
      "inputs": [
        {
          "internalType": "bytes32",
          "name": "role",
          "type": "bytes32"
        },
        {
          "internalType": "address",
          "name": "account",
          "type": "address"
        }
      ],
      "name": "revokeRole",
      "outputs": [],
      "stateMutability": "nonpayable",
      "type": "function"
    },
    {
      "inputs": [
        {
          "internalType": "address",
          "name": "_builder",
          "type": "address"
        },
        {
          "internalType": "bool",
          "name": "_requiresApproval",
          "type": "bool"
        }
      ],
      "name": "setBuilderApprovalRequirement",
      "outputs": [],
      "stateMutability": "nonpayable",
      "type": "function"
    },
    {
      "inputs": [
        {
          "internalType": "uint256",
          "name": "_amount",
          "type": "uint256"
        },
        {
          "internalType": "string",
          "name": "_reason",
          "type": "string"
        }
      ],
      "name": "streamWithdraw",
      "outputs": [],
      "stateMutability": "nonpayable",
      "type": "function"
    },
    {
      "inputs": [
        {
          "internalType": "address",
          "name": "",
          "type": "address"
        }
      ],
      "name": "streamingBuilders",
      "outputs": [
        {
          "internalType": "uint256",
          "name": "cap",
          "type": "uint256"
        },
        {
          "internalType": "uint256",
          "name": "last",
          "type": "uint256"
        }
      ],
      "stateMutability": "view",
      "type": "function"
    },
    {
      "inputs": [
        {
          "internalType": "bytes4",
          "name": "interfaceId",
          "type": "bytes4"
        }
      ],
      "name": "supportsInterface",
      "outputs": [
        {
          "internalType": "bool",
          "name": "",
          "type": "bool"
        }
      ],
      "stateMutability": "view",
      "type": "function"
    },
    {
      "inputs": [
        {
          "internalType": "bool",
          "name": "_enable",
          "type": "bool"
        }
      ],
      "name": "toggleAllowApplications",
      "outputs": [],
      "stateMutability": "nonpayable",
      "type": "function"
    },
    {
      "inputs": [
        {
          "internalType": "bool",
          "name": "_enable",
          "type": "bool"
        }
      ],
      "name": "toggleContractApprovalRequirement",
      "outputs": [],
      "stateMutability": "nonpayable",
      "type": "function"
    },
    {
      "inputs": [
        {
          "internalType": "bool",
          "name": "_enable",
          "type": "bool"
        }
      ],
      "name": "toggleLock",
      "outputs": [],
      "stateMutability": "nonpayable",
      "type": "function"
    },
    {
      "inputs": [],
      "name": "tokenAddress",
      "outputs": [
        {
          "internalType": "address",
          "name": "",
          "type": "address"
        }
      ],
      "stateMutability": "view",
      "type": "function"
    },
    {
      "inputs": [
        {
          "internalType": "address",
          "name": "newPrimaryAdmin",
          "type": "address"
        }
      ],
      "name": "transferPrimaryAdmin",
      "outputs": [],
      "stateMutability": "nonpayable",
      "type": "function"
    },
    {
      "inputs": [
        {
          "internalType": "address",
          "name": "_builder",
          "type": "address"
        }
      ],
      "name": "unlockedBuilderAmount",
      "outputs": [
        {
          "internalType": "uint256",
          "name": "",
          "type": "uint256"
        }
      ],
      "stateMutability": "view",
      "type": "function"
    },
    {
      "inputs": [
        {
          "internalType": "address payable",
          "name": "_builder",
          "type": "address"
        },
        {
          "internalType": "uint256",
          "name": "_newCap",
          "type": "uint256"
        }
      ],
      "name": "updateBuilderStreamCap",
      "outputs": [],
      "stateMutability": "nonpayable",
      "type": "function"
    },
    {
      "inputs": [
        {
          "internalType": "address",
          "name": "",
          "type": "address"
        },
        {
          "internalType": "uint256",
          "name": "",
          "type": "uint256"
        }
      ],
      "name": "withdrawRequests",
      "outputs": [
        {
          "internalType": "uint256",
          "name": "amount",
          "type": "uint256"
        },
        {
          "internalType": "string",
          "name": "reason",
          "type": "string"
        },
        {
          "internalType": "bool",
          "name": "approved",
          "type": "bool"
        },
        {
          "internalType": "bool",
          "name": "completed",
          "type": "bool"
        },
        {
          "internalType": "uint256",
          "name": "requestTime",
          "type": "uint256"
        }
      ],
      "stateMutability": "view",
      "type": "function"
    },
    {
      "stateMutability": "payable",
      "type": "receive"
    }
  ],
  "transactionHash": "0x4dd86cb092339352750892e33b95e0eaa360ab9fadaff332151b4d282d8c2782",
  "args": [
    "0xa8DF02c5607100Eb108B5C39dCdD8c2aE44185Df",
    "0x0000000000000000000000000000000000000000",
    "Cohort",
    "Cohort contract",
    2592000,
    [],
    [],
    false,
    false
  ],
  "numDeployments": 5,
  "solcInputHash": "90f2d8f4e1543434e6f97b8ef7a5549c",
  "bytecode": "0x60806040523480156200001157600080fd5b5060405162003ec338038062003ec38339810160408190526200003491620008de565b888888888888888888600180819055506028875111156200007a57865160405163062a8dff60e41b81526004810191909152602860248201526044015b60405180910390fd5b6200008760008a6200050d565b600780546001600160a01b0319166001600160a01b038b161790556004620000b0888262000a7c565b506005620000bf878262000a7c565b5060028590556003805464ffff000000191663010000008415150260ff60201b191617640100000000831515021790556001600160a01b038816156200012a576003805460ff19166001179055600680546001600160a01b038a166001600160a01b03199091161790555b8460000362000143576003805461ff0019166101001790555b835115620004f5578351601981106200016f5760405163104e7cef60e31b815260040160405180910390fd5b83518114620001915760405163586cb9e160e01b815260040160405180910390fd5b60005b81811015620004f257620001e7868281518110620001b657620001b662000b48565b6020026020010151868381518110620001d357620001d362000b48565b60200260200101516200059660201b60201c565b6002546000036200027557604051806040016040528086838151811062000212576200021262000b48565b60200260200101518152602001600019815250600860008884815181106200023e576200023e62000b48565b6020908102919091018101516001600160a01b031682528181019290925260400160002082518155910151600190910155620002fe565b604051806040016040528086838151811062000295576200029562000b48565b602002602001015181526020018842620002b0919062000b5e565b81525060086000888481518110620002cc57620002cc62000b48565b6020908102919091018101516001600160a01b0316825281810192909252604001600020825181559101516001909101555b600a86828151811062000315576200031562000b48565b60209081029190910181015182546001808201855560009485529290932090920180546001600160a01b0319166001600160a01b0390931692909217909155600a5462000363919062000b5e565b600960008884815181106200037c576200037c62000b48565b60200260200101516001600160a01b03166001600160a01b0316815260200190815260200160002081905550858181518110620003bd57620003bd62000b48565b60200260200101516001600160a01b03167f49707f6097e3d8b2d861adf67aadfb41a45746f9d46701065ed09ff12f9e41c386838151811062000404576200040462000b48565b60200260200101516040516200041c91815260200190565b60405180910390a28315620004e9576001600c600088848151811062000446576200044662000b48565b60200260200101516001600160a01b03166001600160a01b0316815260200190815260200160002060006101000a81548160ff0219169083151502179055508581815181106200049a576200049a62000b48565b60200260200101516001600160a01b03167f70d2c92da609a3045e6b2a21e9d4cd5dc02f15a3830961912b03f5b236b78c8b6001604051620004e0911515815260200190565b60405180910390a25b60010162000194565b50505b50505050505050505050505050505050505062000b80565b620005198282620006ab565b62000592576000828152602081815260408083206001600160a01b03851684529091529020805460ff19166001179055620005513390565b6001600160a01b0316816001600160a01b0316837f2f8788117e7eff1d82e926ec794901d17c78024a50270940304540a733656f0d60405160405180910390a45b5050565b6509184e72a00081108015620005af575060035460ff16155b15620005de5760405163c281dd3b60e01b8152600481018290526509184e72a000602482015260440162000071565b620f424081108015620005f3575060035460ff165b156200061f5760405163c281dd3b60e01b815260048101829052620f4240602482015260440162000071565b6001600160a01b038216620006475760405163094d784960e21b815260040160405180910390fd5b62000654600083620006ab565b15620006735760405163094d784960e21b815260040160405180910390fd5b6001600160a01b038216600090815260086020526040902054156200059257604051637fe8efbb60e01b815260040160405180910390fd5b6000828152602081815260408083206001600160a01b038516845290915290205460ff165b92915050565b80516001600160a01b0381168114620006ee57600080fd5b919050565b634e487b7160e01b600052604160045260246000fd5b604051601f8201601f191681016001600160401b0381118282101715620007345762000734620006f3565b604052919050565b600082601f8301126200074e57600080fd5b81516001600160401b038111156200076a576200076a620006f3565b602062000780601f8301601f1916820162000709565b82815285828487010111156200079557600080fd5b60005b83811015620007b557858101830151828201840152820162000798565b506000928101909101919091529392505050565b60006001600160401b03821115620007e557620007e5620006f3565b5060051b60200190565b600082601f8301126200080157600080fd5b815160206200081a6200081483620007c9565b62000709565b82815260059290921b840181019181810190868411156200083a57600080fd5b8286015b8481101562000860576200085281620006d6565b83529183019183016200083e565b509695505050505050565b600082601f8301126200087d57600080fd5b81516020620008906200081483620007c9565b82815260059290921b84018101918181019086841115620008b057600080fd5b8286015b84811015620008605780518352918301918301620008b4565b80518015158114620006ee57600080fd5b60008060008060008060008060006101208a8c031215620008fe57600080fd5b620009098a620006d6565b98506200091960208b01620006d6565b60408b01519098506001600160401b03808211156200093757600080fd5b620009458d838e016200073c565b985060608c01519150808211156200095c57600080fd5b6200096a8d838e016200073c565b975060808c0151965060a08c01519150808211156200098857600080fd5b620009968d838e01620007ef565b955060c08c0151915080821115620009ad57600080fd5b50620009bc8c828d016200086b565b935050620009cd60e08b01620008cd565b9150620009de6101008b01620008cd565b90509295985092959850929598565b600181811c9082168062000a0257607f821691505b60208210810362000a2357634e487b7160e01b600052602260045260246000fd5b50919050565b601f82111562000a7757600081815260208120601f850160051c8101602086101562000a525750805b601f850160051c820191505b8181101562000a735782815560010162000a5e565b5050505b505050565b81516001600160401b0381111562000a985762000a98620006f3565b62000ab08162000aa98454620009ed565b8462000a29565b602080601f83116001811462000ae8576000841562000acf5750858301515b600019600386901b1c1916600185901b17855562000a73565b600085815260208120601f198616915b8281101562000b195788860151825594840194600190910190840162000af8565b508582101562000b385787850151600019600388901b60f8161c191681555b5050505050600190811b01905550565b634e487b7160e01b600052603260045260246000fd5b81810381811115620006d057634e487b7160e01b600052601160045260246000fd5b6133338062000b906000396000f3fe60806040526004361061023e5760003560e01c80637284e4161161012e578063a46495ac116100ab578063b19cb8101161006f578063b19cb8101461072b578063ccfeb5c21461074a578063cf3090121461076c578063d547741f1461078c578063fcb1eb05146107ac57600080fd5b8063a46495ac1461067e578063a4adcb61146106ab578063a7839334146106cb578063a8397ddc146106eb578063af4025321461070b57600080fd5b80638c0a2d56116100f25780638c0a2d56146105d157806391d14854146105f15780639d76ea58146106115780639de1b23d14610649578063a217fddf1461066957600080fd5b80637284e4161461052f5780637c6f1b591461054457806380c9b2f6146105715780638216d5061461059157806382c2aff7146105b157600080fd5b80632eb67f53116101bc578063377c981511610180578063377c98151461045f5780634e1ca120146104a85780636190c9d5146104c857806365cd2a4e146104de5780636d6ca319146104fe57600080fd5b80632eb67f53146103d25780632f2ff15d146103ec5780633109b16e1461040c5780633519a2f81461042c57806336568abe1461043f57600080fd5b80630d12cc68116102035780630d12cc6814610314578063116e72db14610334578063248a9ca31461035457806324d7806c1461039257806329d36c46146103b257600080fd5b806208359d1461024a57806301ffc9a71461026c57806306fdde03146102a1578063070092d4146102c35780630ca2c6a9146102f357600080fd5b3661024557005b600080fd5b34801561025657600080fd5b5061026a610265366004612a96565b6107cc565b005b34801561027857600080fd5b5061028c610287366004612acf565b61089e565b60405190151581526020015b60405180910390f35b3480156102ad57600080fd5b506102b66108d5565b6040516102989190612b49565b3480156102cf57600080fd5b5061028c6102de366004612b5c565b600c6020526000908152604090205460ff1681565b3480156102ff57600080fd5b5060035461028c906301000000900460ff1681565b34801561032057600080fd5b5061026a61032f366004612c4f565b610963565b34801561034057600080fd5b5061026a61034f366004612a96565b610a24565b34801561036057600080fd5b5061038461036f366004612d11565b60009081526020819052604090206001015490565b604051908152602001610298565b34801561039e57600080fd5b5061028c6103ad366004612b5c565b610b3f565b3480156103be57600080fd5b5061026a6103cd366004612d2a565b610b4b565b3480156103de57600080fd5b5060035461028c9060ff1681565b3480156103f857600080fd5b5061026a610407366004612d56565b610c63565b34801561041857600080fd5b5061026a610427366004612d7b565b610c8d565b61026a61043a366004612d11565b610d0f565b34801561044b57600080fd5b5061026a61045a366004612d56565b610deb565b34801561046b57600080fd5b5061049361047a366004612b5c565b6008602052600090815260409020805460019091015482565b60408051928352602083019190915201610298565b3480156104b457600080fd5b5061026a6104c3366004612d2a565b610e65565b3480156104d457600080fd5b5061038460025481565b3480156104ea57600080fd5b5061026a6104f9366004612d7b565b6110b0565b34801561050a57600080fd5b5061051e610519366004612d2a565b61112e565b604051610298959493929190612d98565b34801561053b57600080fd5b506102b6611210565b34801561055057600080fd5b5061056461055f366004612dce565b61121d565b6040516102989190612e43565b34801561057d57600080fd5b5061038461058c366004612b5c565b61131c565b34801561059d57600080fd5b5061026a6105ac366004612d2a565b611411565b3480156105bd57600080fd5b5061026a6105cc366004612d2a565b611586565b3480156105dd57600080fd5b5061026a6105ec366004612b5c565b61179b565b3480156105fd57600080fd5b5061028c61060c366004612d56565b611859565b34801561061d57600080fd5b50600654610631906001600160a01b031681565b6040516001600160a01b039091168152602001610298565b34801561065557600080fd5b50600754610631906001600160a01b031681565b34801561067557600080fd5b50610384600081565b34801561068a57600080fd5b50610384610699366004612b5c565b60096020526000908152604090205481565b3480156106b757600080fd5b5061026a6106c6366004612b5c565b611882565b3480156106d757600080fd5b506106316106e6366004612d11565b611a5f565b3480156106f757600080fd5b5061026a610706366004612e92565b611a89565b34801561071757600080fd5b5061026a610726366004612b5c565b611ba7565b34801561073757600080fd5b5060035461028c90610100900460ff1681565b34801561075657600080fd5b5060035461028c90640100000000900460ff1681565b34801561077857600080fd5b5060035461028c9062010000900460ff1681565b34801561079857600080fd5b5061026a6107a7366004612d56565b611d4b565b3480156107b857600080fd5b5061026a6107c7366004612d7b565b611d70565b6107d7600033611859565b6107f457604051634ca8886760e01b815260040160405180910390fd5b6001600160a01b03821660009081526008602052604081205483910361083d5760405163f4c8fba360e01b81526001600160a01b03821660048201526024015b60405180910390fd5b6001600160a01b0383166000818152600c6020908152604091829020805460ff191686151590811790915591519182527f70d2c92da609a3045e6b2a21e9d4cd5dc02f15a3830961912b03f5b236b78c8b91015b60405180910390a2505050565b60006001600160e01b03198216637965db0b60e01b14806108cf57506301ffc9a760e01b6001600160e01b03198316145b92915050565b600480546108e290612f31565b80601f016020809104026020016040519081016040528092919081815260200182805461090e90612f31565b801561095b5780601f106109305761010080835404028352916020019161095b565b820191906000526020600020905b81548152906001019060200180831161093e57829003601f168201915b505050505081565b61096e600033611859565b61098b57604051634ca8886760e01b815260040160405180910390fd5b8151601981106109ae5760405163104e7cef60e31b815260040160405180910390fd5b815181146109cf5760405163586cb9e160e01b815260040160405180910390fd5b60005b81811015610a1e57610a168482815181106109ef576109ef612f65565b6020026020010151848381518110610a0957610a09612f65565b6020026020010151611586565b6001016109d2565b50505050565b610a2f600033611859565b610a4c57604051634ca8886760e01b815260040160405180910390fd5b8015610acc576001600160a01b03821660009081526008602052604090205415610a895760405163094d784960e21b815260040160405180910390fd5b610a94600083610c63565b6040516001600160a01b038316907f44d6d25963f097ad14f29f06854a01f575648a1ef82f30e562ccd3889717e33990600090a25050565b6007546001600160a01b0390811690831603610afb57604051634ca8886760e01b815260040160405180910390fd5b610b06600083611d4b565b6040516001600160a01b038316907fa3b62bc36326052d97ea62d63c3d60308ed4c3ea8ac079dd8499f1e9c4f80c0f90600090a25b5050565b60006108cf8183611859565b610b56600033611859565b610b7357604051634ca8886760e01b815260040160405180910390fd5b6001600160a01b0382166000908152600b60205260409020548110610bab57604051632bb8b38560e11b815260040160405180910390fd5b6001600160a01b0382166000908152600b60205260408120805483908110610bd557610bd5612f65565b906000526020600020906004020190508060020160019054906101000a900460ff1615610c1557604051635a4a8a4360e11b815260040160405180910390fd5b60028101805461ffff19166101001790556040516001600160a01b038416907f019d1297aa228eef7dd79b31640282cbe91fbc09dc0cbf5000ca5abf72805989906108919085815260200190565b600082815260208190526040902060010154610c7e81611de7565b610c888383611df1565b505050565b610c98600033611859565b610cb557604051634ca8886760e01b815260040160405180910390fd5b6003805482151563010000000263ff0000001990911617905560405130907f70d2c92da609a3045e6b2a21e9d4cd5dc02f15a3830961912b03f5b236b78c8b90610d0490841515815260200190565b60405180910390a250565b60035460ff16610d6c5734600003610d3a576040516327738acf60e21b815260040160405180910390fd5b60405134815233907f8e47b87b0ef542cdfa1659c551d88bad38aa7f452d2bbb349ab7530dfec8be8f90602001610d04565b80600003610d8d576040516327738acf60e21b815260040160405180910390fd5b600654610da5906001600160a01b0316333084611e75565b60065460405182815233916001600160a01b0316907fa17c2a1269d65f89b5c5688ce949fa4a7f59d8fcb9bbbac872d27a142b2b49e79060200160405180910390a35b50565b6001600160a01b0381163314610e5b5760405162461bcd60e51b815260206004820152602f60248201527f416363657373436f6e74726f6c3a2063616e206f6e6c792072656e6f756e636560448201526e103937b632b9903337b91039b2b63360891b6064820152608401610834565b610b3b8282611ee0565b610e70600033611859565b610e8d57604051634ca8886760e01b815260040160405180910390fd5b600260015403610eaf5760405162461bcd60e51b815260040161083490612f7b565b60026001556001600160a01b0382166000908152600b60205260409020548110610eec57604051632bb8b38560e11b815260040160405180910390fd5b6001600160a01b0382166000908152600b60205260408120805483908110610f1657610f16612f65565b906000526020600020906004020190508060020160019054906101000a900460ff1615610f5657604051635a4a8a4360e11b815260040160405180910390fd5b60028101805460ff191660011790556040516001600160a01b038416907f6f856c863eba32b6aca7d24f96817572a1f48382957c3dc9e8d4741f38afd72e90610fa29085815260200190565b60405180910390a260035462010000900460ff1615610fd45760405163af9e1b4360e01b815260040160405180910390fd5b600354610100900460ff1615610ff257610fed83611f45565b611000565b6110008382600001546120f4565b60028101805461ff00191661010017905580546040516001600160a01b038516917f0502837c293951f8cf960d168bcedcf3e4531ffd7010af47fe48bbff7917d9b49161105591868252602082015260400190565b60405180910390a2826001600160a01b03167f485f1bb6524c663555797e00171a10f341656e59b02d6b557a0a38ba7d5d975182600001548360010160405161109f929190612fb2565b60405180910390a250506001805550565b6110bb600033611859565b6110d857604051634ca8886760e01b815260040160405180910390fd5b60038054821515620100000262ff0000199091161790556040517fb08f70f6219c5c2ed5e08e7cf45080e4840fde880b27a0841faf45475cd02d2e9061112390831515815260200190565b60405180910390a150565b600b602052816000526040600020818154811061114a57600080fd5b90600052602060002090600402016000915091505080600001549080600101805461117490612f31565b80601f01602080910402602001604051908101604052809291908181526020018280546111a090612f31565b80156111ed5780601f106111c2576101008083540402835291602001916111ed565b820191906000526020600020905b8154815290600101906020018083116111d057829003601f168201915b505050506002830154600390930154919260ff8082169361010090920416915085565b600580546108e290612f31565b60608160008167ffffffffffffffff81111561123b5761123b612b79565b60405190808252806020026020018201604052801561128057816020015b60408051808201909152600080825260208201528152602001906001900390816112595790505b50905060005b828110156113135760008686838181106112a2576112a2612f65565b90506020020160208101906112b79190612b5c565b6001600160a01b03811660009081526008602090815260409182902082518084019093528054835260010154908201528451919250908490849081106112ff576112ff612f65565b602090810291909101015250600101611286565b50949350505050565b6001600160a01b038116600090815260086020526040812054829082036113615760405163f4c8fba360e01b81526001600160a01b0382166004820152602401610834565b6001600160a01b0383166000908152600860209081526040918290208251808401909352805483526001015490820152600354610100900460ff16156113c0576000198160200151036113b65751915061140b565b600092505061140b565b60008160200151426113d2919061305b565b9050600254811015611406576002548251600091906113f1908461306e565b6113fb9190613085565b945061140b92505050565b505191505b50919050565b61141c600033611859565b61143957604051634ca8886760e01b815260040160405180910390fd5b6001600160a01b03821660009081526008602052604081205483910361147d5760405163f4c8fba360e01b81526001600160a01b0382166004820152602401610834565b6509184e72a00082108015611495575060035460ff16155b156114c25760405163c281dd3b60e01b8152600481018390526509184e72a0006024820152604401610834565b620f4240821080156114d6575060035460ff165b156115005760405163c281dd3b60e01b815260048101839052620f42406024820152604401610834565b6001600160a01b0383166000908152600860205260409020828155600354610100900460ff1661153d57600254611537904261305b565b60018201555b836001600160a01b03167f95089b8d5f5b1df642061c1947fbec71ede04a0aaa13de4b3e1054031610a0d58460405161157891815260200190565b60405180910390a250505050565b611591600033611859565b6115ae57604051634ca8886760e01b815260040160405180910390fd5b600a546019116115d15760405163104e7cef60e31b815260040160405180910390fd5b6115db8282612306565b600354610100900460ff161561162b5760408051808201825282815260001960208083019182526001600160a01b0386166000908152600890915292909220905181559051600190910155611675565b60405180604001604052808281526020016002544261164a919061305b565b90526001600160a01b0383166000908152600860209081526040909120825181559101516001909101555b600a80546001808201835560008390527fc65a7bb8d6351c1cf70c95a316cc6a92839c986682d98bc35f958f4883f9d2a890910180546001600160a01b0319166001600160a01b03861617905590546116ce919061305b565b6001600160a01b0383166000908152600960205260409020556003546301000000900460ff1615611754576001600160a01b0382166000818152600c6020908152604091829020805460ff1916600190811790915591519182527f70d2c92da609a3045e6b2a21e9d4cd5dc02f15a3830961912b03f5b236b78c8b910160405180910390a25b816001600160a01b03167f49707f6097e3d8b2d861adf67aadfb41a45746f9d46701065ed09ff12f9e41c38260405161178f91815260200190565b60405180910390a25050565b6007546001600160a01b031633146117c65760405163ea8e4eb560e01b815260040160405180910390fd5b6001600160a01b0381166117ed5760405163b5aaecfd60e01b815260040160405180910390fd5b600780546001600160a01b0319166001600160a01b03831690811790915561181790600090611ee0565b611822600082611df1565b6040516001600160a01b038216907fb8121b611a666c4d7c03b96ba9dbc315332dc3f1aa77a22c0a1c162e55c5c32b90600090a250565b6000918252602082815260408084206001600160a01b0393909316845291905290205460ff1690565b61188d600033611859565b6118aa57604051634ca8886760e01b815260040160405180910390fd5b6002600154036118cc5760405162461bcd60e51b815260040161083490612f7b565b600260015560006001600160a01b0382166119985750478015611992576007546040516000916001600160a01b03169083908381818185875af1925050503d8060008114611936576040519150601f19603f3d011682016040523d82523d6000602084013e61193b565b606091505b505090508061195d57604051637d6a86b760e11b815260040160405180910390fd5b6040518281527f217f10a82904d12e2798042bffcd3f5c3cab8f7ea5638a4c0b804a5d6487c8fa9060200160405180910390a1505b50611a58565b6040516370a0823160e01b81523060048201526001600160a01b038316906370a0823190602401602060405180830381865afa1580156119dc573d6000803e3d6000fd5b505050506040513d601f19601f82011682018060405250810190611a0091906130a7565b90508015611a5657600754611a22906001600160a01b03848116911683612410565b6040518181527f217f10a82904d12e2798042bffcd3f5c3cab8f7ea5638a4c0b804a5d6487c8fa9060200160405180910390a15b505b5060018055565b600a8181548110611a6f57600080fd5b6000918252602090912001546001600160a01b0316905081565b336000818152600860205260408120549003611ac35760405163f4c8fba360e01b81526001600160a01b0382166004820152602401610834565b600260015403611ae55760405162461bcd60e51b815260040161083490612f7b565b600260015560035462010000900460ff1615611b145760405163af9e1b4360e01b815260040160405180910390fd5b336000908152600c602052604090205460ff1615611b3b57611b368383612440565b611b9e565b600354610100900460ff1615611b5957611b5433611f45565b611b63565b611b6333846120f4565b336001600160a01b03167f485f1bb6524c663555797e00171a10f341656e59b02d6b557a0a38ba7d5d9751848460405161109f9291906130c0565b50506001805550565b611bb2600033611859565b611bcf57604051634ca8886760e01b815260040160405180910390fd5b6001600160a01b038116600090815260086020526040812054829103611c135760405163f4c8fba360e01b81526001600160a01b0382166004820152602401610834565b6001600160a01b038216600090815260096020526040812054600a8054919291611c3f9060019061305b565b81548110611c4f57611c4f612f65565b6000918252602090912001546001600160a01b03908116915084168114611cbe5780600a8381548110611c8457611c84612f65565b600091825260208083209190910180546001600160a01b0319166001600160a01b0394851617905591831681526009909152604090208290555b600a805480611ccf57611ccf6130d9565b60008281526020808220600019908401810180546001600160a01b03191690559092019092556001600160a01b0386168083526008825260408084208481556001018490556009835280842084905551928352917f95089b8d5f5b1df642061c1947fbec71ede04a0aaa13de4b3e1054031610a0d59101611578565b600082815260208190526040902060010154611d6681611de7565b610c888383611ee0565b611d7b600033611859565b611d9857604051634ca8886760e01b815260040160405180910390fd5b600380548215156401000000000264ff00000000199091161790556040517f3c46c937a5f50007b98268a532baaa2cca5ab4e9ef4937d4c6929899e18a9e519061112390831515815260200190565b610de88133612619565b611dfb8282611859565b610b3b576000828152602081815260408083206001600160a01b03851684529091529020805460ff19166001179055611e313390565b6001600160a01b0316816001600160a01b0316837f2f8788117e7eff1d82e926ec794901d17c78024a50270940304540a733656f0d60405160405180910390a45050565b6040516001600160a01b0380851660248301528316604482015260648101829052610a1e9085906323b872dd60e01b906084015b60408051601f198184030181529190526020810180516001600160e01b03166001600160e01b03199093169290921790915261267d565b611eea8282611859565b15610b3b576000828152602081815260408083206001600160a01b0385168085529252808320805460ff1916905551339285917ff6391f5c32d9c69d2a47ea670b442974b53935d1edc7fd64eb21e047a839171b9190a45050565b6001600160a01b0381166000908152600860205260409020600181015460001914611f8357604051632de4346760e11b815260040160405180910390fd5b805460035460ff16612036574781811015611fbb57604051631508de4560e01b81526004810183905260248101829052604401610834565b6000846001600160a01b03168360405160006040518083038185875af1925050503d8060008114612008576040519150601f19603f3d011682016040523d82523d6000602084013e61200d565b606091505b505090508061202f57604051637d6a86b760e11b815260040160405180910390fd5b50506120e9565b6006546040516370a0823160e01b81523060048201526000916001600160a01b0316906370a0823190602401602060405180830381865afa15801561207f573d6000803e3d6000fd5b505050506040513d601f19601f820116820180604052508101906120a391906130a7565b9050818110156120d057604051631508de4560e01b81526004810183905260248101829052604401610834565b6006546120e7906001600160a01b03168584612410565b505b504260019091015550565b60006120ff8361131c565b90508181101561212c5760405163ba49c84f60e01b81526004810183905260248101829052604401610834565b6001600160a01b038316600090815260086020526040812060018101546002549192909161215a904261305b565b905080821015612168578091505b60035460ff1661221957478581101561219e57604051631508de4560e01b81526004810187905260248101829052604401610834565b6000876001600160a01b03168760405160006040518083038185875af1925050503d80600081146121eb576040519150601f19603f3d011682016040523d82523d6000602084013e6121f0565b606091505b505090508061221257604051637d6a86b760e11b815260040160405180910390fd5b50506122cc565b6006546040516370a0823160e01b81523060048201526000916001600160a01b0316906370a0823190602401602060405180830381865afa158015612262573d6000803e3d6000fd5b505050506040513d601f19601f8201168201806040525081019061228691906130a7565b9050858110156122b357604051631508de4560e01b81526004810187905260248101829052604401610834565b6006546122ca906001600160a01b03168888612410565b505b83856122d8844261305b565b6122e2919061306e565b6122ec9190613085565b6122f690836130ef565b8360010181905550505050505050565b6509184e72a0008110801561231e575060035460ff16155b1561234b5760405163c281dd3b60e01b8152600481018290526509184e72a0006024820152604401610834565b620f42408110801561235f575060035460ff165b156123895760405163c281dd3b60e01b815260048101829052620f42406024820152604401610834565b6001600160a01b0382166123b05760405163094d784960e21b815260040160405180910390fd5b6123bb600083611859565b156123d95760405163094d784960e21b815260040160405180910390fd5b6001600160a01b03821660009081526008602052604090205415610b3b57604051637fe8efbb60e01b815260040160405180910390fd5b6040516001600160a01b038316602482015260448101829052610c8890849063a9059cbb60e01b90606401611ea9565b336000818152600b6020526040812054815b818110156124b8576001600160a01b0384166000908152600b6020526040902080548290811061248457612484612f65565b906000526020600020906004020160020160019054906101000a900460ff166124b057600192506124b8565b600101612452565b5081156124d85760405163ef97f13b60e01b815260040160405180910390fd5b60006124e33361131c565b9050858110156125105760405163ba49c84f60e01b81526004810187905260248101829052604401610834565b336000908152600b60209081526040808320815160a0810183528a81528084018a8152928101859052606081018590524260808201528154600181810184559286529390942084516004909402019283559051908201906125719082613150565b50604082810151600283018054606086015115156101000261ff00199315159390931661ffff1990911617919091179055608090920151600390910155336000908152600b602052908120546125c99060019061305b565b9050336001600160a01b03167f0aed8180bd84f93fd8a307d9c534f2081366c2231daec597d51911c89fdae2a682898960405161260893929190613210565b60405180910390a250505050505050565b6126238282611859565b610b3b5761263b816001600160a01b0316601461274f565b61264683602061274f565b604051602001612657929190613238565b60408051601f198184030181529082905262461bcd60e51b825261083491600401612b49565b60006126d2826040518060400160405280602081526020017f5361666545524332303a206c6f772d6c6576656c2063616c6c206661696c6564815250856001600160a01b03166128f29092919063ffffffff16565b805190915015610c8857808060200190518101906126f091906132ad565b610c885760405162461bcd60e51b815260206004820152602a60248201527f5361666545524332303a204552433230206f7065726174696f6e20646964206e6044820152691bdd081cdd58d8d9595960b21b6064820152608401610834565b6060600061275e83600261306e565b6127699060026130ef565b67ffffffffffffffff81111561278157612781612b79565b6040519080825280601f01601f1916602001820160405280156127ab576020820181803683370190505b509050600360fc1b816000815181106127c6576127c6612f65565b60200101906001600160f81b031916908160001a905350600f60fb1b816001815181106127f5576127f5612f65565b60200101906001600160f81b031916908160001a905350600061281984600261306e565b6128249060016130ef565b90505b600181111561289c576f181899199a1a9b1b9c1cb0b131b232b360811b85600f166010811061285857612858612f65565b1a60f81b82828151811061286e5761286e612f65565b60200101906001600160f81b031916908160001a90535060049490941c93612895816132ca565b9050612827565b5083156128eb5760405162461bcd60e51b815260206004820181905260248201527f537472696e67733a20686578206c656e67746820696e73756666696369656e746044820152606401610834565b9392505050565b60606129018484600085612909565b949350505050565b60608247101561296a5760405162461bcd60e51b815260206004820152602660248201527f416464726573733a20696e73756666696369656e742062616c616e636520666f6044820152651c8818d85b1b60d21b6064820152608401610834565b6001600160a01b0385163b6129c15760405162461bcd60e51b815260206004820152601d60248201527f416464726573733a2063616c6c20746f206e6f6e2d636f6e74726163740000006044820152606401610834565b600080866001600160a01b031685876040516129dd91906132e1565b60006040518083038185875af1925050503d8060008114612a1a576040519150601f19603f3d011682016040523d82523d6000602084013e612a1f565b606091505b5091509150612a2f828286612a3a565b979650505050505050565b60608315612a495750816128eb565b825115612a595782518084602001fd5b8160405162461bcd60e51b81526004016108349190612b49565b6001600160a01b0381168114610de857600080fd5b8015158114610de857600080fd5b60008060408385031215612aa957600080fd5b8235612ab481612a73565b91506020830135612ac481612a88565b809150509250929050565b600060208284031215612ae157600080fd5b81356001600160e01b0319811681146128eb57600080fd5b60005b83811015612b14578181015183820152602001612afc565b50506000910152565b60008151808452612b35816020860160208601612af9565b601f01601f19169290920160200192915050565b6020815260006128eb6020830184612b1d565b600060208284031215612b6e57600080fd5b81356128eb81612a73565b634e487b7160e01b600052604160045260246000fd5b604051601f8201601f1916810167ffffffffffffffff81118282101715612bb857612bb8612b79565b604052919050565b600067ffffffffffffffff821115612bda57612bda612b79565b5060051b60200190565b600082601f830112612bf557600080fd5b81356020612c0a612c0583612bc0565b612b8f565b82815260059290921b84018101918181019086841115612c2957600080fd5b8286015b84811015612c445780358352918301918301612c2d565b509695505050505050565b60008060408385031215612c6257600080fd5b823567ffffffffffffffff80821115612c7a57600080fd5b818501915085601f830112612c8e57600080fd5b81356020612c9e612c0583612bc0565b82815260059290921b84018101918181019089841115612cbd57600080fd5b948201945b83861015612ce4578535612cd581612a73565b82529482019490820190612cc2565b96505086013592505080821115612cfa57600080fd5b50612d0785828601612be4565b9150509250929050565b600060208284031215612d2357600080fd5b5035919050565b60008060408385031215612d3d57600080fd5b8235612d4881612a73565b946020939093013593505050565b60008060408385031215612d6957600080fd5b823591506020830135612ac481612a73565b600060208284031215612d8d57600080fd5b81356128eb81612a88565b85815260a060208201526000612db160a0830187612b1d565b941515604083015250911515606083015260809091015292915050565b60008060208385031215612de157600080fd5b823567ffffffffffffffff80821115612df957600080fd5b818501915085601f830112612e0d57600080fd5b813581811115612e1c57600080fd5b8660208260051b8501011115612e3157600080fd5b60209290920196919550909350505050565b602080825282518282018190526000919060409081850190868401855b82811015612e8557815180518552860151868501529284019290850190600101612e60565b5091979650505050505050565b60008060408385031215612ea557600080fd5b8235915060208084013567ffffffffffffffff80821115612ec557600080fd5b818601915086601f830112612ed957600080fd5b813581811115612eeb57612eeb612b79565b612efd601f8201601f19168501612b8f565b91508082528784828501011115612f1357600080fd5b80848401858401376000848284010152508093505050509250929050565b600181811c90821680612f4557607f821691505b60208210810361140b57634e487b7160e01b600052602260045260246000fd5b634e487b7160e01b600052603260045260246000fd5b6020808252601f908201527f5265656e7472616e637947756172643a207265656e7472616e742063616c6c00604082015260600190565b8281526000602060408184015260008454612fcc81612f31565b8060408701526060600180841660008114612fee576001811461300857613036565b60ff1985168984015283151560051b890183019550613036565b896000528660002060005b8581101561302e5781548b8201860152908301908801613013565b8a0184019650505b50939998505050505050505050565b634e487b7160e01b600052601160045260246000fd5b818103818111156108cf576108cf613045565b80820281158282048414176108cf576108cf613045565b6000826130a257634e487b7160e01b600052601260045260246000fd5b500490565b6000602082840312156130b957600080fd5b5051919050565b8281526040602082015260006129016040830184612b1d565b634e487b7160e01b600052603160045260246000fd5b808201808211156108cf576108cf613045565b601f821115610c8857600081815260208120601f850160051c810160208610156131295750805b601f850160051c820191505b8181101561314857828155600101613135565b505050505050565b815167ffffffffffffffff81111561316a5761316a612b79565b61317e816131788454612f31565b84613102565b602080601f8311600181146131b3576000841561319b5750858301515b600019600386901b1c1916600185901b178555613148565b600085815260208120601f198616915b828110156131e2578886015182559484019460019091019084016131c3565b50858210156132005787850151600019600388901b60f8161c191681555b5050505050600190811b01905550565b83815282602082015260606040820152600061322f6060830184612b1d565b95945050505050565b7f416363657373436f6e74726f6c3a206163636f756e7420000000000000000000815260008351613270816017850160208801612af9565b7001034b99036b4b9b9b4b733903937b6329607d1b60179184019182015283516132a1816028840160208801612af9565b01602801949350505050565b6000602082840312156132bf57600080fd5b81516128eb81612a88565b6000816132d9576132d9613045565b506000190190565b600082516132f3818460208701612af9565b919091019291505056fea2646970667358221220473cb3c7977883304673c954e6edcffcd57b093fc6166fcbd50e9f23b2914e4d64736f6c63430008140033",
  "devdoc": {
    "details": "Main contract for streaming ETH or ERC20 tokens to builders Inherits all functionality from modular contracts",
    "events": {
      "RoleAdminChanged(bytes32,bytes32,bytes32)": {
        "details": "Emitted when `newAdminRole` is set as ``role``'s admin role, replacing `previousAdminRole` `DEFAULT_ADMIN_ROLE` is the starting admin for all roles, despite {RoleAdminChanged} not being emitted signaling this. _Available since v3.1._"
      },
      "RoleGranted(bytes32,address,address)": {
        "details": "Emitted when `account` is granted `role`. `sender` is the account that originated the contract call, an admin role bearer except when using {AccessControl-_setupRole}."
      },
      "RoleRevoked(bytes32,address,address)": {
        "details": "Emitted when `account` is revoked `role`. `sender` is the account that originated the contract call:   - if using `revokeRole`, it is the admin role bearer   - if using `renounceRole`, it is the role bearer (i.e. `account`)"
      }
    },
    "kind": "dev",
    "methods": {
      "addBatch(address[],uint256[])": {
        "details": "Add a batch of builders",
        "params": {
          "_builders": "Array of builder addresses",
          "_caps": "Array of cap values"
        }
      },
      "addBuilderStream(address,uint256)": {
        "details": "Add a new builder's stream",
        "params": {
          "_builder": "Builder address",
          "_cap": "Maximum amount of funds that can be withdrawn in a cycle"
        }
      },
      "allBuildersData(address[])": {
        "details": "Get all builders' data",
        "params": {
          "_builders": "Array of builder addresses"
        },
        "returns": {
          "_0": "Array of BuilderStreamInfo for each builder"
        }
      },
      "approveWithdraw(address,uint256)": {
        "details": "Approve and complete a withdrawal request in one step",
        "params": {
          "_builder": "Builder address",
          "_requestId": "ID of the request to approve and complete"
        }
      },
      "constructor": {
        "details": "Constructor that passes parameters to the base contract",
        "params": {
          "_builders": "Array of builder addresses",
          "_caps": "Array of cap values for builders",
          "_cycle": "Cycle duration",
          "_description": "Description of the cohort",
          "_name": "Name of the cohort",
          "_primaryAdmin": "Address of the primary admin",
          "_requiresApproval": "Whether withdrawals require approval",
          "_tokenAddress": "Address of ERC20 token (zero address for ETH)"
        }
      },
      "drainContract(address)": {
        "details": "Drain the contract to the primary admin address",
        "params": {
          "_token": "Token address (zero address for ETH)"
        }
      },
      "fundContract(uint256)": {
        "details": "Fund the contract with ETH or ERC20 tokens",
        "params": {
          "_amount": "Amount to fund (for ERC20 tokens)"
        }
      },
      "getRoleAdmin(bytes32)": {
        "details": "Returns the admin role that controls `role`. See {grantRole} and {revokeRole}. To change a role's admin, use {_setRoleAdmin}."
      },
      "grantRole(bytes32,address)": {
        "details": "Grants `role` to `account`. If `account` had not been already granted `role`, emits a {RoleGranted} event. Requirements: - the caller must have ``role``'s admin role."
      },
      "hasRole(bytes32,address)": {
        "details": "Returns `true` if `account` has been granted `role`."
      },
      "isAdmin(address)": {
        "details": "Function to check if an address is an admin"
      },
      "modifyAdminRole(address,bool)": {
        "details": "Modify admin roles",
        "params": {
          "adminAddress": "Address to grant/revoke admin role",
          "shouldGrant": "Whether to grant or revoke the role"
        }
      },
      "rejectWithdraw(address,uint256)": {
        "details": "Reject a withdrawal request",
        "params": {
          "_builder": "Builder address",
          "_requestId": "ID of the request to reject"
        }
      },
      "removeBuilderStream(address)": {
        "details": "Remove a builder's stream",
        "params": {
          "_builder": "Builder address"
        }
      },
      "renounceRole(bytes32,address)": {
        "details": "Revokes `role` from the calling account. Roles are often managed via {grantRole} and {revokeRole}: this function's purpose is to provide a mechanism for accounts to lose their privileges if they are compromised (such as when a trusted device is misplaced). If the calling account had been revoked `role`, emits a {RoleRevoked} event. Requirements: - the caller must be `account`."
      },
      "revokeRole(bytes32,address)": {
        "details": "Revokes `role` from `account`. If `account` had been granted `role`, emits a {RoleRevoked} event. Requirements: - the caller must have ``role``'s admin role."
      },
      "setBuilderApprovalRequirement(address,bool)": {
        "details": "Set whether a builder requires approval for withdrawals",
        "params": {
          "_builder": "Builder address",
          "_requiresApproval": "Whether the builder requires approval"
        }
      },
      "streamWithdraw(uint256,string)": {
        "details": "Stream withdraw for a builder",
        "params": {
          "_amount": "Amount to withdraw",
          "_reason": "Reason for withdrawal"
        }
      },
      "supportsInterface(bytes4)": {
        "details": "See {IERC165-supportsInterface}."
      },
      "toggleAllowApplications(bool)": {
        "details": "Allow or disallow applications for new builders",
        "params": {
          "_enable": "Whether to allow applications"
        }
      },
      "toggleContractApprovalRequirement(bool)": {
        "details": "Set whether this contract requires approval for withdrawals",
        "params": {
          "_enable": "Whether to require approval"
        }
      },
      "toggleLock(bool)": {
        "details": "Lock or unlock the contract",
        "params": {
          "_enable": "Whether to lock the contract"
        }
      },
      "transferPrimaryAdmin(address)": {
        "details": "Transfer primary admin role",
        "params": {
          "newPrimaryAdmin": "Address of the new primary admin"
        }
      },
      "unlockedBuilderAmount(address)": {
        "details": "Get the unlocked amount for a builder",
        "params": {
          "_builder": "Builder address"
        },
        "returns": {
          "_0": "Unlocked amount for the builder"
        }
      },
      "updateBuilderStreamCap(address,uint256)": {
        "details": "Update a builder's stream cap",
        "params": {
          "_builder": "Builder address",
          "_newCap": "New cap value"
        }
      }
    },
    "title": "Cohort",
    "version": 1
  },
  "userdoc": {
    "kind": "user",
    "methods": {},
    "version": 1
  },
  "storageLayout": {
    "storage": [
      {
        "astId": 70,
        "contract": "contracts/Cohort.sol:Cohort",
        "label": "_roles",
        "offset": 0,
        "slot": "0",
        "type": "t_mapping(t_bytes32,t_struct(RoleData)65_storage)"
      },
      {
        "astId": 554,
        "contract": "contracts/Cohort.sol:Cohort",
        "label": "_status",
        "offset": 0,
        "slot": "1",
        "type": "t_uint256"
      },
      {
        "astId": 2156,
        "contract": "contracts/Cohort.sol:Cohort",
        "label": "cycle",
        "offset": 0,
        "slot": "2",
        "type": "t_uint256"
      },
      {
        "astId": 2158,
        "contract": "contracts/Cohort.sol:Cohort",
        "label": "isERC20",
        "offset": 0,
        "slot": "3",
        "type": "t_bool"
      },
      {
        "astId": 2160,
        "contract": "contracts/Cohort.sol:Cohort",
        "label": "isONETIME",
        "offset": 1,
        "slot": "3",
        "type": "t_bool"
      },
      {
        "astId": 2162,
        "contract": "contracts/Cohort.sol:Cohort",
        "label": "locked",
        "offset": 2,
        "slot": "3",
        "type": "t_bool"
      },
      {
        "astId": 2164,
        "contract": "contracts/Cohort.sol:Cohort",
        "label": "requireApprovalForWithdrawals",
        "offset": 3,
        "slot": "3",
        "type": "t_bool"
      },
      {
        "astId": 2166,
        "contract": "contracts/Cohort.sol:Cohort",
        "label": "allowApplications",
        "offset": 4,
        "slot": "3",
        "type": "t_bool"
      },
      {
        "astId": 2168,
        "contract": "contracts/Cohort.sol:Cohort",
        "label": "name",
        "offset": 0,
        "slot": "4",
        "type": "t_string_storage"
      },
      {
        "astId": 2170,
        "contract": "contracts/Cohort.sol:Cohort",
        "label": "description",
        "offset": 0,
        "slot": "5",
        "type": "t_string_storage"
      },
      {
        "astId": 2172,
        "contract": "contracts/Cohort.sol:Cohort",
        "label": "tokenAddress",
        "offset": 0,
        "slot": "6",
        "type": "t_address"
      },
      {
        "astId": 2174,
        "contract": "contracts/Cohort.sol:Cohort",
        "label": "primaryAdmin",
        "offset": 0,
        "slot": "7",
        "type": "t_address"
      },
      {
        "astId": 2179,
        "contract": "contracts/Cohort.sol:Cohort",
        "label": "streamingBuilders",
        "offset": 0,
        "slot": "8",
        "type": "t_mapping(t_address,t_struct(BuilderStreamInfo)3290_storage)"
      },
      {
        "astId": 2183,
        "contract": "contracts/Cohort.sol:Cohort",
        "label": "builderIndex",
        "offset": 0,
        "slot": "9",
        "type": "t_mapping(t_address,t_uint256)"
      },
      {
        "astId": 2186,
        "contract": "contracts/Cohort.sol:Cohort",
        "label": "activeBuilders",
        "offset": 0,
        "slot": "10",
        "type": "t_array(t_address)dyn_storage"
      },
      {
        "astId": 2192,
        "contract": "contracts/Cohort.sol:Cohort",
        "label": "withdrawRequests",
        "offset": 0,
        "slot": "11",
        "type": "t_mapping(t_address,t_array(t_struct(WithdrawRequest)3301_storage)dyn_storage)"
      },
      {
        "astId": 2196,
        "contract": "contracts/Cohort.sol:Cohort",
        "label": "requiresApproval",
        "offset": 0,
        "slot": "12",
        "type": "t_mapping(t_address,t_bool)"
      }
    ],
    "types": {
      "t_address": {
        "encoding": "inplace",
        "label": "address",
        "numberOfBytes": "20"
      },
      "t_array(t_address)dyn_storage": {
        "base": "t_address",
        "encoding": "dynamic_array",
        "label": "address[]",
        "numberOfBytes": "32"
      },
      "t_array(t_struct(WithdrawRequest)3301_storage)dyn_storage": {
        "base": "t_struct(WithdrawRequest)3301_storage",
        "encoding": "dynamic_array",
        "label": "struct ICohortStructs.WithdrawRequest[]",
        "numberOfBytes": "32"
      },
      "t_bool": {
        "encoding": "inplace",
        "label": "bool",
        "numberOfBytes": "1"
      },
      "t_bytes32": {
        "encoding": "inplace",
        "label": "bytes32",
        "numberOfBytes": "32"
      },
      "t_mapping(t_address,t_array(t_struct(WithdrawRequest)3301_storage)dyn_storage)": {
        "encoding": "mapping",
        "key": "t_address",
        "label": "mapping(address => struct ICohortStructs.WithdrawRequest[])",
        "numberOfBytes": "32",
        "value": "t_array(t_struct(WithdrawRequest)3301_storage)dyn_storage"
      },
      "t_mapping(t_address,t_bool)": {
        "encoding": "mapping",
        "key": "t_address",
        "label": "mapping(address => bool)",
        "numberOfBytes": "32",
        "value": "t_bool"
      },
      "t_mapping(t_address,t_struct(BuilderStreamInfo)3290_storage)": {
        "encoding": "mapping",
        "key": "t_address",
        "label": "mapping(address => struct ICohortStructs.BuilderStreamInfo)",
        "numberOfBytes": "32",
        "value": "t_struct(BuilderStreamInfo)3290_storage"
      },
      "t_mapping(t_address,t_uint256)": {
        "encoding": "mapping",
        "key": "t_address",
        "label": "mapping(address => uint256)",
        "numberOfBytes": "32",
        "value": "t_uint256"
      },
      "t_mapping(t_bytes32,t_struct(RoleData)65_storage)": {
        "encoding": "mapping",
        "key": "t_bytes32",
        "label": "mapping(bytes32 => struct AccessControl.RoleData)",
        "numberOfBytes": "32",
        "value": "t_struct(RoleData)65_storage"
      },
      "t_string_storage": {
        "encoding": "bytes",
        "label": "string",
        "numberOfBytes": "32"
      },
      "t_struct(BuilderStreamInfo)3290_storage": {
        "encoding": "inplace",
        "label": "struct ICohortStructs.BuilderStreamInfo",
        "members": [
          {
            "astId": 3287,
            "contract": "contracts/Cohort.sol:Cohort",
            "label": "cap",
            "offset": 0,
            "slot": "0",
            "type": "t_uint256"
          },
          {
            "astId": 3289,
            "contract": "contracts/Cohort.sol:Cohort",
            "label": "last",
            "offset": 0,
            "slot": "1",
            "type": "t_uint256"
          }
        ],
        "numberOfBytes": "64"
      },
      "t_struct(RoleData)65_storage": {
        "encoding": "inplace",
        "label": "struct AccessControl.RoleData",
        "members": [
          {
            "astId": 62,
            "contract": "contracts/Cohort.sol:Cohort",
            "label": "members",
            "offset": 0,
            "slot": "0",
            "type": "t_mapping(t_address,t_bool)"
          },
          {
            "astId": 64,
            "contract": "contracts/Cohort.sol:Cohort",
            "label": "adminRole",
            "offset": 0,
            "slot": "1",
            "type": "t_bytes32"
          }
        ],
        "numberOfBytes": "64"
      },
      "t_struct(WithdrawRequest)3301_storage": {
        "encoding": "inplace",
        "label": "struct ICohortStructs.WithdrawRequest",
        "members": [
          {
            "astId": 3292,
            "contract": "contracts/Cohort.sol:Cohort",
            "label": "amount",
            "offset": 0,
            "slot": "0",
            "type": "t_uint256"
          },
          {
            "astId": 3294,
            "contract": "contracts/Cohort.sol:Cohort",
            "label": "reason",
            "offset": 0,
            "slot": "1",
            "type": "t_string_storage"
          },
          {
            "astId": 3296,
            "contract": "contracts/Cohort.sol:Cohort",
            "label": "approved",
            "offset": 0,
            "slot": "2",
            "type": "t_bool"
          },
          {
            "astId": 3298,
            "contract": "contracts/Cohort.sol:Cohort",
            "label": "completed",
            "offset": 1,
            "slot": "2",
            "type": "t_bool"
          },
          {
            "astId": 3300,
            "contract": "contracts/Cohort.sol:Cohort",
            "label": "requestTime",
            "offset": 0,
            "slot": "3",
            "type": "t_uint256"
          }
        ],
        "numberOfBytes": "128"
      },
      "t_uint256": {
        "encoding": "inplace",
        "label": "uint256",
        "numberOfBytes": "32"
      }
    }
  }
}