{
  "address": "0xc216d687B2Ca8c97c1840B4f4C209a15322CE59f",
  "abi": [
    {
      "inputs": [
        {
          "internalType": "address",
          "name": "_primaryAdmin",
          "type": "address"
        },
        {
          "internalType": "address",
          "name": "_tokenAddress",
          "type": "address"
        },
        {
          "internalType": "string",
          "name": "_name",
          "type": "string"
        },
        {
          "internalType": "string",
          "name": "_description",
          "type": "string"
        },
        {
          "internalType": "uint256",
          "name": "_cycle",
          "type": "uint256"
        },
        {
          "internalType": "address[]",
          "name": "_builders",
          "type": "address[]"
        },
        {
          "internalType": "uint256[]",
          "name": "_caps",
          "type": "uint256[]"
        }
      ],
      "stateMutability": "nonpayable",
      "type": "constructor"
    },
    {
      "inputs": [],
      "name": "AccessDenied",
      "type": "error"
    },
    {
      "inputs": [
        {
          "internalType": "uint256",
          "name": "provided",
          "type": "uint256"
        },
        {
          "internalType": "uint256",
          "name": "minimum",
          "type": "uint256"
        }
      ],
      "name": "BelowMinimumCap",
      "type": "error"
    },
    {
      "inputs": [],
      "name": "BuilderAlreadyExists",
      "type": "error"
    },
    {
      "inputs": [],
      "name": "ContractIsLocked",
      "type": "error"
    },
    {
      "inputs": [],
      "name": "EtherSendingFailed",
      "type": "error"
    },
    {
      "inputs": [
        {
          "internalType": "uint256",
          "name": "requested",
          "type": "uint256"
        },
        {
          "internalType": "uint256",
          "name": "unlocked",
          "type": "uint256"
        }
      ],
      "name": "InsufficientFundsInContract",
      "type": "error"
    },
    {
      "inputs": [
        {
          "internalType": "uint256",
          "name": "requested",
          "type": "uint256"
        },
        {
          "internalType": "uint256",
          "name": "unlocked",
          "type": "uint256"
        }
      ],
      "name": "InsufficientInStream",
      "type": "error"
    },
    {
      "inputs": [],
      "name": "InvalidBuilderAddress",
      "type": "error"
    },
    {
      "inputs": [],
      "name": "InvalidNewAdminAddress",
      "type": "error"
    },
    {
      "inputs": [],
      "name": "LengthsMismatch",
      "type": "error"
    },
    {
      "inputs": [],
      "name": "MaxBuildersReached",
      "type": "error"
    },
    {
      "inputs": [
        {
          "internalType": "address",
          "name": "builder",
          "type": "address"
        }
      ],
      "name": "NoActiveStreamForBuilder",
      "type": "error"
    },
    {
      "inputs": [],
      "name": "NoValueSent",
      "type": "error"
    },
    {
      "inputs": [],
      "name": "NotAuthorized",
      "type": "error"
    },
    {
      "inputs": [],
      "name": "PendingWithdrawRequestExists",
      "type": "error"
    },
    {
      "inputs": [],
      "name": "WithdrawRequestAlreadyCompleted",
      "type": "error"
    },
    {
      "inputs": [],
      "name": "WithdrawRequestNotApproved",
      "type": "error"
    },
    {
      "inputs": [],
      "name": "WithdrawRequestNotFound",
      "type": "error"
    },
    {
      "anonymous": false,
      "inputs": [
        {
          "indexed": true,
          "internalType": "address",
          "name": "to",
          "type": "address"
        },
        {
          "indexed": false,
          "internalType": "uint256",
          "name": "amount",
          "type": "uint256"
        }
      ],
      "name": "AddBuilder",
      "type": "event"
    },
    {
      "anonymous": false,
      "inputs": [
        {
          "indexed": true,
          "internalType": "address",
          "name": "to",
          "type": "address"
        }
      ],
      "name": "AdminAdded",
      "type": "event"
    },
    {
      "anonymous": false,
      "inputs": [
        {
          "indexed": true,
          "internalType": "address",
          "name": "to",
          "type": "address"
        }
      ],
      "name": "AdminRemoved",
      "type": "event"
    },
    {
      "anonymous": false,
      "inputs": [
        {
          "indexed": true,
          "internalType": "address",
          "name": "builder",
          "type": "address"
        },
        {
          "indexed": false,
          "internalType": "bool",
          "name": "requiresApproval",
          "type": "bool"
        }
      ],
      "name": "ApprovalRequirementChanged",
      "type": "event"
    },
    {
      "anonymous": false,
      "inputs": [
        {
          "indexed": false,
          "internalType": "uint256",
          "name": "amount",
          "type": "uint256"
        }
      ],
      "name": "ContractDrained",
      "type": "event"
    },
    {
      "anonymous": false,
      "inputs": [
        {
          "indexed": false,
          "internalType": "bool",
          "name": "locked",
          "type": "bool"
        }
      ],
      "name": "ContractLocked",
      "type": "event"
    },
    {
      "anonymous": false,
      "inputs": [
        {
          "indexed": true,
          "internalType": "address",
          "name": "token",
          "type": "address"
        },
        {
          "indexed": true,
          "internalType": "address",
          "name": "from",
          "type": "address"
        },
        {
          "indexed": false,
          "internalType": "uint256",
          "name": "amount",
          "type": "uint256"
        }
      ],
      "name": "ERC20FundsReceived",
      "type": "event"
    },
    {
      "anonymous": false,
      "inputs": [
        {
          "indexed": true,
          "internalType": "address",
          "name": "from",
          "type": "address"
        },
        {
          "indexed": false,
          "internalType": "uint256",
          "name": "amount",
          "type": "uint256"
        }
      ],
      "name": "FundsReceived",
      "type": "event"
    },
    {
      "anonymous": false,
      "inputs": [
        {
          "indexed": true,
          "internalType": "address",
          "name": "newAdmin",
          "type": "address"
        }
      ],
      "name": "PrimaryAdminTransferred",
      "type": "event"
    },
    {
      "anonymous": false,
      "inputs": [
        {
          "indexed": true,
          "internalType": "bytes32",
          "name": "role",
          "type": "bytes32"
        },
        {
          "indexed": true,
          "internalType": "bytes32",
          "name": "previousAdminRole",
          "type": "bytes32"
        },
        {
          "indexed": true,
          "internalType": "bytes32",
          "name": "newAdminRole",
          "type": "bytes32"
        }
      ],
      "name": "RoleAdminChanged",
      "type": "event"
    },
    {
      "anonymous": false,
      "inputs": [
        {
          "indexed": true,
          "internalType": "bytes32",
          "name": "role",
          "type": "bytes32"
        },
        {
          "indexed": true,
          "internalType": "address",
          "name": "account",
          "type": "address"
        },
        {
          "indexed": true,
          "internalType": "address",
          "name": "sender",
          "type": "address"
        }
      ],
      "name": "RoleGranted",
      "type": "event"
    },
    {
      "anonymous": false,
      "inputs": [
        {
          "indexed": true,
          "internalType": "bytes32",
          "name": "role",
          "type": "bytes32"
        },
        {
          "indexed": true,
          "internalType": "address",
          "name": "account",
          "type": "address"
        },
        {
          "indexed": true,
          "internalType": "address",
          "name": "sender",
          "type": "address"
        }
      ],
      "name": "RoleRevoked",
      "type": "event"
    },
    {
      "anonymous": false,
      "inputs": [
        {
          "indexed": true,
          "internalType": "address",
          "name": "to",
          "type": "address"
        },
        {
          "indexed": false,
          "internalType": "uint256",
          "name": "amount",
          "type": "uint256"
        }
      ],
      "name": "UpdateBuilder",
      "type": "event"
    },
    {
      "anonymous": false,
      "inputs": [
        {
          "indexed": true,
          "internalType": "address",
          "name": "to",
          "type": "address"
        },
        {
          "indexed": false,
          "internalType": "uint256",
          "name": "amount",
          "type": "uint256"
        },
        {
          "indexed": false,
          "internalType": "string",
          "name": "reason",
          "type": "string"
        }
      ],
      "name": "Withdraw",
      "type": "event"
    },
    {
      "anonymous": false,
      "inputs": [
        {
          "indexed": true,
          "internalType": "address",
          "name": "builder",
          "type": "address"
        },
        {
          "indexed": false,
          "internalType": "uint256",
          "name": "requestId",
          "type": "uint256"
        }
      ],
      "name": "WithdrawApproved",
      "type": "event"
    },
    {
      "anonymous": false,
      "inputs": [
        {
          "indexed": true,
          "internalType": "address",
          "name": "builder",
          "type": "address"
        },
        {
          "indexed": false,
          "internalType": "uint256",
          "name": "requestId",
          "type": "uint256"
        },
        {
          "indexed": false,
          "internalType": "uint256",
          "name": "amount",
          "type": "uint256"
        }
      ],
      "name": "WithdrawCompleted",
      "type": "event"
    },
    {
      "anonymous": false,
      "inputs": [
        {
          "indexed": true,
          "internalType": "address",
          "name": "builder",
          "type": "address"
        },
        {
          "indexed": false,
          "internalType": "uint256",
          "name": "requestId",
          "type": "uint256"
        }
      ],
      "name": "WithdrawRejected",
      "type": "event"
    },
    {
      "anonymous": false,
      "inputs": [
        {
          "indexed": true,
          "internalType": "address",
          "name": "builder",
          "type": "address"
        },
        {
          "indexed": false,
          "internalType": "uint256",
          "name": "requestId",
          "type": "uint256"
        },
        {
          "indexed": false,
          "internalType": "uint256",
          "name": "amount",
          "type": "uint256"
        },
        {
          "indexed": false,
          "internalType": "string",
          "name": "reason",
          "type": "string"
        }
      ],
      "name": "WithdrawRequested",
      "type": "event"
    },
    {
      "inputs": [],
      "name": "DEFAULT_ADMIN_ROLE",
      "outputs": [
        {
          "internalType": "bytes32",
          "name": "",
          "type": "bytes32"
        }
      ],
      "stateMutability": "view",
      "type": "function"
    },
    {
      "inputs": [
        {
          "internalType": "uint256",
          "name": "",
          "type": "uint256"
        }
      ],
      "name": "activeBuilders",
      "outputs": [
        {
          "internalType": "address",
          "name": "",
          "type": "address"
        }
      ],
      "stateMutability": "view",
      "type": "function"
    },
    {
      "inputs": [
        {
          "internalType": "address[]",
          "name": "_builders",
          "type": "address[]"
        },
        {
          "internalType": "uint256[]",
          "name": "_caps",
          "type": "uint256[]"
        }
      ],
      "name": "addBatch",
      "outputs": [],
      "stateMutability": "nonpayable",
      "type": "function"
    },
    {
      "inputs": [
        {
          "internalType": "address payable",
          "name": "_builder",
          "type": "address"
        },
        {
          "internalType": "uint256",
          "name": "_cap",
          "type": "uint256"
        }
      ],
      "name": "addBuilderStream",
      "outputs": [],
      "stateMutability": "nonpayable",
      "type": "function"
    },
    {
      "inputs": [
        {
          "internalType": "address[]",
          "name": "_builders",
          "type": "address[]"
        }
      ],
      "name": "allBuildersData",
      "outputs": [
        {
          "components": [
            {
              "internalType": "uint256",
              "name": "cap",
              "type": "uint256"
            },
            {
              "internalType": "uint256",
              "name": "last",
              "type": "uint256"
            }
          ],
          "internalType": "struct Cohort.BuilderStreamInfo[]",
          "name": "",
          "type": "tuple[]"
        }
      ],
      "stateMutability": "view",
      "type": "function"
    },
    {
      "inputs": [
        {
          "internalType": "address",
          "name": "_builder",
          "type": "address"
        },
        {
          "internalType": "uint256",
          "name": "_requestId",
          "type": "uint256"
        }
      ],
      "name": "approveWithdraw",
      "outputs": [],
      "stateMutability": "nonpayable",
      "type": "function"
    },
    {
      "inputs": [
        {
          "internalType": "address",
          "name": "",
          "type": "address"
        }
      ],
      "name": "builderIndex",
      "outputs": [
        {
          "internalType": "uint256",
          "name": "",
          "type": "uint256"
        }
      ],
      "stateMutability": "view",
      "type": "function"
    },
    {
      "inputs": [
        {
          "internalType": "uint256",
          "name": "_requestId",
          "type": "uint256"
        }
      ],
      "name": "completeWithdraw",
      "outputs": [],
      "stateMutability": "nonpayable",
      "type": "function"
    },
    {
      "inputs": [],
      "name": "cycle",
      "outputs": [
        {
          "internalType": "uint256",
          "name": "",
          "type": "uint256"
        }
      ],
      "stateMutability": "view",
      "type": "function"
    },
    {
      "inputs": [],
      "name": "description",
      "outputs": [
        {
          "internalType": "string",
          "name": "",
          "type": "string"
        }
      ],
      "stateMutability": "view",
      "type": "function"
    },
    {
      "inputs": [
        {
          "internalType": "address",
          "name": "_token",
          "type": "address"
        }
      ],
      "name": "drainContract",
      "outputs": [],
      "stateMutability": "nonpayable",
      "type": "function"
    },
    {
      "inputs": [
        {
          "internalType": "uint256",
          "name": "_amount",
          "type": "uint256"
        }
      ],
      "name": "fundContract",
      "outputs": [],
      "stateMutability": "payable",
      "type": "function"
    },
    {
      "inputs": [
        {
          "internalType": "bytes32",
          "name": "role",
          "type": "bytes32"
        }
      ],
      "name": "getRoleAdmin",
      "outputs": [
        {
          "internalType": "bytes32",
          "name": "",
          "type": "bytes32"
        }
      ],
      "stateMutability": "view",
      "type": "function"
    },
    {
      "inputs": [
        {
          "internalType": "bytes32",
          "name": "role",
          "type": "bytes32"
        },
        {
          "internalType": "address",
          "name": "account",
          "type": "address"
        }
      ],
      "name": "grantRole",
      "outputs": [],
      "stateMutability": "nonpayable",
      "type": "function"
    },
    {
      "inputs": [
        {
          "internalType": "bytes32",
          "name": "role",
          "type": "bytes32"
        },
        {
          "internalType": "address",
          "name": "account",
          "type": "address"
        }
      ],
      "name": "hasRole",
      "outputs": [
        {
          "internalType": "bool",
          "name": "",
          "type": "bool"
        }
      ],
      "stateMutability": "view",
      "type": "function"
    },
    {
      "inputs": [
        {
          "internalType": "address",
          "name": "",
          "type": "address"
        }
      ],
      "name": "isAdmin",
      "outputs": [
        {
          "internalType": "bool",
          "name": "",
          "type": "bool"
        }
      ],
      "stateMutability": "view",
      "type": "function"
    },
    {
      "inputs": [],
      "name": "isERC20",
      "outputs": [
        {
          "internalType": "bool",
          "name": "",
          "type": "bool"
        }
      ],
      "stateMutability": "view",
      "type": "function"
    },
    {
      "inputs": [],
      "name": "locked",
      "outputs": [
        {
          "internalType": "bool",
          "name": "",
          "type": "bool"
        }
      ],
      "stateMutability": "view",
      "type": "function"
    },
    {
      "inputs": [
        {
          "internalType": "address",
          "name": "adminAddress",
          "type": "address"
        },
        {
          "internalType": "bool",
          "name": "shouldGrant",
          "type": "bool"
        }
      ],
      "name": "modifyAdminRole",
      "outputs": [],
      "stateMutability": "nonpayable",
      "type": "function"
    },
    {
      "inputs": [],
      "name": "name",
      "outputs": [
        {
          "internalType": "string",
          "name": "",
          "type": "string"
        }
      ],
      "stateMutability": "view",
      "type": "function"
    },
    {
      "inputs": [],
      "name": "primaryAdmin",
      "outputs": [
        {
          "internalType": "address",
          "name": "",
          "type": "address"
        }
      ],
      "stateMutability": "view",
      "type": "function"
    },
    {
      "inputs": [
        {
          "internalType": "address",
          "name": "_builder",
          "type": "address"
        },
        {
          "internalType": "uint256",
          "name": "_requestId",
          "type": "uint256"
        }
      ],
      "name": "rejectWithdraw",
      "outputs": [],
      "stateMutability": "nonpayable",
      "type": "function"
    },
    {
      "inputs": [
        {
          "internalType": "address",
          "name": "_builder",
          "type": "address"
        }
      ],
      "name": "removeBuilderStream",
      "outputs": [],
      "stateMutability": "nonpayable",
      "type": "function"
    },
    {
      "inputs": [
        {
          "internalType": "bytes32",
          "name": "role",
          "type": "bytes32"
        },
        {
          "internalType": "address",
          "name": "account",
          "type": "address"
        }
      ],
      "name": "renounceRole",
      "outputs": [],
      "stateMutability": "nonpayable",
      "type": "function"
    },
    {
      "inputs": [
        {
          "internalType": "address",
          "name": "",
          "type": "address"
        }
      ],
      "name": "requiresApproval",
      "outputs": [
        {
          "internalType": "bool",
          "name": "",
          "type": "bool"
        }
      ],
      "stateMutability": "view",
      "type": "function"
    },
    {
      "inputs": [
        {
          "internalType": "bytes32",
          "name": "role",
          "type": "bytes32"
        },
        {
          "internalType": "address",
          "name": "account",
          "type": "address"
        }
      ],
      "name": "revokeRole",
      "outputs": [],
      "stateMutability": "nonpayable",
      "type": "function"
    },
    {
      "inputs": [
        {
          "internalType": "address",
          "name": "_builder",
          "type": "address"
        },
        {
          "internalType": "bool",
          "name": "_requiresApproval",
          "type": "bool"
        }
      ],
      "name": "setBuilderApprovalRequirement",
      "outputs": [],
      "stateMutability": "nonpayable",
      "type": "function"
    },
    {
      "inputs": [
        {
          "internalType": "uint256",
          "name": "_amount",
          "type": "uint256"
        },
        {
          "internalType": "string",
          "name": "_reason",
          "type": "string"
        }
      ],
      "name": "streamWithdraw",
      "outputs": [],
      "stateMutability": "nonpayable",
      "type": "function"
    },
    {
      "inputs": [
        {
          "internalType": "address",
          "name": "",
          "type": "address"
        }
      ],
      "name": "streamingBuilders",
      "outputs": [
        {
          "internalType": "uint256",
          "name": "cap",
          "type": "uint256"
        },
        {
          "internalType": "uint256",
          "name": "last",
          "type": "uint256"
        }
      ],
      "stateMutability": "view",
      "type": "function"
    },
    {
      "inputs": [
        {
          "internalType": "bytes4",
          "name": "interfaceId",
          "type": "bytes4"
        }
      ],
      "name": "supportsInterface",
      "outputs": [
        {
          "internalType": "bool",
          "name": "",
          "type": "bool"
        }
      ],
      "stateMutability": "view",
      "type": "function"
    },
    {
      "inputs": [
        {
          "internalType": "bool",
          "name": "_enable",
          "type": "bool"
        }
      ],
      "name": "toggleLock",
      "outputs": [],
      "stateMutability": "nonpayable",
      "type": "function"
    },
    {
      "inputs": [],
      "name": "tokenAddress",
      "outputs": [
        {
          "internalType": "address",
          "name": "",
          "type": "address"
        }
      ],
      "stateMutability": "view",
      "type": "function"
    },
    {
      "inputs": [
        {
          "internalType": "address",
          "name": "newPrimaryAdmin",
          "type": "address"
        }
      ],
      "name": "transferPrimaryAdmin",
      "outputs": [],
      "stateMutability": "nonpayable",
      "type": "function"
    },
    {
      "inputs": [
        {
          "internalType": "address",
          "name": "_builder",
          "type": "address"
        }
      ],
      "name": "unlockedBuilderAmount",
      "outputs": [
        {
          "internalType": "uint256",
          "name": "",
          "type": "uint256"
        }
      ],
      "stateMutability": "view",
      "type": "function"
    },
    {
      "inputs": [
        {
          "internalType": "address payable",
          "name": "_builder",
          "type": "address"
        },
        {
          "internalType": "uint256",
          "name": "_newCap",
          "type": "uint256"
        }
      ],
      "name": "updateBuilderStreamCap",
      "outputs": [],
      "stateMutability": "nonpayable",
      "type": "function"
    },
    {
      "inputs": [
        {
          "internalType": "address",
          "name": "",
          "type": "address"
        },
        {
          "internalType": "uint256",
          "name": "",
          "type": "uint256"
        }
      ],
      "name": "withdrawRequests",
      "outputs": [
        {
          "internalType": "uint256",
          "name": "amount",
          "type": "uint256"
        },
        {
          "internalType": "string",
          "name": "reason",
          "type": "string"
        },
        {
          "internalType": "bool",
          "name": "approved",
          "type": "bool"
        },
        {
          "internalType": "bool",
          "name": "completed",
          "type": "bool"
        },
        {
          "internalType": "uint256",
          "name": "requestTime",
          "type": "uint256"
        }
      ],
      "stateMutability": "view",
      "type": "function"
    },
    {
      "stateMutability": "payable",
      "type": "receive"
    }
  ],
  "transactionHash": "0x1d9abb780fd6ac9ecd09bc5872afec40e43ae0e643d8a8ea66bb721881611385",
  "args": [
    "0xa8DF02c5607100Eb108B5C39dCdD8c2aE44185Df",
    "0x0000000000000000000000000000000000000000",
    "Cohort",
    "Cohort contract",
    2592000,
    [],
    []
  ],
  "numDeployments": 1,
  "solcInputHash": "30faa23b7ffcc1660dd426ac6c1911c1",
  "bytecode": "0x60806040523480156200001157600080fd5b50604051620039723803806200397283398101604081905262000034916200072f565b600180556200004560008862000352565b6001600160a01b0387166000818152600d60205260409020805460ff19166001179055600780546001600160a01b03191690911790556004620000898682620008a7565b506005620000988582620008a7565b5060028390556001600160a01b03861615620000d9576003805460ff19166001179055600680546001600160a01b0388166001600160a01b03199091161790555b8151156200034557815160198110620001055760405163104e7cef60e31b815260040160405180910390fd5b81518114620001275760405163586cb9e160e01b815260040160405180910390fd5b60005b8181101562000342576200017d8482815181106200014c576200014c62000973565b602002602001015184838151811062000169576200016962000973565b6020026020010151620003db60201b60201c565b60405180604001604052808483815181106200019d576200019d62000973565b602002602001015181526020018642620001b8919062000989565b815250600a6000868481518110620001d457620001d462000973565b60200260200101516001600160a01b03166001600160a01b031681526020019081526020016000206000820151816000015560208201518160010155905050600c8482815181106200022a576200022a62000973565b60209081029190910181015182546001808201855560009485529290932090920180546001600160a01b0319166001600160a01b0390931692909217909155600c5462000278919062000989565b600b600086848151811062000291576200029162000973565b60200260200101516001600160a01b03166001600160a01b0316815260200190815260200160002081905550838181518110620002d257620002d262000973565b60200260200101516001600160a01b03167f49707f6097e3d8b2d861adf67aadfb41a45746f9d46701065ed09ff12f9e41c384838151811062000319576200031962000973565b60200260200101516040516200033191815260200190565b60405180910390a26001016200012a565b50505b50505050505050620009ab565b6200035e82826200050d565b620003d7576000828152602081815260408083206001600160a01b03851684529091529020805460ff19166001179055620003963390565b6001600160a01b0316816001600160a01b0316837f2f8788117e7eff1d82e926ec794901d17c78024a50270940304540a733656f0d60405160405180910390a45b5050565b6509184e72a00081108015620003f4575060035460ff16155b15620004275760405163c281dd3b60e01b8152600481018290526509184e72a00060248201526044015b60405180910390fd5b670de0b6b3a76400008110801562000441575060035460ff165b15620004725760405163c281dd3b60e01b815260048101829052670de0b6b3a764000060248201526044016200041e565b6001600160a01b0382166200049a5760405163094d784960e21b815260040160405180910390fd5b6001600160a01b0382166000908152600d602052604090205460ff1615620004d55760405163094d784960e21b815260040160405180910390fd5b6001600160a01b0382166000908152600a602052604090205415620003d757604051637fe8efbb60e01b815260040160405180910390fd5b6000828152602081815260408083206001600160a01b038516845290915290205460ff165b92915050565b80516001600160a01b03811681146200055057600080fd5b919050565b634e487b7160e01b600052604160045260246000fd5b604051601f8201601f191681016001600160401b038111828210171562000596576200059662000555565b604052919050565b600082601f830112620005b057600080fd5b81516001600160401b03811115620005cc57620005cc62000555565b6020620005e2601f8301601f191682016200056b565b8281528582848701011115620005f757600080fd5b60005b8381101562000617578581018301518282018401528201620005fa565b506000928101909101919091529392505050565b60006001600160401b0382111562000647576200064762000555565b5060051b60200190565b600082601f8301126200066357600080fd5b815160206200067c62000676836200062b565b6200056b565b82815260059290921b840181019181810190868411156200069c57600080fd5b8286015b84811015620006c257620006b48162000538565b8352918301918301620006a0565b509695505050505050565b600082601f830112620006df57600080fd5b81516020620006f262000676836200062b565b82815260059290921b840181019181810190868411156200071257600080fd5b8286015b84811015620006c2578051835291830191830162000716565b600080600080600080600060e0888a0312156200074b57600080fd5b620007568862000538565b9650620007666020890162000538565b60408901519096506001600160401b03808211156200078457600080fd5b620007928b838c016200059e565b965060608a0151915080821115620007a957600080fd5b620007b78b838c016200059e565b955060808a0151945060a08a0151915080821115620007d557600080fd5b620007e38b838c0162000651565b935060c08a0151915080821115620007fa57600080fd5b50620008098a828b01620006cd565b91505092959891949750929550565b600181811c908216806200082d57607f821691505b6020821081036200084e57634e487b7160e01b600052602260045260246000fd5b50919050565b601f821115620008a257600081815260208120601f850160051c810160208610156200087d5750805b601f850160051c820191505b818110156200089e5782815560010162000889565b5050505b505050565b81516001600160401b03811115620008c357620008c362000555565b620008db81620008d4845462000818565b8462000854565b602080601f831160018114620009135760008415620008fa5750858301515b600019600386901b1c1916600185901b1785556200089e565b600085815260208120601f198616915b82811015620009445788860151825594840194600190910190840162000923565b5085821015620009635787850151600019600388901b60f8161c191681555b5050505050600190811b01905550565b634e487b7160e01b600052603260045260246000fd5b818103818111156200053257634e487b7160e01b600052601160045260246000fd5b612fb780620009bb6000396000f3fe6080604052600436106102125760003560e01c80636d6ca319116101185780639de1b23d116100a0578063a78393341161006f578063a78393341461068e578063a8397ddc146106ae578063af402532146106ce578063cf309012146106ee578063d547741f1461070d57600080fd5b80639de1b23d1461060c578063a217fddf1461062c578063a46495ac14610641578063a4adcb611461066e57600080fd5b80638216d506116100e75780638216d5061461055457806382c2aff7146105745780638c0a2d561461059457806391d14854146105b45780639d76ea58146105d457600080fd5b80636d6ca319146104c15780637284e416146104f25780637c6f1b591461050757806380c9b2f61461053457600080fd5b806329d36c461161019b57806336568abe1161016a57806336568abe14610402578063377c9815146104225780634e1ca1201461046b5780636190c9d51461048b57806365cd2a4e146104a157600080fd5b806329d36c46146103955780632eb67f53146103b55780632f2ff15d146103cf5780633519a2f8146103ef57600080fd5b80630d12cc68116101e25780630d12cc68146102c7578063116e72db146102e75780632087ed5c14610307578063248a9ca31461032757806324d7806c1461036557600080fd5b806208359d1461021e57806301ffc9a71461024057806306fdde0314610275578063070092d41461029757600080fd5b3661021957005b600080fd5b34801561022a57600080fd5b5061023e61023936600461271a565b61072d565b005b34801561024c57600080fd5b5061026061025b366004612753565b6107ff565b60405190151581526020015b60405180910390f35b34801561028157600080fd5b5061028a610836565b60405161026c91906127cd565b3480156102a357600080fd5b506102606102b23660046127e0565b60096020526000908152604090205460ff1681565b3480156102d357600080fd5b5061023e6102e23660046128d3565b6108c4565b3480156102f357600080fd5b5061023e61030236600461271a565b610985565b34801561031357600080fd5b5061023e610322366004612995565b610ac7565b34801561033357600080fd5b50610357610342366004612995565b60009081526020819052604090206001015490565b60405190815260200161026c565b34801561037157600080fd5b506102606103803660046127e0565b600d6020526000908152604090205460ff1681565b3480156103a157600080fd5b5061023e6103b03660046129ae565b610ccb565b3480156103c157600080fd5b506003546102609060ff1681565b3480156103db57600080fd5b5061023e6103ea3660046129da565b610de3565b61023e6103fd366004612995565b610e0d565b34801561040e57600080fd5b5061023e61041d3660046129da565b610eef565b34801561042e57600080fd5b5061045661043d3660046127e0565b600a602052600090815260409020805460019091015482565b6040805192835260208301919091520161026c565b34801561047757600080fd5b5061023e6104863660046129ae565b610f69565b34801561049757600080fd5b5061035760025481565b3480156104ad57600080fd5b5061023e6104bc3660046129ff565b61107f565b3480156104cd57600080fd5b506104e16104dc3660046129ae565b6110fb565b60405161026c959493929190612a1c565b3480156104fe57600080fd5b5061028a6111dd565b34801561051357600080fd5b50610527610522366004612a52565b6111ea565b60405161026c9190612ac7565b34801561054057600080fd5b5061035761054f3660046127e0565b6112e9565b34801561056057600080fd5b5061023e61056f3660046129ae565b6113aa565b34801561058057600080fd5b5061023e61058f3660046129ae565b611515565b3480156105a057600080fd5b5061023e6105af3660046127e0565b61165b565b3480156105c057600080fd5b506102606105cf3660046129da565b611719565b3480156105e057600080fd5b506006546105f4906001600160a01b031681565b6040516001600160a01b03909116815260200161026c565b34801561061857600080fd5b506007546105f4906001600160a01b031681565b34801561063857600080fd5b50610357600081565b34801561064d57600080fd5b5061035761065c3660046127e0565b600b6020526000908152604090205481565b34801561067a57600080fd5b5061023e6106893660046127e0565b611742565b34801561069a57600080fd5b506105f46106a9366004612995565b61191f565b3480156106ba57600080fd5b5061023e6106c9366004612b16565b611949565b3480156106da57600080fd5b5061023e6106e93660046127e0565b611a47565b3480156106fa57600080fd5b5060035461026090610100900460ff1681565b34801561071957600080fd5b5061023e6107283660046129da565b611beb565b610738600033611719565b61075557604051634ca8886760e01b815260040160405180910390fd5b6001600160a01b0382166000908152600a602052604081205483910361079e5760405163f4c8fba360e01b81526001600160a01b03821660048201526024015b60405180910390fd5b6001600160a01b038316600081815260096020908152604091829020805460ff191686151590811790915591519182527f70d2c92da609a3045e6b2a21e9d4cd5dc02f15a3830961912b03f5b236b78c8b91015b60405180910390a2505050565b60006001600160e01b03198216637965db0b60e01b148061083057506301ffc9a760e01b6001600160e01b03198316145b92915050565b6004805461084390612bb5565b80601f016020809104026020016040519081016040528092919081815260200182805461086f90612bb5565b80156108bc5780601f10610891576101008083540402835291602001916108bc565b820191906000526020600020905b81548152906001019060200180831161089f57829003601f168201915b505050505081565b6108cf600033611719565b6108ec57604051634ca8886760e01b815260040160405180910390fd5b81516019811061090f5760405163104e7cef60e31b815260040160405180910390fd5b815181146109305760405163586cb9e160e01b815260040160405180910390fd5b60005b8181101561097f5761097784828151811061095057610950612be9565b602002602001015184838151811061096a5761096a612be9565b6020026020010151611515565b600101610933565b50505050565b610990600033611719565b6109ad57604051634ca8886760e01b815260040160405180910390fd5b8015610a42576001600160a01b0382166000908152600a6020526040902054156109ea5760405163094d784960e21b815260040160405180910390fd5b6109f5600083610de3565b6001600160a01b0382166000818152600d6020526040808220805460ff19166001179055517f44d6d25963f097ad14f29f06854a01f575648a1ef82f30e562ccd3889717e3399190a25050565b6007546001600160a01b0390811690831603610a7157604051634ca8886760e01b815260040160405180910390fd5b610a7c600083611beb565b6001600160a01b0382166000818152600d6020526040808220805460ff19169055517fa3b62bc36326052d97ea62d63c3d60308ed4c3ea8ac079dd8499f1e9c4f80c0f9190a25b5050565b336000818152600a60205260408120549003610b015760405163f4c8fba360e01b81526001600160a01b0382166004820152602401610795565b600260015403610b235760405162461bcd60e51b815260040161079590612bff565b6002600155600354610100900460ff1615610b515760405163af9e1b4360e01b815260040160405180910390fd5b336000908152600860205260409020548210610b8057604051632bb8b38560e11b815260040160405180910390fd5b336000908152600860205260408120805484908110610ba157610ba1612be9565b906000526020600020906004020190508060020160019054906101000a900460ff1615610be157604051635a4a8a4360e11b815260040160405180910390fd5b3360009081526009602052604090205460ff168015610c055750600281015460ff16155b15610c2357604051632b811a4760e11b815260040160405180910390fd5b8054610c2e90611c10565b60028101805461ff001916610100179055805460405133917f0502837c293951f8cf960d168bcedcf3e4531ffd7010af47fe48bbff7917d9b491610c7a91878252602082015260400190565b60405180910390a2805460405133917f485f1bb6524c663555797e00171a10f341656e59b02d6b557a0a38ba7d5d975191610cba91906001860190612c36565b60405180910390a250506001805550565b610cd6600033611719565b610cf357604051634ca8886760e01b815260040160405180910390fd5b6001600160a01b0382166000908152600860205260409020548110610d2b57604051632bb8b38560e11b815260040160405180910390fd5b6001600160a01b0382166000908152600860205260408120805483908110610d5557610d55612be9565b906000526020600020906004020190508060020160019054906101000a900460ff1615610d9557604051635a4a8a4360e11b815260040160405180910390fd5b60028101805461ffff19166101001790556040516001600160a01b038416907f019d1297aa228eef7dd79b31640282cbe91fbc09dc0cbf5000ca5abf72805989906107f29085815260200190565b600082815260208190526040902060010154610dfe81611e11565b610e088383611e1b565b505050565b60035460ff16610e705734600003610e38576040516327738acf60e21b815260040160405180910390fd5b60405134815233907f8e47b87b0ef542cdfa1659c551d88bad38aa7f452d2bbb349ab7530dfec8be8f9060200160405180910390a250565b80600003610e91576040516327738acf60e21b815260040160405180910390fd5b600654610ea9906001600160a01b0316333084611e9f565b60065460405182815233916001600160a01b0316907fa17c2a1269d65f89b5c5688ce949fa4a7f59d8fcb9bbbac872d27a142b2b49e79060200160405180910390a35b50565b6001600160a01b0381163314610f5f5760405162461bcd60e51b815260206004820152602f60248201527f416363657373436f6e74726f6c3a2063616e206f6e6c792072656e6f756e636560448201526e103937b632b9903337b91039b2b63360891b6064820152608401610795565b610ac38282611f0a565b610f74600033611719565b610f9157604051634ca8886760e01b815260040160405180910390fd5b6001600160a01b0382166000908152600860205260409020548110610fc957604051632bb8b38560e11b815260040160405180910390fd5b6001600160a01b0382166000908152600860205260408120805483908110610ff357610ff3612be9565b906000526020600020906004020190508060020160019054906101000a900460ff161561103357604051635a4a8a4360e11b815260040160405180910390fd5b60028101805460ff191660011790556040516001600160a01b038416907f6f856c863eba32b6aca7d24f96817572a1f48382957c3dc9e8d4741f38afd72e906107f29085815260200190565b61108a600033611719565b6110a757604051634ca8886760e01b815260040160405180910390fd5b600380548215156101000261ff00199091161790556040517fb08f70f6219c5c2ed5e08e7cf45080e4840fde880b27a0841faf45475cd02d2e906110f090831515815260200190565b60405180910390a150565b6008602052816000526040600020818154811061111757600080fd5b90600052602060002090600402016000915091505080600001549080600101805461114190612bb5565b80601f016020809104026020016040519081016040528092919081815260200182805461116d90612bb5565b80156111ba5780601f1061118f576101008083540402835291602001916111ba565b820191906000526020600020905b81548152906001019060200180831161119d57829003601f168201915b505050506002830154600390930154919260ff8082169361010090920416915085565b6005805461084390612bb5565b60608160008167ffffffffffffffff811115611208576112086127fd565b60405190808252806020026020018201604052801561124d57816020015b60408051808201909152600080825260208201528152602001906001900390816112265790505b50905060005b828110156112e057600086868381811061126f5761126f612be9565b905060200201602081019061128491906127e0565b6001600160a01b0381166000908152600a602090815260409182902082518084019093528054835260010154908201528451919250908490849081106112cc576112cc612be9565b602090810291909101015250600101611253565b50949350505050565b6001600160a01b0381166000908152600a60205260408120548290820361132e5760405163f4c8fba360e01b81526001600160a01b0382166004820152602401610795565b6001600160a01b0383166000908152600a6020908152604080832081518083019092528054825260010154918101829052919061136b9042612cdf565b905060025481101561139f5760025482516000919061138a9084612cf2565b6113949190612d09565b94506113a492505050565b505191505b50919050565b6113b5600033611719565b6113d257604051634ca8886760e01b815260040160405180910390fd5b6001600160a01b0382166000908152600a60205260408120548391036114165760405163f4c8fba360e01b81526001600160a01b0382166004820152602401610795565b6509184e72a0008210801561142e575060035460ff16155b1561145b5760405163c281dd3b60e01b8152600481018390526509184e72a0006024820152604401610795565b670de0b6b3a764000082108015611474575060035460ff165b156114a35760405163c281dd3b60e01b815260048101839052670de0b6b3a76400006024820152604401610795565b6001600160a01b0383166000908152600a602052604090208281556002546114cb9042612cdf565b60018201556040518381526001600160a01b038516907f95089b8d5f5b1df642061c1947fbec71ede04a0aaa13de4b3e1054031610a0d5906020015b60405180910390a250505050565b611520600033611719565b61153d57604051634ca8886760e01b815260040160405180910390fd5b600c546019116115605760405163104e7cef60e31b815260040160405180910390fd5b61156a8282611f6f565b6040518060400160405280828152602001600254426115899190612cdf565b90526001600160a01b0383166000818152600a60209081526040822084518155930151600193840155600c80548085018255918190527fdf6966c971051c3d54ec59162606531493a51404a002842f56009d7e5cf4a8c790910180546001600160a01b031916909217909155546116009190612cdf565b6001600160a01b0383166000818152600b6020526040908190209290925590517f49707f6097e3d8b2d861adf67aadfb41a45746f9d46701065ed09ff12f9e41c39061164f9084815260200190565b60405180910390a25050565b6007546001600160a01b031633146116865760405163ea8e4eb560e01b815260040160405180910390fd5b6001600160a01b0381166116ad5760405163b5aaecfd60e01b815260040160405180910390fd5b600780546001600160a01b0319166001600160a01b0383169081179091556116d790600090611f0a565b6116e2600082611e1b565b6040516001600160a01b038216907fb8121b611a666c4d7c03b96ba9dbc315332dc3f1aa77a22c0a1c162e55c5c32b90600090a250565b6000918252602082815260408084206001600160a01b0393909316845291905290205460ff1690565b61174d600033611719565b61176a57604051634ca8886760e01b815260040160405180910390fd5b60026001540361178c5760405162461bcd60e51b815260040161079590612bff565b600260015560006001600160a01b0382166118585750478015611852576007546040516000916001600160a01b03169083908381818185875af1925050503d80600081146117f6576040519150601f19603f3d011682016040523d82523d6000602084013e6117fb565b606091505b505090508061181d57604051637d6a86b760e11b815260040160405180910390fd5b6040518281527f217f10a82904d12e2798042bffcd3f5c3cab8f7ea5638a4c0b804a5d6487c8fa9060200160405180910390a1505b50611918565b6040516370a0823160e01b81523060048201526001600160a01b038316906370a0823190602401602060405180830381865afa15801561189c573d6000803e3d6000fd5b505050506040513d601f19601f820116820180604052508101906118c09190612d2b565b90508015611916576007546118e2906001600160a01b03848116911683612094565b6040518181527f217f10a82904d12e2798042bffcd3f5c3cab8f7ea5638a4c0b804a5d6487c8fa9060200160405180910390a15b505b5060018055565b600c818154811061192f57600080fd5b6000918252602090912001546001600160a01b0316905081565b336000818152600a602052604081205490036119835760405163f4c8fba360e01b81526001600160a01b0382166004820152602401610795565b6002600154036119a55760405162461bcd60e51b815260040161079590612bff565b6002600155600354610100900460ff16156119d35760405163af9e1b4360e01b815260040160405180910390fd5b3360009081526009602052604090205460ff16156119fa576119f583836120c4565b611a3e565b611a0383611c10565b336001600160a01b03167f485f1bb6524c663555797e00171a10f341656e59b02d6b557a0a38ba7d5d97518484604051610cba929190612d44565b50506001805550565b611a52600033611719565b611a6f57604051634ca8886760e01b815260040160405180910390fd5b6001600160a01b0381166000908152600a6020526040812054829103611ab35760405163f4c8fba360e01b81526001600160a01b0382166004820152602401610795565b6001600160a01b0382166000908152600b6020526040812054600c8054919291611adf90600190612cdf565b81548110611aef57611aef612be9565b6000918252602090912001546001600160a01b03908116915084168114611b5e5780600c8381548110611b2457611b24612be9565b600091825260208083209190910180546001600160a01b0319166001600160a01b039485161790559183168152600b909152604090208290555b600c805480611b6f57611b6f612d5d565b60008281526020808220600019908401810180546001600160a01b03191690559092019092556001600160a01b038616808352600a82526040808420848155600101849055600b835280842084905551928352917f95089b8d5f5b1df642061c1947fbec71ede04a0aaa13de4b3e1054031610a0d59101611507565b600082815260208190526040902060010154611c0681611e11565b610e088383611f0a565b6000611c1b336112e9565b905081811015611c485760405163ba49c84f60e01b81526004810183905260248101829052604401610795565b336000908152600a60205260408120600181015460025491929091429190611c709083612cdf565b905080831015611c7e578092505b60035460ff16611d24574786811015611cb457604051631508de4560e01b81526004810188905260248101829052604401610795565b604051600090339089908381818185875af1925050503d8060008114611cf6576040519150601f19603f3d011682016040523d82523d6000602084013e611cfb565b606091505b5050905080611d1d57604051637d6a86b760e11b815260040160405180910390fd5b5050611dd7565b6006546040516370a0823160e01b81523060048201526000916001600160a01b0316906370a0823190602401602060405180830381865afa158015611d6d573d6000803e3d6000fd5b505050506040513d601f19601f82011682018060405250810190611d919190612d2b565b905086811015611dbe57604051631508de4560e01b81526004810188905260248101829052604401610795565b600654611dd5906001600160a01b03163389612094565b505b8486611de38585612cdf565b611ded9190612cf2565b611df79190612d09565b611e019084612d73565b8460010181905550505050505050565b610eec813361229d565b611e258282611719565b610ac3576000828152602081815260408083206001600160a01b03851684529091529020805460ff19166001179055611e5b3390565b6001600160a01b0316816001600160a01b0316837f2f8788117e7eff1d82e926ec794901d17c78024a50270940304540a733656f0d60405160405180910390a45050565b6040516001600160a01b038085166024830152831660448201526064810182905261097f9085906323b872dd60e01b906084015b60408051601f198184030181529190526020810180516001600160e01b03166001600160e01b031990931692909217909152612301565b611f148282611719565b15610ac3576000828152602081815260408083206001600160a01b0385168085529252808320805460ff1916905551339285917ff6391f5c32d9c69d2a47ea670b442974b53935d1edc7fd64eb21e047a839171b9190a45050565b6509184e72a00081108015611f87575060035460ff16155b15611fb45760405163c281dd3b60e01b8152600481018290526509184e72a0006024820152604401610795565b670de0b6b3a764000081108015611fcd575060035460ff165b15611ffc5760405163c281dd3b60e01b815260048101829052670de0b6b3a76400006024820152604401610795565b6001600160a01b0382166120235760405163094d784960e21b815260040160405180910390fd5b6001600160a01b0382166000908152600d602052604090205460ff161561205d5760405163094d784960e21b815260040160405180910390fd5b6001600160a01b0382166000908152600a602052604090205415610ac357604051637fe8efbb60e01b815260040160405180910390fd5b6040516001600160a01b038316602482015260448101829052610e0890849063a9059cbb60e01b90606401611ed3565b33600081815260086020526040812054815b8181101561213c576001600160a01b038416600090815260086020526040902080548290811061210857612108612be9565b906000526020600020906004020160020160019054906101000a900460ff16612134576001925061213c565b6001016120d6565b50811561215c5760405163ef97f13b60e01b815260040160405180910390fd5b6000612167336112e9565b9050858110156121945760405163ba49c84f60e01b81526004810187905260248101829052604401610795565b336000908152600860209081526040808320815160a0810183528a81528084018a8152928101859052606081018590524260808201528154600181810184559286529390942084516004909402019283559051908201906121f59082612dd4565b50604082810151600283018054606086015115156101000261ff00199315159390931661ffff199091161791909117905560809092015160039091015533600090815260086020529081205461224d90600190612cdf565b9050336001600160a01b03167f0aed8180bd84f93fd8a307d9c534f2081366c2231daec597d51911c89fdae2a682898960405161228c93929190612e94565b60405180910390a250505050505050565b6122a78282611719565b610ac3576122bf816001600160a01b031660146123d3565b6122ca8360206123d3565b6040516020016122db929190612ebc565b60408051601f198184030181529082905262461bcd60e51b8252610795916004016127cd565b6000612356826040518060400160405280602081526020017f5361666545524332303a206c6f772d6c6576656c2063616c6c206661696c6564815250856001600160a01b03166125769092919063ffffffff16565b805190915015610e0857808060200190518101906123749190612f31565b610e085760405162461bcd60e51b815260206004820152602a60248201527f5361666545524332303a204552433230206f7065726174696f6e20646964206e6044820152691bdd081cdd58d8d9595960b21b6064820152608401610795565b606060006123e2836002612cf2565b6123ed906002612d73565b67ffffffffffffffff811115612405576124056127fd565b6040519080825280601f01601f19166020018201604052801561242f576020820181803683370190505b509050600360fc1b8160008151811061244a5761244a612be9565b60200101906001600160f81b031916908160001a905350600f60fb1b8160018151811061247957612479612be9565b60200101906001600160f81b031916908160001a905350600061249d846002612cf2565b6124a8906001612d73565b90505b6001811115612520576f181899199a1a9b1b9c1cb0b131b232b360811b85600f16601081106124dc576124dc612be9565b1a60f81b8282815181106124f2576124f2612be9565b60200101906001600160f81b031916908160001a90535060049490941c9361251981612f4e565b90506124ab565b50831561256f5760405162461bcd60e51b815260206004820181905260248201527f537472696e67733a20686578206c656e67746820696e73756666696369656e746044820152606401610795565b9392505050565b6060612585848460008561258d565b949350505050565b6060824710156125ee5760405162461bcd60e51b815260206004820152602660248201527f416464726573733a20696e73756666696369656e742062616c616e636520666f6044820152651c8818d85b1b60d21b6064820152608401610795565b6001600160a01b0385163b6126455760405162461bcd60e51b815260206004820152601d60248201527f416464726573733a2063616c6c20746f206e6f6e2d636f6e74726163740000006044820152606401610795565b600080866001600160a01b031685876040516126619190612f65565b60006040518083038185875af1925050503d806000811461269e576040519150601f19603f3d011682016040523d82523d6000602084013e6126a3565b606091505b50915091506126b38282866126be565b979650505050505050565b606083156126cd57508161256f565b8251156126dd5782518084602001fd5b8160405162461bcd60e51b815260040161079591906127cd565b6001600160a01b0381168114610eec57600080fd5b8015158114610eec57600080fd5b6000806040838503121561272d57600080fd5b8235612738816126f7565b915060208301356127488161270c565b809150509250929050565b60006020828403121561276557600080fd5b81356001600160e01b03198116811461256f57600080fd5b60005b83811015612798578181015183820152602001612780565b50506000910152565b600081518084526127b981602086016020860161277d565b601f01601f19169290920160200192915050565b60208152600061256f60208301846127a1565b6000602082840312156127f257600080fd5b813561256f816126f7565b634e487b7160e01b600052604160045260246000fd5b604051601f8201601f1916810167ffffffffffffffff8111828210171561283c5761283c6127fd565b604052919050565b600067ffffffffffffffff82111561285e5761285e6127fd565b5060051b60200190565b600082601f83011261287957600080fd5b8135602061288e61288983612844565b612813565b82815260059290921b840181019181810190868411156128ad57600080fd5b8286015b848110156128c857803583529183019183016128b1565b509695505050505050565b600080604083850312156128e657600080fd5b823567ffffffffffffffff808211156128fe57600080fd5b818501915085601f83011261291257600080fd5b8135602061292261288983612844565b82815260059290921b8401810191818101908984111561294157600080fd5b948201945b83861015612968578535612959816126f7565b82529482019490820190612946565b9650508601359250508082111561297e57600080fd5b5061298b85828601612868565b9150509250929050565b6000602082840312156129a757600080fd5b5035919050565b600080604083850312156129c157600080fd5b82356129cc816126f7565b946020939093013593505050565b600080604083850312156129ed57600080fd5b823591506020830135612748816126f7565b600060208284031215612a1157600080fd5b813561256f8161270c565b85815260a060208201526000612a3560a08301876127a1565b941515604083015250911515606083015260809091015292915050565b60008060208385031215612a6557600080fd5b823567ffffffffffffffff80821115612a7d57600080fd5b818501915085601f830112612a9157600080fd5b813581811115612aa057600080fd5b8660208260051b8501011115612ab557600080fd5b60209290920196919550909350505050565b602080825282518282018190526000919060409081850190868401855b82811015612b0957815180518552860151868501529284019290850190600101612ae4565b5091979650505050505050565b60008060408385031215612b2957600080fd5b8235915060208084013567ffffffffffffffff80821115612b4957600080fd5b818601915086601f830112612b5d57600080fd5b813581811115612b6f57612b6f6127fd565b612b81601f8201601f19168501612813565b91508082528784828501011115612b9757600080fd5b80848401858401376000848284010152508093505050509250929050565b600181811c90821680612bc957607f821691505b6020821081036113a457634e487b7160e01b600052602260045260246000fd5b634e487b7160e01b600052603260045260246000fd5b6020808252601f908201527f5265656e7472616e637947756172643a207265656e7472616e742063616c6c00604082015260600190565b8281526000602060408184015260008454612c5081612bb5565b8060408701526060600180841660008114612c725760018114612c8c57612cba565b60ff1985168984015283151560051b890183019550612cba565b896000528660002060005b85811015612cb25781548b8201860152908301908801612c97565b8a0184019650505b50939998505050505050505050565b634e487b7160e01b600052601160045260246000fd5b8181038181111561083057610830612cc9565b808202811582820484141761083057610830612cc9565b600082612d2657634e487b7160e01b600052601260045260246000fd5b500490565b600060208284031215612d3d57600080fd5b5051919050565b82815260406020820152600061258560408301846127a1565b634e487b7160e01b600052603160045260246000fd5b8082018082111561083057610830612cc9565b601f821115610e0857600081815260208120601f850160051c81016020861015612dad5750805b601f850160051c820191505b81811015612dcc57828155600101612db9565b505050505050565b815167ffffffffffffffff811115612dee57612dee6127fd565b612e0281612dfc8454612bb5565b84612d86565b602080601f831160018114612e375760008415612e1f5750858301515b600019600386901b1c1916600185901b178555612dcc565b600085815260208120601f198616915b82811015612e6657888601518255948401946001909101908401612e47565b5085821015612e845787850151600019600388901b60f8161c191681555b5050505050600190811b01905550565b838152826020820152606060408201526000612eb360608301846127a1565b95945050505050565b7f416363657373436f6e74726f6c3a206163636f756e7420000000000000000000815260008351612ef481601785016020880161277d565b7001034b99036b4b9b9b4b733903937b6329607d1b6017918401918201528351612f2581602884016020880161277d565b01602801949350505050565b600060208284031215612f4357600080fd5b815161256f8161270c565b600081612f5d57612f5d612cc9565b506000190190565b60008251612f7781846020870161277d565b919091019291505056fea264697066735822122061ed97a1c5454d040353ddd5b9136a140cbd602126c71fc62707a8017d67872864736f6c63430008140033",
  "devdoc": {
    "events": {
      "RoleAdminChanged(bytes32,bytes32,bytes32)": {
        "details": "Emitted when `newAdminRole` is set as ``role``'s admin role, replacing `previousAdminRole` `DEFAULT_ADMIN_ROLE` is the starting admin for all roles, despite {RoleAdminChanged} not being emitted signaling this. _Available since v3.1._"
      },
      "RoleGranted(bytes32,address,address)": {
        "details": "Emitted when `account` is granted `role`. `sender` is the account that originated the contract call, an admin role bearer except when using {AccessControl-_setupRole}."
      },
      "RoleRevoked(bytes32,address,address)": {
        "details": "Emitted when `account` is revoked `role`. `sender` is the account that originated the contract call:   - if using `revokeRole`, it is the admin role bearer   - if using `renounceRole`, it is the role bearer (i.e. `account`)"
      }
    },
    "kind": "dev",
    "methods": {
      "getRoleAdmin(bytes32)": {
        "details": "Returns the admin role that controls `role`. See {grantRole} and {revokeRole}. To change a role's admin, use {_setRoleAdmin}."
      },
      "grantRole(bytes32,address)": {
        "details": "Grants `role` to `account`. If `account` had not been already granted `role`, emits a {RoleGranted} event. Requirements: - the caller must have ``role``'s admin role."
      },
      "hasRole(bytes32,address)": {
        "details": "Returns `true` if `account` has been granted `role`."
      },
      "renounceRole(bytes32,address)": {
        "details": "Revokes `role` from the calling account. Roles are often managed via {grantRole} and {revokeRole}: this function's purpose is to provide a mechanism for accounts to lose their privileges if they are compromised (such as when a trusted device is misplaced). If the calling account had been revoked `role`, emits a {RoleRevoked} event. Requirements: - the caller must be `account`."
      },
      "revokeRole(bytes32,address)": {
        "details": "Revokes `role` from `account`. If `account` had been granted `role`, emits a {RoleRevoked} event. Requirements: - the caller must have ``role``'s admin role."
      },
      "supportsInterface(bytes4)": {
        "details": "See {IERC165-supportsInterface}."
      }
    },
    "version": 1
  },
  "userdoc": {
    "kind": "user",
    "methods": {},
    "version": 1
  },
  "storageLayout": {
    "storage": [
      {
        "astId": 70,
        "contract": "contracts/Cohort.sol:Cohort",
        "label": "_roles",
        "offset": 0,
        "slot": "0",
        "type": "t_mapping(t_bytes32,t_struct(RoleData)65_storage)"
      },
      {
        "astId": 554,
        "contract": "contracts/Cohort.sol:Cohort",
        "label": "_status",
        "offset": 0,
        "slot": "1",
        "type": "t_uint256"
      },
      {
        "astId": 1542,
        "contract": "contracts/Cohort.sol:Cohort",
        "label": "cycle",
        "offset": 0,
        "slot": "2",
        "type": "t_uint256"
      },
      {
        "astId": 1544,
        "contract": "contracts/Cohort.sol:Cohort",
        "label": "isERC20",
        "offset": 0,
        "slot": "3",
        "type": "t_bool"
      },
      {
        "astId": 1546,
        "contract": "contracts/Cohort.sol:Cohort",
        "label": "locked",
        "offset": 1,
        "slot": "3",
        "type": "t_bool"
      },
      {
        "astId": 1548,
        "contract": "contracts/Cohort.sol:Cohort",
        "label": "name",
        "offset": 0,
        "slot": "4",
        "type": "t_string_storage"
      },
      {
        "astId": 1550,
        "contract": "contracts/Cohort.sol:Cohort",
        "label": "description",
        "offset": 0,
        "slot": "5",
        "type": "t_string_storage"
      },
      {
        "astId": 1552,
        "contract": "contracts/Cohort.sol:Cohort",
        "label": "tokenAddress",
        "offset": 0,
        "slot": "6",
        "type": "t_address"
      },
      {
        "astId": 1554,
        "contract": "contracts/Cohort.sol:Cohort",
        "label": "primaryAdmin",
        "offset": 0,
        "slot": "7",
        "type": "t_address"
      },
      {
        "astId": 1838,
        "contract": "contracts/Cohort.sol:Cohort",
        "label": "withdrawRequests",
        "offset": 0,
        "slot": "8",
        "type": "t_mapping(t_address,t_array(t_struct(WithdrawRequest)1832_storage)dyn_storage)"
      },
      {
        "astId": 1842,
        "contract": "contracts/Cohort.sol:Cohort",
        "label": "requiresApproval",
        "offset": 0,
        "slot": "9",
        "type": "t_mapping(t_address,t_bool)"
      },
      {
        "astId": 1861,
        "contract": "contracts/Cohort.sol:Cohort",
        "label": "streamingBuilders",
        "offset": 0,
        "slot": "10",
        "type": "t_mapping(t_address,t_struct(BuilderStreamInfo)1779_storage)"
      },
      {
        "astId": 1865,
        "contract": "contracts/Cohort.sol:Cohort",
        "label": "builderIndex",
        "offset": 0,
        "slot": "11",
        "type": "t_mapping(t_address,t_uint256)"
      },
      {
        "astId": 1868,
        "contract": "contracts/Cohort.sol:Cohort",
        "label": "activeBuilders",
        "offset": 0,
        "slot": "12",
        "type": "t_array(t_address)dyn_storage"
      },
      {
        "astId": 1872,
        "contract": "contracts/Cohort.sol:Cohort",
        "label": "isAdmin",
        "offset": 0,
        "slot": "13",
        "type": "t_mapping(t_address,t_bool)"
      }
    ],
    "types": {
      "t_address": {
        "encoding": "inplace",
        "label": "address",
        "numberOfBytes": "20"
      },
      "t_array(t_address)dyn_storage": {
        "base": "t_address",
        "encoding": "dynamic_array",
        "label": "address[]",
        "numberOfBytes": "32"
      },
      "t_array(t_struct(WithdrawRequest)1832_storage)dyn_storage": {
        "base": "t_struct(WithdrawRequest)1832_storage",
        "encoding": "dynamic_array",
        "label": "struct Cohort.WithdrawRequest[]",
        "numberOfBytes": "32"
      },
      "t_bool": {
        "encoding": "inplace",
        "label": "bool",
        "numberOfBytes": "1"
      },
      "t_bytes32": {
        "encoding": "inplace",
        "label": "bytes32",
        "numberOfBytes": "32"
      },
      "t_mapping(t_address,t_array(t_struct(WithdrawRequest)1832_storage)dyn_storage)": {
        "encoding": "mapping",
        "key": "t_address",
        "label": "mapping(address => struct Cohort.WithdrawRequest[])",
        "numberOfBytes": "32",
        "value": "t_array(t_struct(WithdrawRequest)1832_storage)dyn_storage"
      },
      "t_mapping(t_address,t_bool)": {
        "encoding": "mapping",
        "key": "t_address",
        "label": "mapping(address => bool)",
        "numberOfBytes": "32",
        "value": "t_bool"
      },
      "t_mapping(t_address,t_struct(BuilderStreamInfo)1779_storage)": {
        "encoding": "mapping",
        "key": "t_address",
        "label": "mapping(address => struct Cohort.BuilderStreamInfo)",
        "numberOfBytes": "32",
        "value": "t_struct(BuilderStreamInfo)1779_storage"
      },
      "t_mapping(t_address,t_uint256)": {
        "encoding": "mapping",
        "key": "t_address",
        "label": "mapping(address => uint256)",
        "numberOfBytes": "32",
        "value": "t_uint256"
      },
      "t_mapping(t_bytes32,t_struct(RoleData)65_storage)": {
        "encoding": "mapping",
        "key": "t_bytes32",
        "label": "mapping(bytes32 => struct AccessControl.RoleData)",
        "numberOfBytes": "32",
        "value": "t_struct(RoleData)65_storage"
      },
      "t_string_storage": {
        "encoding": "bytes",
        "label": "string",
        "numberOfBytes": "32"
      },
      "t_struct(BuilderStreamInfo)1779_storage": {
        "encoding": "inplace",
        "label": "struct Cohort.BuilderStreamInfo",
        "members": [
          {
            "astId": 1776,
            "contract": "contracts/Cohort.sol:Cohort",
            "label": "cap",
            "offset": 0,
            "slot": "0",
            "type": "t_uint256"
          },
          {
            "astId": 1778,
            "contract": "contracts/Cohort.sol:Cohort",
            "label": "last",
            "offset": 0,
            "slot": "1",
            "type": "t_uint256"
          }
        ],
        "numberOfBytes": "64"
      },
      "t_struct(RoleData)65_storage": {
        "encoding": "inplace",
        "label": "struct AccessControl.RoleData",
        "members": [
          {
            "astId": 62,
            "contract": "contracts/Cohort.sol:Cohort",
            "label": "members",
            "offset": 0,
            "slot": "0",
            "type": "t_mapping(t_address,t_bool)"
          },
          {
            "astId": 64,
            "contract": "contracts/Cohort.sol:Cohort",
            "label": "adminRole",
            "offset": 0,
            "slot": "1",
            "type": "t_bytes32"
          }
        ],
        "numberOfBytes": "64"
      },
      "t_struct(WithdrawRequest)1832_storage": {
        "encoding": "inplace",
        "label": "struct Cohort.WithdrawRequest",
        "members": [
          {
            "astId": 1823,
            "contract": "contracts/Cohort.sol:Cohort",
            "label": "amount",
            "offset": 0,
            "slot": "0",
            "type": "t_uint256"
          },
          {
            "astId": 1825,
            "contract": "contracts/Cohort.sol:Cohort",
            "label": "reason",
            "offset": 0,
            "slot": "1",
            "type": "t_string_storage"
          },
          {
            "astId": 1827,
            "contract": "contracts/Cohort.sol:Cohort",
            "label": "approved",
            "offset": 0,
            "slot": "2",
            "type": "t_bool"
          },
          {
            "astId": 1829,
            "contract": "contracts/Cohort.sol:Cohort",
            "label": "completed",
            "offset": 1,
            "slot": "2",
            "type": "t_bool"
          },
          {
            "astId": 1831,
            "contract": "contracts/Cohort.sol:Cohort",
            "label": "requestTime",
            "offset": 0,
            "slot": "3",
            "type": "t_uint256"
          }
        ],
        "numberOfBytes": "128"
      },
      "t_uint256": {
        "encoding": "inplace",
        "label": "uint256",
        "numberOfBytes": "32"
      }
    }
  }
}