{
  "address": "0x10951DFdD9cE62F9b9CB22dFD02bbA3c2b732bEE",
  "abi": [
    {
      "inputs": [
        {
          "internalType": "address",
          "name": "_priceFeed",
          "type": "address"
        }
      ],
      "stateMutability": "nonpayable",
      "type": "constructor"
    },
    {
      "inputs": [],
      "name": "FailedToSendETH",
      "type": "error"
    },
    {
      "inputs": [
        {
          "internalType": "uint256",
          "name": "required",
          "type": "uint256"
        },
        {
          "internalType": "uint256",
          "name": "provided",
          "type": "uint256"
        }
      ],
      "name": "InsufficientPayment",
      "type": "error"
    },
    {
      "inputs": [],
      "name": "InvalidFeeAmount",
      "type": "error"
    },
    {
      "inputs": [],
      "name": "PriceFeedInvalid",
      "type": "error"
    },
    {
      "anonymous": false,
      "inputs": [
        {
          "indexed": true,
          "internalType": "address",
          "name": "cohortAddress",
          "type": "address"
        },
        {
          "indexed": true,
          "internalType": "address",
          "name": "primaryAdmin",
          "type": "address"
        },
        {
          "indexed": false,
          "internalType": "string",
          "name": "name",
          "type": "string"
        },
        {
          "indexed": false,
          "internalType": "string",
          "name": "description",
          "type": "string"
        }
      ],
      "name": "CohortCreated",
      "type": "event"
    },
    {
      "anonymous": false,
      "inputs": [
        {
          "indexed": false,
          "internalType": "uint256",
          "name": "oldFee",
          "type": "uint256"
        },
        {
          "indexed": false,
          "internalType": "uint256",
          "name": "newFee",
          "type": "uint256"
        }
      ],
      "name": "CreationFeeUpdated",
      "type": "event"
    },
    {
      "anonymous": false,
      "inputs": [
        {
          "indexed": true,
          "internalType": "address",
          "name": "previousOwner",
          "type": "address"
        },
        {
          "indexed": true,
          "internalType": "address",
          "name": "newOwner",
          "type": "address"
        }
      ],
      "name": "OwnershipTransferred",
      "type": "event"
    },
    {
      "anonymous": false,
      "inputs": [
        {
          "indexed": false,
          "internalType": "address",
          "name": "newPriceFeed",
          "type": "address"
        }
      ],
      "name": "PriceFeedUpdated",
      "type": "event"
    },
    {
      "inputs": [
        {
          "internalType": "uint256",
          "name": "",
          "type": "uint256"
        }
      ],
      "name": "cohortRegistry",
      "outputs": [
        {
          "internalType": "address",
          "name": "cohortAddress",
          "type": "address"
        },
        {
          "internalType": "string",
          "name": "name",
          "type": "string"
        },
        {
          "internalType": "uint256",
          "name": "creationTimestamp",
          "type": "uint256"
        }
      ],
      "stateMutability": "view",
      "type": "function"
    },
    {
      "inputs": [
        {
          "internalType": "address",
          "name": "_primaryAdmin",
          "type": "address"
        },
        {
          "internalType": "address",
          "name": "_tokenAddress",
          "type": "address"
        },
        {
          "internalType": "string",
          "name": "_name",
          "type": "string"
        },
        {
          "internalType": "string",
          "name": "_description",
          "type": "string"
        },
        {
          "internalType": "uint256",
          "name": "_cycle",
          "type": "uint256"
        },
        {
          "internalType": "address[]",
          "name": "_builders",
          "type": "address[]"
        },
        {
          "internalType": "uint256[]",
          "name": "_caps",
          "type": "uint256[]"
        },
        {
          "internalType": "bool",
          "name": "_requiresApproval",
          "type": "bool"
        }
      ],
      "name": "createCohort",
      "outputs": [
        {
          "internalType": "address",
          "name": "",
          "type": "address"
        }
      ],
      "stateMutability": "payable",
      "type": "function"
    },
    {
      "inputs": [],
      "name": "creationFeeUSD",
      "outputs": [
        {
          "internalType": "uint256",
          "name": "",
          "type": "uint256"
        }
      ],
      "stateMutability": "view",
      "type": "function"
    },
    {
      "inputs": [],
      "name": "getAllCohorts",
      "outputs": [
        {
          "components": [
            {
              "internalType": "address",
              "name": "cohortAddress",
              "type": "address"
            },
            {
              "internalType": "string",
              "name": "name",
              "type": "string"
            },
            {
              "internalType": "uint256",
              "name": "creationTimestamp",
              "type": "uint256"
            }
          ],
          "internalType": "struct CohortFactory.CohortInfo[]",
          "name": "",
          "type": "tuple[]"
        }
      ],
      "stateMutability": "view",
      "type": "function"
    },
    {
      "inputs": [
        {
          "internalType": "uint256",
          "name": "_index",
          "type": "uint256"
        }
      ],
      "name": "getCohortByIndex",
      "outputs": [
        {
          "components": [
            {
              "internalType": "address",
              "name": "cohortAddress",
              "type": "address"
            },
            {
              "internalType": "string",
              "name": "name",
              "type": "string"
            },
            {
              "internalType": "uint256",
              "name": "creationTimestamp",
              "type": "uint256"
            }
          ],
          "internalType": "struct CohortFactory.CohortInfo",
          "name": "",
          "type": "tuple"
        }
      ],
      "stateMutability": "view",
      "type": "function"
    },
    {
      "inputs": [],
      "name": "getRequiredEthAmount",
      "outputs": [
        {
          "internalType": "uint256",
          "name": "",
          "type": "uint256"
        }
      ],
      "stateMutability": "view",
      "type": "function"
    },
    {
      "inputs": [],
      "name": "getTotalCohorts",
      "outputs": [
        {
          "internalType": "uint256",
          "name": "",
          "type": "uint256"
        }
      ],
      "stateMutability": "view",
      "type": "function"
    },
    {
      "inputs": [
        {
          "internalType": "address",
          "name": "",
          "type": "address"
        }
      ],
      "name": "isCohort",
      "outputs": [
        {
          "internalType": "bool",
          "name": "",
          "type": "bool"
        }
      ],
      "stateMutability": "view",
      "type": "function"
    },
    {
      "inputs": [],
      "name": "owner",
      "outputs": [
        {
          "internalType": "address",
          "name": "",
          "type": "address"
        }
      ],
      "stateMutability": "view",
      "type": "function"
    },
    {
      "inputs": [],
      "name": "renounceOwnership",
      "outputs": [],
      "stateMutability": "nonpayable",
      "type": "function"
    },
    {
      "inputs": [],
      "name": "totalCohorts",
      "outputs": [
        {
          "internalType": "uint256",
          "name": "",
          "type": "uint256"
        }
      ],
      "stateMutability": "view",
      "type": "function"
    },
    {
      "inputs": [
        {
          "internalType": "address",
          "name": "newOwner",
          "type": "address"
        }
      ],
      "name": "transferOwnership",
      "outputs": [],
      "stateMutability": "nonpayable",
      "type": "function"
    },
    {
      "inputs": [
        {
          "internalType": "uint256",
          "name": "_newFeeUSD",
          "type": "uint256"
        }
      ],
      "name": "updateCreationFee",
      "outputs": [],
      "stateMutability": "nonpayable",
      "type": "function"
    },
    {
      "inputs": [
        {
          "internalType": "address",
          "name": "_newPriceFeed",
          "type": "address"
        }
      ],
      "name": "updatePriceFeed",
      "outputs": [],
      "stateMutability": "nonpayable",
      "type": "function"
    }
  ],
  "transactionHash": "0x5d99975f56e2424aa58af760cb1103159c7b987984d16b369be2e6b7bbdf3205",
  "args": [
    "0x4aDC67696bA383F43DD60A9e78F2C97Fbbfc7cb1"
  ],
  "numDeployments": 22,
  "solcInputHash": "35541ced4782451a49f7da4511184399",
  "bytecode": "0x608060405234801561001057600080fd5b506040516200556638038062005566833981016040819052610031916100e2565b61003a33610092565b6001600160a01b038116610061576040516307806b6560e31b815260040160405180910390fd5b600180546001600160a01b0319166001600160a01b039290921691909117905567016345785d8a0000600255610112565b600080546001600160a01b038381166001600160a01b0319831681178455604051919092169283917f8be0079c531659141344cd1fd0a4f28419497f9722a3daafe3b4186f6b6457e09190a35050565b6000602082840312156100f457600080fd5b81516001600160a01b038116811461010b57600080fd5b9392505050565b61544480620001226000396000f3fe608060405260043610620000ef5760003560e01c806376590738116200008957806395877f78116200006057806395877f7814620002965780639b8a969e14620002bb578063a2299a9d14620002d3578063f2fde38b14620002eb57600080fd5b806376590738146200021257806382954b8b14620002465780638da5cb5b146200027657600080fd5b80634e73e35511620000ca5780634e73e35514620001945780636a8479b214620001bb5780636fa2379514620001d3578063715018a614620001fa57600080fd5b8063114be58514620000f45780633d5e5ed914620001195780634bdcda92146200014f575b600080fd5b3480156200010157600080fd5b506005545b6040519081526020015b60405180910390f35b3480156200012657600080fd5b506200013e6200013836600462000cae565b62000310565b604051620001109392919062000d10565b3480156200015c57600080fd5b50620001836200016e36600462000d63565b60036020526000908152604090205460ff1681565b604051901515815260200162000110565b348015620001a157600080fd5b50620001ac620003cd565b60405162000110919062000dbe565b348015620001c857600080fd5b506200010660025481565b348015620001e057600080fd5b50620001f8620001f236600462000cae565b6200056d565b005b3480156200020757600080fd5b50620001f862000609565b3480156200021f57600080fd5b50620002376200023136600462000cae565b62000644565b60405162000110919062000e24565b6200025d6200025736600462001010565b62000792565b6040516001600160a01b03909116815260200162000110565b3480156200028357600080fd5b506000546001600160a01b03166200025d565b348015620002a357600080fd5b50620001f8620002b536600462000d63565b620009f6565b348015620002c857600080fd5b506200010662000a9f565b348015620002e057600080fd5b506200010660055481565b348015620002f857600080fd5b50620001f86200030a36600462000d63565b62000ae8565b600460205260009081526040902080546001820180546001600160a01b0390921692916200033e906200110c565b80601f01602080910402602001604051908101604052809291908181526020018280546200036c906200110c565b8015620003bd5780601f106200039157610100808354040283529160200191620003bd565b820191906000526020600020905b8154815290600101906020018083116200039f57829003601f168201915b5050505050908060020154905083565b6060600060055467ffffffffffffffff811115620003ef57620003ef62000e39565b6040519080825280602002602001820160405280156200045057816020015b6200043c604051806060016040528060006001600160a01b0316815260200160608152602001600081525090565b8152602001906001900390816200040e5790505b50905060005b600554811015620005675760008181526004602090815260409182902082516060810190935280546001600160a01b0316835260018101805491928401916200049f906200110c565b80601f0160208091040260200160405190810160405280929190818152602001828054620004cd906200110c565b80156200051e5780601f10620004f2576101008083540402835291602001916200051e565b820191906000526020600020905b8154815290600101906020018083116200050057829003601f168201915b5050505050815260200160028201548152505082828151811062000546576200054662001142565b602002602001018190525080806200055e906200116e565b91505062000456565b50919050565b6000546001600160a01b03163314620005a35760405162461bcd60e51b81526004016200059a906200118a565b60405180910390fd5b80600003620005c45760405162a4671960e71b815260040160405180910390fd5b600280549082905560408051828152602081018490527f5de302eeb1c80d4fb0c0953b692353f09ddf431411b8eb2034d5e85769561912910160405180910390a15050565b6000546001600160a01b03163314620006365760405162461bcd60e51b81526004016200059a906200118a565b62000642600062000b8a565b565b62000672604051806060016040528060006001600160a01b0316815260200160608152602001600081525090565b6005548210620006bb5760405162461bcd60e51b8152602060048201526013602482015272496e646578206f7574206f6620626f756e647360681b60448201526064016200059a565b60008281526004602090815260409182902082516060810190935280546001600160a01b031683526001810180549192840191620006f9906200110c565b80601f016020809104026020016040519081016040528092919081815260200182805462000727906200110c565b8015620007785780601f106200074c5761010080835404028352916020019162000778565b820191906000526020600020905b8154815290600101906020018083116200075a57829003601f168201915b505050505081526020016002820154815250509050919050565b6000806200079f62000a9f565b60025460015491925090620007bf9034906001600160a01b031662000bda565b1015620007e95760405163b99e2ab760e01b8152600481018290523460248201526044016200059a565b60008a8a8a8a8a8a8a8a604051620008019062000ca0565b62000814989796959493929190620011fc565b604051809103906000f08015801562000831573d6000803e3d6000fd5b5090506000819050600160036000836001600160a01b03166001600160a01b0316815260200190815260200160002060006101000a81548160ff021916908315150217905550600060055490506040518060600160405280836001600160a01b031681526020018c8152602001428152506004600083815260200190815260200160002060008201518160000160006101000a8154816001600160a01b0302191690836001600160a01b031602179055506020820151816001019081620008f991906200130b565b50604091909101516002909101556005805490600062000919836200116e565b9091555050600080546040516001600160a01b039091169034908381818185875af1925050503d80600081146200096d576040519150601f19603f3d011682016040523d82523d6000602084013e62000972565b606091505b505090508062000995576040516338822c1360e11b815260040160405180910390fd5b8d6001600160a01b0316836001600160a01b03167f570e843f430e9c07b135675740293a86d5c98eb4b737091ea2c5cb61ae9293bf8e8e604051620009dc929190620013d8565b60405180910390a350909c9b505050505050505050505050565b6000546001600160a01b0316331462000a235760405162461bcd60e51b81526004016200059a906200118a565b6001600160a01b03811662000a4b576040516307806b6560e31b815260040160405180910390fd5b600180546001600160a01b0319166001600160a01b0383169081179091556040519081527fe5b20b8497e4f3e2435ef9c20e2e26b47497ee13745ce1c681ad6640653119e69060200160405180910390a150565b600154600090819062000abb906001600160a01b031662000c18565b905080600254670de0b6b3a764000062000ad691906200140a565b62000ae2919062001424565b91505090565b6000546001600160a01b0316331462000b155760405162461bcd60e51b81526004016200059a906200118a565b6001600160a01b03811662000b7c5760405162461bcd60e51b815260206004820152602660248201527f4f776e61626c653a206e6577206f776e657220697320746865207a65726f206160448201526564647265737360d01b60648201526084016200059a565b62000b878162000b8a565b50565b600080546001600160a01b038381166001600160a01b0319831681178455604051919092169283917f8be0079c531659141344cd1fd0a4f28419497f9722a3daafe3b4186f6b6457e09190a35050565b60008062000be88362000c18565b90506000670de0b6b3a764000062000c0186846200140a565b62000c0d919062001424565b925050505b92915050565b600080826001600160a01b031663feaf968c6040518163ffffffff1660e01b815260040160a060405180830381865afa15801562000c5a573d6000803e3d6000fd5b505050506040513d601f19601f8201168201806040525081019062000c80919062001462565b505050915050806402540be40062000c999190620014b7565b9392505050565b613f2180620014ee83390190565b60006020828403121562000cc157600080fd5b5035919050565b6000815180845260005b8181101562000cf05760208185018101518683018201520162000cd2565b506000602082860101526020601f19601f83011685010191505092915050565b6001600160a01b038416815260606020820181905260009062000d369083018562000cc8565b9050826040830152949350505050565b80356001600160a01b038116811462000d5e57600080fd5b919050565b60006020828403121562000d7657600080fd5b62000c998262000d46565b60018060a01b038151168252600060208201516060602085015262000daa606085018262000cc8565b604093840151949093019390935250919050565b6000602080830181845280855180835260408601915060408160051b870101925083870160005b8281101562000e1757603f1988860301845262000e0485835162000d81565b9450928501929085019060010162000de5565b5092979650505050505050565b60208152600062000c99602083018462000d81565b634e487b7160e01b600052604160045260246000fd5b604051601f8201601f1916810167ffffffffffffffff8111828210171562000e7b5762000e7b62000e39565b604052919050565b600082601f83011262000e9557600080fd5b813567ffffffffffffffff81111562000eb25762000eb262000e39565b62000ec7601f8201601f191660200162000e4f565b81815284602083860101111562000edd57600080fd5b816020850160208301376000918101602001919091529392505050565b600067ffffffffffffffff82111562000f175762000f1762000e39565b5060051b60200190565b600082601f83011262000f3357600080fd5b8135602062000f4c62000f468362000efa565b62000e4f565b82815260059290921b8401810191818101908684111562000f6c57600080fd5b8286015b8481101562000f925762000f848162000d46565b835291830191830162000f70565b509695505050505050565b600082601f83011262000faf57600080fd5b8135602062000fc262000f468362000efa565b82815260059290921b8401810191818101908684111562000fe257600080fd5b8286015b8481101562000f92578035835291830191830162000fe6565b8035801515811462000d5e57600080fd5b600080600080600080600080610100898b0312156200102e57600080fd5b620010398962000d46565b97506200104960208a0162000d46565b9650604089013567ffffffffffffffff808211156200106757600080fd5b620010758c838d0162000e83565b975060608b01359150808211156200108c57600080fd5b6200109a8c838d0162000e83565b965060808b0135955060a08b0135915080821115620010b857600080fd5b620010c68c838d0162000f21565b945060c08b0135915080821115620010dd57600080fd5b50620010ec8b828c0162000f9d565b925050620010fd60e08a0162000fff565b90509295985092959890939650565b600181811c908216806200112157607f821691505b6020821081036200056757634e487b7160e01b600052602260045260246000fd5b634e487b7160e01b600052603260045260246000fd5b634e487b7160e01b600052601160045260246000fd5b60006001820162001183576200118362001158565b5060010190565b6020808252818101527f4f776e61626c653a2063616c6c6572206973206e6f7420746865206f776e6572604082015260600190565b600081518084526020808501945080840160005b83811015620011f157815187529582019590820190600101620011d3565b509495945050505050565b600061010060018060a01b03808c1684526020818c16818601528260408601526200122a8386018c62000cc8565b9250848303606086015262001240838b62000cc8565b608086018a905285810360a08701528851808252828a0194509082019060005b818110156200128057855185168352948301949183019160010162001260565b505085810360c0870152620012968189620011bf565b945050505050620012ab60e083018415159052565b9998505050505050505050565b601f8211156200130657600081815260208120601f850160051c81016020861015620012e15750805b601f850160051c820191505b818110156200130257828155600101620012ed565b5050505b505050565b815167ffffffffffffffff81111562001328576200132862000e39565b62001340816200133984546200110c565b84620012b8565b602080601f8311600181146200137857600084156200135f5750858301515b600019600386901b1c1916600185901b17855562001302565b600085815260208120601f198616915b82811015620013a95788860151825594840194600190910190840162001388565b5085821015620013c85787850151600019600388901b60f8161c191681555b5050505050600190811b01905550565b604081526000620013ed604083018562000cc8565b828103602084015262001401818562000cc8565b95945050505050565b808202811582820484141762000c125762000c1262001158565b6000826200144257634e487b7160e01b600052601260045260246000fd5b500490565b805169ffffffffffffffffffff8116811462000d5e57600080fd5b600080600080600060a086880312156200147b57600080fd5b620014868662001447565b9450602086015193506040860151925060608601519150620014ab6080870162001447565b90509295509295909350565b80820260008212600160ff1b84141615620014d657620014d662001158565b818105831482151762000c125762000c126200115856fe60806040523480156200001157600080fd5b5060405162003f2138038062003f218339810160408190526200003491620008f2565b8787878787878787600180819055506028865111156200007957855160405163062a8dff60e41b81526004810191909152602860248201526044015b60405180910390fd5b6200008660008962000512565b6001600160a01b0388166000818152600b60205260409020805460ff19166001179055600780546001600160a01b03191690911790556004620000ca878262000a7d565b506005620000d9868262000a7d565b5060028490556003805463ff00000019166301000000831515021790556001600160a01b0387161562000131576003805460ff19166001179055600680546001600160a01b0389166001600160a01b03199091161790555b836000036200014a576003805461ff0019166101001790555b825115620004fc57825160198110620001765760405163104e7cef60e31b815260040160405180910390fd5b82518114620001985760405163586cb9e160e01b815260040160405180910390fd5b60005b81811015620004f957620001ee858281518110620001bd57620001bd62000b49565b6020026020010151858381518110620001da57620001da62000b49565b60200260200101516200059b60201b60201c565b6002546000036200027c57604051806040016040528085838151811062000219576200021962000b49565b602002602001015181526020016000198152506008600087848151811062000245576200024562000b49565b6020908102919091018101516001600160a01b03168252818101929092526040016000208251815591015160019091015562000305565b60405180604001604052808583815181106200029c576200029c62000b49565b602002602001015181526020018742620002b7919062000b5f565b81525060086000878481518110620002d357620002d362000b49565b6020908102919091018101516001600160a01b0316825281810192909252604001600020825181559101516001909101555b600a8582815181106200031c576200031c62000b49565b60209081029190910181015182546001808201855560009485529290932090920180546001600160a01b0319166001600160a01b0390931692909217909155600a546200036a919062000b5f565b6009600087848151811062000383576200038362000b49565b60200260200101516001600160a01b03166001600160a01b0316815260200190815260200160002081905550848181518110620003c457620003c462000b49565b60200260200101516001600160a01b03167f49707f6097e3d8b2d861adf67aadfb41a45746f9d46701065ed09ff12f9e41c38583815181106200040b576200040b62000b49565b60200260200101516040516200042391815260200190565b60405180910390a28215620004f0576001600d60008784815181106200044d576200044d62000b49565b60200260200101516001600160a01b03166001600160a01b0316815260200190815260200160002060006101000a81548160ff021916908315150217905550848181518110620004a157620004a162000b49565b60200260200101516001600160a01b03167f70d2c92da609a3045e6b2a21e9d4cd5dc02f15a3830961912b03f5b236b78c8b6001604051620004e7911515815260200190565b60405180910390a25b6001016200019b565b50505b5050505050505050505050505050505062000b81565b6200051e8282620006bf565b62000597576000828152602081815260408083206001600160a01b03851684529091529020805460ff19166001179055620005563390565b6001600160a01b0316816001600160a01b0316837f2f8788117e7eff1d82e926ec794901d17c78024a50270940304540a733656f0d60405160405180910390a45b5050565b6509184e72a00081108015620005b4575060035460ff16155b15620005e35760405163c281dd3b60e01b8152600481018290526509184e72a000602482015260440162000070565b620f424081108015620005f8575060035460ff165b15620006245760405163c281dd3b60e01b815260048101829052620f4240602482015260440162000070565b6001600160a01b0382166200064c5760405163094d784960e21b815260040160405180910390fd5b6001600160a01b0382166000908152600b602052604090205460ff1615620006875760405163094d784960e21b815260040160405180910390fd5b6001600160a01b038216600090815260086020526040902054156200059757604051637fe8efbb60e01b815260040160405180910390fd5b6000828152602081815260408083206001600160a01b038516845290915290205460ff165b92915050565b80516001600160a01b03811681146200070257600080fd5b919050565b634e487b7160e01b600052604160045260246000fd5b604051601f8201601f191681016001600160401b038111828210171562000748576200074862000707565b604052919050565b600082601f8301126200076257600080fd5b81516001600160401b038111156200077e576200077e62000707565b602062000794601f8301601f191682016200071d565b8281528582848701011115620007a957600080fd5b60005b83811015620007c9578581018301518282018401528201620007ac565b506000928101909101919091529392505050565b60006001600160401b03821115620007f957620007f962000707565b5060051b60200190565b600082601f8301126200081557600080fd5b815160206200082e6200082883620007dd565b6200071d565b82815260059290921b840181019181810190868411156200084e57600080fd5b8286015b8481101562000874576200086681620006ea565b835291830191830162000852565b509695505050505050565b600082601f8301126200089157600080fd5b81516020620008a46200082883620007dd565b82815260059290921b84018101918181019086841115620008c457600080fd5b8286015b84811015620008745780518352918301918301620008c8565b805180151581146200070257600080fd5b600080600080600080600080610100898b0312156200091057600080fd5b6200091b89620006ea565b97506200092b60208a01620006ea565b60408a01519097506001600160401b03808211156200094957600080fd5b620009578c838d0162000750565b975060608b01519150808211156200096e57600080fd5b6200097c8c838d0162000750565b965060808b0151955060a08b01519150808211156200099a57600080fd5b620009a88c838d0162000803565b945060c08b0151915080821115620009bf57600080fd5b50620009ce8b828c016200087f565b925050620009df60e08a01620008e1565b90509295985092959890939650565b600181811c9082168062000a0357607f821691505b60208210810362000a2457634e487b7160e01b600052602260045260246000fd5b50919050565b601f82111562000a7857600081815260208120601f850160051c8101602086101562000a535750805b601f850160051c820191505b8181101562000a745782815560010162000a5f565b5050505b505050565b81516001600160401b0381111562000a995762000a9962000707565b62000ab18162000aaa8454620009ee565b8462000a2a565b602080601f83116001811462000ae9576000841562000ad05750858301515b600019600386901b1c1916600185901b17855562000a74565b600085815260208120601f198616915b8281101562000b1a5788860151825594840194600190910190840162000af9565b508582101562000b395787850151600019600388901b60f8161c191681555b5050505050600190811b01905550565b634e487b7160e01b600052603260045260246000fd5b81810381811115620006e457634e487b7160e01b600052601160045260246000fd5b6133908062000b916000396000f3fe6080604052600436106102335760003560e01c806365cd2a4e1161012e5780639de1b23d116100ab578063a8397ddc1161006f578063a8397ddc14610710578063af40253214610730578063b19cb81014610750578063cf3090121461076f578063d547741f1461078f57600080fd5b80639de1b23d1461066e578063a217fddf1461068e578063a46495ac146106a3578063a4adcb61146106d0578063a7839334146106f057600080fd5b80638216d506116100f25780638216d506146105b657806382c2aff7146105d65780638c0a2d56146105f657806391d14854146106165780639d76ea581461063657600080fd5b806365cd2a4e146105035780636d6ca319146105235780637284e416146105545780637c6f1b591461056957806380c9b2f61461059657600080fd5b806324d7806c116101bc5780633519a2f8116101805780633519a2f81461045157806336568abe14610464578063377c9815146104845780634e1ca120146104cd5780636190c9d5146104ed57600080fd5b806324d7806c146103a757806329d36c46146103d75780632eb67f53146103f75780632f2ff15d146104115780633109b16e1461043157600080fd5b80630ca2c6a9116102035780630ca2c6a9146102e85780630d12cc6814610309578063116e72db146103295780632087ed5c14610349578063248a9ca31461036957600080fd5b806208359d1461023f57806301ffc9a71461026157806306fdde0314610296578063070092d4146102b857600080fd5b3661023a57005b600080fd5b34801561024b57600080fd5b5061025f61025a366004612af3565b6107af565b005b34801561026d57600080fd5b5061028161027c366004612b2c565b610881565b60405190151581526020015b60405180910390f35b3480156102a257600080fd5b506102ab6108b8565b60405161028d9190612ba6565b3480156102c457600080fd5b506102816102d3366004612bb9565b600d6020526000908152604090205460ff1681565b3480156102f457600080fd5b50600354610281906301000000900460ff1681565b34801561031557600080fd5b5061025f610324366004612cac565b610946565b34801561033557600080fd5b5061025f610344366004612af3565b610a07565b34801561035557600080fd5b5061025f610364366004612d6e565b610b49565b34801561037557600080fd5b50610399610384366004612d6e565b60009081526020819052604090206001015490565b60405190815260200161028d565b3480156103b357600080fd5b506102816103c2366004612bb9565b600b6020526000908152604090205460ff1681565b3480156103e357600080fd5b5061025f6103f2366004612d87565b610d6b565b34801561040357600080fd5b506003546102819060ff1681565b34801561041d57600080fd5b5061025f61042c366004612db3565b610e83565b34801561043d57600080fd5b5061025f61044c366004612dd8565b610ead565b61025f61045f366004612d6e565b610f2f565b34801561047057600080fd5b5061025f61047f366004612db3565b61100b565b34801561049057600080fd5b506104b861049f366004612bb9565b6008602052600090815260409020805460019091015482565b6040805192835260208301919091520161028d565b3480156104d957600080fd5b5061025f6104e8366004612d87565b611085565b3480156104f957600080fd5b5061039960025481565b34801561050f57600080fd5b5061025f61051e366004612dd8565b61119b565b34801561052f57600080fd5b5061054361053e366004612d87565b611219565b60405161028d959493929190612df5565b34801561056057600080fd5b506102ab6112fb565b34801561057557600080fd5b50610589610584366004612e2b565b611308565b60405161028d9190612ea0565b3480156105a257600080fd5b506103996105b1366004612bb9565b611407565b3480156105c257600080fd5b5061025f6105d1366004612d87565b6114fc565b3480156105e257600080fd5b5061025f6105f1366004612d87565b611671565b34801561060257600080fd5b5061025f610611366004612bb9565b611886565b34801561062257600080fd5b50610281610631366004612db3565b611944565b34801561064257600080fd5b50600654610656906001600160a01b031681565b6040516001600160a01b03909116815260200161028d565b34801561067a57600080fd5b50600754610656906001600160a01b031681565b34801561069a57600080fd5b50610399600081565b3480156106af57600080fd5b506103996106be366004612bb9565b60096020526000908152604090205481565b3480156106dc57600080fd5b5061025f6106eb366004612bb9565b61196d565b3480156106fc57600080fd5b5061065661070b366004612d6e565b611b4a565b34801561071c57600080fd5b5061025f61072b366004612eef565b611b74565b34801561073c57600080fd5b5061025f61074b366004612bb9565b611c90565b34801561075c57600080fd5b5060035461028190610100900460ff1681565b34801561077b57600080fd5b506003546102819062010000900460ff1681565b34801561079b57600080fd5b5061025f6107aa366004612db3565b611e34565b6107ba600033611944565b6107d757604051634ca8886760e01b815260040160405180910390fd5b6001600160a01b0382166000908152600860205260408120548391036108205760405163f4c8fba360e01b81526001600160a01b03821660048201526024015b60405180910390fd5b6001600160a01b0383166000818152600d6020908152604091829020805460ff191686151590811790915591519182527f70d2c92da609a3045e6b2a21e9d4cd5dc02f15a3830961912b03f5b236b78c8b91015b60405180910390a2505050565b60006001600160e01b03198216637965db0b60e01b14806108b257506301ffc9a760e01b6001600160e01b03198316145b92915050565b600480546108c590612f8e565b80601f01602080910402602001604051908101604052809291908181526020018280546108f190612f8e565b801561093e5780601f106109135761010080835404028352916020019161093e565b820191906000526020600020905b81548152906001019060200180831161092157829003601f168201915b505050505081565b610951600033611944565b61096e57604051634ca8886760e01b815260040160405180910390fd5b8151601981106109915760405163104e7cef60e31b815260040160405180910390fd5b815181146109b25760405163586cb9e160e01b815260040160405180910390fd5b60005b81811015610a01576109f98482815181106109d2576109d2612fc2565b60200260200101518483815181106109ec576109ec612fc2565b6020026020010151611671565b6001016109b5565b50505050565b610a12600033611944565b610a2f57604051634ca8886760e01b815260040160405180910390fd5b8015610ac4576001600160a01b03821660009081526008602052604090205415610a6c5760405163094d784960e21b815260040160405180910390fd5b610a77600083610e83565b6001600160a01b0382166000818152600b6020526040808220805460ff19166001179055517f44d6d25963f097ad14f29f06854a01f575648a1ef82f30e562ccd3889717e3399190a25050565b6007546001600160a01b0390811690831603610af357604051634ca8886760e01b815260040160405180910390fd5b610afe600083611e34565b6001600160a01b0382166000818152600b6020526040808220805460ff19169055517fa3b62bc36326052d97ea62d63c3d60308ed4c3ea8ac079dd8499f1e9c4f80c0f9190a25b5050565b336000818152600860205260408120549003610b835760405163f4c8fba360e01b81526001600160a01b0382166004820152602401610817565b600260015403610ba55760405162461bcd60e51b815260040161081790612fd8565b600260015560035462010000900460ff1615610bd45760405163af9e1b4360e01b815260040160405180910390fd5b336000908152600c60205260409020548210610c0357604051632bb8b38560e11b815260040160405180910390fd5b336000908152600c60205260408120805484908110610c2457610c24612fc2565b906000526020600020906004020190508060020160019054906101000a900460ff1615610c6457604051635a4a8a4360e11b815260040160405180910390fd5b336000908152600d602052604090205460ff168015610c885750600281015460ff16155b15610ca657604051632b811a4760e11b815260040160405180910390fd5b600354610100900460ff1615610cc357610cbe611e59565b610cce565b8054610cce90611ff3565b60028101805461ff001916610100179055805460405133917f0502837c293951f8cf960d168bcedcf3e4531ffd7010af47fe48bbff7917d9b491610d1a91878252602082015260400190565b60405180910390a2805460405133917f485f1bb6524c663555797e00171a10f341656e59b02d6b557a0a38ba7d5d975191610d5a9190600186019061300f565b60405180910390a250506001805550565b610d76600033611944565b610d9357604051634ca8886760e01b815260040160405180910390fd5b6001600160a01b0382166000908152600c60205260409020548110610dcb57604051632bb8b38560e11b815260040160405180910390fd5b6001600160a01b0382166000908152600c60205260408120805483908110610df557610df5612fc2565b906000526020600020906004020190508060020160019054906101000a900460ff1615610e3557604051635a4a8a4360e11b815260040160405180910390fd5b60028101805461ffff19166101001790556040516001600160a01b038416907f019d1297aa228eef7dd79b31640282cbe91fbc09dc0cbf5000ca5abf72805989906108749085815260200190565b600082815260208190526040902060010154610e9e816121f4565b610ea883836121fe565b505050565b610eb8600033611944565b610ed557604051634ca8886760e01b815260040160405180910390fd5b6003805482151563010000000263ff0000001990911617905560405130907f70d2c92da609a3045e6b2a21e9d4cd5dc02f15a3830961912b03f5b236b78c8b90610f2490841515815260200190565b60405180910390a250565b60035460ff16610f8c5734600003610f5a576040516327738acf60e21b815260040160405180910390fd5b60405134815233907f8e47b87b0ef542cdfa1659c551d88bad38aa7f452d2bbb349ab7530dfec8be8f90602001610f24565b80600003610fad576040516327738acf60e21b815260040160405180910390fd5b600654610fc5906001600160a01b0316333084612282565b60065460405182815233916001600160a01b0316907fa17c2a1269d65f89b5c5688ce949fa4a7f59d8fcb9bbbac872d27a142b2b49e79060200160405180910390a35b50565b6001600160a01b038116331461107b5760405162461bcd60e51b815260206004820152602f60248201527f416363657373436f6e74726f6c3a2063616e206f6e6c792072656e6f756e636560448201526e103937b632b9903337b91039b2b63360891b6064820152608401610817565b610b4582826122ed565b611090600033611944565b6110ad57604051634ca8886760e01b815260040160405180910390fd5b6001600160a01b0382166000908152600c602052604090205481106110e557604051632bb8b38560e11b815260040160405180910390fd5b6001600160a01b0382166000908152600c6020526040812080548390811061110f5761110f612fc2565b906000526020600020906004020190508060020160019054906101000a900460ff161561114f57604051635a4a8a4360e11b815260040160405180910390fd5b60028101805460ff191660011790556040516001600160a01b038416907f6f856c863eba32b6aca7d24f96817572a1f48382957c3dc9e8d4741f38afd72e906108749085815260200190565b6111a6600033611944565b6111c357604051634ca8886760e01b815260040160405180910390fd5b60038054821515620100000262ff0000199091161790556040517fb08f70f6219c5c2ed5e08e7cf45080e4840fde880b27a0841faf45475cd02d2e9061120e90831515815260200190565b60405180910390a150565b600c602052816000526040600020818154811061123557600080fd5b90600052602060002090600402016000915091505080600001549080600101805461125f90612f8e565b80601f016020809104026020016040519081016040528092919081815260200182805461128b90612f8e565b80156112d85780601f106112ad576101008083540402835291602001916112d8565b820191906000526020600020905b8154815290600101906020018083116112bb57829003601f168201915b505050506002830154600390930154919260ff8082169361010090920416915085565b600580546108c590612f8e565b60608160008167ffffffffffffffff81111561132657611326612bd6565b60405190808252806020026020018201604052801561136b57816020015b60408051808201909152600080825260208201528152602001906001900390816113445790505b50905060005b828110156113fe57600086868381811061138d5761138d612fc2565b90506020020160208101906113a29190612bb9565b6001600160a01b03811660009081526008602090815260409182902082518084019093528054835260010154908201528451919250908490849081106113ea576113ea612fc2565b602090810291909101015250600101611371565b50949350505050565b6001600160a01b0381166000908152600860205260408120548290820361144c5760405163f4c8fba360e01b81526001600160a01b0382166004820152602401610817565b6001600160a01b0383166000908152600860209081526040918290208251808401909352805483526001015490820152600354610100900460ff16156114ab576000198160200151036114a1575191506114f6565b60009250506114f6565b60008160200151426114bd91906130b8565b90506002548110156114f1576002548251600091906114dc90846130cb565b6114e691906130e2565b94506114f692505050565b505191505b50919050565b611507600033611944565b61152457604051634ca8886760e01b815260040160405180910390fd5b6001600160a01b0382166000908152600860205260408120548391036115685760405163f4c8fba360e01b81526001600160a01b0382166004820152602401610817565b6509184e72a00082108015611580575060035460ff16155b156115ad5760405163c281dd3b60e01b8152600481018390526509184e72a0006024820152604401610817565b620f4240821080156115c1575060035460ff165b156115eb5760405163c281dd3b60e01b815260048101839052620f42406024820152604401610817565b6001600160a01b0383166000908152600860205260409020828155600354610100900460ff166116285760025461162290426130b8565b60018201555b836001600160a01b03167f95089b8d5f5b1df642061c1947fbec71ede04a0aaa13de4b3e1054031610a0d58460405161166391815260200190565b60405180910390a250505050565b61167c600033611944565b61169957604051634ca8886760e01b815260040160405180910390fd5b600a546019116116bc5760405163104e7cef60e31b815260040160405180910390fd5b6116c68282612352565b600354610100900460ff16156117165760408051808201825282815260001960208083019182526001600160a01b0386166000908152600890915292909220905181559051600190910155611760565b60405180604001604052808281526020016002544261173591906130b8565b90526001600160a01b0383166000908152600860209081526040909120825181559101516001909101555b600a80546001808201835560008390527fc65a7bb8d6351c1cf70c95a316cc6a92839c986682d98bc35f958f4883f9d2a890910180546001600160a01b0319166001600160a01b03861617905590546117b991906130b8565b6001600160a01b0383166000908152600960205260409020556003546301000000900460ff161561183f576001600160a01b0382166000818152600d6020908152604091829020805460ff1916600190811790915591519182527f70d2c92da609a3045e6b2a21e9d4cd5dc02f15a3830961912b03f5b236b78c8b910160405180910390a25b816001600160a01b03167f49707f6097e3d8b2d861adf67aadfb41a45746f9d46701065ed09ff12f9e41c38260405161187a91815260200190565b60405180910390a25050565b6007546001600160a01b031633146118b15760405163ea8e4eb560e01b815260040160405180910390fd5b6001600160a01b0381166118d85760405163b5aaecfd60e01b815260040160405180910390fd5b600780546001600160a01b0319166001600160a01b038316908117909155611902906000906122ed565b61190d6000826121fe565b6040516001600160a01b038216907fb8121b611a666c4d7c03b96ba9dbc315332dc3f1aa77a22c0a1c162e55c5c32b90600090a250565b6000918252602082815260408084206001600160a01b0393909316845291905290205460ff1690565b611978600033611944565b61199557604051634ca8886760e01b815260040160405180910390fd5b6002600154036119b75760405162461bcd60e51b815260040161081790612fd8565b600260015560006001600160a01b038216611a835750478015611a7d576007546040516000916001600160a01b03169083908381818185875af1925050503d8060008114611a21576040519150601f19603f3d011682016040523d82523d6000602084013e611a26565b606091505b5050905080611a4857604051637d6a86b760e11b815260040160405180910390fd5b6040518281527f217f10a82904d12e2798042bffcd3f5c3cab8f7ea5638a4c0b804a5d6487c8fa9060200160405180910390a1505b50611b43565b6040516370a0823160e01b81523060048201526001600160a01b038316906370a0823190602401602060405180830381865afa158015611ac7573d6000803e3d6000fd5b505050506040513d601f19601f82011682018060405250810190611aeb9190613104565b90508015611b4157600754611b0d906001600160a01b0384811691168361246d565b6040518181527f217f10a82904d12e2798042bffcd3f5c3cab8f7ea5638a4c0b804a5d6487c8fa9060200160405180910390a15b505b5060018055565b600a8181548110611b5a57600080fd5b6000918252602090912001546001600160a01b0316905081565b336000818152600860205260408120549003611bae5760405163f4c8fba360e01b81526001600160a01b0382166004820152602401610817565b600260015403611bd05760405162461bcd60e51b815260040161081790612fd8565b600260015560035462010000900460ff1615611bff5760405163af9e1b4360e01b815260040160405180910390fd5b336000908152600d602052604090205460ff1615611c2657611c21838361249d565b611c87565b600354610100900460ff1615611c4357611c3e611e59565b611c4c565b611c4c83611ff3565b336001600160a01b03167f485f1bb6524c663555797e00171a10f341656e59b02d6b557a0a38ba7d5d97518484604051610d5a92919061311d565b50506001805550565b611c9b600033611944565b611cb857604051634ca8886760e01b815260040160405180910390fd5b6001600160a01b038116600090815260086020526040812054829103611cfc5760405163f4c8fba360e01b81526001600160a01b0382166004820152602401610817565b6001600160a01b038216600090815260096020526040812054600a8054919291611d28906001906130b8565b81548110611d3857611d38612fc2565b6000918252602090912001546001600160a01b03908116915084168114611da75780600a8381548110611d6d57611d6d612fc2565b600091825260208083209190910180546001600160a01b0319166001600160a01b0394851617905591831681526009909152604090208290555b600a805480611db857611db8613136565b60008281526020808220600019908401810180546001600160a01b03191690559092019092556001600160a01b0386168083526008825260408084208481556001018490556009835280842084905551928352917f95089b8d5f5b1df642061c1947fbec71ede04a0aaa13de4b3e1054031610a0d59101611663565b600082815260208190526040902060010154611e4f816121f4565b610ea883836122ed565b336000908152600860205260409020600181015460001914611e8e57604051632de4346760e11b815260040160405180910390fd5b805460035460ff16611f36574781811015611ec657604051631508de4560e01b81526004810183905260248101829052604401610817565b604051600090339084908381818185875af1925050503d8060008114611f08576040519150601f19603f3d011682016040523d82523d6000602084013e611f0d565b606091505b5050905080611f2f57604051637d6a86b760e11b815260040160405180910390fd5b5050611fe9565b6006546040516370a0823160e01b81523060048201526000916001600160a01b0316906370a0823190602401602060405180830381865afa158015611f7f573d6000803e3d6000fd5b505050506040513d601f19601f82011682018060405250810190611fa39190613104565b905081811015611fd057604051631508de4560e01b81526004810183905260248101829052604401610817565b600654611fe7906001600160a01b0316338461246d565b505b5042600190910155565b6000611ffe33611407565b90508181101561202b5760405163ba49c84f60e01b81526004810183905260248101829052604401610817565b33600090815260086020526040812060018101546002549192909142919061205390836130b8565b905080831015612061578092505b60035460ff1661210757478681101561209757604051631508de4560e01b81526004810188905260248101829052604401610817565b604051600090339089908381818185875af1925050503d80600081146120d9576040519150601f19603f3d011682016040523d82523d6000602084013e6120de565b606091505b505090508061210057604051637d6a86b760e11b815260040160405180910390fd5b50506121ba565b6006546040516370a0823160e01b81523060048201526000916001600160a01b0316906370a0823190602401602060405180830381865afa158015612150573d6000803e3d6000fd5b505050506040513d601f19601f820116820180604052508101906121749190613104565b9050868110156121a157604051631508de4560e01b81526004810188905260248101829052604401610817565b6006546121b8906001600160a01b0316338961246d565b505b84866121c685856130b8565b6121d091906130cb565b6121da91906130e2565b6121e4908461314c565b8460010181905550505050505050565b6110088133612676565b6122088282611944565b610b45576000828152602081815260408083206001600160a01b03851684529091529020805460ff1916600117905561223e3390565b6001600160a01b0316816001600160a01b0316837f2f8788117e7eff1d82e926ec794901d17c78024a50270940304540a733656f0d60405160405180910390a45050565b6040516001600160a01b0380851660248301528316604482015260648101829052610a019085906323b872dd60e01b906084015b60408051601f198184030181529190526020810180516001600160e01b03166001600160e01b0319909316929092179091526126da565b6122f78282611944565b15610b45576000828152602081815260408083206001600160a01b0385168085529252808320805460ff1916905551339285917ff6391f5c32d9c69d2a47ea670b442974b53935d1edc7fd64eb21e047a839171b9190a45050565b6509184e72a0008110801561236a575060035460ff16155b156123975760405163c281dd3b60e01b8152600481018290526509184e72a0006024820152604401610817565b620f4240811080156123ab575060035460ff165b156123d55760405163c281dd3b60e01b815260048101829052620f42406024820152604401610817565b6001600160a01b0382166123fc5760405163094d784960e21b815260040160405180910390fd5b6001600160a01b0382166000908152600b602052604090205460ff16156124365760405163094d784960e21b815260040160405180910390fd5b6001600160a01b03821660009081526008602052604090205415610b4557604051637fe8efbb60e01b815260040160405180910390fd5b6040516001600160a01b038316602482015260448101829052610ea890849063a9059cbb60e01b906064016122b6565b336000818152600c6020526040812054815b81811015612515576001600160a01b0384166000908152600c602052604090208054829081106124e1576124e1612fc2565b906000526020600020906004020160020160019054906101000a900460ff1661250d5760019250612515565b6001016124af565b5081156125355760405163ef97f13b60e01b815260040160405180910390fd5b600061254033611407565b90508581101561256d5760405163ba49c84f60e01b81526004810187905260248101829052604401610817565b336000908152600c60209081526040808320815160a0810183528a81528084018a8152928101859052606081018590524260808201528154600181810184559286529390942084516004909402019283559051908201906125ce90826131ad565b50604082810151600283018054606086015115156101000261ff00199315159390931661ffff1990911617919091179055608090920151600390910155336000908152600c60205290812054612626906001906130b8565b9050336001600160a01b03167f0aed8180bd84f93fd8a307d9c534f2081366c2231daec597d51911c89fdae2a68289896040516126659392919061326d565b60405180910390a250505050505050565b6126808282611944565b610b4557612698816001600160a01b031660146127ac565b6126a38360206127ac565b6040516020016126b4929190613295565b60408051601f198184030181529082905262461bcd60e51b825261081791600401612ba6565b600061272f826040518060400160405280602081526020017f5361666545524332303a206c6f772d6c6576656c2063616c6c206661696c6564815250856001600160a01b031661294f9092919063ffffffff16565b805190915015610ea8578080602001905181019061274d919061330a565b610ea85760405162461bcd60e51b815260206004820152602a60248201527f5361666545524332303a204552433230206f7065726174696f6e20646964206e6044820152691bdd081cdd58d8d9595960b21b6064820152608401610817565b606060006127bb8360026130cb565b6127c690600261314c565b67ffffffffffffffff8111156127de576127de612bd6565b6040519080825280601f01601f191660200182016040528015612808576020820181803683370190505b509050600360fc1b8160008151811061282357612823612fc2565b60200101906001600160f81b031916908160001a905350600f60fb1b8160018151811061285257612852612fc2565b60200101906001600160f81b031916908160001a90535060006128768460026130cb565b61288190600161314c565b90505b60018111156128f9576f181899199a1a9b1b9c1cb0b131b232b360811b85600f16601081106128b5576128b5612fc2565b1a60f81b8282815181106128cb576128cb612fc2565b60200101906001600160f81b031916908160001a90535060049490941c936128f281613327565b9050612884565b5083156129485760405162461bcd60e51b815260206004820181905260248201527f537472696e67733a20686578206c656e67746820696e73756666696369656e746044820152606401610817565b9392505050565b606061295e8484600085612966565b949350505050565b6060824710156129c75760405162461bcd60e51b815260206004820152602660248201527f416464726573733a20696e73756666696369656e742062616c616e636520666f6044820152651c8818d85b1b60d21b6064820152608401610817565b6001600160a01b0385163b612a1e5760405162461bcd60e51b815260206004820152601d60248201527f416464726573733a2063616c6c20746f206e6f6e2d636f6e74726163740000006044820152606401610817565b600080866001600160a01b03168587604051612a3a919061333e565b60006040518083038185875af1925050503d8060008114612a77576040519150601f19603f3d011682016040523d82523d6000602084013e612a7c565b606091505b5091509150612a8c828286612a97565b979650505050505050565b60608315612aa6575081612948565b825115612ab65782518084602001fd5b8160405162461bcd60e51b81526004016108179190612ba6565b6001600160a01b038116811461100857600080fd5b801515811461100857600080fd5b60008060408385031215612b0657600080fd5b8235612b1181612ad0565b91506020830135612b2181612ae5565b809150509250929050565b600060208284031215612b3e57600080fd5b81356001600160e01b03198116811461294857600080fd5b60005b83811015612b71578181015183820152602001612b59565b50506000910152565b60008151808452612b92816020860160208601612b56565b601f01601f19169290920160200192915050565b6020815260006129486020830184612b7a565b600060208284031215612bcb57600080fd5b813561294881612ad0565b634e487b7160e01b600052604160045260246000fd5b604051601f8201601f1916810167ffffffffffffffff81118282101715612c1557612c15612bd6565b604052919050565b600067ffffffffffffffff821115612c3757612c37612bd6565b5060051b60200190565b600082601f830112612c5257600080fd5b81356020612c67612c6283612c1d565b612bec565b82815260059290921b84018101918181019086841115612c8657600080fd5b8286015b84811015612ca15780358352918301918301612c8a565b509695505050505050565b60008060408385031215612cbf57600080fd5b823567ffffffffffffffff80821115612cd757600080fd5b818501915085601f830112612ceb57600080fd5b81356020612cfb612c6283612c1d565b82815260059290921b84018101918181019089841115612d1a57600080fd5b948201945b83861015612d41578535612d3281612ad0565b82529482019490820190612d1f565b96505086013592505080821115612d5757600080fd5b50612d6485828601612c41565b9150509250929050565b600060208284031215612d8057600080fd5b5035919050565b60008060408385031215612d9a57600080fd5b8235612da581612ad0565b946020939093013593505050565b60008060408385031215612dc657600080fd5b823591506020830135612b2181612ad0565b600060208284031215612dea57600080fd5b813561294881612ae5565b85815260a060208201526000612e0e60a0830187612b7a565b941515604083015250911515606083015260809091015292915050565b60008060208385031215612e3e57600080fd5b823567ffffffffffffffff80821115612e5657600080fd5b818501915085601f830112612e6a57600080fd5b813581811115612e7957600080fd5b8660208260051b8501011115612e8e57600080fd5b60209290920196919550909350505050565b602080825282518282018190526000919060409081850190868401855b82811015612ee257815180518552860151868501529284019290850190600101612ebd565b5091979650505050505050565b60008060408385031215612f0257600080fd5b8235915060208084013567ffffffffffffffff80821115612f2257600080fd5b818601915086601f830112612f3657600080fd5b813581811115612f4857612f48612bd6565b612f5a601f8201601f19168501612bec565b91508082528784828501011115612f7057600080fd5b80848401858401376000848284010152508093505050509250929050565b600181811c90821680612fa257607f821691505b6020821081036114f657634e487b7160e01b600052602260045260246000fd5b634e487b7160e01b600052603260045260246000fd5b6020808252601f908201527f5265656e7472616e637947756172643a207265656e7472616e742063616c6c00604082015260600190565b828152600060206040818401526000845461302981612f8e565b806040870152606060018084166000811461304b576001811461306557613093565b60ff1985168984015283151560051b890183019550613093565b896000528660002060005b8581101561308b5781548b8201860152908301908801613070565b8a0184019650505b50939998505050505050505050565b634e487b7160e01b600052601160045260246000fd5b818103818111156108b2576108b26130a2565b80820281158282048414176108b2576108b26130a2565b6000826130ff57634e487b7160e01b600052601260045260246000fd5b500490565b60006020828403121561311657600080fd5b5051919050565b82815260406020820152600061295e6040830184612b7a565b634e487b7160e01b600052603160045260246000fd5b808201808211156108b2576108b26130a2565b601f821115610ea857600081815260208120601f850160051c810160208610156131865750805b601f850160051c820191505b818110156131a557828155600101613192565b505050505050565b815167ffffffffffffffff8111156131c7576131c7612bd6565b6131db816131d58454612f8e565b8461315f565b602080601f83116001811461321057600084156131f85750858301515b600019600386901b1c1916600185901b1785556131a5565b600085815260208120601f198616915b8281101561323f57888601518255948401946001909101908401613220565b508582101561325d5787850151600019600388901b60f8161c191681555b5050505050600190811b01905550565b83815282602082015260606040820152600061328c6060830184612b7a565b95945050505050565b7f416363657373436f6e74726f6c3a206163636f756e74200000000000000000008152600083516132cd816017850160208801612b56565b7001034b99036b4b9b9b4b733903937b6329607d1b60179184019182015283516132fe816028840160208801612b56565b01602801949350505050565b60006020828403121561331c57600080fd5b815161294881612ae5565b600081613336576133366130a2565b506000190190565b60008251613350818460208701612b56565b919091019291505056fea26469706673582212206ae105bb5d84f334a7e474e905c2962da14dc874d3524212e7f8deb2ec912e5f64736f6c63430008140033a2646970667358221220e31f91f2e3244dfd2916516c74616b245acda1200b443e38a4d49c0e7eb6201e64736f6c63430008140033",
  "devdoc": {
    "details": "Factory contract for deploying new Cohort contracts with an updatable creation fee",
    "kind": "dev",
    "methods": {
      "constructor": {
        "details": "Constructor sets the price feed address and initial creation fee",
        "params": {
          "_priceFeed": "Chainlink price feed address for ETH/USD"
        }
      },
      "createCohort(address,address,string,string,uint256,address[],uint256[],bool)": {
        "details": "Creates a new Cohort contract",
        "params": {
          "_builders": "Array of builder addresses",
          "_caps": "Array of cap values for builders",
          "_cycle": "Cycle duration",
          "_description": "Description of the cohort",
          "_name": "Name of the cohort",
          "_primaryAdmin": "Address of the primary admin",
          "_tokenAddress": "Address of ERC20 token (zero address for ETH)"
        },
        "returns": {
          "_0": "Address of the newly created cohort"
        }
      },
      "getAllCohorts()": {
        "details": "Gets all created cohorts with their information",
        "returns": {
          "_0": "Array of CohortInfo structs"
        }
      },
      "getCohortByIndex(uint256)": {
        "details": "Gets cohort information by index",
        "params": {
          "_index": "Index of the cohort in the registry"
        },
        "returns": {
          "_0": "Cohort information"
        }
      },
      "getRequiredEthAmount()": {
        "details": "Calculates required ETH amount for creation fee based on current ETH price",
        "returns": {
          "_0": "Required ETH amount in wei"
        }
      },
      "getTotalCohorts()": {
        "details": "Gets the total number of created cohorts",
        "returns": {
          "_0": "Number of cohorts"
        }
      },
      "owner()": {
        "details": "Returns the address of the current owner."
      },
      "renounceOwnership()": {
        "details": "Leaves the contract without owner. It will not be possible to call `onlyOwner` functions anymore. Can only be called by the current owner. NOTE: Renouncing ownership will leave the contract without an owner, thereby removing any functionality that is only available to the owner."
      },
      "transferOwnership(address)": {
        "details": "Transfers ownership of the contract to a new account (`newOwner`). Can only be called by the current owner."
      },
      "updateCreationFee(uint256)": {
        "details": "Updates the creation fee amount",
        "params": {
          "_newFeeUSD": "New fee amount in USD (scaled by 1e18)"
        }
      },
      "updatePriceFeed(address)": {
        "details": "Updates the price feed address",
        "params": {
          "_newPriceFeed": "New price feed address"
        }
      }
    },
    "title": "CohortFactory",
    "version": 1
  },
  "userdoc": {
    "kind": "user",
    "methods": {},
    "version": 1
  },
  "storageLayout": {
    "storage": [
      {
        "astId": 446,
        "contract": "contracts/CohortFactory.sol:CohortFactory",
        "label": "_owner",
        "offset": 0,
        "slot": "0",
        "type": "t_address"
      },
      {
        "astId": 3466,
        "contract": "contracts/CohortFactory.sol:CohortFactory",
        "label": "priceFeed",
        "offset": 0,
        "slot": "1",
        "type": "t_contract(AggregatorV3Interface)45"
      },
      {
        "astId": 3468,
        "contract": "contracts/CohortFactory.sol:CohortFactory",
        "label": "creationFeeUSD",
        "offset": 0,
        "slot": "2",
        "type": "t_uint256"
      },
      {
        "astId": 3472,
        "contract": "contracts/CohortFactory.sol:CohortFactory",
        "label": "isCohort",
        "offset": 0,
        "slot": "3",
        "type": "t_mapping(t_address,t_bool)"
      },
      {
        "astId": 3477,
        "contract": "contracts/CohortFactory.sol:CohortFactory",
        "label": "cohortRegistry",
        "offset": 0,
        "slot": "4",
        "type": "t_mapping(t_uint256,t_struct(CohortInfo)3463_storage)"
      },
      {
        "astId": 3479,
        "contract": "contracts/CohortFactory.sol:CohortFactory",
        "label": "totalCohorts",
        "offset": 0,
        "slot": "5",
        "type": "t_uint256"
      }
    ],
    "types": {
      "t_address": {
        "encoding": "inplace",
        "label": "address",
        "numberOfBytes": "20"
      },
      "t_bool": {
        "encoding": "inplace",
        "label": "bool",
        "numberOfBytes": "1"
      },
      "t_contract(AggregatorV3Interface)45": {
        "encoding": "inplace",
        "label": "contract AggregatorV3Interface",
        "numberOfBytes": "20"
      },
      "t_mapping(t_address,t_bool)": {
        "encoding": "mapping",
        "key": "t_address",
        "label": "mapping(address => bool)",
        "numberOfBytes": "32",
        "value": "t_bool"
      },
      "t_mapping(t_uint256,t_struct(CohortInfo)3463_storage)": {
        "encoding": "mapping",
        "key": "t_uint256",
        "label": "mapping(uint256 => struct CohortFactory.CohortInfo)",
        "numberOfBytes": "32",
        "value": "t_struct(CohortInfo)3463_storage"
      },
      "t_string_storage": {
        "encoding": "bytes",
        "label": "string",
        "numberOfBytes": "32"
      },
      "t_struct(CohortInfo)3463_storage": {
        "encoding": "inplace",
        "label": "struct CohortFactory.CohortInfo",
        "members": [
          {
            "astId": 3458,
            "contract": "contracts/CohortFactory.sol:CohortFactory",
            "label": "cohortAddress",
            "offset": 0,
            "slot": "0",
            "type": "t_address"
          },
          {
            "astId": 3460,
            "contract": "contracts/CohortFactory.sol:CohortFactory",
            "label": "name",
            "offset": 0,
            "slot": "1",
            "type": "t_string_storage"
          },
          {
            "astId": 3462,
            "contract": "contracts/CohortFactory.sol:CohortFactory",
            "label": "creationTimestamp",
            "offset": 0,
            "slot": "2",
            "type": "t_uint256"
          }
        ],
        "numberOfBytes": "96"
      },
      "t_uint256": {
        "encoding": "inplace",
        "label": "uint256",
        "numberOfBytes": "32"
      }
    }
  }
}