{
  "address": "0xc216d687B2Ca8c97c1840B4f4C209a15322CE59f",
  "abi": [
    {
      "inputs": [
        {
          "internalType": "address",
          "name": "_priceFeed",
          "type": "address"
        }
      ],
      "stateMutability": "nonpayable",
      "type": "constructor"
    },
    {
      "inputs": [],
      "name": "FailedToSendETH",
      "type": "error"
    },
    {
      "inputs": [
        {
          "internalType": "uint256",
          "name": "required",
          "type": "uint256"
        },
        {
          "internalType": "uint256",
          "name": "provided",
          "type": "uint256"
        }
      ],
      "name": "InsufficientPayment",
      "type": "error"
    },
    {
      "inputs": [
        {
          "internalType": "address",
          "name": "owner",
          "type": "address"
        }
      ],
      "name": "OwnableInvalidOwner",
      "type": "error"
    },
    {
      "inputs": [
        {
          "internalType": "address",
          "name": "account",
          "type": "address"
        }
      ],
      "name": "OwnableUnauthorizedAccount",
      "type": "error"
    },
    {
      "inputs": [],
      "name": "PriceFeedInvalid",
      "type": "error"
    },
    {
      "anonymous": false,
      "inputs": [
        {
          "indexed": true,
          "internalType": "address",
          "name": "cohortAddress",
          "type": "address"
        },
        {
          "indexed": true,
          "internalType": "address",
          "name": "primaryAdmin",
          "type": "address"
        },
        {
          "indexed": false,
          "internalType": "string",
          "name": "name",
          "type": "string"
        },
        {
          "indexed": false,
          "internalType": "string",
          "name": "description",
          "type": "string"
        }
      ],
      "name": "CohortCreated",
      "type": "event"
    },
    {
      "anonymous": false,
      "inputs": [
        {
          "indexed": true,
          "internalType": "address",
          "name": "previousOwner",
          "type": "address"
        },
        {
          "indexed": true,
          "internalType": "address",
          "name": "newOwner",
          "type": "address"
        }
      ],
      "name": "OwnershipTransferred",
      "type": "event"
    },
    {
      "anonymous": false,
      "inputs": [
        {
          "indexed": false,
          "internalType": "address",
          "name": "newPriceFeed",
          "type": "address"
        }
      ],
      "name": "PriceFeedUpdated",
      "type": "event"
    },
    {
      "inputs": [],
      "name": "CREATION_FEE_USD",
      "outputs": [
        {
          "internalType": "uint256",
          "name": "",
          "type": "uint256"
        }
      ],
      "stateMutability": "view",
      "type": "function"
    },
    {
      "inputs": [
        {
          "internalType": "uint256",
          "name": "",
          "type": "uint256"
        }
      ],
      "name": "cohorts",
      "outputs": [
        {
          "internalType": "address",
          "name": "",
          "type": "address"
        }
      ],
      "stateMutability": "view",
      "type": "function"
    },
    {
      "inputs": [
        {
          "internalType": "address",
          "name": "_primaryAdmin",
          "type": "address"
        },
        {
          "internalType": "address",
          "name": "_tokenAddress",
          "type": "address"
        },
        {
          "internalType": "string",
          "name": "_name",
          "type": "string"
        },
        {
          "internalType": "string",
          "name": "_description",
          "type": "string"
        }
      ],
      "name": "createCohort",
      "outputs": [
        {
          "internalType": "address",
          "name": "",
          "type": "address"
        }
      ],
      "stateMutability": "payable",
      "type": "function"
    },
    {
      "inputs": [],
      "name": "getAllCohorts",
      "outputs": [
        {
          "internalType": "address[]",
          "name": "",
          "type": "address[]"
        }
      ],
      "stateMutability": "view",
      "type": "function"
    },
    {
      "inputs": [],
      "name": "getRequiredEthAmount",
      "outputs": [
        {
          "internalType": "uint256",
          "name": "",
          "type": "uint256"
        }
      ],
      "stateMutability": "view",
      "type": "function"
    },
    {
      "inputs": [],
      "name": "getTotalCohorts",
      "outputs": [
        {
          "internalType": "uint256",
          "name": "",
          "type": "uint256"
        }
      ],
      "stateMutability": "view",
      "type": "function"
    },
    {
      "inputs": [
        {
          "internalType": "address",
          "name": "",
          "type": "address"
        }
      ],
      "name": "isCohort",
      "outputs": [
        {
          "internalType": "bool",
          "name": "",
          "type": "bool"
        }
      ],
      "stateMutability": "view",
      "type": "function"
    },
    {
      "inputs": [],
      "name": "owner",
      "outputs": [
        {
          "internalType": "address",
          "name": "",
          "type": "address"
        }
      ],
      "stateMutability": "view",
      "type": "function"
    },
    {
      "inputs": [],
      "name": "renounceOwnership",
      "outputs": [],
      "stateMutability": "nonpayable",
      "type": "function"
    },
    {
      "inputs": [
        {
          "internalType": "address",
          "name": "newOwner",
          "type": "address"
        }
      ],
      "name": "transferOwnership",
      "outputs": [],
      "stateMutability": "nonpayable",
      "type": "function"
    },
    {
      "inputs": [
        {
          "internalType": "address",
          "name": "_newPriceFeed",
          "type": "address"
        }
      ],
      "name": "updatePriceFeed",
      "outputs": [],
      "stateMutability": "nonpayable",
      "type": "function"
    }
  ],
  "transactionHash": "0x790444136bb0bc12e4ddb2829c7730735e998b5077ad4210b20b6f278aedd5f4",
  "args": [
    "0x4aDC67696bA383F43DD60A9e78F2C97Fbbfc7cb1"
  ],
  "numDeployments": 6,
  "solcInputHash": "02671123a5af61869675defb31a74054",
  "bytecode": "0x608060405234801561001057600080fd5b5060405161303838038061303883398101604081905261002f916100fb565b338061005557604051631e4fbdf760e01b81526000600482015260240160405180910390fd5b61005e816100ab565b506001600160a01b038116610086576040516307806b6560e31b815260040160405180910390fd5b600180546001600160a01b0319166001600160a01b039290921691909117905561012b565b600080546001600160a01b038381166001600160a01b0319831681178455604051919092169283917f8be0079c531659141344cd1fd0a4f28419497f9722a3daafe3b4186f6b6457e09190a35050565b60006020828403121561010d57600080fd5b81516001600160a01b038116811461012457600080fd5b9392505050565b612efe8061013a6000396000f3fe608060405260043610620000a95760003560e01c806374ed78d0116200006c57806374ed78d01462000189578063858ab90814620001ae5780638da5cb5b14620001cc57806395877f7814620001ec5780639b8a969e1462000211578063f2fde38b146200022957600080fd5b8063114be58514620000ae5780634bdcda9214620000d35780634e73e35514620001185780636abd4251146200013f578063715018a6146200016f575b600080fd5b348015620000bb57600080fd5b506003545b6040519081526020015b60405180910390f35b348015620000e057600080fd5b5062000107620000f23660046200076a565b60026020526000908152604090205460ff1681565b6040519015158152602001620000ca565b3480156200012557600080fd5b50620001306200024e565b604051620000ca919062000788565b620001566200015036600462000882565b620002b2565b6040516001600160a01b039091168152602001620000ca565b3480156200017c57600080fd5b5062000187620004a0565b005b3480156200019657600080fd5b5062000156620001a836600462000912565b620004b8565b348015620001bb57600080fd5b50620000c0678ac7230489e8000081565b348015620001d957600080fd5b506000546001600160a01b031662000156565b348015620001f957600080fd5b50620001876200020b3660046200076a565b620004e3565b3480156200021e57600080fd5b50620000c062000569565b3480156200023657600080fd5b5062000187620002483660046200076a565b620005b6565b60606003805480602002602001604051908101604052809291908181526020018280548015620002a857602002820191906000526020600020905b81546001600160a01b0316815260019091019060200180831162000289575b5050505050905090565b600080620002bf62000569565b600154909150678ac7230489e8000090620002e59034906001600160a01b0316620005fa565b1015620003135760405163b99e2ab760e01b8152600481018290523460248201526044015b60405180910390fd5b60008686868660405162000327906200073f565b62000336949392919062000974565b604051809103906000f08015801562000353573d6000803e3d6000fd5b506001600160a01b0381166000818152600260205260408120805460ff1916600190811790915560038054918201815582527fc2575a0e9e593c00f959f8c92f12db2869c3395a3b0502d05e2516446f71f85b0180546001600160a01b0319169092179091559091508190620003d16000546001600160a01b031690565b6001600160a01b03163460405160006040518083038185875af1925050503d80600081146200041d576040519150601f19603f3d011682016040523d82523d6000602084013e62000422565b606091505b505090508062000445576040516338822c1360e11b815260040160405180910390fd5b886001600160a01b0316826001600160a01b03167f570e843f430e9c07b135675740293a86d5c98eb4b737091ea2c5cb61ae9293bf89896040516200048c929190620009c1565b60405180910390a350979650505050505050565b620004aa62000638565b620004b6600062000667565b565b60038181548110620004c957600080fd5b6000918252602090912001546001600160a01b0316905081565b620004ed62000638565b6001600160a01b03811662000515576040516307806b6560e31b815260040160405180910390fd5b600180546001600160a01b0319166001600160a01b0383169081179091556040519081527fe5b20b8497e4f3e2435ef9c20e2e26b47497ee13745ce1c681ad6640653119e69060200160405180910390a150565b600154600090819062000585906001600160a01b0316620006b7565b905080620005a4678ac7230489e80000670de0b6b3a764000062000a09565b620005b0919062000a23565b91505090565b620005c062000638565b6001600160a01b038116620005ec57604051631e4fbdf760e01b8152600060048201526024016200030a565b620005f78162000667565b50565b6000806200060883620006b7565b90506000670de0b6b3a764000062000621868462000a09565b6200062d919062000a23565b925050505b92915050565b6000546001600160a01b03163314620004b65760405163118cdaa760e01b81523360048201526024016200030a565b600080546001600160a01b038381166001600160a01b0319831681178455604051919092169283917f8be0079c531659141344cd1fd0a4f28419497f9722a3daafe3b4186f6b6457e09190a35050565b600080826001600160a01b031663feaf968c6040518163ffffffff1660e01b815260040160a060405180830381865afa158015620006f9573d6000803e3d6000fd5b505050506040513d601f19601f820116820180604052508101906200071f919062000a61565b505050915050806402540be40062000738919062000ab6565b9392505050565b6123dc8062000aed83390190565b80356001600160a01b03811681146200076557600080fd5b919050565b6000602082840312156200077d57600080fd5b62000738826200074d565b6020808252825182820181905260009190848201906040850190845b81811015620007cb5783516001600160a01b031683529284019291840191600101620007a4565b50909695505050505050565b634e487b7160e01b600052604160045260246000fd5b600082601f830112620007ff57600080fd5b813567ffffffffffffffff808211156200081d576200081d620007d7565b604051601f8301601f19908116603f01168101908282118183101715620008485762000848620007d7565b816040528381528660208588010111156200086257600080fd5b836020870160208301376000602085830101528094505050505092915050565b600080600080608085870312156200089957600080fd5b620008a4856200074d565b9350620008b4602086016200074d565b9250604085013567ffffffffffffffff80821115620008d257600080fd5b620008e088838901620007ed565b93506060870135915080821115620008f757600080fd5b506200090687828801620007ed565b91505092959194509250565b6000602082840312156200092557600080fd5b5035919050565b6000815180845260005b81811015620009545760208185018101518683018201520162000936565b506000602082860101526020601f19601f83011685010191505092915050565b6001600160a01b03858116825284166020820152608060408201819052600090620009a2908301856200092c565b8281036060840152620009b681856200092c565b979650505050505050565b604081526000620009d660408301856200092c565b8281036020840152620009ea81856200092c565b95945050505050565b634e487b7160e01b600052601160045260246000fd5b8082028115828204841417620006325762000632620009f3565b60008262000a4157634e487b7160e01b600052601260045260246000fd5b500490565b805169ffffffffffffffffffff811681146200076557600080fd5b600080600080600060a0868803121562000a7a57600080fd5b62000a858662000a46565b945060208601519350604086015192506060860151915062000aaa6080870162000a46565b90509295509295909350565b80820260008212600160ff1b8414161562000ad55762000ad5620009f3565b8181058314821517620006325762000632620009f356fe60806040523480156200001157600080fd5b50604051620023dc380380620023dc833981016040819052620000349162000270565b6001805562000045600085620000df565b506001600160a01b0384166000818152600a60205260409020805460ff19166001179055600680546001600160a01b031916909117905560036200008a83826200038f565b5060046200009982826200038f565b506001600160a01b03831615620000d5576002805460ff19166001179055600580546001600160a01b0385166001600160a01b03199091161790555b505050506200045b565b6000828152602081815260408083206001600160a01b038516845290915281205460ff1662000184576000838152602081815260408083206001600160a01b03861684529091529020805460ff191660011790556200013b3390565b6001600160a01b0316826001600160a01b0316847f2f8788117e7eff1d82e926ec794901d17c78024a50270940304540a733656f0d60405160405180910390a450600162000188565b5060005b92915050565b80516001600160a01b0381168114620001a657600080fd5b919050565b634e487b7160e01b600052604160045260246000fd5b600082601f830112620001d357600080fd5b81516001600160401b0380821115620001f057620001f0620001ab565b604051601f8301601f19908116603f011681019082821181831017156200021b576200021b620001ab565b816040528381526020925086838588010111156200023857600080fd5b600091505b838210156200025c57858201830151818301840152908201906200023d565b600093810190920192909252949350505050565b600080600080608085870312156200028757600080fd5b62000292856200018e565b9350620002a2602086016200018e565b60408601519093506001600160401b0380821115620002c057600080fd5b620002ce88838901620001c1565b93506060870151915080821115620002e557600080fd5b50620002f487828801620001c1565b91505092959194509250565b600181811c908216806200031557607f821691505b6020821081036200033657634e487b7160e01b600052602260045260246000fd5b50919050565b601f8211156200038a57600081815260208120601f850160051c81016020861015620003655750805b601f850160051c820191505b81811015620003865782815560010162000371565b5050505b505050565b81516001600160401b03811115620003ab57620003ab620001ab565b620003c381620003bc845462000300565b846200033c565b602080601f831160018114620003fb5760008415620003e25750858301515b600019600386901b1c1916600185901b17855562000386565b600085815260208120601f198616915b828110156200042c578886015182559484019460019091019084016200040b565b50858210156200044b5787850151600019600388901b60f8161c191681555b5050505050600190811b01905550565b611f71806200046b6000396000f3fe6080604052600436106101c65760003560e01c80636c2acff3116100f757806397e5cc6c11610095578063a217fddf11610064578063a217fddf14610575578063b83cc0db1461058a578063beb12416146105aa578063d547741f146105ca57600080fd5b806397e5cc6c146104d05780639d76ea58146104fd5780639de1b23d14610535578063a0b1f2121461055557600080fd5b806385caa917116100d157806385caa91714610450578063885d120f146104705780638c0a2d561461049057806391d14854146104b057600080fd5b80636c2acff3146103ef5780637284e4161461041c57806375f12b211461043157600080fd5b80632eb67f531161016457806336568abe1161013e57806336568abe146103465780634cb40400146103665780634d62f7ec1461038657806359b6aa71146103a657600080fd5b80632eb67f53146102f95780632f2ff15d146103135780633519a2f81461033357600080fd5b80630d12cc68116101a05780630d12cc681461024b578063116e72db1461026b578063248a9ca31461028b57806324d7806c146102c957600080fd5b806301ffc9a7146101d257806302bf8dd91461020757806306fdde031461022957600080fd5b366101cd57005b600080fd5b3480156101de57600080fd5b506101f26101ed36600461199b565b6105ea565b60405190151581526020015b60405180910390f35b34801561021357600080fd5b506102276102223660046119e1565b610621565b005b34801561023557600080fd5b5061023e610768565b6040516101fe9190611a53565b34801561025757600080fd5b50610227610266366004611b3c565b6107f6565b34801561027757600080fd5b50610227610286366004611c13565b6108b7565b34801561029757600080fd5b506102bb6102a6366004611c48565b60009081526020819052604090206001015490565b6040519081526020016101fe565b3480156102d557600080fd5b506101f26102e4366004611c61565b600a6020526000908152604090205460ff1681565b34801561030557600080fd5b506002546101f29060ff1681565b34801561031f57600080fd5b5061022761032e366004611c7e565b6109f9565b610227610341366004611c48565b610a1e565b34801561035257600080fd5b50610227610361366004611c7e565b610b00565b34801561037257600080fd5b50610227610381366004611cae565b610b38565b34801561039257600080fd5b506102bb6103a1366004611c61565b610b7a565b3480156103b257600080fd5b506103da6103c1366004611c61565b6007602052600090815260409020805460019091015482565b604080519283526020830191909152016101fe565b3480156103fb57600080fd5b5061040f61040a366004611cc9565b610c42565b6040516101fe9190611d3e565b34801561042857600080fd5b5061023e610d41565b34801561043d57600080fd5b506002546101f290610100900460ff1681565b34801561045c57600080fd5b5061022761046b366004611c61565b610d4e565b34801561047c57600080fd5b5061022761048b3660046119e1565b610f0e565b34801561049c57600080fd5b506102276104ab366004611c61565b61107d565b3480156104bc57600080fd5b506101f26104cb366004611c7e565b61113d565b3480156104dc57600080fd5b506102bb6104eb366004611c61565b60086020526000908152604090205481565b34801561050957600080fd5b5060055461051d906001600160a01b031681565b6040516001600160a01b0390911681526020016101fe565b34801561054157600080fd5b5060065461051d906001600160a01b031681565b34801561056157600080fd5b50610227610570366004611d8d565b611166565b34801561058157600080fd5b506102bb600081565b34801561059657600080fd5b5061051d6105a5366004611c48565b61140c565b3480156105b657600080fd5b506102276105c5366004611c61565b611436565b3480156105d657600080fd5b506102276105e5366004611c7e565b6115da565b60006001600160e01b03198216637965db0b60e01b148061061b57506301ffc9a760e01b6001600160e01b03198316145b92915050565b61062c60003361113d565b61064957604051634ca8886760e01b815260040160405180910390fd5b60095460191161066c576040516315d558ed60e21b815260040160405180910390fd5b61067682826115ff565b604051806040016040528082815260200162278d00426106969190611e42565b90526001600160a01b0383166000818152600760209081526040822084518155930151600193840155600980548085018255918190527f6e1540171b6c0c960b71a7020d9f60077f6af931a8bbf590da0223dacf75c7af90910180546001600160a01b0319169092179091555461070d9190611e42565b6001600160a01b038316600081815260086020526040908190209290925590517f49707f6097e3d8b2d861adf67aadfb41a45746f9d46701065ed09ff12f9e41c39061075c9084815260200190565b60405180910390a25050565b6003805461077590611e55565b80601f01602080910402602001604051908101604052809291908181526020018280546107a190611e55565b80156107ee5780601f106107c3576101008083540402835291602001916107ee565b820191906000526020600020905b8154815290600101906020018083116107d157829003601f168201915b505050505081565b61080160003361113d565b61081e57604051634ca8886760e01b815260040160405180910390fd5b815160198110610841576040516315d558ed60e21b815260040160405180910390fd5b815181146108625760405163586cb9e160e01b815260040160405180910390fd5b60005b818110156108b1576108a984828151811061088257610882611e89565b602002602001015184838151811061089c5761089c611e89565b6020026020010151610621565b600101610865565b50505050565b6108c260003361113d565b6108df57604051634ca8886760e01b815260040160405180910390fd5b8015610974576001600160a01b0382166000908152600760205260409020541561091c57604051632953f2b160e11b815260040160405180910390fd5b6109276000836109f9565b6001600160a01b0382166000818152600a6020526040808220805460ff19166001179055517f44d6d25963f097ad14f29f06854a01f575648a1ef82f30e562ccd3889717e3399190a25050565b6006546001600160a01b03908116908316036109a357604051634ca8886760e01b815260040160405180910390fd5b6109ae6000836115da565b6001600160a01b0382166000818152600a6020526040808220805460ff19169055517fa3b62bc36326052d97ea62d63c3d60308ed4c3ea8ac079dd8499f1e9c4f80c0f9190a25b5050565b600082815260208190526040902060010154610a1481611728565b6108b18383611732565b60025460ff16610a815734600003610a49576040516327738acf60e21b815260040160405180910390fd5b60405134815233907f8e47b87b0ef542cdfa1659c551d88bad38aa7f452d2bbb349ab7530dfec8be8f9060200160405180910390a250565b80600003610aa2576040516327738acf60e21b815260040160405180910390fd5b600554610aba906001600160a01b03163330846117c4565b60055460405182815233916001600160a01b0316907fa17c2a1269d65f89b5c5688ce949fa4a7f59d8fcb9bbbac872d27a142b2b49e79060200160405180910390a35b50565b6001600160a01b0381163314610b295760405163334bd91960e11b815260040160405180910390fd5b610b33828261182b565b505050565b610b4360003361113d565b610b6057604051634ca8886760e01b815260040160405180910390fd5b600280549115156101000261ff0019909216919091179055565b6001600160a01b03811660009081526007602052604081205482908203610bc45760405163122273e360e11b81526001600160a01b03821660048201526024015b60405180910390fd5b6001600160a01b0383166000908152600760209081526040808320815180830190925280548252600101549181018290529190610c019042611e42565b905062278d00811015610c3757815160009062278d0090610c229084611e9f565b610c2c9190611eb6565b9450610c3c92505050565b505191505b50919050565b60608160008167ffffffffffffffff811115610c6057610c60611a66565b604051908082528060200260200182016040528015610ca557816020015b6040805180820190915260008082526020820152815260200190600190039081610c7e5790505b50905060005b82811015610d38576000868683818110610cc757610cc7611e89565b9050602002016020810190610cdc9190611c61565b6001600160a01b0381166000908152600760209081526040918290208251808401909352805483526001015490820152845191925090849084908110610d2457610d24611e89565b602090810291909101015250600101610cab565b50949350505050565b6004805461077590611e55565b610d5960003361113d565b610d7657604051634ca8886760e01b815260040160405180910390fd5b610d7e611896565b60006001600160a01b038216610e455750478015610e3f576006546040516000916001600160a01b03169083908381818185875af1925050503d8060008114610de3576040519150601f19603f3d011682016040523d82523d6000602084013e610de8565b606091505b5050905080610e0a57604051637d6a86b760e11b815260040160405180910390fd5b6040518281527f8319bfd6f3fd889380af4226ddf22592aecc5ed1c024aacf7b33909259243beb9060200160405180910390a1505b50610f05565b6040516370a0823160e01b81523060048201526001600160a01b038316906370a0823190602401602060405180830381865afa158015610e89573d6000803e3d6000fd5b505050506040513d601f19601f82011682018060405250810190610ead9190611ed8565b90508015610f0357600654610ecf906001600160a01b038481169116836118c0565b6040518181527f8319bfd6f3fd889380af4226ddf22592aecc5ed1c024aacf7b33909259243beb9060200160405180910390a15b505b610afd60018055565b610f1960003361113d565b610f3657604051634ca8886760e01b815260040160405180910390fd5b6001600160a01b038216600090815260076020526040812054839103610f7a5760405163122273e360e11b81526001600160a01b0382166004820152602401610bbb565b6703782dace9d9000082108015610f94575060025460ff16155b15610fc35760405163c281dd3b60e01b8152600481018390526703782dace9d900006024820152604401610bbb565b678ac7230489e8000082108015610fdc575060025460ff165b1561100b5760405163c281dd3b60e01b815260048101839052678ac7230489e800006024820152604401610bbb565b6001600160a01b038316600090815260076020526040902082815561103362278d0042611e42565b60018201556040518381526001600160a01b038516907f95089b8d5f5b1df642061c1947fbec71ede04a0aaa13de4b3e1054031610a0d5906020015b60405180910390a250505050565b6006546001600160a01b031633146110a85760405163ea8e4eb560e01b815260040160405180910390fd5b6001600160a01b0381166110cf5760405163b5aaecfd60e01b815260040160405180910390fd5b600680546001600160a01b0319166001600160a01b0383169081179091556110f99060009061182b565b50611105600082611732565b506040516001600160a01b038216907fb8121b611a666c4d7c03b96ba9dbc315332dc3f1aa77a22c0a1c162e55c5c32b90600090a250565b6000918252602082815260408084206001600160a01b0393909316845291905290205460ff1690565b3360008181526007602052604081205490036111a05760405163122273e360e11b81526001600160a01b0382166004820152602401610bbb565b6111a8611896565b600254610100900460ff16156111d157604051632e1aa8d760e01b815260040160405180910390fd5b336000818152600760205260408120916111ea90610b7a565b90508481101561121757604051638088bb1160e01b81526004810186905260248101829052604401610bbb565b600182015442600061122c62278d0083611e42565b90508083101561123a578092505b60025460ff166112e057478881101561127057604051631508de4560e01b8152600481018a905260248101829052604401610bbb565b60405160009033908b908381818185875af1925050503d80600081146112b2576040519150601f19603f3d011682016040523d82523d6000602084013e6112b7565b606091505b50509050806112d957604051637d6a86b760e11b815260040160405180910390fd5b5050611393565b6005546040516370a0823160e01b81523060048201526000916001600160a01b0316906370a0823190602401602060405180830381865afa158015611329573d6000803e3d6000fd5b505050506040513d601f19601f8201168201806040525081019061134d9190611ed8565b90508881101561137a57604051631508de4560e01b8152600481018a905260248101829052604401610bbb565b600554611391906001600160a01b0316338b6118c0565b505b838861139f8585611e42565b6113a99190611e9f565b6113b39190611eb6565b6113bd9084611ef1565b600186015560405133907f485f1bb6524c663555797e00171a10f341656e59b02d6b557a0a38ba7d5d9751906113f6908b908b90611f04565b60405180910390a25050505050610b3360018055565b6009818154811061141c57600080fd5b6000918252602090912001546001600160a01b0316905081565b61144160003361113d565b61145e57604051634ca8886760e01b815260040160405180910390fd5b6001600160a01b0381166000908152600760205260408120548291036114a25760405163122273e360e11b81526001600160a01b0382166004820152602401610bbb565b6001600160a01b038216600090815260086020526040812054600980549192916114ce90600190611e42565b815481106114de576114de611e89565b6000918252602090912001546001600160a01b0390811691508416811461154d57806009838154811061151357611513611e89565b600091825260208083209190910180546001600160a01b0319166001600160a01b0394851617905591831681526008909152604090208290555b600980548061155e5761155e611f25565b60008281526020808220600019908401810180546001600160a01b03191690559092019092556001600160a01b0386168083526007825260408084208481556001018490556008835280842084905551928352917f95089b8d5f5b1df642061c1947fbec71ede04a0aaa13de4b3e1054031610a0d5910161106f565b6000828152602081905260409020600101546115f581611728565b6108b1838361182b565b6703782dace9d9000081108015611619575060025460ff16155b156116485760405163c281dd3b60e01b8152600481018290526703782dace9d900006024820152604401610bbb565b678ac7230489e8000081108015611661575060025460ff165b156116905760405163c281dd3b60e01b815260048101829052678ac7230489e800006024820152604401610bbb565b6001600160a01b0382166116b757604051632953f2b160e11b815260040160405180910390fd5b6001600160a01b0382166000908152600a602052604090205460ff16156116f157604051632953f2b160e11b815260040160405180910390fd5b6001600160a01b038216600090815260076020526040902054156109f55760405163186fceb160e21b815260040160405180910390fd5b610afd81336118f1565b600061173e838361113d565b6117bc576000838152602081815260408083206001600160a01b03861684529091529020805460ff191660011790556117743390565b6001600160a01b0316826001600160a01b0316847f2f8788117e7eff1d82e926ec794901d17c78024a50270940304540a733656f0d60405160405180910390a450600161061b565b50600061061b565b6040516001600160a01b0384811660248301528381166044830152606482018390526108b19186918216906323b872dd906084015b604051602081830303815290604052915060e01b6020820180516001600160e01b03838183161783525050505061192a565b6000611837838361113d565b156117bc576000838152602081815260408083206001600160a01b0386168085529252808320805460ff1916905551339286917ff6391f5c32d9c69d2a47ea670b442974b53935d1edc7fd64eb21e047a839171b9190a450600161061b565b6002600154036118b957604051633ee5aeb560e01b815260040160405180910390fd5b6002600155565b6040516001600160a01b03838116602483015260448201839052610b3391859182169063a9059cbb906064016117f9565b6118fb828261113d565b6109f55760405163e2517d3f60e01b81526001600160a01b038216600482015260248101839052604401610bbb565b600080602060008451602086016000885af18061194d576040513d6000823e3d81fd5b50506000513d91508115611965578060011415611972565b6001600160a01b0384163b155b156108b157604051635274afe760e01b81526001600160a01b0385166004820152602401610bbb565b6000602082840312156119ad57600080fd5b81356001600160e01b0319811681146119c557600080fd5b9392505050565b6001600160a01b0381168114610afd57600080fd5b600080604083850312156119f457600080fd5b82356119ff816119cc565b946020939093013593505050565b6000815180845260005b81811015611a3357602081850181015186830182015201611a17565b506000602082860101526020601f19601f83011685010191505092915050565b6020815260006119c56020830184611a0d565b634e487b7160e01b600052604160045260246000fd5b604051601f8201601f1916810167ffffffffffffffff81118282101715611aa557611aa5611a66565b604052919050565b600067ffffffffffffffff821115611ac757611ac7611a66565b5060051b60200190565b600082601f830112611ae257600080fd5b81356020611af7611af283611aad565b611a7c565b82815260059290921b84018101918181019086841115611b1657600080fd5b8286015b84811015611b315780358352918301918301611b1a565b509695505050505050565b60008060408385031215611b4f57600080fd5b823567ffffffffffffffff80821115611b6757600080fd5b818501915085601f830112611b7b57600080fd5b81356020611b8b611af283611aad565b82815260059290921b84018101918181019089841115611baa57600080fd5b948201945b83861015611bd1578535611bc2816119cc565b82529482019490820190611baf565b96505086013592505080821115611be757600080fd5b50611bf485828601611ad1565b9150509250929050565b80358015158114611c0e57600080fd5b919050565b60008060408385031215611c2657600080fd5b8235611c31816119cc565b9150611c3f60208401611bfe565b90509250929050565b600060208284031215611c5a57600080fd5b5035919050565b600060208284031215611c7357600080fd5b81356119c5816119cc565b60008060408385031215611c9157600080fd5b823591506020830135611ca3816119cc565b809150509250929050565b600060208284031215611cc057600080fd5b6119c582611bfe565b60008060208385031215611cdc57600080fd5b823567ffffffffffffffff80821115611cf457600080fd5b818501915085601f830112611d0857600080fd5b813581811115611d1757600080fd5b8660208260051b8501011115611d2c57600080fd5b60209290920196919550909350505050565b602080825282518282018190526000919060409081850190868401855b82811015611d8057815180518552860151868501529284019290850190600101611d5b565b5091979650505050505050565b60008060408385031215611da057600080fd5b8235915060208084013567ffffffffffffffff80821115611dc057600080fd5b818601915086601f830112611dd457600080fd5b813581811115611de657611de6611a66565b611df8601f8201601f19168501611a7c565b91508082528784828501011115611e0e57600080fd5b80848401858401376000848284010152508093505050509250929050565b634e487b7160e01b600052601160045260246000fd5b8181038181111561061b5761061b611e2c565b600181811c90821680611e6957607f821691505b602082108103610c3c57634e487b7160e01b600052602260045260246000fd5b634e487b7160e01b600052603260045260246000fd5b808202811582820484141761061b5761061b611e2c565b600082611ed357634e487b7160e01b600052601260045260246000fd5b500490565b600060208284031215611eea57600080fd5b5051919050565b8082018082111561061b5761061b611e2c565b828152604060208201526000611f1d6040830184611a0d565b949350505050565b634e487b7160e01b600052603160045260246000fdfea2646970667358221220962cfe1ce7a319df722406f5bc86ea45499c4c41549365f0b502d4c741cda6a564736f6c63430008140033a26469706673582212206c4c4820b89b2658f2c4e857de05f50980dba16b7b286c1a6646c4c7a52a382664736f6c63430008140033",
  "devdoc": {
    "details": "Factory contract for deploying new Cohort contracts with a creation fee",
    "errors": {
      "OwnableInvalidOwner(address)": [
        {
          "details": "The owner is not a valid owner account. (eg. `address(0)`)"
        }
      ],
      "OwnableUnauthorizedAccount(address)": [
        {
          "details": "The caller account is not authorized to perform an operation."
        }
      ]
    },
    "kind": "dev",
    "methods": {
      "constructor": {
        "details": "Constructor sets the price feed address for ETH/USD conversion",
        "params": {
          "_priceFeed": "Chainlink price feed address for ETH/USD"
        }
      },
      "createCohort(address,address,string,string)": {
        "details": "Creates a new Cohort contract",
        "params": {
          "_name": "Name of the cohort",
          "_primaryAdmin": "Address of the primary admin",
          "_tokenAddress": "Address of ERC20 token (zero address for ETH)"
        },
        "returns": {
          "_0": "Address of the newly created cohort"
        }
      },
      "getAllCohorts()": {
        "details": "Gets all created cohorts",
        "returns": {
          "_0": "Array of cohort addresses"
        }
      },
      "getRequiredEthAmount()": {
        "details": "Calculates required ETH amount for creation fee",
        "returns": {
          "_0": "Required ETH amount in wei"
        }
      },
      "getTotalCohorts()": {
        "details": "Gets the total number of created cohorts",
        "returns": {
          "_0": "Number of cohorts"
        }
      },
      "owner()": {
        "details": "Returns the address of the current owner."
      },
      "renounceOwnership()": {
        "details": "Leaves the contract without owner. It will not be possible to call `onlyOwner` functions. Can only be called by the current owner. NOTE: Renouncing ownership will leave the contract without an owner, thereby disabling any functionality that is only available to the owner."
      },
      "transferOwnership(address)": {
        "details": "Transfers ownership of the contract to a new account (`newOwner`). Can only be called by the current owner."
      },
      "updatePriceFeed(address)": {
        "details": "Updates the price feed address",
        "params": {
          "_newPriceFeed": "New price feed address"
        }
      }
    },
    "title": "CohortFactory",
    "version": 1
  },
  "userdoc": {
    "kind": "user",
    "methods": {},
    "version": 1
  },
  "storageLayout": {
    "storage": [
      {
        "astId": 433,
        "contract": "contracts/CohortFactory.sol:CohortFactory",
        "label": "_owner",
        "offset": 0,
        "slot": "0",
        "type": "t_address"
      },
      {
        "astId": 2384,
        "contract": "contracts/CohortFactory.sol:CohortFactory",
        "label": "priceFeed",
        "offset": 0,
        "slot": "1",
        "type": "t_contract(AggregatorV3Interface)45"
      },
      {
        "astId": 2393,
        "contract": "contracts/CohortFactory.sol:CohortFactory",
        "label": "isCohort",
        "offset": 0,
        "slot": "2",
        "type": "t_mapping(t_address,t_bool)"
      },
      {
        "astId": 2396,
        "contract": "contracts/CohortFactory.sol:CohortFactory",
        "label": "cohorts",
        "offset": 0,
        "slot": "3",
        "type": "t_array(t_address)dyn_storage"
      }
    ],
    "types": {
      "t_address": {
        "encoding": "inplace",
        "label": "address",
        "numberOfBytes": "20"
      },
      "t_array(t_address)dyn_storage": {
        "base": "t_address",
        "encoding": "dynamic_array",
        "label": "address[]",
        "numberOfBytes": "32"
      },
      "t_bool": {
        "encoding": "inplace",
        "label": "bool",
        "numberOfBytes": "1"
      },
      "t_contract(AggregatorV3Interface)45": {
        "encoding": "inplace",
        "label": "contract AggregatorV3Interface",
        "numberOfBytes": "20"
      },
      "t_mapping(t_address,t_bool)": {
        "encoding": "mapping",
        "key": "t_address",
        "label": "mapping(address => bool)",
        "numberOfBytes": "32",
        "value": "t_bool"
      }
    }
  }
}