{
  "address": "0x1536a46Eae1F905005653F044Fe91dd67992e36b",
  "abi": [
    {
      "inputs": [
        {
          "internalType": "address",
          "name": "_priceFeed",
          "type": "address"
        }
      ],
      "stateMutability": "nonpayable",
      "type": "constructor"
    },
    {
      "inputs": [],
      "name": "FailedToSendETH",
      "type": "error"
    },
    {
      "inputs": [
        {
          "internalType": "uint256",
          "name": "required",
          "type": "uint256"
        },
        {
          "internalType": "uint256",
          "name": "provided",
          "type": "uint256"
        }
      ],
      "name": "InsufficientPayment",
      "type": "error"
    },
    {
      "inputs": [],
      "name": "PriceFeedInvalid",
      "type": "error"
    },
    {
      "anonymous": false,
      "inputs": [
        {
          "indexed": true,
          "internalType": "address",
          "name": "cohortAddress",
          "type": "address"
        },
        {
          "indexed": true,
          "internalType": "address",
          "name": "primaryAdmin",
          "type": "address"
        },
        {
          "indexed": false,
          "internalType": "string",
          "name": "name",
          "type": "string"
        },
        {
          "indexed": false,
          "internalType": "string",
          "name": "description",
          "type": "string"
        }
      ],
      "name": "CohortCreated",
      "type": "event"
    },
    {
      "anonymous": false,
      "inputs": [
        {
          "indexed": true,
          "internalType": "address",
          "name": "previousOwner",
          "type": "address"
        },
        {
          "indexed": true,
          "internalType": "address",
          "name": "newOwner",
          "type": "address"
        }
      ],
      "name": "OwnershipTransferred",
      "type": "event"
    },
    {
      "anonymous": false,
      "inputs": [
        {
          "indexed": false,
          "internalType": "address",
          "name": "newPriceFeed",
          "type": "address"
        }
      ],
      "name": "PriceFeedUpdated",
      "type": "event"
    },
    {
      "inputs": [],
      "name": "CREATION_FEE_USD",
      "outputs": [
        {
          "internalType": "uint256",
          "name": "",
          "type": "uint256"
        }
      ],
      "stateMutability": "view",
      "type": "function"
    },
    {
      "inputs": [
        {
          "internalType": "uint256",
          "name": "",
          "type": "uint256"
        }
      ],
      "name": "cohorts",
      "outputs": [
        {
          "internalType": "address",
          "name": "",
          "type": "address"
        }
      ],
      "stateMutability": "view",
      "type": "function"
    },
    {
      "inputs": [
        {
          "internalType": "address",
          "name": "_primaryAdmin",
          "type": "address"
        },
        {
          "internalType": "address",
          "name": "_tokenAddress",
          "type": "address"
        },
        {
          "internalType": "string",
          "name": "_name",
          "type": "string"
        },
        {
          "internalType": "string",
          "name": "_description",
          "type": "string"
        },
        {
          "internalType": "uint256",
          "name": "_cycle",
          "type": "uint256"
        },
        {
          "internalType": "address[]",
          "name": "_creators",
          "type": "address[]"
        },
        {
          "internalType": "uint256[]",
          "name": "_caps",
          "type": "uint256[]"
        }
      ],
      "name": "createCohort",
      "outputs": [
        {
          "internalType": "address",
          "name": "",
          "type": "address"
        }
      ],
      "stateMutability": "payable",
      "type": "function"
    },
    {
      "inputs": [],
      "name": "getAllCohorts",
      "outputs": [
        {
          "internalType": "address[]",
          "name": "",
          "type": "address[]"
        }
      ],
      "stateMutability": "view",
      "type": "function"
    },
    {
      "inputs": [],
      "name": "getRequiredEthAmount",
      "outputs": [
        {
          "internalType": "uint256",
          "name": "",
          "type": "uint256"
        }
      ],
      "stateMutability": "view",
      "type": "function"
    },
    {
      "inputs": [],
      "name": "getTotalCohorts",
      "outputs": [
        {
          "internalType": "uint256",
          "name": "",
          "type": "uint256"
        }
      ],
      "stateMutability": "view",
      "type": "function"
    },
    {
      "inputs": [
        {
          "internalType": "address",
          "name": "",
          "type": "address"
        }
      ],
      "name": "isCohort",
      "outputs": [
        {
          "internalType": "bool",
          "name": "",
          "type": "bool"
        }
      ],
      "stateMutability": "view",
      "type": "function"
    },
    {
      "inputs": [],
      "name": "owner",
      "outputs": [
        {
          "internalType": "address",
          "name": "",
          "type": "address"
        }
      ],
      "stateMutability": "view",
      "type": "function"
    },
    {
      "inputs": [],
      "name": "renounceOwnership",
      "outputs": [],
      "stateMutability": "nonpayable",
      "type": "function"
    },
    {
      "inputs": [
        {
          "internalType": "address",
          "name": "newOwner",
          "type": "address"
        }
      ],
      "name": "transferOwnership",
      "outputs": [],
      "stateMutability": "nonpayable",
      "type": "function"
    },
    {
      "inputs": [
        {
          "internalType": "address",
          "name": "_newPriceFeed",
          "type": "address"
        }
      ],
      "name": "updatePriceFeed",
      "outputs": [],
      "stateMutability": "nonpayable",
      "type": "function"
    }
  ],
  "transactionHash": "0x347a79f36c2a664d9dc4d55ea89d1dc4a44c7823d5b359823ddca7829869962b",
  "args": [
    "0x4aDC67696bA383F43DD60A9e78F2C97Fbbfc7cb1"
  ],
  "numDeployments": 3,
  "solcInputHash": "e20111c9f97cd8ac68331322d63456e5",
  "bytecode": "0x608060405234801561001057600080fd5b5060405161476338038061476383398101604081905261002f916100d4565b61003833610084565b6001600160a01b03811661005f576040516307806b6560e31b815260040160405180910390fd5b600180546001600160a01b0319166001600160a01b0392909216919091179055610104565b600080546001600160a01b038381166001600160a01b0319831681178455604051919092169283917f8be0079c531659141344cd1fd0a4f28419497f9722a3daafe3b4186f6b6457e09190a35050565b6000602082840312156100e657600080fd5b81516001600160a01b03811681146100fd57600080fd5b9392505050565b614650806101136000396000f3fe608060405260043610620000a95760003560e01c806374ed78d0116200006c57806374ed78d01462000189578063858ab90814620001ae5780638da5cb5b14620001cc57806395877f7814620001ec5780639b8a969e1462000211578063f2fde38b146200022957600080fd5b8063114be58514620000ae5780634bdcda9214620000d35780634e73e3551462000118578063595a2dd3146200013f578063715018a6146200016f575b600080fd5b348015620000bb57600080fd5b506003545b6040519081526020015b60405180910390f35b348015620000e057600080fd5b5062000107620000f2366004620007e8565b60026020526000908152604090205460ff1681565b6040519015158152602001620000ca565b3480156200012557600080fd5b50620001306200024e565b604051620000ca91906200084c565b620001566200015036600462000a27565b620002b2565b6040516001600160a01b039091168152602001620000ca565b3480156200017c57600080fd5b5062000187620004a9565b005b3480156200019657600080fd5b5062000156620001a836600462000b10565b620004e4565b348015620001bb57600080fd5b50620000c0678ac7230489e8000081565b348015620001d957600080fd5b506000546001600160a01b031662000156565b348015620001f957600080fd5b50620001876200020b366004620007e8565b6200050f565b3480156200021e57600080fd5b50620000c0620005b8565b3480156200023657600080fd5b506200018762000248366004620007e8565b62000605565b60606003805480602002602001604051908101604052809291908181526020018280548015620002a857602002820191906000526020600020905b81546001600160a01b0316815260019091019060200180831162000289575b5050505050905090565b600080620002bf620005b8565b600154909150678ac7230489e8000090620002e59034906001600160a01b0316620006a7565b1015620003135760405163b99e2ab760e01b8152600481018290523460248201526044015b60405180910390fd5b6000898989898989896040516200032a90620007bd565b6200033c979695949392919062000b72565b604051809103906000f08015801562000359573d6000803e3d6000fd5b506001600160a01b0381166000818152600260205260408120805460ff1916600190811790915560038054918201815582527fc2575a0e9e593c00f959f8c92f12db2869c3395a3b0502d05e2516446f71f85b0180546001600160a01b0319169092179091559091508190620003d76000546001600160a01b031690565b6001600160a01b03163460405160006040518083038185875af1925050503d806000811462000423576040519150601f19603f3d011682016040523d82523d6000602084013e62000428565b606091505b50509050806200044b576040516338822c1360e11b815260040160405180910390fd5b8b6001600160a01b0316826001600160a01b03167f570e843f430e9c07b135675740293a86d5c98eb4b737091ea2c5cb61ae9293bf8c8c6040516200049292919062000c1a565b60405180910390a3509a9950505050505050505050565b6000546001600160a01b03163314620004d65760405162461bcd60e51b81526004016200030a9062000c4c565b620004e26000620006e5565b565b60038181548110620004f557600080fd5b6000918252602090912001546001600160a01b0316905081565b6000546001600160a01b031633146200053c5760405162461bcd60e51b81526004016200030a9062000c4c565b6001600160a01b03811662000564576040516307806b6560e31b815260040160405180910390fd5b600180546001600160a01b0319166001600160a01b0383169081179091556040519081527fe5b20b8497e4f3e2435ef9c20e2e26b47497ee13745ce1c681ad6640653119e69060200160405180910390a150565b6001546000908190620005d4906001600160a01b031662000735565b905080620005f3678ac7230489e80000670de0b6b3a764000062000c97565b620005ff919062000cb1565b91505090565b6000546001600160a01b03163314620006325760405162461bcd60e51b81526004016200030a9062000c4c565b6001600160a01b038116620006995760405162461bcd60e51b815260206004820152602660248201527f4f776e61626c653a206e6577206f776e657220697320746865207a65726f206160448201526564647265737360d01b60648201526084016200030a565b620006a481620006e5565b50565b600080620006b58362000735565b90506000670de0b6b3a7640000620006ce868462000c97565b620006da919062000cb1565b925050505b92915050565b600080546001600160a01b038381166001600160a01b0319831681178455604051919092169283917f8be0079c531659141344cd1fd0a4f28419497f9722a3daafe3b4186f6b6457e09190a35050565b600080826001600160a01b031663feaf968c6040518163ffffffff1660e01b815260040160a060405180830381865afa15801562000777573d6000803e3d6000fd5b505050506040513d601f19601f820116820180604052508101906200079d919062000cef565b505050915050806402540be400620007b6919062000d44565b9392505050565b6138a08062000d7b83390190565b80356001600160a01b0381168114620007e357600080fd5b919050565b600060208284031215620007fb57600080fd5b620007b682620007cb565b600081518084526020808501945080840160005b83811015620008415781516001600160a01b0316875295820195908201906001016200081a565b509495945050505050565b602081526000620007b6602083018462000806565b634e487b7160e01b600052604160045260246000fd5b604051601f8201601f1916810167ffffffffffffffff81118282101715620008a357620008a362000861565b604052919050565b600082601f830112620008bd57600080fd5b813567ffffffffffffffff811115620008da57620008da62000861565b620008ef601f8201601f191660200162000877565b8181528460208386010111156200090557600080fd5b816020850160208301376000918101602001919091529392505050565b600067ffffffffffffffff8211156200093f576200093f62000861565b5060051b60200190565b600082601f8301126200095b57600080fd5b81356020620009746200096e8362000922565b62000877565b82815260059290921b840181019181810190868411156200099457600080fd5b8286015b84811015620009ba57620009ac81620007cb565b835291830191830162000998565b509695505050505050565b600082601f830112620009d757600080fd5b81356020620009ea6200096e8362000922565b82815260059290921b8401810191818101908684111562000a0a57600080fd5b8286015b84811015620009ba578035835291830191830162000a0e565b600080600080600080600060e0888a03121562000a4357600080fd5b62000a4e88620007cb565b965062000a5e60208901620007cb565b9550604088013567ffffffffffffffff8082111562000a7c57600080fd5b62000a8a8b838c01620008ab565b965060608a013591508082111562000aa157600080fd5b62000aaf8b838c01620008ab565b955060808a0135945060a08a013591508082111562000acd57600080fd5b62000adb8b838c0162000949565b935060c08a013591508082111562000af257600080fd5b5062000b018a828b01620009c5565b91505092959891949750929550565b60006020828403121562000b2357600080fd5b5035919050565b6000815180845260005b8181101562000b525760208185018101518683018201520162000b34565b506000602082860101526020601f19601f83011685010191505092915050565b600060018060a01b03808a1683526020818a168185015260e0604085015262000b9f60e085018a62000b2a565b9150838203606085015262000bb5828962000b2a565b915086608085015283820360a085015262000bd1828762000806565b84810360c0860152855180825282870193509082019060005b8181101562000c085784518352938301939183019160010162000bea565b50909c9b505050505050505050505050565b60408152600062000c2f604083018562000b2a565b828103602084015262000c43818562000b2a565b95945050505050565b6020808252818101527f4f776e61626c653a2063616c6c6572206973206e6f7420746865206f776e6572604082015260600190565b634e487b7160e01b600052601160045260246000fd5b8082028115828204841417620006df57620006df62000c81565b60008262000ccf57634e487b7160e01b600052601260045260246000fd5b500490565b805169ffffffffffffffffffff81168114620007e357600080fd5b600080600080600060a0868803121562000d0857600080fd5b62000d138662000cd4565b945060208601519350604086015192506060860151915062000d386080870162000cd4565b90509295509295909350565b80820260008212600160ff1b8414161562000d635762000d6362000c81565b8181058314821517620006df57620006df62000c8156fe60806040523480156200001157600080fd5b50604051620038a0380380620038a0833981016040819052620000349162000733565b600180556200004560008862000352565b6001600160a01b0387166000818152600d60205260409020805460ff19166001179055600780546001600160a01b03191690911790556004620000898682620008ab565b506005620000988582620008ab565b5060028390556001600160a01b03861615620000d9576003805460ff19166001179055600680546001600160a01b0388166001600160a01b03199091161790555b815115620003455781516019811062000105576040516315d558ed60e21b815260040160405180910390fd5b81518114620001275760405163586cb9e160e01b815260040160405180910390fd5b60005b8181101562000342576200017d8482815181106200014c576200014c62000977565b602002602001015184838151811062000169576200016962000977565b6020026020010151620003db60201b60201c565b60405180604001604052808483815181106200019d576200019d62000977565b602002602001015181526020018642620001b891906200098d565b815250600a6000868481518110620001d457620001d462000977565b60200260200101516001600160a01b03166001600160a01b031681526020019081526020016000206000820151816000015560208201518160010155905050600c8482815181106200022a576200022a62000977565b60209081029190910181015182546001808201855560009485529290932090920180546001600160a01b0319166001600160a01b0390931692909217909155600c546200027891906200098d565b600b600086848151811062000291576200029162000977565b60200260200101516001600160a01b03166001600160a01b0316815260200190815260200160002081905550838181518110620002d257620002d262000977565b60200260200101516001600160a01b03167f49707f6097e3d8b2d861adf67aadfb41a45746f9d46701065ed09ff12f9e41c384838151811062000319576200031962000977565b60200260200101516040516200033191815260200190565b60405180910390a26001016200012a565b50505b50505050505050620009af565b6200035e828262000511565b620003d7576000828152602081815260408083206001600160a01b03851684529091529020805460ff19166001179055620003963390565b6001600160a01b0316816001600160a01b0316837f2f8788117e7eff1d82e926ec794901d17c78024a50270940304540a733656f0d60405160405180910390a45b5050565b6703782dace9d9000081108015620003f6575060035460ff16155b156200042b5760405163c281dd3b60e01b8152600481018290526703782dace9d9000060248201526044015b60405180910390fd5b678ac7230489e800008110801562000445575060035460ff165b15620004765760405163c281dd3b60e01b815260048101829052678ac7230489e80000602482015260440162000422565b6001600160a01b0382166200049e57604051632953f2b160e11b815260040160405180910390fd5b6001600160a01b0382166000908152600d602052604090205460ff1615620004d957604051632953f2b160e11b815260040160405180910390fd5b6001600160a01b0382166000908152600a602052604090205415620003d75760405163186fceb160e21b815260040160405180910390fd5b6000828152602081815260408083206001600160a01b038516845290915290205460ff165b92915050565b80516001600160a01b03811681146200055457600080fd5b919050565b634e487b7160e01b600052604160045260246000fd5b604051601f8201601f191681016001600160401b03811182821017156200059a576200059a62000559565b604052919050565b600082601f830112620005b457600080fd5b81516001600160401b03811115620005d057620005d062000559565b6020620005e6601f8301601f191682016200056f565b8281528582848701011115620005fb57600080fd5b60005b838110156200061b578581018301518282018401528201620005fe565b506000928101909101919091529392505050565b60006001600160401b038211156200064b576200064b62000559565b5060051b60200190565b600082601f8301126200066757600080fd5b81516020620006806200067a836200062f565b6200056f565b82815260059290921b84018101918181019086841115620006a057600080fd5b8286015b84811015620006c657620006b8816200053c565b8352918301918301620006a4565b509695505050505050565b600082601f830112620006e357600080fd5b81516020620006f66200067a836200062f565b82815260059290921b840181019181810190868411156200071657600080fd5b8286015b84811015620006c657805183529183019183016200071a565b600080600080600080600060e0888a0312156200074f57600080fd5b6200075a886200053c565b96506200076a602089016200053c565b60408901519096506001600160401b03808211156200078857600080fd5b620007968b838c01620005a2565b965060608a0151915080821115620007ad57600080fd5b620007bb8b838c01620005a2565b955060808a0151945060a08a0151915080821115620007d957600080fd5b620007e78b838c0162000655565b935060c08a0151915080821115620007fe57600080fd5b506200080d8a828b01620006d1565b91505092959891949750929550565b600181811c908216806200083157607f821691505b6020821081036200085257634e487b7160e01b600052602260045260246000fd5b50919050565b601f821115620008a657600081815260208120601f850160051c81016020861015620008815750805b601f850160051c820191505b81811015620008a2578281556001016200088d565b5050505b505050565b81516001600160401b03811115620008c757620008c762000559565b620008df81620008d884546200081c565b8462000858565b602080601f831160018114620009175760008415620008fe5750858301515b600019600386901b1c1916600185901b178555620008a2565b600085815260208120601f198616915b82811015620009485788860151825594840194600190910190840162000927565b5085821015620009675787850151600019600388901b60f8161c191681555b5050505050600190811b01905550565b634e487b7160e01b600052603260045260246000fd5b818103818111156200053657634e487b7160e01b600052601160045260246000fd5b612ee180620009bf6000396000f3fe6080604052600436106102135760003560e01c80636c2acff3116101185780639de1b23d116100a0578063beb124161161006f578063beb124161461068e578063d547741f146106ae578063e2d8577d146106ce578063f4970e71146106ee578063fb503d121461070e57600080fd5b80639de1b23d14610619578063a0b1f21214610639578063a217fddf14610659578063b83cc0db1461066e57600080fd5b8063885d120f116100e7578063885d120f146105545780638c0a2d561461057457806391d148541461059457806397e5cc6c146105b45780639d76ea58146105e157600080fd5b80636c2acff3146104d35780637284e4161461050057806375f12b211461051557806385caa9171461053457600080fd5b80632f2ff15d1161019b5780634d62f7ec1161016a5780634d62f7ec146104035780634e5a2328146104235780634f0cb5f31461045457806359b6aa71146104745780636190c9d5146104bd57600080fd5b80632f2ff15d146103905780633519a2f8146103b057806336568abe146103c35780634cb40400146103e357600080fd5b80630d12cc68116101e25780630d12cc68146102c8578063116e72db146102e8578063248a9ca31461030857806324d7806c146103465780632eb67f531461037657600080fd5b806301ffc9a71461021f57806302bf8dd91461025457806306fdde0314610276578063070092d41461029857600080fd5b3661021a57005b600080fd5b34801561022b57600080fd5b5061023f61023a366004612621565b61072e565b60405190151581526020015b60405180910390f35b34801561026057600080fd5b5061027461026f366004612660565b610765565b005b34801561028257600080fd5b5061028b6108ab565b60405161024b91906126dc565b3480156102a457600080fd5b5061023f6102b33660046126ef565b60096020526000908152604090205460ff1681565b3480156102d457600080fd5b506102746102e33660046127e2565b610939565b3480156102f457600080fd5b506102746103033660046128b2565b6109fa565b34801561031457600080fd5b506103386103233660046128eb565b60009081526020819052604090206001015490565b60405190815260200161024b565b34801561035257600080fd5b5061023f6103613660046126ef565b600d6020526000908152604090205460ff1681565b34801561038257600080fd5b5060035461023f9060ff1681565b34801561039c57600080fd5b506102746103ab366004612904565b610b3c565b6102746103be3660046128eb565b610b66565b3480156103cf57600080fd5b506102746103de366004612904565b610c48565b3480156103ef57600080fd5b506102746103fe366004612929565b610cc7565b34801561040f57600080fd5b5061033861041e3660046126ef565b610d09565b34801561042f57600080fd5b5061044361043e366004612660565b610dca565b60405161024b959493929190612946565b34801561046057600080fd5b5061027461046f3660046128eb565b610eac565b34801561048057600080fd5b506104a861048f3660046126ef565b600a602052600090815260409020805460019091015482565b6040805192835260208301919091520161024b565b3480156104c957600080fd5b5061033860025481565b3480156104df57600080fd5b506104f36104ee36600461297c565b6110b0565b60405161024b91906129f1565b34801561050c57600080fd5b5061028b6111af565b34801561052157600080fd5b5060035461023f90610100900460ff1681565b34801561054057600080fd5b5061027461054f3660046126ef565b6111bc565b34801561056057600080fd5b5061027461056f366004612660565b611399565b34801561058057600080fd5b5061027461058f3660046126ef565b611508565b3480156105a057600080fd5b5061023f6105af366004612904565b6115c6565b3480156105c057600080fd5b506103386105cf3660046126ef565b600b6020526000908152604090205481565b3480156105ed57600080fd5b50600654610601906001600160a01b031681565b6040516001600160a01b03909116815260200161024b565b34801561062557600080fd5b50600754610601906001600160a01b031681565b34801561064557600080fd5b50610274610654366004612a40565b6115ef565b34801561066557600080fd5b50610338600081565b34801561067a57600080fd5b506106016106893660046128eb565b6116ed565b34801561069a57600080fd5b506102746106a93660046126ef565b611717565b3480156106ba57600080fd5b506102746106c9366004612904565b6118bb565b3480156106da57600080fd5b506102746106e9366004612660565b6118e0565b3480156106fa57600080fd5b50610274610709366004612660565b611a05565b34801561071a57600080fd5b506102746107293660046128b2565b611b1b565b60006001600160e01b03198216637965db0b60e01b148061075f57506301ffc9a760e01b6001600160e01b03198316145b92915050565b6107706000336115c6565b61078d57604051634ca8886760e01b815260040160405180910390fd5b600c546019116107b0576040516315d558ed60e21b815260040160405180910390fd5b6107ba8282611bdf565b6040518060400160405280828152602001600254426107d99190612af5565b90526001600160a01b0383166000818152600a60209081526040822084518155930151600193840155600c80548085018255918190527fdf6966c971051c3d54ec59162606531493a51404a002842f56009d7e5cf4a8c790910180546001600160a01b031916909217909155546108509190612af5565b6001600160a01b0383166000818152600b6020526040908190209290925590517f49707f6097e3d8b2d861adf67aadfb41a45746f9d46701065ed09ff12f9e41c39061089f9084815260200190565b60405180910390a25050565b600480546108b890612b08565b80601f01602080910402602001604051908101604052809291908181526020018280546108e490612b08565b80156109315780601f1061090657610100808354040283529160200191610931565b820191906000526020600020905b81548152906001019060200180831161091457829003601f168201915b505050505081565b6109446000336115c6565b61096157604051634ca8886760e01b815260040160405180910390fd5b815160198110610984576040516315d558ed60e21b815260040160405180910390fd5b815181146109a55760405163586cb9e160e01b815260040160405180910390fd5b60005b818110156109f4576109ec8482815181106109c5576109c5612b3c565b60200260200101518483815181106109df576109df612b3c565b6020026020010151610765565b6001016109a8565b50505050565b610a056000336115c6565b610a2257604051634ca8886760e01b815260040160405180910390fd5b8015610ab7576001600160a01b0382166000908152600a602052604090205415610a5f57604051632953f2b160e11b815260040160405180910390fd5b610a6a600083610b3c565b6001600160a01b0382166000818152600d6020526040808220805460ff19166001179055517f44d6d25963f097ad14f29f06854a01f575648a1ef82f30e562ccd3889717e3399190a25050565b6007546001600160a01b0390811690831603610ae657604051634ca8886760e01b815260040160405180910390fd5b610af16000836118bb565b6001600160a01b0382166000818152600d6020526040808220805460ff19169055517fa3b62bc36326052d97ea62d63c3d60308ed4c3ea8ac079dd8499f1e9c4f80c0f9190a25b5050565b600082815260208190526040902060010154610b5781611d08565b610b618383611d12565b505050565b60035460ff16610bc95734600003610b91576040516327738acf60e21b815260040160405180910390fd5b60405134815233907f8e47b87b0ef542cdfa1659c551d88bad38aa7f452d2bbb349ab7530dfec8be8f9060200160405180910390a250565b80600003610bea576040516327738acf60e21b815260040160405180910390fd5b600654610c02906001600160a01b0316333084611d96565b60065460405182815233916001600160a01b0316907fa17c2a1269d65f89b5c5688ce949fa4a7f59d8fcb9bbbac872d27a142b2b49e79060200160405180910390a35b50565b6001600160a01b0381163314610cbd5760405162461bcd60e51b815260206004820152602f60248201527f416363657373436f6e74726f6c3a2063616e206f6e6c792072656e6f756e636560448201526e103937b632b9903337b91039b2b63360891b60648201526084015b60405180910390fd5b610b388282611e01565b610cd26000336115c6565b610cef57604051634ca8886760e01b815260040160405180910390fd5b600380549115156101000261ff0019909216919091179055565b6001600160a01b0381166000908152600a602052604081205482908203610d4e5760405163122273e360e11b81526001600160a01b0382166004820152602401610cb4565b6001600160a01b0383166000908152600a60209081526040808320815180830190925280548252600101549181018290529190610d8b9042612af5565b9050600254811015610dbf57600254825160009190610daa9084612b52565b610db49190612b69565b9450610dc492505050565b505191505b50919050565b60086020528160005260406000208181548110610de657600080fd5b906000526020600020906004020160009150915050806000015490806001018054610e1090612b08565b80601f0160208091040260200160405190810160405280929190818152602001828054610e3c90612b08565b8015610e895780601f10610e5e57610100808354040283529160200191610e89565b820191906000526020600020905b815481529060010190602001808311610e6c57829003601f168201915b505050506002830154600390930154919260ff8082169361010090920416915085565b336000818152600a60205260408120549003610ee65760405163122273e360e11b81526001600160a01b0382166004820152602401610cb4565b600260015403610f085760405162461bcd60e51b8152600401610cb490612b8b565b6002600155600354610100900460ff1615610f3657604051632e1aa8d760e01b815260040160405180910390fd5b336000908152600860205260409020548210610f655760405163514447b560e01b815260040160405180910390fd5b336000908152600860205260408120805484908110610f8657610f86612b3c565b906000526020600020906004020190508060020160019054906101000a900460ff1615610fc65760405163fce3b2b560e01b815260040160405180910390fd5b3360009081526009602052604090205460ff168015610fea5750600281015460ff16155b1561100857604051634429c06b60e01b815260040160405180910390fd5b805461101390611e66565b60028101805461ff001916610100179055805460405133917f35fc39e80f531e18729cd92611935c06db664fc014e88f0b60f14699df88377b9161105f91878252602082015260400190565b60405180910390a2805460405133917f485f1bb6524c663555797e00171a10f341656e59b02d6b557a0a38ba7d5d97519161109f91906001860190612bc2565b60405180910390a250506001805550565b60608160008167ffffffffffffffff8111156110ce576110ce61270c565b60405190808252806020026020018201604052801561111357816020015b60408051808201909152600080825260208201528152602001906001900390816110ec5790505b50905060005b828110156111a657600086868381811061113557611135612b3c565b905060200201602081019061114a91906126ef565b6001600160a01b0381166000908152600a6020908152604091829020825180840190935280548352600101549082015284519192509084908490811061119257611192612b3c565b602090810291909101015250600101611119565b50949350505050565b600580546108b890612b08565b6111c76000336115c6565b6111e457604051634ca8886760e01b815260040160405180910390fd5b6002600154036112065760405162461bcd60e51b8152600401610cb490612b8b565b600260015560006001600160a01b0382166112d257504780156112cc576007546040516000916001600160a01b03169083908381818185875af1925050503d8060008114611270576040519150601f19603f3d011682016040523d82523d6000602084013e611275565b606091505b505090508061129757604051637d6a86b760e11b815260040160405180910390fd5b6040518281527f8319bfd6f3fd889380af4226ddf22592aecc5ed1c024aacf7b33909259243beb9060200160405180910390a1505b50611392565b6040516370a0823160e01b81523060048201526001600160a01b038316906370a0823190602401602060405180830381865afa158015611316573d6000803e3d6000fd5b505050506040513d601f19601f8201168201806040525081019061133a9190612c55565b905080156113905760075461135c906001600160a01b03848116911683612067565b6040518181527f8319bfd6f3fd889380af4226ddf22592aecc5ed1c024aacf7b33909259243beb9060200160405180910390a15b505b5060018055565b6113a46000336115c6565b6113c157604051634ca8886760e01b815260040160405180910390fd5b6001600160a01b0382166000908152600a60205260408120548391036114055760405163122273e360e11b81526001600160a01b0382166004820152602401610cb4565b6703782dace9d900008210801561141f575060035460ff16155b1561144e5760405163c281dd3b60e01b8152600481018390526703782dace9d900006024820152604401610cb4565b678ac7230489e8000082108015611467575060035460ff165b156114965760405163c281dd3b60e01b815260048101839052678ac7230489e800006024820152604401610cb4565b6001600160a01b0383166000908152600a602052604090208281556002546114be9042612af5565b60018201556040518381526001600160a01b038516907f95089b8d5f5b1df642061c1947fbec71ede04a0aaa13de4b3e1054031610a0d5906020015b60405180910390a250505050565b6007546001600160a01b031633146115335760405163ea8e4eb560e01b815260040160405180910390fd5b6001600160a01b03811661155a5760405163b5aaecfd60e01b815260040160405180910390fd5b600780546001600160a01b0319166001600160a01b03831690811790915561158490600090611e01565b61158f600082611d12565b6040516001600160a01b038216907fb8121b611a666c4d7c03b96ba9dbc315332dc3f1aa77a22c0a1c162e55c5c32b90600090a250565b6000918252602082815260408084206001600160a01b0393909316845291905290205460ff1690565b336000818152600a602052604081205490036116295760405163122273e360e11b81526001600160a01b0382166004820152602401610cb4565b60026001540361164b5760405162461bcd60e51b8152600401610cb490612b8b565b6002600155600354610100900460ff161561167957604051632e1aa8d760e01b815260040160405180910390fd5b3360009081526009602052604090205460ff16156116a05761169b8383612097565b6116e4565b6116a983611e66565b336001600160a01b03167f485f1bb6524c663555797e00171a10f341656e59b02d6b557a0a38ba7d5d9751848460405161109f929190612c6e565b50506001805550565b600c81815481106116fd57600080fd5b6000918252602090912001546001600160a01b0316905081565b6117226000336115c6565b61173f57604051634ca8886760e01b815260040160405180910390fd5b6001600160a01b0381166000908152600a60205260408120548291036117835760405163122273e360e11b81526001600160a01b0382166004820152602401610cb4565b6001600160a01b0382166000908152600b6020526040812054600c80549192916117af90600190612af5565b815481106117bf576117bf612b3c565b6000918252602090912001546001600160a01b0390811691508416811461182e5780600c83815481106117f4576117f4612b3c565b600091825260208083209190910180546001600160a01b0319166001600160a01b039485161790559183168152600b909152604090208290555b600c80548061183f5761183f612c87565b60008281526020808220600019908401810180546001600160a01b03191690559092019092556001600160a01b038616808352600a82526040808420848155600101849055600b835280842084905551928352917f95089b8d5f5b1df642061c1947fbec71ede04a0aaa13de4b3e1054031610a0d591016114fa565b6000828152602081905260409020600101546118d681611d08565b610b618383611e01565b6118eb6000336115c6565b61190857604051634ca8886760e01b815260040160405180910390fd5b6001600160a01b03821660009081526008602052604090205481106119405760405163514447b560e01b815260040160405180910390fd5b6001600160a01b038216600090815260086020526040812080548390811061196a5761196a612b3c565b906000526020600020906004020190508060020160019054906101000a900460ff16156119aa5760405163fce3b2b560e01b815260040160405180910390fd5b60028101805461ffff19166101001790556040516001600160a01b038416907f440440e1c7eadbcf361f5e001a6580469a04c256bbf2b2824f2e98f6c151befd906119f89085815260200190565b60405180910390a2505050565b611a106000336115c6565b611a2d57604051634ca8886760e01b815260040160405180910390fd5b6001600160a01b0382166000908152600860205260409020548110611a655760405163514447b560e01b815260040160405180910390fd5b6001600160a01b0382166000908152600860205260408120805483908110611a8f57611a8f612b3c565b906000526020600020906004020190508060020160019054906101000a900460ff1615611acf5760405163fce3b2b560e01b815260040160405180910390fd5b60028101805460ff191660011790556040516001600160a01b038416907f8ffbcb5e5bcb810975de2605ca8e4dbdbf14faffdacf75c660a9ac7b276f0842906119f89085815260200190565b611b266000336115c6565b611b4357604051634ca8886760e01b815260040160405180910390fd5b6001600160a01b0382166000908152600a6020526040812054839103611b875760405163122273e360e11b81526001600160a01b0382166004820152602401610cb4565b6001600160a01b038316600081815260096020908152604091829020805460ff191686151590811790915591519182527f70d2c92da609a3045e6b2a21e9d4cd5dc02f15a3830961912b03f5b236b78c8b91016119f8565b6703782dace9d9000081108015611bf9575060035460ff16155b15611c285760405163c281dd3b60e01b8152600481018290526703782dace9d900006024820152604401610cb4565b678ac7230489e8000081108015611c41575060035460ff165b15611c705760405163c281dd3b60e01b815260048101829052678ac7230489e800006024820152604401610cb4565b6001600160a01b038216611c9757604051632953f2b160e11b815260040160405180910390fd5b6001600160a01b0382166000908152600d602052604090205460ff1615611cd157604051632953f2b160e11b815260040160405180910390fd5b6001600160a01b0382166000908152600a602052604090205415610b385760405163186fceb160e21b815260040160405180910390fd5b610c4581336121c7565b611d1c82826115c6565b610b38576000828152602081815260408083206001600160a01b03851684529091529020805460ff19166001179055611d523390565b6001600160a01b0316816001600160a01b0316837f2f8788117e7eff1d82e926ec794901d17c78024a50270940304540a733656f0d60405160405180910390a45050565b6040516001600160a01b03808516602483015283166044820152606481018290526109f49085906323b872dd60e01b906084015b60408051601f198184030181529190526020810180516001600160e01b03166001600160e01b03199093169290921790915261222b565b611e0b82826115c6565b15610b38576000828152602081815260408083206001600160a01b0385168085529252808320805460ff1916905551339285917ff6391f5c32d9c69d2a47ea670b442974b53935d1edc7fd64eb21e047a839171b9190a45050565b6000611e7133610d09565b905081811015611e9e57604051638088bb1160e01b81526004810183905260248101829052604401610cb4565b336000908152600a60205260408120600181015460025491929091429190611ec69083612af5565b905080831015611ed4578092505b60035460ff16611f7a574786811015611f0a57604051631508de4560e01b81526004810188905260248101829052604401610cb4565b604051600090339089908381818185875af1925050503d8060008114611f4c576040519150601f19603f3d011682016040523d82523d6000602084013e611f51565b606091505b5050905080611f7357604051637d6a86b760e11b815260040160405180910390fd5b505061202d565b6006546040516370a0823160e01b81523060048201526000916001600160a01b0316906370a0823190602401602060405180830381865afa158015611fc3573d6000803e3d6000fd5b505050506040513d601f19601f82011682018060405250810190611fe79190612c55565b90508681101561201457604051631508de4560e01b81526004810188905260248101829052604401610cb4565b60065461202b906001600160a01b03163389612067565b505b84866120398585612af5565b6120439190612b52565b61204d9190612b69565b6120579084612c9d565b8460010181905550505050505050565b6040516001600160a01b038316602482015260448101829052610b6190849063a9059cbb60e01b90606401611dca565b60006120a233610d09565b9050828110156120cf57604051638088bb1160e01b81526004810184905260248101829052604401610cb4565b336000908152600860209081526040808320815160a081018352878152808401878152928101859052606081018590524260808201528154600181810184559286529390942084516004909402019283559051908201906121309082612cfe565b50604082810151600283018054606086015115156101000261ff00199315159390931661ffff199091161791909117905560809092015160039091015533600090815260086020529081205461218890600190612af5565b9050336001600160a01b03167fce2f77570154cbde47c2eb532cfe0282ba3d23ee85a56bcf021e177dd8f688d88286866040516114fa93929190612dbe565b6121d182826115c6565b610b38576121e9816001600160a01b031660146122fd565b6121f48360206122fd565b604051602001612205929190612de6565b60408051601f198184030181529082905262461bcd60e51b8252610cb4916004016126dc565b6000612280826040518060400160405280602081526020017f5361666545524332303a206c6f772d6c6576656c2063616c6c206661696c6564815250856001600160a01b03166124a09092919063ffffffff16565b805190915015610b61578080602001905181019061229e9190612e5b565b610b615760405162461bcd60e51b815260206004820152602a60248201527f5361666545524332303a204552433230206f7065726174696f6e20646964206e6044820152691bdd081cdd58d8d9595960b21b6064820152608401610cb4565b6060600061230c836002612b52565b612317906002612c9d565b67ffffffffffffffff81111561232f5761232f61270c565b6040519080825280601f01601f191660200182016040528015612359576020820181803683370190505b509050600360fc1b8160008151811061237457612374612b3c565b60200101906001600160f81b031916908160001a905350600f60fb1b816001815181106123a3576123a3612b3c565b60200101906001600160f81b031916908160001a90535060006123c7846002612b52565b6123d2906001612c9d565b90505b600181111561244a576f181899199a1a9b1b9c1cb0b131b232b360811b85600f166010811061240657612406612b3c565b1a60f81b82828151811061241c5761241c612b3c565b60200101906001600160f81b031916908160001a90535060049490941c9361244381612e78565b90506123d5565b5083156124995760405162461bcd60e51b815260206004820181905260248201527f537472696e67733a20686578206c656e67746820696e73756666696369656e746044820152606401610cb4565b9392505050565b60606124af84846000856124b7565b949350505050565b6060824710156125185760405162461bcd60e51b815260206004820152602660248201527f416464726573733a20696e73756666696369656e742062616c616e636520666f6044820152651c8818d85b1b60d21b6064820152608401610cb4565b6001600160a01b0385163b61256f5760405162461bcd60e51b815260206004820152601d60248201527f416464726573733a2063616c6c20746f206e6f6e2d636f6e74726163740000006044820152606401610cb4565b600080866001600160a01b0316858760405161258b9190612e8f565b60006040518083038185875af1925050503d80600081146125c8576040519150601f19603f3d011682016040523d82523d6000602084013e6125cd565b606091505b50915091506125dd8282866125e8565b979650505050505050565b606083156125f7575081612499565b8251156126075782518084602001fd5b8160405162461bcd60e51b8152600401610cb491906126dc565b60006020828403121561263357600080fd5b81356001600160e01b03198116811461249957600080fd5b6001600160a01b0381168114610c4557600080fd5b6000806040838503121561267357600080fd5b823561267e8161264b565b946020939093013593505050565b60005b838110156126a757818101518382015260200161268f565b50506000910152565b600081518084526126c881602086016020860161268c565b601f01601f19169290920160200192915050565b60208152600061249960208301846126b0565b60006020828403121561270157600080fd5b81356124998161264b565b634e487b7160e01b600052604160045260246000fd5b604051601f8201601f1916810167ffffffffffffffff8111828210171561274b5761274b61270c565b604052919050565b600067ffffffffffffffff82111561276d5761276d61270c565b5060051b60200190565b600082601f83011261278857600080fd5b8135602061279d61279883612753565b612722565b82815260059290921b840181019181810190868411156127bc57600080fd5b8286015b848110156127d757803583529183019183016127c0565b509695505050505050565b600080604083850312156127f557600080fd5b823567ffffffffffffffff8082111561280d57600080fd5b818501915085601f83011261282157600080fd5b8135602061283161279883612753565b82815260059290921b8401810191818101908984111561285057600080fd5b948201945b838610156128775785356128688161264b565b82529482019490820190612855565b9650508601359250508082111561288d57600080fd5b5061289a85828601612777565b9150509250929050565b8015158114610c4557600080fd5b600080604083850312156128c557600080fd5b82356128d08161264b565b915060208301356128e0816128a4565b809150509250929050565b6000602082840312156128fd57600080fd5b5035919050565b6000806040838503121561291757600080fd5b8235915060208301356128e08161264b565b60006020828403121561293b57600080fd5b8135612499816128a4565b85815260a06020820152600061295f60a08301876126b0565b941515604083015250911515606083015260809091015292915050565b6000806020838503121561298f57600080fd5b823567ffffffffffffffff808211156129a757600080fd5b818501915085601f8301126129bb57600080fd5b8135818111156129ca57600080fd5b8660208260051b85010111156129df57600080fd5b60209290920196919550909350505050565b602080825282518282018190526000919060409081850190868401855b82811015612a3357815180518552860151868501529284019290850190600101612a0e565b5091979650505050505050565b60008060408385031215612a5357600080fd5b8235915060208084013567ffffffffffffffff80821115612a7357600080fd5b818601915086601f830112612a8757600080fd5b813581811115612a9957612a9961270c565b612aab601f8201601f19168501612722565b91508082528784828501011115612ac157600080fd5b80848401858401376000848284010152508093505050509250929050565b634e487b7160e01b600052601160045260246000fd5b8181038181111561075f5761075f612adf565b600181811c90821680612b1c57607f821691505b602082108103610dc457634e487b7160e01b600052602260045260246000fd5b634e487b7160e01b600052603260045260246000fd5b808202811582820484141761075f5761075f612adf565b600082612b8657634e487b7160e01b600052601260045260246000fd5b500490565b6020808252601f908201527f5265656e7472616e637947756172643a207265656e7472616e742063616c6c00604082015260600190565b8281526000602060408184015260008454612bdc81612b08565b8060408701526060600180841660008114612bfe5760018114612c1857612c46565b60ff1985168984015283151560051b890183019550612c46565b896000528660002060005b85811015612c3e5781548b8201860152908301908801612c23565b8a0184019650505b50939998505050505050505050565b600060208284031215612c6757600080fd5b5051919050565b8281526040602082015260006124af60408301846126b0565b634e487b7160e01b600052603160045260246000fd5b8082018082111561075f5761075f612adf565b601f821115610b6157600081815260208120601f850160051c81016020861015612cd75750805b601f850160051c820191505b81811015612cf657828155600101612ce3565b505050505050565b815167ffffffffffffffff811115612d1857612d1861270c565b612d2c81612d268454612b08565b84612cb0565b602080601f831160018114612d615760008415612d495750858301515b600019600386901b1c1916600185901b178555612cf6565b600085815260208120601f198616915b82811015612d9057888601518255948401946001909101908401612d71565b5085821015612dae5787850151600019600388901b60f8161c191681555b5050505050600190811b01905550565b838152826020820152606060408201526000612ddd60608301846126b0565b95945050505050565b7f416363657373436f6e74726f6c3a206163636f756e7420000000000000000000815260008351612e1e81601785016020880161268c565b7001034b99036b4b9b9b4b733903937b6329607d1b6017918401918201528351612e4f81602884016020880161268c565b01602801949350505050565b600060208284031215612e6d57600080fd5b8151612499816128a4565b600081612e8757612e87612adf565b506000190190565b60008251612ea181846020870161268c565b919091019291505056fea2646970667358221220b2b90abf66c95f0fbbc49500978a72bfc1f11f79aa9d4454285c880e84a13dbd64736f6c63430008140033a2646970667358221220bdf59ef329994604c0822e9a6383aff3e0da52dee49a6bd5a1bcdc60ca82ba3c64736f6c63430008140033",
  "devdoc": {
    "details": "Factory contract for deploying new Cohort contracts with a creation fee",
    "kind": "dev",
    "methods": {
      "constructor": {
        "details": "Constructor sets the price feed address for ETH/USD conversion",
        "params": {
          "_priceFeed": "Chainlink price feed address for ETH/USD"
        }
      },
      "createCohort(address,address,string,string,uint256,address[],uint256[])": {
        "details": "Creates a new Cohort contract",
        "params": {
          "_name": "Name of the cohort",
          "_primaryAdmin": "Address of the primary admin",
          "_tokenAddress": "Address of ERC20 token (zero address for ETH)"
        },
        "returns": {
          "_0": "Address of the newly created cohort"
        }
      },
      "getAllCohorts()": {
        "details": "Gets all created cohorts",
        "returns": {
          "_0": "Array of cohort addresses"
        }
      },
      "getRequiredEthAmount()": {
        "details": "Calculates required ETH amount for creation fee",
        "returns": {
          "_0": "Required ETH amount in wei"
        }
      },
      "getTotalCohorts()": {
        "details": "Gets the total number of created cohorts",
        "returns": {
          "_0": "Number of cohorts"
        }
      },
      "owner()": {
        "details": "Returns the address of the current owner."
      },
      "renounceOwnership()": {
        "details": "Leaves the contract without owner. It will not be possible to call `onlyOwner` functions anymore. Can only be called by the current owner. NOTE: Renouncing ownership will leave the contract without an owner, thereby removing any functionality that is only available to the owner."
      },
      "transferOwnership(address)": {
        "details": "Transfers ownership of the contract to a new account (`newOwner`). Can only be called by the current owner."
      },
      "updatePriceFeed(address)": {
        "details": "Updates the price feed address",
        "params": {
          "_newPriceFeed": "New price feed address"
        }
      }
    },
    "title": "CohortFactory",
    "version": 1
  },
  "userdoc": {
    "kind": "user",
    "methods": {},
    "version": 1
  },
  "storageLayout": {
    "storage": [
      {
        "astId": 446,
        "contract": "contracts/CohortFactory.sol:CohortFactory",
        "label": "_owner",
        "offset": 0,
        "slot": "0",
        "type": "t_address"
      },
      {
        "astId": 2996,
        "contract": "contracts/CohortFactory.sol:CohortFactory",
        "label": "priceFeed",
        "offset": 0,
        "slot": "1",
        "type": "t_contract(AggregatorV3Interface)45"
      },
      {
        "astId": 3005,
        "contract": "contracts/CohortFactory.sol:CohortFactory",
        "label": "isCohort",
        "offset": 0,
        "slot": "2",
        "type": "t_mapping(t_address,t_bool)"
      },
      {
        "astId": 3008,
        "contract": "contracts/CohortFactory.sol:CohortFactory",
        "label": "cohorts",
        "offset": 0,
        "slot": "3",
        "type": "t_array(t_address)dyn_storage"
      }
    ],
    "types": {
      "t_address": {
        "encoding": "inplace",
        "label": "address",
        "numberOfBytes": "20"
      },
      "t_array(t_address)dyn_storage": {
        "base": "t_address",
        "encoding": "dynamic_array",
        "label": "address[]",
        "numberOfBytes": "32"
      },
      "t_bool": {
        "encoding": "inplace",
        "label": "bool",
        "numberOfBytes": "1"
      },
      "t_contract(AggregatorV3Interface)45": {
        "encoding": "inplace",
        "label": "contract AggregatorV3Interface",
        "numberOfBytes": "20"
      },
      "t_mapping(t_address,t_bool)": {
        "encoding": "mapping",
        "key": "t_address",
        "label": "mapping(address => bool)",
        "numberOfBytes": "32",
        "value": "t_bool"
      }
    }
  }
}