{
  "address": "0x8ca81c6aAEe9829Bc1417D1F2492E614584c3FE4",
  "abi": [
    {
      "inputs": [
        {
          "internalType": "address",
          "name": "_primaryAdmin",
          "type": "address"
        },
        {
          "internalType": "address",
          "name": "_tokenAddress",
          "type": "address"
        },
        {
          "internalType": "string",
          "name": "_name",
          "type": "string"
        },
        {
          "internalType": "string",
          "name": "_description",
          "type": "string"
        },
        {
          "internalType": "uint256",
          "name": "_cycle",
          "type": "uint256"
        },
        {
          "internalType": "address[]",
          "name": "_builders",
          "type": "address[]"
        },
        {
          "internalType": "uint256[]",
          "name": "_caps",
          "type": "uint256[]"
        }
      ],
      "stateMutability": "nonpayable",
      "type": "constructor"
    },
    {
      "inputs": [],
      "name": "AccessDenied",
      "type": "error"
    },
    {
      "inputs": [
        {
          "internalType": "uint256",
          "name": "provided",
          "type": "uint256"
        },
        {
          "internalType": "uint256",
          "name": "minimum",
          "type": "uint256"
        }
      ],
      "name": "BelowMinimumCap",
      "type": "error"
    },
    {
      "inputs": [],
      "name": "BuilderAlreadyExists",
      "type": "error"
    },
    {
      "inputs": [],
      "name": "ContractIsStopped",
      "type": "error"
    },
    {
      "inputs": [],
      "name": "EtherSendingFailed",
      "type": "error"
    },
    {
      "inputs": [
        {
          "internalType": "uint256",
          "name": "requested",
          "type": "uint256"
        },
        {
          "internalType": "uint256",
          "name": "available",
          "type": "uint256"
        }
      ],
      "name": "InsufficientFundsInContract",
      "type": "error"
    },
    {
      "inputs": [
        {
          "internalType": "uint256",
          "name": "requested",
          "type": "uint256"
        },
        {
          "internalType": "uint256",
          "name": "available",
          "type": "uint256"
        }
      ],
      "name": "InsufficientInFlow",
      "type": "error"
    },
    {
      "inputs": [],
      "name": "InvalidBuilderAddress",
      "type": "error"
    },
    {
      "inputs": [],
      "name": "InvalidNewAdminAddress",
      "type": "error"
    },
    {
      "inputs": [],
      "name": "LengthsMismatch",
      "type": "error"
    },
    {
      "inputs": [],
      "name": "MaxBuildersReached",
      "type": "error"
    },
    {
      "inputs": [
        {
          "internalType": "address",
          "name": "builder",
          "type": "address"
        }
      ],
      "name": "NoActiveFlowForBuilder",
      "type": "error"
    },
    {
      "inputs": [],
      "name": "NoValueSent",
      "type": "error"
    },
    {
      "inputs": [],
      "name": "NotAuthorized",
      "type": "error"
    },
    {
      "inputs": [],
      "name": "WithdrawalRequestAlreadyCompleted",
      "type": "error"
    },
    {
      "inputs": [],
      "name": "WithdrawalRequestNotApproved",
      "type": "error"
    },
    {
      "inputs": [],
      "name": "WithdrawalRequestNotFound",
      "type": "error"
    },
    {
      "anonymous": false,
      "inputs": [
        {
          "indexed": true,
          "internalType": "address",
          "name": "to",
          "type": "address"
        },
        {
          "indexed": false,
          "internalType": "uint256",
          "name": "amount",
          "type": "uint256"
        }
      ],
      "name": "AddBuilder",
      "type": "event"
    },
    {
      "anonymous": false,
      "inputs": [
        {
          "indexed": true,
          "internalType": "address",
          "name": "to",
          "type": "address"
        }
      ],
      "name": "AdminAdded",
      "type": "event"
    },
    {
      "anonymous": false,
      "inputs": [
        {
          "indexed": true,
          "internalType": "address",
          "name": "to",
          "type": "address"
        }
      ],
      "name": "AdminRemoved",
      "type": "event"
    },
    {
      "anonymous": false,
      "inputs": [
        {
          "indexed": true,
          "internalType": "address",
          "name": "builder",
          "type": "address"
        },
        {
          "indexed": false,
          "internalType": "bool",
          "name": "requiresApproval",
          "type": "bool"
        }
      ],
      "name": "ApprovalRequirementChanged",
      "type": "event"
    },
    {
      "anonymous": false,
      "inputs": [
        {
          "indexed": false,
          "internalType": "uint256",
          "name": "amount",
          "type": "uint256"
        }
      ],
      "name": "ContractDrained",
      "type": "event"
    },
    {
      "anonymous": false,
      "inputs": [
        {
          "indexed": true,
          "internalType": "address",
          "name": "token",
          "type": "address"
        },
        {
          "indexed": true,
          "internalType": "address",
          "name": "from",
          "type": "address"
        },
        {
          "indexed": false,
          "internalType": "uint256",
          "name": "amount",
          "type": "uint256"
        }
      ],
      "name": "ERC20FundsReceived",
      "type": "event"
    },
    {
      "anonymous": false,
      "inputs": [
        {
          "indexed": true,
          "internalType": "address",
          "name": "from",
          "type": "address"
        },
        {
          "indexed": false,
          "internalType": "uint256",
          "name": "amount",
          "type": "uint256"
        }
      ],
      "name": "FundsReceived",
      "type": "event"
    },
    {
      "anonymous": false,
      "inputs": [
        {
          "indexed": true,
          "internalType": "address",
          "name": "newAdmin",
          "type": "address"
        }
      ],
      "name": "PrimaryAdminTransferred",
      "type": "event"
    },
    {
      "anonymous": false,
      "inputs": [
        {
          "indexed": true,
          "internalType": "bytes32",
          "name": "role",
          "type": "bytes32"
        },
        {
          "indexed": true,
          "internalType": "bytes32",
          "name": "previousAdminRole",
          "type": "bytes32"
        },
        {
          "indexed": true,
          "internalType": "bytes32",
          "name": "newAdminRole",
          "type": "bytes32"
        }
      ],
      "name": "RoleAdminChanged",
      "type": "event"
    },
    {
      "anonymous": false,
      "inputs": [
        {
          "indexed": true,
          "internalType": "bytes32",
          "name": "role",
          "type": "bytes32"
        },
        {
          "indexed": true,
          "internalType": "address",
          "name": "account",
          "type": "address"
        },
        {
          "indexed": true,
          "internalType": "address",
          "name": "sender",
          "type": "address"
        }
      ],
      "name": "RoleGranted",
      "type": "event"
    },
    {
      "anonymous": false,
      "inputs": [
        {
          "indexed": true,
          "internalType": "bytes32",
          "name": "role",
          "type": "bytes32"
        },
        {
          "indexed": true,
          "internalType": "address",
          "name": "account",
          "type": "address"
        },
        {
          "indexed": true,
          "internalType": "address",
          "name": "sender",
          "type": "address"
        }
      ],
      "name": "RoleRevoked",
      "type": "event"
    },
    {
      "anonymous": false,
      "inputs": [
        {
          "indexed": true,
          "internalType": "address",
          "name": "to",
          "type": "address"
        },
        {
          "indexed": false,
          "internalType": "uint256",
          "name": "amount",
          "type": "uint256"
        }
      ],
      "name": "UpdateBuilder",
      "type": "event"
    },
    {
      "anonymous": false,
      "inputs": [
        {
          "indexed": true,
          "internalType": "address",
          "name": "to",
          "type": "address"
        },
        {
          "indexed": false,
          "internalType": "uint256",
          "name": "amount",
          "type": "uint256"
        },
        {
          "indexed": false,
          "internalType": "string",
          "name": "reason",
          "type": "string"
        }
      ],
      "name": "Withdraw",
      "type": "event"
    },
    {
      "anonymous": false,
      "inputs": [
        {
          "indexed": true,
          "internalType": "address",
          "name": "builder",
          "type": "address"
        },
        {
          "indexed": false,
          "internalType": "uint256",
          "name": "requestId",
          "type": "uint256"
        }
      ],
      "name": "WithdrawalApproved",
      "type": "event"
    },
    {
      "anonymous": false,
      "inputs": [
        {
          "indexed": true,
          "internalType": "address",
          "name": "builder",
          "type": "address"
        },
        {
          "indexed": false,
          "internalType": "uint256",
          "name": "requestId",
          "type": "uint256"
        },
        {
          "indexed": false,
          "internalType": "uint256",
          "name": "amount",
          "type": "uint256"
        }
      ],
      "name": "WithdrawalCompleted",
      "type": "event"
    },
    {
      "anonymous": false,
      "inputs": [
        {
          "indexed": true,
          "internalType": "address",
          "name": "builder",
          "type": "address"
        },
        {
          "indexed": false,
          "internalType": "uint256",
          "name": "requestId",
          "type": "uint256"
        }
      ],
      "name": "WithdrawalRejected",
      "type": "event"
    },
    {
      "anonymous": false,
      "inputs": [
        {
          "indexed": true,
          "internalType": "address",
          "name": "builder",
          "type": "address"
        },
        {
          "indexed": false,
          "internalType": "uint256",
          "name": "requestId",
          "type": "uint256"
        },
        {
          "indexed": false,
          "internalType": "uint256",
          "name": "amount",
          "type": "uint256"
        },
        {
          "indexed": false,
          "internalType": "string",
          "name": "reason",
          "type": "string"
        }
      ],
      "name": "WithdrawalRequested",
      "type": "event"
    },
    {
      "inputs": [],
      "name": "DEFAULT_ADMIN_ROLE",
      "outputs": [
        {
          "internalType": "bytes32",
          "name": "",
          "type": "bytes32"
        }
      ],
      "stateMutability": "view",
      "type": "function"
    },
    {
      "inputs": [
        {
          "internalType": "uint256",
          "name": "",
          "type": "uint256"
        }
      ],
      "name": "activeBuilders",
      "outputs": [
        {
          "internalType": "address",
          "name": "",
          "type": "address"
        }
      ],
      "stateMutability": "view",
      "type": "function"
    },
    {
      "inputs": [
        {
          "internalType": "address[]",
          "name": "_builders",
          "type": "address[]"
        },
        {
          "internalType": "uint256[]",
          "name": "_caps",
          "type": "uint256[]"
        }
      ],
      "name": "addBatch",
      "outputs": [],
      "stateMutability": "nonpayable",
      "type": "function"
    },
    {
      "inputs": [
        {
          "internalType": "address payable",
          "name": "_builder",
          "type": "address"
        },
        {
          "internalType": "uint256",
          "name": "_cap",
          "type": "uint256"
        }
      ],
      "name": "addBuilderFlow",
      "outputs": [],
      "stateMutability": "nonpayable",
      "type": "function"
    },
    {
      "inputs": [
        {
          "internalType": "address[]",
          "name": "_builders",
          "type": "address[]"
        }
      ],
      "name": "allBuildersData",
      "outputs": [
        {
          "components": [
            {
              "internalType": "uint256",
              "name": "cap",
              "type": "uint256"
            },
            {
              "internalType": "uint256",
              "name": "last",
              "type": "uint256"
            }
          ],
          "internalType": "struct Cohort.BuilderFlowInfo[]",
          "name": "",
          "type": "tuple[]"
        }
      ],
      "stateMutability": "view",
      "type": "function"
    },
    {
      "inputs": [
        {
          "internalType": "address",
          "name": "_builder",
          "type": "address"
        },
        {
          "internalType": "uint256",
          "name": "_requestId",
          "type": "uint256"
        }
      ],
      "name": "approveWithdrawal",
      "outputs": [],
      "stateMutability": "nonpayable",
      "type": "function"
    },
    {
      "inputs": [
        {
          "internalType": "address",
          "name": "_builder",
          "type": "address"
        }
      ],
      "name": "availableBuilderAmount",
      "outputs": [
        {
          "internalType": "uint256",
          "name": "",
          "type": "uint256"
        }
      ],
      "stateMutability": "view",
      "type": "function"
    },
    {
      "inputs": [
        {
          "internalType": "address",
          "name": "",
          "type": "address"
        }
      ],
      "name": "builderIndex",
      "outputs": [
        {
          "internalType": "uint256",
          "name": "",
          "type": "uint256"
        }
      ],
      "stateMutability": "view",
      "type": "function"
    },
    {
      "inputs": [
        {
          "internalType": "uint256",
          "name": "_requestId",
          "type": "uint256"
        }
      ],
      "name": "completeWithdrawal",
      "outputs": [],
      "stateMutability": "nonpayable",
      "type": "function"
    },
    {
      "inputs": [],
      "name": "cycle",
      "outputs": [
        {
          "internalType": "uint256",
          "name": "",
          "type": "uint256"
        }
      ],
      "stateMutability": "view",
      "type": "function"
    },
    {
      "inputs": [],
      "name": "description",
      "outputs": [
        {
          "internalType": "string",
          "name": "",
          "type": "string"
        }
      ],
      "stateMutability": "view",
      "type": "function"
    },
    {
      "inputs": [
        {
          "internalType": "address",
          "name": "_token",
          "type": "address"
        }
      ],
      "name": "drainContract",
      "outputs": [],
      "stateMutability": "nonpayable",
      "type": "function"
    },
    {
      "inputs": [
        {
          "internalType": "bool",
          "name": "_enable",
          "type": "bool"
        }
      ],
      "name": "emergencyMode",
      "outputs": [],
      "stateMutability": "nonpayable",
      "type": "function"
    },
    {
      "inputs": [
        {
          "internalType": "uint256",
          "name": "_amount",
          "type": "uint256"
        },
        {
          "internalType": "string",
          "name": "_reason",
          "type": "string"
        }
      ],
      "name": "flowWithdraw",
      "outputs": [],
      "stateMutability": "nonpayable",
      "type": "function"
    },
    {
      "inputs": [
        {
          "internalType": "address",
          "name": "",
          "type": "address"
        }
      ],
      "name": "flowingBuilders",
      "outputs": [
        {
          "internalType": "uint256",
          "name": "cap",
          "type": "uint256"
        },
        {
          "internalType": "uint256",
          "name": "last",
          "type": "uint256"
        }
      ],
      "stateMutability": "view",
      "type": "function"
    },
    {
      "inputs": [
        {
          "internalType": "uint256",
          "name": "_amount",
          "type": "uint256"
        }
      ],
      "name": "fundContract",
      "outputs": [],
      "stateMutability": "payable",
      "type": "function"
    },
    {
      "inputs": [
        {
          "internalType": "bytes32",
          "name": "role",
          "type": "bytes32"
        }
      ],
      "name": "getRoleAdmin",
      "outputs": [
        {
          "internalType": "bytes32",
          "name": "",
          "type": "bytes32"
        }
      ],
      "stateMutability": "view",
      "type": "function"
    },
    {
      "inputs": [
        {
          "internalType": "bytes32",
          "name": "role",
          "type": "bytes32"
        },
        {
          "internalType": "address",
          "name": "account",
          "type": "address"
        }
      ],
      "name": "grantRole",
      "outputs": [],
      "stateMutability": "nonpayable",
      "type": "function"
    },
    {
      "inputs": [
        {
          "internalType": "bytes32",
          "name": "role",
          "type": "bytes32"
        },
        {
          "internalType": "address",
          "name": "account",
          "type": "address"
        }
      ],
      "name": "hasRole",
      "outputs": [
        {
          "internalType": "bool",
          "name": "",
          "type": "bool"
        }
      ],
      "stateMutability": "view",
      "type": "function"
    },
    {
      "inputs": [
        {
          "internalType": "address",
          "name": "",
          "type": "address"
        }
      ],
      "name": "isAdmin",
      "outputs": [
        {
          "internalType": "bool",
          "name": "",
          "type": "bool"
        }
      ],
      "stateMutability": "view",
      "type": "function"
    },
    {
      "inputs": [],
      "name": "isERC20",
      "outputs": [
        {
          "internalType": "bool",
          "name": "",
          "type": "bool"
        }
      ],
      "stateMutability": "view",
      "type": "function"
    },
    {
      "inputs": [
        {
          "internalType": "address",
          "name": "adminAddress",
          "type": "address"
        },
        {
          "internalType": "bool",
          "name": "shouldGrant",
          "type": "bool"
        }
      ],
      "name": "modifyAdminRole",
      "outputs": [],
      "stateMutability": "nonpayable",
      "type": "function"
    },
    {
      "inputs": [],
      "name": "name",
      "outputs": [
        {
          "internalType": "string",
          "name": "",
          "type": "string"
        }
      ],
      "stateMutability": "view",
      "type": "function"
    },
    {
      "inputs": [],
      "name": "primaryAdmin",
      "outputs": [
        {
          "internalType": "address",
          "name": "",
          "type": "address"
        }
      ],
      "stateMutability": "view",
      "type": "function"
    },
    {
      "inputs": [
        {
          "internalType": "address",
          "name": "_builder",
          "type": "address"
        },
        {
          "internalType": "uint256",
          "name": "_requestId",
          "type": "uint256"
        }
      ],
      "name": "rejectWithdrawal",
      "outputs": [],
      "stateMutability": "nonpayable",
      "type": "function"
    },
    {
      "inputs": [
        {
          "internalType": "address",
          "name": "_builder",
          "type": "address"
        }
      ],
      "name": "removeBuilderFlow",
      "outputs": [],
      "stateMutability": "nonpayable",
      "type": "function"
    },
    {
      "inputs": [
        {
          "internalType": "bytes32",
          "name": "role",
          "type": "bytes32"
        },
        {
          "internalType": "address",
          "name": "account",
          "type": "address"
        }
      ],
      "name": "renounceRole",
      "outputs": [],
      "stateMutability": "nonpayable",
      "type": "function"
    },
    {
      "inputs": [
        {
          "internalType": "address",
          "name": "",
          "type": "address"
        }
      ],
      "name": "requiresApproval",
      "outputs": [
        {
          "internalType": "bool",
          "name": "",
          "type": "bool"
        }
      ],
      "stateMutability": "view",
      "type": "function"
    },
    {
      "inputs": [
        {
          "internalType": "bytes32",
          "name": "role",
          "type": "bytes32"
        },
        {
          "internalType": "address",
          "name": "account",
          "type": "address"
        }
      ],
      "name": "revokeRole",
      "outputs": [],
      "stateMutability": "nonpayable",
      "type": "function"
    },
    {
      "inputs": [
        {
          "internalType": "address",
          "name": "_builder",
          "type": "address"
        },
        {
          "internalType": "bool",
          "name": "_requiresApproval",
          "type": "bool"
        }
      ],
      "name": "setBuilderApprovalRequirement",
      "outputs": [],
      "stateMutability": "nonpayable",
      "type": "function"
    },
    {
      "inputs": [],
      "name": "stopped",
      "outputs": [
        {
          "internalType": "bool",
          "name": "",
          "type": "bool"
        }
      ],
      "stateMutability": "view",
      "type": "function"
    },
    {
      "inputs": [
        {
          "internalType": "bytes4",
          "name": "interfaceId",
          "type": "bytes4"
        }
      ],
      "name": "supportsInterface",
      "outputs": [
        {
          "internalType": "bool",
          "name": "",
          "type": "bool"
        }
      ],
      "stateMutability": "view",
      "type": "function"
    },
    {
      "inputs": [],
      "name": "tokenAddress",
      "outputs": [
        {
          "internalType": "address",
          "name": "",
          "type": "address"
        }
      ],
      "stateMutability": "view",
      "type": "function"
    },
    {
      "inputs": [
        {
          "internalType": "address",
          "name": "newPrimaryAdmin",
          "type": "address"
        }
      ],
      "name": "transferPrimaryAdmin",
      "outputs": [],
      "stateMutability": "nonpayable",
      "type": "function"
    },
    {
      "inputs": [
        {
          "internalType": "address payable",
          "name": "_builder",
          "type": "address"
        },
        {
          "internalType": "uint256",
          "name": "_newCap",
          "type": "uint256"
        }
      ],
      "name": "updateBuilderFlowCapCycle",
      "outputs": [],
      "stateMutability": "nonpayable",
      "type": "function"
    },
    {
      "inputs": [
        {
          "internalType": "address",
          "name": "",
          "type": "address"
        },
        {
          "internalType": "uint256",
          "name": "",
          "type": "uint256"
        }
      ],
      "name": "withdrawalRequests",
      "outputs": [
        {
          "internalType": "uint256",
          "name": "amount",
          "type": "uint256"
        },
        {
          "internalType": "string",
          "name": "reason",
          "type": "string"
        },
        {
          "internalType": "bool",
          "name": "approved",
          "type": "bool"
        },
        {
          "internalType": "bool",
          "name": "completed",
          "type": "bool"
        },
        {
          "internalType": "uint256",
          "name": "requestTime",
          "type": "uint256"
        }
      ],
      "stateMutability": "view",
      "type": "function"
    },
    {
      "stateMutability": "payable",
      "type": "receive"
    }
  ],
  "transactionHash": "0x37b49262115f89f64a9fd76cb408fd6ae7fd0c95425fa59ac6c4cf5743865ea6",
  "args": [
    "0xa8DF02c5607100Eb108B5C39dCdD8c2aE44185Df",
    "0x0000000000000000000000000000000000000000",
    "Cohort",
    "Cohort contract",
    2592000,
    [],
    []
  ],
  "numDeployments": 4,
  "solcInputHash": "182f3c610aa2c7e3e7f23b315986d35a",
  "bytecode": "0x60806040523480156200001157600080fd5b506040516200389b3803806200389b833981016040819052620000349162000733565b600180556200004560008862000352565b6001600160a01b0387166000818152600d60205260409020805460ff19166001179055600780546001600160a01b03191690911790556004620000898682620008ab565b506005620000988582620008ab565b5060028390556001600160a01b03861615620000d9576003805460ff19166001179055600680546001600160a01b0388166001600160a01b03199091161790555b8151156200034557815160198110620001055760405163104e7cef60e31b815260040160405180910390fd5b81518114620001275760405163586cb9e160e01b815260040160405180910390fd5b60005b8181101562000342576200017d8482815181106200014c576200014c62000977565b602002602001015184838151811062000169576200016962000977565b6020026020010151620003db60201b60201c565b60405180604001604052808483815181106200019d576200019d62000977565b602002602001015181526020018642620001b891906200098d565b815250600a6000868481518110620001d457620001d462000977565b60200260200101516001600160a01b03166001600160a01b031681526020019081526020016000206000820151816000015560208201518160010155905050600c8482815181106200022a576200022a62000977565b60209081029190910181015182546001808201855560009485529290932090920180546001600160a01b0319166001600160a01b0390931692909217909155600c546200027891906200098d565b600b600086848151811062000291576200029162000977565b60200260200101516001600160a01b03166001600160a01b0316815260200190815260200160002081905550838181518110620002d257620002d262000977565b60200260200101516001600160a01b03167f49707f6097e3d8b2d861adf67aadfb41a45746f9d46701065ed09ff12f9e41c384838151811062000319576200031962000977565b60200260200101516040516200033191815260200190565b60405180910390a26001016200012a565b50505b50505050505050620009af565b6200035e828262000511565b620003d7576000828152602081815260408083206001600160a01b03851684529091529020805460ff19166001179055620003963390565b6001600160a01b0316816001600160a01b0316837f2f8788117e7eff1d82e926ec794901d17c78024a50270940304540a733656f0d60405160405180910390a45b5050565b6703782dace9d9000081108015620003f6575060035460ff16155b156200042b5760405163c281dd3b60e01b8152600481018290526703782dace9d9000060248201526044015b60405180910390fd5b678ac7230489e800008110801562000445575060035460ff165b15620004765760405163c281dd3b60e01b815260048101829052678ac7230489e80000602482015260440162000422565b6001600160a01b0382166200049e5760405163094d784960e21b815260040160405180910390fd5b6001600160a01b0382166000908152600d602052604090205460ff1615620004d95760405163094d784960e21b815260040160405180910390fd5b6001600160a01b0382166000908152600a602052604090205415620003d757604051637fe8efbb60e01b815260040160405180910390fd5b6000828152602081815260408083206001600160a01b038516845290915290205460ff165b92915050565b80516001600160a01b03811681146200055457600080fd5b919050565b634e487b7160e01b600052604160045260246000fd5b604051601f8201601f191681016001600160401b03811182821017156200059a576200059a62000559565b604052919050565b600082601f830112620005b457600080fd5b81516001600160401b03811115620005d057620005d062000559565b6020620005e6601f8301601f191682016200056f565b8281528582848701011115620005fb57600080fd5b60005b838110156200061b578581018301518282018401528201620005fe565b506000928101909101919091529392505050565b60006001600160401b038211156200064b576200064b62000559565b5060051b60200190565b600082601f8301126200066757600080fd5b81516020620006806200067a836200062f565b6200056f565b82815260059290921b84018101918181019086841115620006a057600080fd5b8286015b84811015620006c657620006b8816200053c565b8352918301918301620006a4565b509695505050505050565b600082601f830112620006e357600080fd5b81516020620006f66200067a836200062f565b82815260059290921b840181019181810190868411156200071657600080fd5b8286015b84811015620006c657805183529183019183016200071a565b600080600080600080600060e0888a0312156200074f57600080fd5b6200075a886200053c565b96506200076a602089016200053c565b60408901519096506001600160401b03808211156200078857600080fd5b620007968b838c01620005a2565b965060608a0151915080821115620007ad57600080fd5b620007bb8b838c01620005a2565b955060808a0151945060a08a0151915080821115620007d957600080fd5b620007e78b838c0162000655565b935060c08a0151915080821115620007fe57600080fd5b506200080d8a828b01620006d1565b91505092959891949750929550565b600181811c908216806200083157607f821691505b6020821081036200085257634e487b7160e01b600052602260045260246000fd5b50919050565b601f821115620008a657600081815260208120601f850160051c81016020861015620008815750805b601f850160051c820191505b81811015620008a2578281556001016200088d565b5050505b505050565b81516001600160401b03811115620008c757620008c762000559565b620008df81620008d884546200081c565b8462000858565b602080601f831160018114620009175760008415620008fe5750858301515b600019600386901b1c1916600185901b178555620008a2565b600085815260208120601f198616915b82811015620009485788860151825594840194600190910190840162000927565b5085821015620009675787850151600019600388901b60f8161c191681555b5050505050600190811b01905550565b634e487b7160e01b600052603260045260246000fd5b818103818111156200053657634e487b7160e01b600052601160045260246000fd5b612edc80620009bf6000396000f3fe6080604052600436106102125760003560e01c80637284e41611610118578063a217fddf116100a0578063a78393341161006f578063a78393341461068d578063d261a37d146106ad578063d547741f146106cd578063e2d8577d146106ed578063f4970e711461070d57600080fd5b8063a217fddf1461060b578063a38d103c14610620578063a46495ac14610640578063a4adcb611461066d57600080fd5b806391d14854116100e757806391d1485414610553578063986f5ab2146105735780639d76ea58146105935780639de1b23d146105cb578063a0b1f212146105eb57600080fd5b80637284e416146104d257806375f12b21146104e75780637c6f1b59146105065780638c0a2d561461053357600080fd5b80632eb67f531161019b5780634cb404001161016a5780634cb40400146104025780634e5a2328146104225780634f0cb5f314610453578063529ef08e146104735780636190c9d5146104bc57600080fd5b80632eb67f53146103955780632f2ff15d146103af5780633519a2f8146103cf57806336568abe146103e257600080fd5b80630d12cc68116101e25780630d12cc68146102c7578063116e72db146102e75780632128003d14610307578063248a9ca31461032757806324d7806c1461036557600080fd5b806208359d1461021e57806301ffc9a71461024057806306fdde0314610275578063070092d41461029757600080fd5b3661021957005b600080fd5b34801561022a57600080fd5b5061023e61023936600461263f565b61072d565b005b34801561024c57600080fd5b5061026061025b366004612678565b6107ff565b60405190151581526020015b60405180910390f35b34801561028157600080fd5b5061028a610836565b60405161026c91906126f2565b3480156102a357600080fd5b506102606102b2366004612705565b60096020526000908152604090205460ff1681565b3480156102d357600080fd5b5061023e6102e23660046127f8565b6108c4565b3480156102f357600080fd5b5061023e61030236600461263f565b610985565b34801561031357600080fd5b5061023e610322366004612705565b610ac7565b34801561033357600080fd5b506103576103423660046128ba565b60009081526020819052604090206001015490565b60405190815260200161026c565b34801561037157600080fd5b50610260610380366004612705565b600d6020526000908152604090205460ff1681565b3480156103a157600080fd5b506003546102609060ff1681565b3480156103bb57600080fd5b5061023e6103ca3660046128d3565b610c75565b61023e6103dd3660046128ba565b610c9f565b3480156103ee57600080fd5b5061023e6103fd3660046128d3565b610d81565b34801561040e57600080fd5b5061023e61041d3660046128f8565b610dfb565b34801561042e57600080fd5b5061044261043d366004612915565b610e3d565b60405161026c959493929190612941565b34801561045f57600080fd5b5061023e61046e3660046128ba565b610f1f565b34801561047f57600080fd5b506104a761048e366004612705565b600a602052600090815260409020805460019091015482565b6040805192835260208301919091520161026c565b3480156104c857600080fd5b5061035760025481565b3480156104de57600080fd5b5061028a611123565b3480156104f357600080fd5b5060035461026090610100900460ff1681565b34801561051257600080fd5b50610526610521366004612977565b611130565b60405161026c91906129ec565b34801561053f57600080fd5b5061023e61054e366004612705565b61122f565b34801561055f57600080fd5b5061026061056e3660046128d3565b6112ed565b34801561057f57600080fd5b5061023e61058e366004612915565b611316565b34801561059f57600080fd5b506006546105b3906001600160a01b031681565b6040516001600160a01b03909116815260200161026c565b3480156105d757600080fd5b506007546105b3906001600160a01b031681565b3480156105f757600080fd5b5061023e610606366004612a3b565b61147b565b34801561061757600080fd5b50610357600081565b34801561062c57600080fd5b5061023e61063b366004612915565b611579565b34801561064c57600080fd5b5061035761065b366004612705565b600b6020526000908152604090205481565b34801561067957600080fd5b5061023e610688366004612705565b6116bf565b34801561069957600080fd5b506105b36106a83660046128ba565b61189c565b3480156106b957600080fd5b506103576106c8366004612705565b6118c6565b3480156106d957600080fd5b5061023e6106e83660046128d3565b611987565b3480156106f957600080fd5b5061023e610708366004612915565b6119ac565b34801561071957600080fd5b5061023e610728366004612915565b611ac4565b6107386000336112ed565b61075557604051634ca8886760e01b815260040160405180910390fd5b6001600160a01b0382166000908152600a602052604081205483910361079e5760405163c9f5d25d60e01b81526001600160a01b03821660048201526024015b60405180910390fd5b6001600160a01b038316600081815260096020908152604091829020805460ff191686151590811790915591519182527f70d2c92da609a3045e6b2a21e9d4cd5dc02f15a3830961912b03f5b236b78c8b91015b60405180910390a2505050565b60006001600160e01b03198216637965db0b60e01b148061083057506301ffc9a760e01b6001600160e01b03198316145b92915050565b6004805461084390612ada565b80601f016020809104026020016040519081016040528092919081815260200182805461086f90612ada565b80156108bc5780601f10610891576101008083540402835291602001916108bc565b820191906000526020600020905b81548152906001019060200180831161089f57829003601f168201915b505050505081565b6108cf6000336112ed565b6108ec57604051634ca8886760e01b815260040160405180910390fd5b81516019811061090f5760405163104e7cef60e31b815260040160405180910390fd5b815181146109305760405163586cb9e160e01b815260040160405180910390fd5b60005b8181101561097f5761097784828151811061095057610950612b0e565b602002602001015184838151811061096a5761096a612b0e565b6020026020010151611579565b600101610933565b50505050565b6109906000336112ed565b6109ad57604051634ca8886760e01b815260040160405180910390fd5b8015610a42576001600160a01b0382166000908152600a6020526040902054156109ea5760405163094d784960e21b815260040160405180910390fd5b6109f5600083610c75565b6001600160a01b0382166000818152600d6020526040808220805460ff19166001179055517f44d6d25963f097ad14f29f06854a01f575648a1ef82f30e562ccd3889717e3399190a25050565b6007546001600160a01b0390811690831603610a7157604051634ca8886760e01b815260040160405180910390fd5b610a7c600083611987565b6001600160a01b0382166000818152600d6020526040808220805460ff19169055517fa3b62bc36326052d97ea62d63c3d60308ed4c3ea8ac079dd8499f1e9c4f80c0f9190a25b5050565b610ad26000336112ed565b610aef57604051634ca8886760e01b815260040160405180910390fd5b6001600160a01b0381166000908152600a6020526040812054829103610b335760405163c9f5d25d60e01b81526001600160a01b0382166004820152602401610795565b6001600160a01b0382166000908152600b6020526040812054600c8054919291610b5f90600190612b3a565b81548110610b6f57610b6f612b0e565b6000918252602090912001546001600160a01b03908116915084168114610bde5780600c8381548110610ba457610ba4612b0e565b600091825260208083209190910180546001600160a01b0319166001600160a01b039485161790559183168152600b909152604090208290555b600c805480610bef57610bef612b4d565b60008281526020808220600019908401810180546001600160a01b03191690559092019092556001600160a01b038616808352600a82526040808420848155600101849055600b835280842084905551928352917f95089b8d5f5b1df642061c1947fbec71ede04a0aaa13de4b3e1054031610a0d591015b60405180910390a250505050565b600082815260208190526040902060010154610c9081611bda565b610c9a8383611be4565b505050565b60035460ff16610d025734600003610cca576040516327738acf60e21b815260040160405180910390fd5b60405134815233907f8e47b87b0ef542cdfa1659c551d88bad38aa7f452d2bbb349ab7530dfec8be8f9060200160405180910390a250565b80600003610d23576040516327738acf60e21b815260040160405180910390fd5b600654610d3b906001600160a01b0316333084611c68565b60065460405182815233916001600160a01b0316907fa17c2a1269d65f89b5c5688ce949fa4a7f59d8fcb9bbbac872d27a142b2b49e79060200160405180910390a35b50565b6001600160a01b0381163314610df15760405162461bcd60e51b815260206004820152602f60248201527f416363657373436f6e74726f6c3a2063616e206f6e6c792072656e6f756e636560448201526e103937b632b9903337b91039b2b63360891b6064820152608401610795565b610ac38282611cd3565b610e066000336112ed565b610e2357604051634ca8886760e01b815260040160405180910390fd5b600380549115156101000261ff0019909216919091179055565b60086020528160005260406000208181548110610e5957600080fd5b906000526020600020906004020160009150915050806000015490806001018054610e8390612ada565b80601f0160208091040260200160405190810160405280929190818152602001828054610eaf90612ada565b8015610efc5780601f10610ed157610100808354040283529160200191610efc565b820191906000526020600020905b815481529060010190602001808311610edf57829003601f168201915b505050506002830154600390930154919260ff8082169361010090920416915085565b336000818152600a60205260408120549003610f595760405163c9f5d25d60e01b81526001600160a01b0382166004820152602401610795565b600260015403610f7b5760405162461bcd60e51b815260040161079590612b63565b6002600155600354610100900460ff1615610fa957604051632e1aa8d760e01b815260040160405180910390fd5b336000908152600860205260409020548210610fd85760405163514447b560e01b815260040160405180910390fd5b336000908152600860205260408120805484908110610ff957610ff9612b0e565b906000526020600020906004020190508060020160019054906101000a900460ff16156110395760405163fce3b2b560e01b815260040160405180910390fd5b3360009081526009602052604090205460ff16801561105d5750600281015460ff16155b1561107b57604051634429c06b60e01b815260040160405180910390fd5b805461108690611d38565b60028101805461ff001916610100179055805460405133917f35fc39e80f531e18729cd92611935c06db664fc014e88f0b60f14699df88377b916110d291878252602082015260400190565b60405180910390a2805460405133917f485f1bb6524c663555797e00171a10f341656e59b02d6b557a0a38ba7d5d97519161111291906001860190612b9a565b60405180910390a250506001805550565b6005805461084390612ada565b60608160008167ffffffffffffffff81111561114e5761114e612722565b60405190808252806020026020018201604052801561119357816020015b604080518082019091526000808252602082015281526020019060019003908161116c5790505b50905060005b828110156112265760008686838181106111b5576111b5612b0e565b90506020020160208101906111ca9190612705565b6001600160a01b0381166000908152600a6020908152604091829020825180840190935280548352600101549082015284519192509084908490811061121257611212612b0e565b602090810291909101015250600101611199565b50949350505050565b6007546001600160a01b0316331461125a5760405163ea8e4eb560e01b815260040160405180910390fd5b6001600160a01b0381166112815760405163b5aaecfd60e01b815260040160405180910390fd5b600780546001600160a01b0319166001600160a01b0383169081179091556112ab90600090611cd3565b6112b6600082611be4565b6040516001600160a01b038216907fb8121b611a666c4d7c03b96ba9dbc315332dc3f1aa77a22c0a1c162e55c5c32b90600090a250565b6000918252602082815260408084206001600160a01b0393909316845291905290205460ff1690565b6113216000336112ed565b61133e57604051634ca8886760e01b815260040160405180910390fd5b6001600160a01b0382166000908152600a60205260408120548391036113825760405163c9f5d25d60e01b81526001600160a01b0382166004820152602401610795565b6703782dace9d900008210801561139c575060035460ff16155b156113cb5760405163c281dd3b60e01b8152600481018390526703782dace9d900006024820152604401610795565b678ac7230489e80000821080156113e4575060035460ff165b156114135760405163c281dd3b60e01b815260048101839052678ac7230489e800006024820152604401610795565b6001600160a01b0383166000908152600a6020526040902082815560025461143b9042612b3a565b60018201556040518381526001600160a01b038516907f95089b8d5f5b1df642061c1947fbec71ede04a0aaa13de4b3e1054031610a0d590602001610c67565b336000818152600a602052604081205490036114b55760405163c9f5d25d60e01b81526001600160a01b0382166004820152602401610795565b6002600154036114d75760405162461bcd60e51b815260040161079590612b63565b6002600155600354610100900460ff161561150557604051632e1aa8d760e01b815260040160405180910390fd5b3360009081526009602052604090205460ff161561152c576115278383611f39565b611570565b61153583611d38565b336001600160a01b03167f485f1bb6524c663555797e00171a10f341656e59b02d6b557a0a38ba7d5d97518484604051611112929190612c2d565b50506001805550565b6115846000336112ed565b6115a157604051634ca8886760e01b815260040160405180910390fd5b600c546019116115c45760405163104e7cef60e31b815260040160405180910390fd5b6115ce8282612069565b6040518060400160405280828152602001600254426115ed9190612b3a565b90526001600160a01b0383166000818152600a60209081526040822084518155930151600193840155600c80548085018255918190527fdf6966c971051c3d54ec59162606531493a51404a002842f56009d7e5cf4a8c790910180546001600160a01b031916909217909155546116649190612b3a565b6001600160a01b0383166000818152600b6020526040908190209290925590517f49707f6097e3d8b2d861adf67aadfb41a45746f9d46701065ed09ff12f9e41c3906116b39084815260200190565b60405180910390a25050565b6116ca6000336112ed565b6116e757604051634ca8886760e01b815260040160405180910390fd5b6002600154036117095760405162461bcd60e51b815260040161079590612b63565b600260015560006001600160a01b0382166117d557504780156117cf576007546040516000916001600160a01b03169083908381818185875af1925050503d8060008114611773576040519150601f19603f3d011682016040523d82523d6000602084013e611778565b606091505b505090508061179a57604051637d6a86b760e11b815260040160405180910390fd5b6040518281527f217f10a82904d12e2798042bffcd3f5c3cab8f7ea5638a4c0b804a5d6487c8fa9060200160405180910390a1505b50611895565b6040516370a0823160e01b81523060048201526001600160a01b038316906370a0823190602401602060405180830381865afa158015611819573d6000803e3d6000fd5b505050506040513d601f19601f8201168201806040525081019061183d9190612c46565b905080156118935760075461185f906001600160a01b03848116911683612192565b6040518181527f217f10a82904d12e2798042bffcd3f5c3cab8f7ea5638a4c0b804a5d6487c8fa9060200160405180910390a15b505b5060018055565b600c81815481106118ac57600080fd5b6000918252602090912001546001600160a01b0316905081565b6001600160a01b0381166000908152600a60205260408120548290820361190b5760405163c9f5d25d60e01b81526001600160a01b0382166004820152602401610795565b6001600160a01b0383166000908152600a602090815260408083208151808301909252805482526001015491810182905291906119489042612b3a565b905060025481101561197c576002548251600091906119679084612c5f565b6119719190612c76565b945061198192505050565b505191505b50919050565b6000828152602081905260409020600101546119a281611bda565b610c9a8383611cd3565b6119b76000336112ed565b6119d457604051634ca8886760e01b815260040160405180910390fd5b6001600160a01b0382166000908152600860205260409020548110611a0c5760405163514447b560e01b815260040160405180910390fd5b6001600160a01b0382166000908152600860205260408120805483908110611a3657611a36612b0e565b906000526020600020906004020190508060020160019054906101000a900460ff1615611a765760405163fce3b2b560e01b815260040160405180910390fd5b60028101805461ffff19166101001790556040516001600160a01b038416907f440440e1c7eadbcf361f5e001a6580469a04c256bbf2b2824f2e98f6c151befd906107f29085815260200190565b611acf6000336112ed565b611aec57604051634ca8886760e01b815260040160405180910390fd5b6001600160a01b0382166000908152600860205260409020548110611b245760405163514447b560e01b815260040160405180910390fd5b6001600160a01b0382166000908152600860205260408120805483908110611b4e57611b4e612b0e565b906000526020600020906004020190508060020160019054906101000a900460ff1615611b8e5760405163fce3b2b560e01b815260040160405180910390fd5b60028101805460ff191660011790556040516001600160a01b038416907f8ffbcb5e5bcb810975de2605ca8e4dbdbf14faffdacf75c660a9ac7b276f0842906107f29085815260200190565b610d7e81336121c2565b611bee82826112ed565b610ac3576000828152602081815260408083206001600160a01b03851684529091529020805460ff19166001179055611c243390565b6001600160a01b0316816001600160a01b0316837f2f8788117e7eff1d82e926ec794901d17c78024a50270940304540a733656f0d60405160405180910390a45050565b6040516001600160a01b038085166024830152831660448201526064810182905261097f9085906323b872dd60e01b906084015b60408051601f198184030181529190526020810180516001600160e01b03166001600160e01b031990931692909217909152612226565b611cdd82826112ed565b15610ac3576000828152602081815260408083206001600160a01b0385168085529252808320805460ff1916905551339285917ff6391f5c32d9c69d2a47ea670b442974b53935d1edc7fd64eb21e047a839171b9190a45050565b6000611d43336118c6565b905081811015611d7057604051638088bb1160e01b81526004810183905260248101829052604401610795565b336000908152600a60205260408120600181015460025491929091429190611d989083612b3a565b905080831015611da6578092505b60035460ff16611e4c574786811015611ddc57604051631508de4560e01b81526004810188905260248101829052604401610795565b604051600090339089908381818185875af1925050503d8060008114611e1e576040519150601f19603f3d011682016040523d82523d6000602084013e611e23565b606091505b5050905080611e4557604051637d6a86b760e11b815260040160405180910390fd5b5050611eff565b6006546040516370a0823160e01b81523060048201526000916001600160a01b0316906370a0823190602401602060405180830381865afa158015611e95573d6000803e3d6000fd5b505050506040513d601f19601f82011682018060405250810190611eb99190612c46565b905086811015611ee657604051631508de4560e01b81526004810188905260248101829052604401610795565b600654611efd906001600160a01b03163389612192565b505b8486611f0b8585612b3a565b611f159190612c5f565b611f1f9190612c76565b611f299084612c98565b8460010181905550505050505050565b6000611f44336118c6565b905082811015611f7157604051638088bb1160e01b81526004810184905260248101829052604401610795565b336000908152600860209081526040808320815160a08101835287815280840187815292810185905260608101859052426080820152815460018181018455928652939094208451600490940201928355905190820190611fd29082612cf9565b50604082810151600283018054606086015115156101000261ff00199315159390931661ffff199091161791909117905560809092015160039091015533600090815260086020529081205461202a90600190612b3a565b9050336001600160a01b03167fce2f77570154cbde47c2eb532cfe0282ba3d23ee85a56bcf021e177dd8f688d8828686604051610c6793929190612db9565b6703782dace9d9000081108015612083575060035460ff16155b156120b25760405163c281dd3b60e01b8152600481018290526703782dace9d900006024820152604401610795565b678ac7230489e80000811080156120cb575060035460ff165b156120fa5760405163c281dd3b60e01b815260048101829052678ac7230489e800006024820152604401610795565b6001600160a01b0382166121215760405163094d784960e21b815260040160405180910390fd5b6001600160a01b0382166000908152600d602052604090205460ff161561215b5760405163094d784960e21b815260040160405180910390fd5b6001600160a01b0382166000908152600a602052604090205415610ac357604051637fe8efbb60e01b815260040160405180910390fd5b6040516001600160a01b038316602482015260448101829052610c9a90849063a9059cbb60e01b90606401611c9c565b6121cc82826112ed565b610ac3576121e4816001600160a01b031660146122f8565b6121ef8360206122f8565b604051602001612200929190612de1565b60408051601f198184030181529082905262461bcd60e51b8252610795916004016126f2565b600061227b826040518060400160405280602081526020017f5361666545524332303a206c6f772d6c6576656c2063616c6c206661696c6564815250856001600160a01b031661249b9092919063ffffffff16565b805190915015610c9a57808060200190518101906122999190612e56565b610c9a5760405162461bcd60e51b815260206004820152602a60248201527f5361666545524332303a204552433230206f7065726174696f6e20646964206e6044820152691bdd081cdd58d8d9595960b21b6064820152608401610795565b60606000612307836002612c5f565b612312906002612c98565b67ffffffffffffffff81111561232a5761232a612722565b6040519080825280601f01601f191660200182016040528015612354576020820181803683370190505b509050600360fc1b8160008151811061236f5761236f612b0e565b60200101906001600160f81b031916908160001a905350600f60fb1b8160018151811061239e5761239e612b0e565b60200101906001600160f81b031916908160001a90535060006123c2846002612c5f565b6123cd906001612c98565b90505b6001811115612445576f181899199a1a9b1b9c1cb0b131b232b360811b85600f166010811061240157612401612b0e565b1a60f81b82828151811061241757612417612b0e565b60200101906001600160f81b031916908160001a90535060049490941c9361243e81612e73565b90506123d0565b5083156124945760405162461bcd60e51b815260206004820181905260248201527f537472696e67733a20686578206c656e67746820696e73756666696369656e746044820152606401610795565b9392505050565b60606124aa84846000856124b2565b949350505050565b6060824710156125135760405162461bcd60e51b815260206004820152602660248201527f416464726573733a20696e73756666696369656e742062616c616e636520666f6044820152651c8818d85b1b60d21b6064820152608401610795565b6001600160a01b0385163b61256a5760405162461bcd60e51b815260206004820152601d60248201527f416464726573733a2063616c6c20746f206e6f6e2d636f6e74726163740000006044820152606401610795565b600080866001600160a01b031685876040516125869190612e8a565b60006040518083038185875af1925050503d80600081146125c3576040519150601f19603f3d011682016040523d82523d6000602084013e6125c8565b606091505b50915091506125d88282866125e3565b979650505050505050565b606083156125f2575081612494565b8251156126025782518084602001fd5b8160405162461bcd60e51b815260040161079591906126f2565b6001600160a01b0381168114610d7e57600080fd5b8015158114610d7e57600080fd5b6000806040838503121561265257600080fd5b823561265d8161261c565b9150602083013561266d81612631565b809150509250929050565b60006020828403121561268a57600080fd5b81356001600160e01b03198116811461249457600080fd5b60005b838110156126bd5781810151838201526020016126a5565b50506000910152565b600081518084526126de8160208601602086016126a2565b601f01601f19169290920160200192915050565b60208152600061249460208301846126c6565b60006020828403121561271757600080fd5b81356124948161261c565b634e487b7160e01b600052604160045260246000fd5b604051601f8201601f1916810167ffffffffffffffff8111828210171561276157612761612722565b604052919050565b600067ffffffffffffffff82111561278357612783612722565b5060051b60200190565b600082601f83011261279e57600080fd5b813560206127b36127ae83612769565b612738565b82815260059290921b840181019181810190868411156127d257600080fd5b8286015b848110156127ed57803583529183019183016127d6565b509695505050505050565b6000806040838503121561280b57600080fd5b823567ffffffffffffffff8082111561282357600080fd5b818501915085601f83011261283757600080fd5b813560206128476127ae83612769565b82815260059290921b8401810191818101908984111561286657600080fd5b948201945b8386101561288d57853561287e8161261c565b8252948201949082019061286b565b965050860135925050808211156128a357600080fd5b506128b08582860161278d565b9150509250929050565b6000602082840312156128cc57600080fd5b5035919050565b600080604083850312156128e657600080fd5b82359150602083013561266d8161261c565b60006020828403121561290a57600080fd5b813561249481612631565b6000806040838503121561292857600080fd5b82356129338161261c565b946020939093013593505050565b85815260a06020820152600061295a60a08301876126c6565b941515604083015250911515606083015260809091015292915050565b6000806020838503121561298a57600080fd5b823567ffffffffffffffff808211156129a257600080fd5b818501915085601f8301126129b657600080fd5b8135818111156129c557600080fd5b8660208260051b85010111156129da57600080fd5b60209290920196919550909350505050565b602080825282518282018190526000919060409081850190868401855b82811015612a2e57815180518552860151868501529284019290850190600101612a09565b5091979650505050505050565b60008060408385031215612a4e57600080fd5b8235915060208084013567ffffffffffffffff80821115612a6e57600080fd5b818601915086601f830112612a8257600080fd5b813581811115612a9457612a94612722565b612aa6601f8201601f19168501612738565b91508082528784828501011115612abc57600080fd5b80848401858401376000848284010152508093505050509250929050565b600181811c90821680612aee57607f821691505b60208210810361198157634e487b7160e01b600052602260045260246000fd5b634e487b7160e01b600052603260045260246000fd5b634e487b7160e01b600052601160045260246000fd5b8181038181111561083057610830612b24565b634e487b7160e01b600052603160045260246000fd5b6020808252601f908201527f5265656e7472616e637947756172643a207265656e7472616e742063616c6c00604082015260600190565b8281526000602060408184015260008454612bb481612ada565b8060408701526060600180841660008114612bd65760018114612bf057612c1e565b60ff1985168984015283151560051b890183019550612c1e565b896000528660002060005b85811015612c165781548b8201860152908301908801612bfb565b8a0184019650505b50939998505050505050505050565b8281526040602082015260006124aa60408301846126c6565b600060208284031215612c5857600080fd5b5051919050565b808202811582820484141761083057610830612b24565b600082612c9357634e487b7160e01b600052601260045260246000fd5b500490565b8082018082111561083057610830612b24565b601f821115610c9a57600081815260208120601f850160051c81016020861015612cd25750805b601f850160051c820191505b81811015612cf157828155600101612cde565b505050505050565b815167ffffffffffffffff811115612d1357612d13612722565b612d2781612d218454612ada565b84612cab565b602080601f831160018114612d5c5760008415612d445750858301515b600019600386901b1c1916600185901b178555612cf1565b600085815260208120601f198616915b82811015612d8b57888601518255948401946001909101908401612d6c565b5085821015612da95787850151600019600388901b60f8161c191681555b5050505050600190811b01905550565b838152826020820152606060408201526000612dd860608301846126c6565b95945050505050565b7f416363657373436f6e74726f6c3a206163636f756e7420000000000000000000815260008351612e198160178501602088016126a2565b7001034b99036b4b9b9b4b733903937b6329607d1b6017918401918201528351612e4a8160288401602088016126a2565b01602801949350505050565b600060208284031215612e6857600080fd5b815161249481612631565b600081612e8257612e82612b24565b506000190190565b60008251612e9c8184602087016126a2565b919091019291505056fea2646970667358221220d142d107c51f83f94f5a30365b4741edf1c70fe15b850da98381b008533d559064736f6c63430008140033",
  "devdoc": {
    "events": {
      "RoleAdminChanged(bytes32,bytes32,bytes32)": {
        "details": "Emitted when `newAdminRole` is set as ``role``'s admin role, replacing `previousAdminRole` `DEFAULT_ADMIN_ROLE` is the starting admin for all roles, despite {RoleAdminChanged} not being emitted signaling this. _Available since v3.1._"
      },
      "RoleGranted(bytes32,address,address)": {
        "details": "Emitted when `account` is granted `role`. `sender` is the account that originated the contract call, an admin role bearer except when using {AccessControl-_setupRole}."
      },
      "RoleRevoked(bytes32,address,address)": {
        "details": "Emitted when `account` is revoked `role`. `sender` is the account that originated the contract call:   - if using `revokeRole`, it is the admin role bearer   - if using `renounceRole`, it is the role bearer (i.e. `account`)"
      }
    },
    "kind": "dev",
    "methods": {
      "getRoleAdmin(bytes32)": {
        "details": "Returns the admin role that controls `role`. See {grantRole} and {revokeRole}. To change a role's admin, use {_setRoleAdmin}."
      },
      "grantRole(bytes32,address)": {
        "details": "Grants `role` to `account`. If `account` had not been already granted `role`, emits a {RoleGranted} event. Requirements: - the caller must have ``role``'s admin role."
      },
      "hasRole(bytes32,address)": {
        "details": "Returns `true` if `account` has been granted `role`."
      },
      "renounceRole(bytes32,address)": {
        "details": "Revokes `role` from the calling account. Roles are often managed via {grantRole} and {revokeRole}: this function's purpose is to provide a mechanism for accounts to lose their privileges if they are compromised (such as when a trusted device is misplaced). If the calling account had been revoked `role`, emits a {RoleRevoked} event. Requirements: - the caller must be `account`."
      },
      "revokeRole(bytes32,address)": {
        "details": "Revokes `role` from `account`. If `account` had been granted `role`, emits a {RoleRevoked} event. Requirements: - the caller must have ``role``'s admin role."
      },
      "supportsInterface(bytes4)": {
        "details": "See {IERC165-supportsInterface}."
      }
    },
    "version": 1
  },
  "userdoc": {
    "kind": "user",
    "methods": {},
    "version": 1
  },
  "storageLayout": {
    "storage": [
      {
        "astId": 70,
        "contract": "contracts/Cohort.sol:Cohort",
        "label": "_roles",
        "offset": 0,
        "slot": "0",
        "type": "t_mapping(t_bytes32,t_struct(RoleData)65_storage)"
      },
      {
        "astId": 554,
        "contract": "contracts/Cohort.sol:Cohort",
        "label": "_status",
        "offset": 0,
        "slot": "1",
        "type": "t_uint256"
      },
      {
        "astId": 1540,
        "contract": "contracts/Cohort.sol:Cohort",
        "label": "cycle",
        "offset": 0,
        "slot": "2",
        "type": "t_uint256"
      },
      {
        "astId": 1542,
        "contract": "contracts/Cohort.sol:Cohort",
        "label": "isERC20",
        "offset": 0,
        "slot": "3",
        "type": "t_bool"
      },
      {
        "astId": 1544,
        "contract": "contracts/Cohort.sol:Cohort",
        "label": "stopped",
        "offset": 1,
        "slot": "3",
        "type": "t_bool"
      },
      {
        "astId": 1546,
        "contract": "contracts/Cohort.sol:Cohort",
        "label": "name",
        "offset": 0,
        "slot": "4",
        "type": "t_string_storage"
      },
      {
        "astId": 1548,
        "contract": "contracts/Cohort.sol:Cohort",
        "label": "description",
        "offset": 0,
        "slot": "5",
        "type": "t_string_storage"
      },
      {
        "astId": 1550,
        "contract": "contracts/Cohort.sol:Cohort",
        "label": "tokenAddress",
        "offset": 0,
        "slot": "6",
        "type": "t_address"
      },
      {
        "astId": 1552,
        "contract": "contracts/Cohort.sol:Cohort",
        "label": "primaryAdmin",
        "offset": 0,
        "slot": "7",
        "type": "t_address"
      },
      {
        "astId": 1836,
        "contract": "contracts/Cohort.sol:Cohort",
        "label": "withdrawalRequests",
        "offset": 0,
        "slot": "8",
        "type": "t_mapping(t_address,t_array(t_struct(WithdrawalRequest)1830_storage)dyn_storage)"
      },
      {
        "astId": 1840,
        "contract": "contracts/Cohort.sol:Cohort",
        "label": "requiresApproval",
        "offset": 0,
        "slot": "9",
        "type": "t_mapping(t_address,t_bool)"
      },
      {
        "astId": 1859,
        "contract": "contracts/Cohort.sol:Cohort",
        "label": "flowingBuilders",
        "offset": 0,
        "slot": "10",
        "type": "t_mapping(t_address,t_struct(BuilderFlowInfo)1777_storage)"
      },
      {
        "astId": 1863,
        "contract": "contracts/Cohort.sol:Cohort",
        "label": "builderIndex",
        "offset": 0,
        "slot": "11",
        "type": "t_mapping(t_address,t_uint256)"
      },
      {
        "astId": 1866,
        "contract": "contracts/Cohort.sol:Cohort",
        "label": "activeBuilders",
        "offset": 0,
        "slot": "12",
        "type": "t_array(t_address)dyn_storage"
      },
      {
        "astId": 1870,
        "contract": "contracts/Cohort.sol:Cohort",
        "label": "isAdmin",
        "offset": 0,
        "slot": "13",
        "type": "t_mapping(t_address,t_bool)"
      }
    ],
    "types": {
      "t_address": {
        "encoding": "inplace",
        "label": "address",
        "numberOfBytes": "20"
      },
      "t_array(t_address)dyn_storage": {
        "base": "t_address",
        "encoding": "dynamic_array",
        "label": "address[]",
        "numberOfBytes": "32"
      },
      "t_array(t_struct(WithdrawalRequest)1830_storage)dyn_storage": {
        "base": "t_struct(WithdrawalRequest)1830_storage",
        "encoding": "dynamic_array",
        "label": "struct Cohort.WithdrawalRequest[]",
        "numberOfBytes": "32"
      },
      "t_bool": {
        "encoding": "inplace",
        "label": "bool",
        "numberOfBytes": "1"
      },
      "t_bytes32": {
        "encoding": "inplace",
        "label": "bytes32",
        "numberOfBytes": "32"
      },
      "t_mapping(t_address,t_array(t_struct(WithdrawalRequest)1830_storage)dyn_storage)": {
        "encoding": "mapping",
        "key": "t_address",
        "label": "mapping(address => struct Cohort.WithdrawalRequest[])",
        "numberOfBytes": "32",
        "value": "t_array(t_struct(WithdrawalRequest)1830_storage)dyn_storage"
      },
      "t_mapping(t_address,t_bool)": {
        "encoding": "mapping",
        "key": "t_address",
        "label": "mapping(address => bool)",
        "numberOfBytes": "32",
        "value": "t_bool"
      },
      "t_mapping(t_address,t_struct(BuilderFlowInfo)1777_storage)": {
        "encoding": "mapping",
        "key": "t_address",
        "label": "mapping(address => struct Cohort.BuilderFlowInfo)",
        "numberOfBytes": "32",
        "value": "t_struct(BuilderFlowInfo)1777_storage"
      },
      "t_mapping(t_address,t_uint256)": {
        "encoding": "mapping",
        "key": "t_address",
        "label": "mapping(address => uint256)",
        "numberOfBytes": "32",
        "value": "t_uint256"
      },
      "t_mapping(t_bytes32,t_struct(RoleData)65_storage)": {
        "encoding": "mapping",
        "key": "t_bytes32",
        "label": "mapping(bytes32 => struct AccessControl.RoleData)",
        "numberOfBytes": "32",
        "value": "t_struct(RoleData)65_storage"
      },
      "t_string_storage": {
        "encoding": "bytes",
        "label": "string",
        "numberOfBytes": "32"
      },
      "t_struct(BuilderFlowInfo)1777_storage": {
        "encoding": "inplace",
        "label": "struct Cohort.BuilderFlowInfo",
        "members": [
          {
            "astId": 1774,
            "contract": "contracts/Cohort.sol:Cohort",
            "label": "cap",
            "offset": 0,
            "slot": "0",
            "type": "t_uint256"
          },
          {
            "astId": 1776,
            "contract": "contracts/Cohort.sol:Cohort",
            "label": "last",
            "offset": 0,
            "slot": "1",
            "type": "t_uint256"
          }
        ],
        "numberOfBytes": "64"
      },
      "t_struct(RoleData)65_storage": {
        "encoding": "inplace",
        "label": "struct AccessControl.RoleData",
        "members": [
          {
            "astId": 62,
            "contract": "contracts/Cohort.sol:Cohort",
            "label": "members",
            "offset": 0,
            "slot": "0",
            "type": "t_mapping(t_address,t_bool)"
          },
          {
            "astId": 64,
            "contract": "contracts/Cohort.sol:Cohort",
            "label": "adminRole",
            "offset": 0,
            "slot": "1",
            "type": "t_bytes32"
          }
        ],
        "numberOfBytes": "64"
      },
      "t_struct(WithdrawalRequest)1830_storage": {
        "encoding": "inplace",
        "label": "struct Cohort.WithdrawalRequest",
        "members": [
          {
            "astId": 1821,
            "contract": "contracts/Cohort.sol:Cohort",
            "label": "amount",
            "offset": 0,
            "slot": "0",
            "type": "t_uint256"
          },
          {
            "astId": 1823,
            "contract": "contracts/Cohort.sol:Cohort",
            "label": "reason",
            "offset": 0,
            "slot": "1",
            "type": "t_string_storage"
          },
          {
            "astId": 1825,
            "contract": "contracts/Cohort.sol:Cohort",
            "label": "approved",
            "offset": 0,
            "slot": "2",
            "type": "t_bool"
          },
          {
            "astId": 1827,
            "contract": "contracts/Cohort.sol:Cohort",
            "label": "completed",
            "offset": 1,
            "slot": "2",
            "type": "t_bool"
          },
          {
            "astId": 1829,
            "contract": "contracts/Cohort.sol:Cohort",
            "label": "requestTime",
            "offset": 0,
            "slot": "3",
            "type": "t_uint256"
          }
        ],
        "numberOfBytes": "128"
      },
      "t_uint256": {
        "encoding": "inplace",
        "label": "uint256",
        "numberOfBytes": "32"
      }
    }
  }
}