{
  "address": "0x8E2Cac0A056a0e50FDCBff70fDaA528b1E468b56",
  "abi": [
    {
      "inputs": [
        {
          "internalType": "address",
          "name": "_primaryAdmin",
          "type": "address"
        },
        {
          "internalType": "address",
          "name": "_tokenAddress",
          "type": "address"
        },
        {
          "internalType": "string",
          "name": "_name",
          "type": "string"
        },
        {
          "internalType": "string",
          "name": "_description",
          "type": "string"
        },
        {
          "internalType": "uint256",
          "name": "_cycle",
          "type": "uint256"
        },
        {
          "internalType": "address[]",
          "name": "_builders",
          "type": "address[]"
        },
        {
          "internalType": "uint256[]",
          "name": "_caps",
          "type": "uint256[]"
        },
        {
          "internalType": "bool",
          "name": "_requiresApproval",
          "type": "bool"
        }
      ],
      "stateMutability": "nonpayable",
      "type": "constructor"
    },
    {
      "inputs": [],
      "name": "AccessDenied",
      "type": "error"
    },
    {
      "inputs": [],
      "name": "AlreadyWithdrawnOneTime",
      "type": "error"
    },
    {
      "inputs": [
        {
          "internalType": "uint256",
          "name": "provided",
          "type": "uint256"
        },
        {
          "internalType": "uint256",
          "name": "minimum",
          "type": "uint256"
        }
      ],
      "name": "BelowMinimumCap",
      "type": "error"
    },
    {
      "inputs": [],
      "name": "BuilderAlreadyExists",
      "type": "error"
    },
    {
      "inputs": [],
      "name": "ContractIsLocked",
      "type": "error"
    },
    {
      "inputs": [],
      "name": "EtherSendingFailed",
      "type": "error"
    },
    {
      "inputs": [
        {
          "internalType": "uint256",
          "name": "requested",
          "type": "uint256"
        },
        {
          "internalType": "uint256",
          "name": "unlocked",
          "type": "uint256"
        }
      ],
      "name": "InsufficientFundsInContract",
      "type": "error"
    },
    {
      "inputs": [
        {
          "internalType": "uint256",
          "name": "requested",
          "type": "uint256"
        },
        {
          "internalType": "uint256",
          "name": "unlocked",
          "type": "uint256"
        }
      ],
      "name": "InsufficientInStream",
      "type": "error"
    },
    {
      "inputs": [],
      "name": "InvalidBuilderAddress",
      "type": "error"
    },
    {
      "inputs": [],
      "name": "InvalidNewAdminAddress",
      "type": "error"
    },
    {
      "inputs": [],
      "name": "LengthsMismatch",
      "type": "error"
    },
    {
      "inputs": [],
      "name": "MaxBuildersReached",
      "type": "error"
    },
    {
      "inputs": [
        {
          "internalType": "uint256",
          "name": "providedLength",
          "type": "uint256"
        },
        {
          "internalType": "uint256",
          "name": "maxLength",
          "type": "uint256"
        }
      ],
      "name": "MaxNameLength",
      "type": "error"
    },
    {
      "inputs": [
        {
          "internalType": "address",
          "name": "builder",
          "type": "address"
        }
      ],
      "name": "NoActiveStreamForBuilder",
      "type": "error"
    },
    {
      "inputs": [],
      "name": "NoValueSent",
      "type": "error"
    },
    {
      "inputs": [],
      "name": "NotAuthorized",
      "type": "error"
    },
    {
      "inputs": [],
      "name": "PendingWithdrawRequestExists",
      "type": "error"
    },
    {
      "inputs": [],
      "name": "WithdrawRequestAlreadyCompleted",
      "type": "error"
    },
    {
      "inputs": [],
      "name": "WithdrawRequestNotApproved",
      "type": "error"
    },
    {
      "inputs": [],
      "name": "WithdrawRequestNotFound",
      "type": "error"
    },
    {
      "anonymous": false,
      "inputs": [
        {
          "indexed": true,
          "internalType": "address",
          "name": "to",
          "type": "address"
        },
        {
          "indexed": false,
          "internalType": "uint256",
          "name": "amount",
          "type": "uint256"
        }
      ],
      "name": "AddBuilder",
      "type": "event"
    },
    {
      "anonymous": false,
      "inputs": [
        {
          "indexed": true,
          "internalType": "address",
          "name": "to",
          "type": "address"
        }
      ],
      "name": "AdminAdded",
      "type": "event"
    },
    {
      "anonymous": false,
      "inputs": [
        {
          "indexed": true,
          "internalType": "address",
          "name": "to",
          "type": "address"
        }
      ],
      "name": "AdminRemoved",
      "type": "event"
    },
    {
      "anonymous": false,
      "inputs": [
        {
          "indexed": true,
          "internalType": "address",
          "name": "builder",
          "type": "address"
        },
        {
          "indexed": false,
          "internalType": "bool",
          "name": "requiresApproval",
          "type": "bool"
        }
      ],
      "name": "ApprovalRequirementChanged",
      "type": "event"
    },
    {
      "anonymous": false,
      "inputs": [
        {
          "indexed": false,
          "internalType": "uint256",
          "name": "amount",
          "type": "uint256"
        }
      ],
      "name": "ContractDrained",
      "type": "event"
    },
    {
      "anonymous": false,
      "inputs": [
        {
          "indexed": false,
          "internalType": "bool",
          "name": "locked",
          "type": "bool"
        }
      ],
      "name": "ContractLocked",
      "type": "event"
    },
    {
      "anonymous": false,
      "inputs": [
        {
          "indexed": true,
          "internalType": "address",
          "name": "token",
          "type": "address"
        },
        {
          "indexed": true,
          "internalType": "address",
          "name": "from",
          "type": "address"
        },
        {
          "indexed": false,
          "internalType": "uint256",
          "name": "amount",
          "type": "uint256"
        }
      ],
      "name": "ERC20FundsReceived",
      "type": "event"
    },
    {
      "anonymous": false,
      "inputs": [
        {
          "indexed": true,
          "internalType": "address",
          "name": "from",
          "type": "address"
        },
        {
          "indexed": false,
          "internalType": "uint256",
          "name": "amount",
          "type": "uint256"
        }
      ],
      "name": "FundsReceived",
      "type": "event"
    },
    {
      "anonymous": false,
      "inputs": [
        {
          "indexed": true,
          "internalType": "address",
          "name": "newAdmin",
          "type": "address"
        }
      ],
      "name": "PrimaryAdminTransferred",
      "type": "event"
    },
    {
      "anonymous": false,
      "inputs": [
        {
          "indexed": true,
          "internalType": "bytes32",
          "name": "role",
          "type": "bytes32"
        },
        {
          "indexed": true,
          "internalType": "bytes32",
          "name": "previousAdminRole",
          "type": "bytes32"
        },
        {
          "indexed": true,
          "internalType": "bytes32",
          "name": "newAdminRole",
          "type": "bytes32"
        }
      ],
      "name": "RoleAdminChanged",
      "type": "event"
    },
    {
      "anonymous": false,
      "inputs": [
        {
          "indexed": true,
          "internalType": "bytes32",
          "name": "role",
          "type": "bytes32"
        },
        {
          "indexed": true,
          "internalType": "address",
          "name": "account",
          "type": "address"
        },
        {
          "indexed": true,
          "internalType": "address",
          "name": "sender",
          "type": "address"
        }
      ],
      "name": "RoleGranted",
      "type": "event"
    },
    {
      "anonymous": false,
      "inputs": [
        {
          "indexed": true,
          "internalType": "bytes32",
          "name": "role",
          "type": "bytes32"
        },
        {
          "indexed": true,
          "internalType": "address",
          "name": "account",
          "type": "address"
        },
        {
          "indexed": true,
          "internalType": "address",
          "name": "sender",
          "type": "address"
        }
      ],
      "name": "RoleRevoked",
      "type": "event"
    },
    {
      "anonymous": false,
      "inputs": [
        {
          "indexed": true,
          "internalType": "address",
          "name": "to",
          "type": "address"
        },
        {
          "indexed": false,
          "internalType": "uint256",
          "name": "amount",
          "type": "uint256"
        }
      ],
      "name": "UpdateBuilder",
      "type": "event"
    },
    {
      "anonymous": false,
      "inputs": [
        {
          "indexed": true,
          "internalType": "address",
          "name": "to",
          "type": "address"
        },
        {
          "indexed": false,
          "internalType": "uint256",
          "name": "amount",
          "type": "uint256"
        },
        {
          "indexed": false,
          "internalType": "string",
          "name": "reason",
          "type": "string"
        }
      ],
      "name": "Withdraw",
      "type": "event"
    },
    {
      "anonymous": false,
      "inputs": [
        {
          "indexed": true,
          "internalType": "address",
          "name": "builder",
          "type": "address"
        },
        {
          "indexed": false,
          "internalType": "uint256",
          "name": "requestId",
          "type": "uint256"
        }
      ],
      "name": "WithdrawApproved",
      "type": "event"
    },
    {
      "anonymous": false,
      "inputs": [
        {
          "indexed": true,
          "internalType": "address",
          "name": "builder",
          "type": "address"
        },
        {
          "indexed": false,
          "internalType": "uint256",
          "name": "requestId",
          "type": "uint256"
        },
        {
          "indexed": false,
          "internalType": "uint256",
          "name": "amount",
          "type": "uint256"
        }
      ],
      "name": "WithdrawCompleted",
      "type": "event"
    },
    {
      "anonymous": false,
      "inputs": [
        {
          "indexed": true,
          "internalType": "address",
          "name": "builder",
          "type": "address"
        },
        {
          "indexed": false,
          "internalType": "uint256",
          "name": "requestId",
          "type": "uint256"
        }
      ],
      "name": "WithdrawRejected",
      "type": "event"
    },
    {
      "anonymous": false,
      "inputs": [
        {
          "indexed": true,
          "internalType": "address",
          "name": "builder",
          "type": "address"
        },
        {
          "indexed": false,
          "internalType": "uint256",
          "name": "requestId",
          "type": "uint256"
        },
        {
          "indexed": false,
          "internalType": "uint256",
          "name": "amount",
          "type": "uint256"
        },
        {
          "indexed": false,
          "internalType": "string",
          "name": "reason",
          "type": "string"
        }
      ],
      "name": "WithdrawRequested",
      "type": "event"
    },
    {
      "inputs": [],
      "name": "DEFAULT_ADMIN_ROLE",
      "outputs": [
        {
          "internalType": "bytes32",
          "name": "",
          "type": "bytes32"
        }
      ],
      "stateMutability": "view",
      "type": "function"
    },
    {
      "inputs": [
        {
          "internalType": "uint256",
          "name": "",
          "type": "uint256"
        }
      ],
      "name": "activeBuilders",
      "outputs": [
        {
          "internalType": "address",
          "name": "",
          "type": "address"
        }
      ],
      "stateMutability": "view",
      "type": "function"
    },
    {
      "inputs": [
        {
          "internalType": "address[]",
          "name": "_builders",
          "type": "address[]"
        },
        {
          "internalType": "uint256[]",
          "name": "_caps",
          "type": "uint256[]"
        }
      ],
      "name": "addBatch",
      "outputs": [],
      "stateMutability": "nonpayable",
      "type": "function"
    },
    {
      "inputs": [
        {
          "internalType": "address payable",
          "name": "_builder",
          "type": "address"
        },
        {
          "internalType": "uint256",
          "name": "_cap",
          "type": "uint256"
        }
      ],
      "name": "addBuilderStream",
      "outputs": [],
      "stateMutability": "nonpayable",
      "type": "function"
    },
    {
      "inputs": [
        {
          "internalType": "address[]",
          "name": "_builders",
          "type": "address[]"
        }
      ],
      "name": "allBuildersData",
      "outputs": [
        {
          "components": [
            {
              "internalType": "uint256",
              "name": "cap",
              "type": "uint256"
            },
            {
              "internalType": "uint256",
              "name": "last",
              "type": "uint256"
            }
          ],
          "internalType": "struct Cohort.BuilderStreamInfo[]",
          "name": "",
          "type": "tuple[]"
        }
      ],
      "stateMutability": "view",
      "type": "function"
    },
    {
      "inputs": [
        {
          "internalType": "address",
          "name": "_builder",
          "type": "address"
        },
        {
          "internalType": "uint256",
          "name": "_requestId",
          "type": "uint256"
        }
      ],
      "name": "approveWithdraw",
      "outputs": [],
      "stateMutability": "nonpayable",
      "type": "function"
    },
    {
      "inputs": [
        {
          "internalType": "address",
          "name": "",
          "type": "address"
        }
      ],
      "name": "builderIndex",
      "outputs": [
        {
          "internalType": "uint256",
          "name": "",
          "type": "uint256"
        }
      ],
      "stateMutability": "view",
      "type": "function"
    },
    {
      "inputs": [
        {
          "internalType": "uint256",
          "name": "_requestId",
          "type": "uint256"
        }
      ],
      "name": "completeWithdraw",
      "outputs": [],
      "stateMutability": "nonpayable",
      "type": "function"
    },
    {
      "inputs": [],
      "name": "cycle",
      "outputs": [
        {
          "internalType": "uint256",
          "name": "",
          "type": "uint256"
        }
      ],
      "stateMutability": "view",
      "type": "function"
    },
    {
      "inputs": [],
      "name": "description",
      "outputs": [
        {
          "internalType": "string",
          "name": "",
          "type": "string"
        }
      ],
      "stateMutability": "view",
      "type": "function"
    },
    {
      "inputs": [
        {
          "internalType": "address",
          "name": "_token",
          "type": "address"
        }
      ],
      "name": "drainContract",
      "outputs": [],
      "stateMutability": "nonpayable",
      "type": "function"
    },
    {
      "inputs": [
        {
          "internalType": "uint256",
          "name": "_amount",
          "type": "uint256"
        }
      ],
      "name": "fundContract",
      "outputs": [],
      "stateMutability": "payable",
      "type": "function"
    },
    {
      "inputs": [
        {
          "internalType": "bytes32",
          "name": "role",
          "type": "bytes32"
        }
      ],
      "name": "getRoleAdmin",
      "outputs": [
        {
          "internalType": "bytes32",
          "name": "",
          "type": "bytes32"
        }
      ],
      "stateMutability": "view",
      "type": "function"
    },
    {
      "inputs": [
        {
          "internalType": "bytes32",
          "name": "role",
          "type": "bytes32"
        },
        {
          "internalType": "address",
          "name": "account",
          "type": "address"
        }
      ],
      "name": "grantRole",
      "outputs": [],
      "stateMutability": "nonpayable",
      "type": "function"
    },
    {
      "inputs": [
        {
          "internalType": "bytes32",
          "name": "role",
          "type": "bytes32"
        },
        {
          "internalType": "address",
          "name": "account",
          "type": "address"
        }
      ],
      "name": "hasRole",
      "outputs": [
        {
          "internalType": "bool",
          "name": "",
          "type": "bool"
        }
      ],
      "stateMutability": "view",
      "type": "function"
    },
    {
      "inputs": [
        {
          "internalType": "address",
          "name": "",
          "type": "address"
        }
      ],
      "name": "isAdmin",
      "outputs": [
        {
          "internalType": "bool",
          "name": "",
          "type": "bool"
        }
      ],
      "stateMutability": "view",
      "type": "function"
    },
    {
      "inputs": [],
      "name": "isERC20",
      "outputs": [
        {
          "internalType": "bool",
          "name": "",
          "type": "bool"
        }
      ],
      "stateMutability": "view",
      "type": "function"
    },
    {
      "inputs": [],
      "name": "isONETIME",
      "outputs": [
        {
          "internalType": "bool",
          "name": "",
          "type": "bool"
        }
      ],
      "stateMutability": "view",
      "type": "function"
    },
    {
      "inputs": [],
      "name": "locked",
      "outputs": [
        {
          "internalType": "bool",
          "name": "",
          "type": "bool"
        }
      ],
      "stateMutability": "view",
      "type": "function"
    },
    {
      "inputs": [
        {
          "internalType": "address",
          "name": "adminAddress",
          "type": "address"
        },
        {
          "internalType": "bool",
          "name": "shouldGrant",
          "type": "bool"
        }
      ],
      "name": "modifyAdminRole",
      "outputs": [],
      "stateMutability": "nonpayable",
      "type": "function"
    },
    {
      "inputs": [],
      "name": "name",
      "outputs": [
        {
          "internalType": "string",
          "name": "",
          "type": "string"
        }
      ],
      "stateMutability": "view",
      "type": "function"
    },
    {
      "inputs": [],
      "name": "primaryAdmin",
      "outputs": [
        {
          "internalType": "address",
          "name": "",
          "type": "address"
        }
      ],
      "stateMutability": "view",
      "type": "function"
    },
    {
      "inputs": [
        {
          "internalType": "address",
          "name": "_builder",
          "type": "address"
        },
        {
          "internalType": "uint256",
          "name": "_requestId",
          "type": "uint256"
        }
      ],
      "name": "rejectWithdraw",
      "outputs": [],
      "stateMutability": "nonpayable",
      "type": "function"
    },
    {
      "inputs": [
        {
          "internalType": "address",
          "name": "_builder",
          "type": "address"
        }
      ],
      "name": "removeBuilderStream",
      "outputs": [],
      "stateMutability": "nonpayable",
      "type": "function"
    },
    {
      "inputs": [
        {
          "internalType": "bytes32",
          "name": "role",
          "type": "bytes32"
        },
        {
          "internalType": "address",
          "name": "account",
          "type": "address"
        }
      ],
      "name": "renounceRole",
      "outputs": [],
      "stateMutability": "nonpayable",
      "type": "function"
    },
    {
      "inputs": [],
      "name": "requireApprovalForWithdrawals",
      "outputs": [
        {
          "internalType": "bool",
          "name": "",
          "type": "bool"
        }
      ],
      "stateMutability": "view",
      "type": "function"
    },
    {
      "inputs": [
        {
          "internalType": "address",
          "name": "",
          "type": "address"
        }
      ],
      "name": "requiresApproval",
      "outputs": [
        {
          "internalType": "bool",
          "name": "",
          "type": "bool"
        }
      ],
      "stateMutability": "view",
      "type": "function"
    },
    {
      "inputs": [
        {
          "internalType": "bytes32",
          "name": "role",
          "type": "bytes32"
        },
        {
          "internalType": "address",
          "name": "account",
          "type": "address"
        }
      ],
      "name": "revokeRole",
      "outputs": [],
      "stateMutability": "nonpayable",
      "type": "function"
    },
    {
      "inputs": [
        {
          "internalType": "address",
          "name": "_builder",
          "type": "address"
        },
        {
          "internalType": "bool",
          "name": "_requiresApproval",
          "type": "bool"
        }
      ],
      "name": "setBuilderApprovalRequirement",
      "outputs": [],
      "stateMutability": "nonpayable",
      "type": "function"
    },
    {
      "inputs": [
        {
          "internalType": "uint256",
          "name": "_amount",
          "type": "uint256"
        },
        {
          "internalType": "string",
          "name": "_reason",
          "type": "string"
        }
      ],
      "name": "streamWithdraw",
      "outputs": [],
      "stateMutability": "nonpayable",
      "type": "function"
    },
    {
      "inputs": [
        {
          "internalType": "address",
          "name": "",
          "type": "address"
        }
      ],
      "name": "streamingBuilders",
      "outputs": [
        {
          "internalType": "uint256",
          "name": "cap",
          "type": "uint256"
        },
        {
          "internalType": "uint256",
          "name": "last",
          "type": "uint256"
        }
      ],
      "stateMutability": "view",
      "type": "function"
    },
    {
      "inputs": [
        {
          "internalType": "bytes4",
          "name": "interfaceId",
          "type": "bytes4"
        }
      ],
      "name": "supportsInterface",
      "outputs": [
        {
          "internalType": "bool",
          "name": "",
          "type": "bool"
        }
      ],
      "stateMutability": "view",
      "type": "function"
    },
    {
      "inputs": [
        {
          "internalType": "bool",
          "name": "_enable",
          "type": "bool"
        }
      ],
      "name": "toggleContractApprovalRequirement",
      "outputs": [],
      "stateMutability": "nonpayable",
      "type": "function"
    },
    {
      "inputs": [
        {
          "internalType": "bool",
          "name": "_enable",
          "type": "bool"
        }
      ],
      "name": "toggleLock",
      "outputs": [],
      "stateMutability": "nonpayable",
      "type": "function"
    },
    {
      "inputs": [],
      "name": "tokenAddress",
      "outputs": [
        {
          "internalType": "address",
          "name": "",
          "type": "address"
        }
      ],
      "stateMutability": "view",
      "type": "function"
    },
    {
      "inputs": [
        {
          "internalType": "address",
          "name": "newPrimaryAdmin",
          "type": "address"
        }
      ],
      "name": "transferPrimaryAdmin",
      "outputs": [],
      "stateMutability": "nonpayable",
      "type": "function"
    },
    {
      "inputs": [
        {
          "internalType": "address",
          "name": "_builder",
          "type": "address"
        }
      ],
      "name": "unlockedBuilderAmount",
      "outputs": [
        {
          "internalType": "uint256",
          "name": "",
          "type": "uint256"
        }
      ],
      "stateMutability": "view",
      "type": "function"
    },
    {
      "inputs": [
        {
          "internalType": "address payable",
          "name": "_builder",
          "type": "address"
        },
        {
          "internalType": "uint256",
          "name": "_newCap",
          "type": "uint256"
        }
      ],
      "name": "updateBuilderStreamCap",
      "outputs": [],
      "stateMutability": "nonpayable",
      "type": "function"
    },
    {
      "inputs": [
        {
          "internalType": "address",
          "name": "",
          "type": "address"
        },
        {
          "internalType": "uint256",
          "name": "",
          "type": "uint256"
        }
      ],
      "name": "withdrawRequests",
      "outputs": [
        {
          "internalType": "uint256",
          "name": "amount",
          "type": "uint256"
        },
        {
          "internalType": "string",
          "name": "reason",
          "type": "string"
        },
        {
          "internalType": "bool",
          "name": "approved",
          "type": "bool"
        },
        {
          "internalType": "bool",
          "name": "completed",
          "type": "bool"
        },
        {
          "internalType": "uint256",
          "name": "requestTime",
          "type": "uint256"
        }
      ],
      "stateMutability": "view",
      "type": "function"
    },
    {
      "stateMutability": "payable",
      "type": "receive"
    }
  ],
  "transactionHash": "0x49bca2001746c0ec3c48ce4322b859d8735fe47e53f28effa5d5d931dbe153a4",
  "args": [
    "0xa8DF02c5607100Eb108B5C39dCdD8c2aE44185Df",
    "0x0000000000000000000000000000000000000000",
    "Cohort",
    "Cohort contract",
    2592000,
    [],
    [],
    false
  ],
  "numDeployments": 16,
  "solcInputHash": "6b9a86c1412d007f896592f35ce845c5",
  "bytecode": "0x60806040523480156200001157600080fd5b5060405162003efa38038062003efa8339810160408190526200003491620008df565b600180558551602810156200006e57855160405163062a8dff60e41b81526004810191909152602860248201526044015b60405180910390fd5b6200007b600089620004ff565b6001600160a01b0388166000818152600d60205260409020805460ff19166001179055600780546001600160a01b03191690911790556004620000bf878262000a6a565b506005620000ce868262000a6a565b5060028490556003805463ff00000019166301000000831515021790556001600160a01b0387161562000126576003805460ff19166001179055600680546001600160a01b0389166001600160a01b03199091161790555b836000036200013f576003805461ff0019166101001790555b825115620004f1578251601981106200016b5760405163104e7cef60e31b815260040160405180910390fd5b825181146200018d5760405163586cb9e160e01b815260040160405180910390fd5b60005b81811015620004ee57620001e3858281518110620001b257620001b262000b36565b6020026020010151858381518110620001cf57620001cf62000b36565b60200260200101516200058860201b60201c565b600254600003620002715760405180604001604052808583815181106200020e576200020e62000b36565b60200260200101518152602001600019815250600a60008784815181106200023a576200023a62000b36565b6020908102919091018101516001600160a01b031682528181019290925260400160002082518155910151600190910155620002fa565b604051806040016040528085838151811062000291576200029162000b36565b602002602001015181526020018742620002ac919062000b4c565b815250600a6000878481518110620002c857620002c862000b36565b6020908102919091018101516001600160a01b0316825281810192909252604001600020825181559101516001909101555b600c85828151811062000311576200031162000b36565b60209081029190910181015182546001808201855560009485529290932090920180546001600160a01b0319166001600160a01b0390931692909217909155600c546200035f919062000b4c565b600b600087848151811062000378576200037862000b36565b60200260200101516001600160a01b03166001600160a01b0316815260200190815260200160002081905550848181518110620003b957620003b962000b36565b60200260200101516001600160a01b03167f49707f6097e3d8b2d861adf67aadfb41a45746f9d46701065ed09ff12f9e41c385838151811062000400576200040062000b36565b60200260200101516040516200041891815260200190565b60405180910390a28215620004e55760016009600087848151811062000442576200044262000b36565b60200260200101516001600160a01b03166001600160a01b0316815260200190815260200160002060006101000a81548160ff02191690831515021790555084818151811062000496576200049662000b36565b60200260200101516001600160a01b03167f70d2c92da609a3045e6b2a21e9d4cd5dc02f15a3830961912b03f5b236b78c8b6001604051620004dc911515815260200190565b60405180910390a25b60010162000190565b50505b505050505050505062000b6e565b6200050b8282620006ac565b62000584576000828152602081815260408083206001600160a01b03851684529091529020805460ff19166001179055620005433390565b6001600160a01b0316816001600160a01b0316837f2f8788117e7eff1d82e926ec794901d17c78024a50270940304540a733656f0d60405160405180910390a45b5050565b6509184e72a00081108015620005a1575060035460ff16155b15620005d05760405163c281dd3b60e01b8152600481018290526509184e72a000602482015260440162000065565b620f424081108015620005e5575060035460ff165b15620006115760405163c281dd3b60e01b815260048101829052620f4240602482015260440162000065565b6001600160a01b038216620006395760405163094d784960e21b815260040160405180910390fd5b6001600160a01b0382166000908152600d602052604090205460ff1615620006745760405163094d784960e21b815260040160405180910390fd5b6001600160a01b0382166000908152600a6020526040902054156200058457604051637fe8efbb60e01b815260040160405180910390fd5b6000828152602081815260408083206001600160a01b038516845290915290205460ff165b92915050565b80516001600160a01b0381168114620006ef57600080fd5b919050565b634e487b7160e01b600052604160045260246000fd5b604051601f8201601f191681016001600160401b0381118282101715620007355762000735620006f4565b604052919050565b600082601f8301126200074f57600080fd5b81516001600160401b038111156200076b576200076b620006f4565b602062000781601f8301601f191682016200070a565b82815285828487010111156200079657600080fd5b60005b83811015620007b657858101830151828201840152820162000799565b506000928101909101919091529392505050565b60006001600160401b03821115620007e657620007e6620006f4565b5060051b60200190565b600082601f8301126200080257600080fd5b815160206200081b6200081583620007ca565b6200070a565b82815260059290921b840181019181810190868411156200083b57600080fd5b8286015b8481101562000861576200085381620006d7565b83529183019183016200083f565b509695505050505050565b600082601f8301126200087e57600080fd5b81516020620008916200081583620007ca565b82815260059290921b84018101918181019086841115620008b157600080fd5b8286015b84811015620008615780518352918301918301620008b5565b80518015158114620006ef57600080fd5b600080600080600080600080610100898b031215620008fd57600080fd5b6200090889620006d7565b97506200091860208a01620006d7565b60408a01519097506001600160401b03808211156200093657600080fd5b620009448c838d016200073d565b975060608b01519150808211156200095b57600080fd5b620009698c838d016200073d565b965060808b0151955060a08b01519150808211156200098757600080fd5b620009958c838d01620007f0565b945060c08b0151915080821115620009ac57600080fd5b50620009bb8b828c016200086c565b925050620009cc60e08a01620008ce565b90509295985092959890939650565b600181811c90821680620009f057607f821691505b60208210810362000a1157634e487b7160e01b600052602260045260246000fd5b50919050565b601f82111562000a6557600081815260208120601f850160051c8101602086101562000a405750805b601f850160051c820191505b8181101562000a615782815560010162000a4c565b5050505b505050565b81516001600160401b0381111562000a865762000a86620006f4565b62000a9e8162000a978454620009db565b8462000a17565b602080601f83116001811462000ad6576000841562000abd5750858301515b600019600386901b1c1916600185901b17855562000a61565b600085815260208120601f198616915b8281101562000b075788860151825594840194600190910190840162000ae6565b508582101562000b265787850151600019600388901b60f8161c191681555b5050505050600190811b01905550565b634e487b7160e01b600052603260045260246000fd5b81810381811115620006d157634e487b7160e01b600052601160045260246000fd5b61337c8062000b7e6000396000f3fe6080604052600436106102335760003560e01c806365cd2a4e1161012e5780639de1b23d116100ab578063a8397ddc1161006f578063a8397ddc14610710578063af40253214610730578063b19cb81014610750578063cf3090121461076f578063d547741f1461078f57600080fd5b80639de1b23d1461066e578063a217fddf1461068e578063a46495ac146106a3578063a4adcb61146106d0578063a7839334146106f057600080fd5b80638216d506116100f25780638216d506146105b657806382c2aff7146105d65780638c0a2d56146105f657806391d14854146106165780639d76ea581461063657600080fd5b806365cd2a4e146105035780636d6ca319146105235780637284e416146105545780637c6f1b591461056957806380c9b2f61461059657600080fd5b806324d7806c116101bc5780633519a2f8116101805780633519a2f81461045157806336568abe14610464578063377c9815146104845780634e1ca120146104cd5780636190c9d5146104ed57600080fd5b806324d7806c146103a757806329d36c46146103d75780632eb67f53146103f75780632f2ff15d146104115780633109b16e1461043157600080fd5b80630ca2c6a9116102035780630ca2c6a9146102e85780630d12cc6814610309578063116e72db146103295780632087ed5c14610349578063248a9ca31461036957600080fd5b806208359d1461023f57806301ffc9a71461026157806306fdde0314610296578063070092d4146102b857600080fd5b3661023a57005b600080fd5b34801561024b57600080fd5b5061025f61025a366004612adf565b6107af565b005b34801561026d57600080fd5b5061028161027c366004612b18565b610881565b60405190151581526020015b60405180910390f35b3480156102a257600080fd5b506102ab6108b8565b60405161028d9190612b92565b3480156102c457600080fd5b506102816102d3366004612ba5565b60096020526000908152604090205460ff1681565b3480156102f457600080fd5b50600354610281906301000000900460ff1681565b34801561031557600080fd5b5061025f610324366004612c98565b610946565b34801561033557600080fd5b5061025f610344366004612adf565b610a07565b34801561035557600080fd5b5061025f610364366004612d5a565b610b49565b34801561037557600080fd5b50610399610384366004612d5a565b60009081526020819052604090206001015490565b60405190815260200161028d565b3480156103b357600080fd5b506102816103c2366004612ba5565b600d6020526000908152604090205460ff1681565b3480156103e357600080fd5b5061025f6103f2366004612d73565b610d6b565b34801561040357600080fd5b506003546102819060ff1681565b34801561041d57600080fd5b5061025f61042c366004612d9f565b610e83565b34801561043d57600080fd5b5061025f61044c366004612dc4565b610ead565b61025f61045f366004612d5a565b610f2f565b34801561047057600080fd5b5061025f61047f366004612d9f565b61100b565b34801561049057600080fd5b506104b861049f366004612ba5565b600a602052600090815260409020805460019091015482565b6040805192835260208301919091520161028d565b3480156104d957600080fd5b5061025f6104e8366004612d73565b611085565b3480156104f957600080fd5b5061039960025481565b34801561050f57600080fd5b5061025f61051e366004612dc4565b61119b565b34801561052f57600080fd5b5061054361053e366004612d73565b611219565b60405161028d959493929190612de1565b34801561056057600080fd5b506102ab6112fb565b34801561057557600080fd5b50610589610584366004612e17565b611308565b60405161028d9190612e8c565b3480156105a257600080fd5b506103996105b1366004612ba5565b611407565b3480156105c257600080fd5b5061025f6105d1366004612d73565b6114fc565b3480156105e257600080fd5b5061025f6105f1366004612d73565b61165d565b34801561060257600080fd5b5061025f610611366004612ba5565b611872565b34801561062257600080fd5b50610281610631366004612d9f565b611930565b34801561064257600080fd5b50600654610656906001600160a01b031681565b6040516001600160a01b03909116815260200161028d565b34801561067a57600080fd5b50600754610656906001600160a01b031681565b34801561069a57600080fd5b50610399600081565b3480156106af57600080fd5b506103996106be366004612ba5565b600b6020526000908152604090205481565b3480156106dc57600080fd5b5061025f6106eb366004612ba5565b611959565b3480156106fc57600080fd5b5061065661070b366004612d5a565b611b36565b34801561071c57600080fd5b5061025f61072b366004612edb565b611b60565b34801561073c57600080fd5b5061025f61074b366004612ba5565b611c7c565b34801561075c57600080fd5b5060035461028190610100900460ff1681565b34801561077b57600080fd5b506003546102819062010000900460ff1681565b34801561079b57600080fd5b5061025f6107aa366004612d9f565b611e20565b6107ba600033611930565b6107d757604051634ca8886760e01b815260040160405180910390fd5b6001600160a01b0382166000908152600a60205260408120548391036108205760405163f4c8fba360e01b81526001600160a01b03821660048201526024015b60405180910390fd5b6001600160a01b038316600081815260096020908152604091829020805460ff191686151590811790915591519182527f70d2c92da609a3045e6b2a21e9d4cd5dc02f15a3830961912b03f5b236b78c8b91015b60405180910390a2505050565b60006001600160e01b03198216637965db0b60e01b14806108b257506301ffc9a760e01b6001600160e01b03198316145b92915050565b600480546108c590612f7a565b80601f01602080910402602001604051908101604052809291908181526020018280546108f190612f7a565b801561093e5780601f106109135761010080835404028352916020019161093e565b820191906000526020600020905b81548152906001019060200180831161092157829003601f168201915b505050505081565b610951600033611930565b61096e57604051634ca8886760e01b815260040160405180910390fd5b8151601981106109915760405163104e7cef60e31b815260040160405180910390fd5b815181146109b25760405163586cb9e160e01b815260040160405180910390fd5b60005b81811015610a01576109f98482815181106109d2576109d2612fae565b60200260200101518483815181106109ec576109ec612fae565b602002602001015161165d565b6001016109b5565b50505050565b610a12600033611930565b610a2f57604051634ca8886760e01b815260040160405180910390fd5b8015610ac4576001600160a01b0382166000908152600a602052604090205415610a6c5760405163094d784960e21b815260040160405180910390fd5b610a77600083610e83565b6001600160a01b0382166000818152600d6020526040808220805460ff19166001179055517f44d6d25963f097ad14f29f06854a01f575648a1ef82f30e562ccd3889717e3399190a25050565b6007546001600160a01b0390811690831603610af357604051634ca8886760e01b815260040160405180910390fd5b610afe600083611e20565b6001600160a01b0382166000818152600d6020526040808220805460ff19169055517fa3b62bc36326052d97ea62d63c3d60308ed4c3ea8ac079dd8499f1e9c4f80c0f9190a25b5050565b336000818152600a60205260408120549003610b835760405163f4c8fba360e01b81526001600160a01b0382166004820152602401610817565b600260015403610ba55760405162461bcd60e51b815260040161081790612fc4565b600260015560035462010000900460ff1615610bd45760405163af9e1b4360e01b815260040160405180910390fd5b336000908152600860205260409020548210610c0357604051632bb8b38560e11b815260040160405180910390fd5b336000908152600860205260408120805484908110610c2457610c24612fae565b906000526020600020906004020190508060020160019054906101000a900460ff1615610c6457604051635a4a8a4360e11b815260040160405180910390fd5b3360009081526009602052604090205460ff168015610c885750600281015460ff16155b15610ca657604051632b811a4760e11b815260040160405180910390fd5b600354610100900460ff1615610cc357610cbe611e45565b610cce565b8054610cce90611fdf565b60028101805461ff001916610100179055805460405133917f0502837c293951f8cf960d168bcedcf3e4531ffd7010af47fe48bbff7917d9b491610d1a91878252602082015260400190565b60405180910390a2805460405133917f485f1bb6524c663555797e00171a10f341656e59b02d6b557a0a38ba7d5d975191610d5a91906001860190612ffb565b60405180910390a250506001805550565b610d76600033611930565b610d9357604051634ca8886760e01b815260040160405180910390fd5b6001600160a01b0382166000908152600860205260409020548110610dcb57604051632bb8b38560e11b815260040160405180910390fd5b6001600160a01b0382166000908152600860205260408120805483908110610df557610df5612fae565b906000526020600020906004020190508060020160019054906101000a900460ff1615610e3557604051635a4a8a4360e11b815260040160405180910390fd5b60028101805461ffff19166101001790556040516001600160a01b038416907f019d1297aa228eef7dd79b31640282cbe91fbc09dc0cbf5000ca5abf72805989906108749085815260200190565b600082815260208190526040902060010154610e9e816121e0565b610ea883836121ea565b505050565b610eb8600033611930565b610ed557604051634ca8886760e01b815260040160405180910390fd5b6003805482151563010000000263ff0000001990911617905560405130907f70d2c92da609a3045e6b2a21e9d4cd5dc02f15a3830961912b03f5b236b78c8b90610f2490841515815260200190565b60405180910390a250565b60035460ff16610f8c5734600003610f5a576040516327738acf60e21b815260040160405180910390fd5b60405134815233907f8e47b87b0ef542cdfa1659c551d88bad38aa7f452d2bbb349ab7530dfec8be8f90602001610f24565b80600003610fad576040516327738acf60e21b815260040160405180910390fd5b600654610fc5906001600160a01b031633308461226e565b60065460405182815233916001600160a01b0316907fa17c2a1269d65f89b5c5688ce949fa4a7f59d8fcb9bbbac872d27a142b2b49e79060200160405180910390a35b50565b6001600160a01b038116331461107b5760405162461bcd60e51b815260206004820152602f60248201527f416363657373436f6e74726f6c3a2063616e206f6e6c792072656e6f756e636560448201526e103937b632b9903337b91039b2b63360891b6064820152608401610817565b610b4582826122d9565b611090600033611930565b6110ad57604051634ca8886760e01b815260040160405180910390fd5b6001600160a01b03821660009081526008602052604090205481106110e557604051632bb8b38560e11b815260040160405180910390fd5b6001600160a01b038216600090815260086020526040812080548390811061110f5761110f612fae565b906000526020600020906004020190508060020160019054906101000a900460ff161561114f57604051635a4a8a4360e11b815260040160405180910390fd5b60028101805460ff191660011790556040516001600160a01b038416907f6f856c863eba32b6aca7d24f96817572a1f48382957c3dc9e8d4741f38afd72e906108749085815260200190565b6111a6600033611930565b6111c357604051634ca8886760e01b815260040160405180910390fd5b60038054821515620100000262ff0000199091161790556040517fb08f70f6219c5c2ed5e08e7cf45080e4840fde880b27a0841faf45475cd02d2e9061120e90831515815260200190565b60405180910390a150565b6008602052816000526040600020818154811061123557600080fd5b90600052602060002090600402016000915091505080600001549080600101805461125f90612f7a565b80601f016020809104026020016040519081016040528092919081815260200182805461128b90612f7a565b80156112d85780601f106112ad576101008083540402835291602001916112d8565b820191906000526020600020905b8154815290600101906020018083116112bb57829003601f168201915b505050506002830154600390930154919260ff8082169361010090920416915085565b600580546108c590612f7a565b60608160008167ffffffffffffffff81111561132657611326612bc2565b60405190808252806020026020018201604052801561136b57816020015b60408051808201909152600080825260208201528152602001906001900390816113445790505b50905060005b828110156113fe57600086868381811061138d5761138d612fae565b90506020020160208101906113a29190612ba5565b6001600160a01b0381166000908152600a602090815260409182902082518084019093528054835260010154908201528451919250908490849081106113ea576113ea612fae565b602090810291909101015250600101611371565b50949350505050565b6001600160a01b0381166000908152600a60205260408120548290820361144c5760405163f4c8fba360e01b81526001600160a01b0382166004820152602401610817565b6001600160a01b0383166000908152600a60209081526040918290208251808401909352805483526001015490820152600354610100900460ff16156114ab576000198160200151036114a1575191506114f6565b60009250506114f6565b60008160200151426114bd91906130a4565b90506002548110156114f1576002548251600091906114dc90846130b7565b6114e691906130ce565b94506114f692505050565b505191505b50919050565b611507600033611930565b61152457604051634ca8886760e01b815260040160405180910390fd5b6001600160a01b0382166000908152600a60205260408120548391036115685760405163f4c8fba360e01b81526001600160a01b0382166004820152602401610817565b6509184e72a00082108015611580575060035460ff16155b156115ad5760405163c281dd3b60e01b8152600481018390526509184e72a0006024820152604401610817565b620f4240821080156115c1575060035460ff165b156115eb5760405163c281dd3b60e01b815260048101839052620f42406024820152604401610817565b6001600160a01b0383166000908152600a6020526040902082815560025461161390426130a4565b60018201556040518381526001600160a01b038516907f95089b8d5f5b1df642061c1947fbec71ede04a0aaa13de4b3e1054031610a0d5906020015b60405180910390a250505050565b611668600033611930565b61168557604051634ca8886760e01b815260040160405180910390fd5b600c546019116116a85760405163104e7cef60e31b815260040160405180910390fd5b6116b2828261233e565b600354610100900460ff16156117025760408051808201825282815260001960208083019182526001600160a01b0386166000908152600a9091529290922090518155905160019091015561174c565b60405180604001604052808281526020016002544261172191906130a4565b90526001600160a01b0383166000908152600a60209081526040909120825181559101516001909101555b600c80546001808201835560008390527fdf6966c971051c3d54ec59162606531493a51404a002842f56009d7e5cf4a8c790910180546001600160a01b0319166001600160a01b03861617905590546117a591906130a4565b6001600160a01b0383166000908152600b60205260409020556003546301000000900460ff161561182b576001600160a01b038216600081815260096020908152604091829020805460ff1916600190811790915591519182527f70d2c92da609a3045e6b2a21e9d4cd5dc02f15a3830961912b03f5b236b78c8b910160405180910390a25b816001600160a01b03167f49707f6097e3d8b2d861adf67aadfb41a45746f9d46701065ed09ff12f9e41c38260405161186691815260200190565b60405180910390a25050565b6007546001600160a01b0316331461189d5760405163ea8e4eb560e01b815260040160405180910390fd5b6001600160a01b0381166118c45760405163b5aaecfd60e01b815260040160405180910390fd5b600780546001600160a01b0319166001600160a01b0383169081179091556118ee906000906122d9565b6118f96000826121ea565b6040516001600160a01b038216907fb8121b611a666c4d7c03b96ba9dbc315332dc3f1aa77a22c0a1c162e55c5c32b90600090a250565b6000918252602082815260408084206001600160a01b0393909316845291905290205460ff1690565b611964600033611930565b61198157604051634ca8886760e01b815260040160405180910390fd5b6002600154036119a35760405162461bcd60e51b815260040161081790612fc4565b600260015560006001600160a01b038216611a6f5750478015611a69576007546040516000916001600160a01b03169083908381818185875af1925050503d8060008114611a0d576040519150601f19603f3d011682016040523d82523d6000602084013e611a12565b606091505b5050905080611a3457604051637d6a86b760e11b815260040160405180910390fd5b6040518281527f217f10a82904d12e2798042bffcd3f5c3cab8f7ea5638a4c0b804a5d6487c8fa9060200160405180910390a1505b50611b2f565b6040516370a0823160e01b81523060048201526001600160a01b038316906370a0823190602401602060405180830381865afa158015611ab3573d6000803e3d6000fd5b505050506040513d601f19601f82011682018060405250810190611ad791906130f0565b90508015611b2d57600754611af9906001600160a01b03848116911683612459565b6040518181527f217f10a82904d12e2798042bffcd3f5c3cab8f7ea5638a4c0b804a5d6487c8fa9060200160405180910390a15b505b5060018055565b600c8181548110611b4657600080fd5b6000918252602090912001546001600160a01b0316905081565b336000818152600a60205260408120549003611b9a5760405163f4c8fba360e01b81526001600160a01b0382166004820152602401610817565b600260015403611bbc5760405162461bcd60e51b815260040161081790612fc4565b600260015560035462010000900460ff1615611beb5760405163af9e1b4360e01b815260040160405180910390fd5b3360009081526009602052604090205460ff1615611c1257611c0d8383612489565b611c73565b600354610100900460ff1615611c2f57611c2a611e45565b611c38565b611c3883611fdf565b336001600160a01b03167f485f1bb6524c663555797e00171a10f341656e59b02d6b557a0a38ba7d5d97518484604051610d5a929190613109565b50506001805550565b611c87600033611930565b611ca457604051634ca8886760e01b815260040160405180910390fd5b6001600160a01b0381166000908152600a6020526040812054829103611ce85760405163f4c8fba360e01b81526001600160a01b0382166004820152602401610817565b6001600160a01b0382166000908152600b6020526040812054600c8054919291611d14906001906130a4565b81548110611d2457611d24612fae565b6000918252602090912001546001600160a01b03908116915084168114611d935780600c8381548110611d5957611d59612fae565b600091825260208083209190910180546001600160a01b0319166001600160a01b039485161790559183168152600b909152604090208290555b600c805480611da457611da4613122565b60008281526020808220600019908401810180546001600160a01b03191690559092019092556001600160a01b038616808352600a82526040808420848155600101849055600b835280842084905551928352917f95089b8d5f5b1df642061c1947fbec71ede04a0aaa13de4b3e1054031610a0d5910161164f565b600082815260208190526040902060010154611e3b816121e0565b610ea883836122d9565b336000908152600a60205260409020600181015460001914611e7a57604051632de4346760e11b815260040160405180910390fd5b805460035460ff16611f22574781811015611eb257604051631508de4560e01b81526004810183905260248101829052604401610817565b604051600090339084908381818185875af1925050503d8060008114611ef4576040519150601f19603f3d011682016040523d82523d6000602084013e611ef9565b606091505b5050905080611f1b57604051637d6a86b760e11b815260040160405180910390fd5b5050611fd5565b6006546040516370a0823160e01b81523060048201526000916001600160a01b0316906370a0823190602401602060405180830381865afa158015611f6b573d6000803e3d6000fd5b505050506040513d601f19601f82011682018060405250810190611f8f91906130f0565b905081811015611fbc57604051631508de4560e01b81526004810183905260248101829052604401610817565b600654611fd3906001600160a01b03163384612459565b505b5042600190910155565b6000611fea33611407565b9050818110156120175760405163ba49c84f60e01b81526004810183905260248101829052604401610817565b336000908152600a6020526040812060018101546002549192909142919061203f90836130a4565b90508083101561204d578092505b60035460ff166120f357478681101561208357604051631508de4560e01b81526004810188905260248101829052604401610817565b604051600090339089908381818185875af1925050503d80600081146120c5576040519150601f19603f3d011682016040523d82523d6000602084013e6120ca565b606091505b50509050806120ec57604051637d6a86b760e11b815260040160405180910390fd5b50506121a6565b6006546040516370a0823160e01b81523060048201526000916001600160a01b0316906370a0823190602401602060405180830381865afa15801561213c573d6000803e3d6000fd5b505050506040513d601f19601f8201168201806040525081019061216091906130f0565b90508681101561218d57604051631508de4560e01b81526004810188905260248101829052604401610817565b6006546121a4906001600160a01b03163389612459565b505b84866121b285856130a4565b6121bc91906130b7565b6121c691906130ce565b6121d09084613138565b8460010181905550505050505050565b6110088133612662565b6121f48282611930565b610b45576000828152602081815260408083206001600160a01b03851684529091529020805460ff1916600117905561222a3390565b6001600160a01b0316816001600160a01b0316837f2f8788117e7eff1d82e926ec794901d17c78024a50270940304540a733656f0d60405160405180910390a45050565b6040516001600160a01b0380851660248301528316604482015260648101829052610a019085906323b872dd60e01b906084015b60408051601f198184030181529190526020810180516001600160e01b03166001600160e01b0319909316929092179091526126c6565b6122e38282611930565b15610b45576000828152602081815260408083206001600160a01b0385168085529252808320805460ff1916905551339285917ff6391f5c32d9c69d2a47ea670b442974b53935d1edc7fd64eb21e047a839171b9190a45050565b6509184e72a00081108015612356575060035460ff16155b156123835760405163c281dd3b60e01b8152600481018290526509184e72a0006024820152604401610817565b620f424081108015612397575060035460ff165b156123c15760405163c281dd3b60e01b815260048101829052620f42406024820152604401610817565b6001600160a01b0382166123e85760405163094d784960e21b815260040160405180910390fd5b6001600160a01b0382166000908152600d602052604090205460ff16156124225760405163094d784960e21b815260040160405180910390fd5b6001600160a01b0382166000908152600a602052604090205415610b4557604051637fe8efbb60e01b815260040160405180910390fd5b6040516001600160a01b038316602482015260448101829052610ea890849063a9059cbb60e01b906064016122a2565b33600081815260086020526040812054815b81811015612501576001600160a01b03841660009081526008602052604090208054829081106124cd576124cd612fae565b906000526020600020906004020160020160019054906101000a900460ff166124f95760019250612501565b60010161249b565b5081156125215760405163ef97f13b60e01b815260040160405180910390fd5b600061252c33611407565b9050858110156125595760405163ba49c84f60e01b81526004810187905260248101829052604401610817565b336000908152600860209081526040808320815160a0810183528a81528084018a8152928101859052606081018590524260808201528154600181810184559286529390942084516004909402019283559051908201906125ba9082613199565b50604082810151600283018054606086015115156101000261ff00199315159390931661ffff1990911617919091179055608090920151600390910155336000908152600860205290812054612612906001906130a4565b9050336001600160a01b03167f0aed8180bd84f93fd8a307d9c534f2081366c2231daec597d51911c89fdae2a682898960405161265193929190613259565b60405180910390a250505050505050565b61266c8282611930565b610b4557612684816001600160a01b03166014612798565b61268f836020612798565b6040516020016126a0929190613281565b60408051601f198184030181529082905262461bcd60e51b825261081791600401612b92565b600061271b826040518060400160405280602081526020017f5361666545524332303a206c6f772d6c6576656c2063616c6c206661696c6564815250856001600160a01b031661293b9092919063ffffffff16565b805190915015610ea8578080602001905181019061273991906132f6565b610ea85760405162461bcd60e51b815260206004820152602a60248201527f5361666545524332303a204552433230206f7065726174696f6e20646964206e6044820152691bdd081cdd58d8d9595960b21b6064820152608401610817565b606060006127a78360026130b7565b6127b2906002613138565b67ffffffffffffffff8111156127ca576127ca612bc2565b6040519080825280601f01601f1916602001820160405280156127f4576020820181803683370190505b509050600360fc1b8160008151811061280f5761280f612fae565b60200101906001600160f81b031916908160001a905350600f60fb1b8160018151811061283e5761283e612fae565b60200101906001600160f81b031916908160001a90535060006128628460026130b7565b61286d906001613138565b90505b60018111156128e5576f181899199a1a9b1b9c1cb0b131b232b360811b85600f16601081106128a1576128a1612fae565b1a60f81b8282815181106128b7576128b7612fae565b60200101906001600160f81b031916908160001a90535060049490941c936128de81613313565b9050612870565b5083156129345760405162461bcd60e51b815260206004820181905260248201527f537472696e67733a20686578206c656e67746820696e73756666696369656e746044820152606401610817565b9392505050565b606061294a8484600085612952565b949350505050565b6060824710156129b35760405162461bcd60e51b815260206004820152602660248201527f416464726573733a20696e73756666696369656e742062616c616e636520666f6044820152651c8818d85b1b60d21b6064820152608401610817565b6001600160a01b0385163b612a0a5760405162461bcd60e51b815260206004820152601d60248201527f416464726573733a2063616c6c20746f206e6f6e2d636f6e74726163740000006044820152606401610817565b600080866001600160a01b03168587604051612a26919061332a565b60006040518083038185875af1925050503d8060008114612a63576040519150601f19603f3d011682016040523d82523d6000602084013e612a68565b606091505b5091509150612a78828286612a83565b979650505050505050565b60608315612a92575081612934565b825115612aa25782518084602001fd5b8160405162461bcd60e51b81526004016108179190612b92565b6001600160a01b038116811461100857600080fd5b801515811461100857600080fd5b60008060408385031215612af257600080fd5b8235612afd81612abc565b91506020830135612b0d81612ad1565b809150509250929050565b600060208284031215612b2a57600080fd5b81356001600160e01b03198116811461293457600080fd5b60005b83811015612b5d578181015183820152602001612b45565b50506000910152565b60008151808452612b7e816020860160208601612b42565b601f01601f19169290920160200192915050565b6020815260006129346020830184612b66565b600060208284031215612bb757600080fd5b813561293481612abc565b634e487b7160e01b600052604160045260246000fd5b604051601f8201601f1916810167ffffffffffffffff81118282101715612c0157612c01612bc2565b604052919050565b600067ffffffffffffffff821115612c2357612c23612bc2565b5060051b60200190565b600082601f830112612c3e57600080fd5b81356020612c53612c4e83612c09565b612bd8565b82815260059290921b84018101918181019086841115612c7257600080fd5b8286015b84811015612c8d5780358352918301918301612c76565b509695505050505050565b60008060408385031215612cab57600080fd5b823567ffffffffffffffff80821115612cc357600080fd5b818501915085601f830112612cd757600080fd5b81356020612ce7612c4e83612c09565b82815260059290921b84018101918181019089841115612d0657600080fd5b948201945b83861015612d2d578535612d1e81612abc565b82529482019490820190612d0b565b96505086013592505080821115612d4357600080fd5b50612d5085828601612c2d565b9150509250929050565b600060208284031215612d6c57600080fd5b5035919050565b60008060408385031215612d8657600080fd5b8235612d9181612abc565b946020939093013593505050565b60008060408385031215612db257600080fd5b823591506020830135612b0d81612abc565b600060208284031215612dd657600080fd5b813561293481612ad1565b85815260a060208201526000612dfa60a0830187612b66565b941515604083015250911515606083015260809091015292915050565b60008060208385031215612e2a57600080fd5b823567ffffffffffffffff80821115612e4257600080fd5b818501915085601f830112612e5657600080fd5b813581811115612e6557600080fd5b8660208260051b8501011115612e7a57600080fd5b60209290920196919550909350505050565b602080825282518282018190526000919060409081850190868401855b82811015612ece57815180518552860151868501529284019290850190600101612ea9565b5091979650505050505050565b60008060408385031215612eee57600080fd5b8235915060208084013567ffffffffffffffff80821115612f0e57600080fd5b818601915086601f830112612f2257600080fd5b813581811115612f3457612f34612bc2565b612f46601f8201601f19168501612bd8565b91508082528784828501011115612f5c57600080fd5b80848401858401376000848284010152508093505050509250929050565b600181811c90821680612f8e57607f821691505b6020821081036114f657634e487b7160e01b600052602260045260246000fd5b634e487b7160e01b600052603260045260246000fd5b6020808252601f908201527f5265656e7472616e637947756172643a207265656e7472616e742063616c6c00604082015260600190565b828152600060206040818401526000845461301581612f7a565b806040870152606060018084166000811461303757600181146130515761307f565b60ff1985168984015283151560051b89018301955061307f565b896000528660002060005b858110156130775781548b820186015290830190880161305c565b8a0184019650505b50939998505050505050505050565b634e487b7160e01b600052601160045260246000fd5b818103818111156108b2576108b261308e565b80820281158282048414176108b2576108b261308e565b6000826130eb57634e487b7160e01b600052601260045260246000fd5b500490565b60006020828403121561310257600080fd5b5051919050565b82815260406020820152600061294a6040830184612b66565b634e487b7160e01b600052603160045260246000fd5b808201808211156108b2576108b261308e565b601f821115610ea857600081815260208120601f850160051c810160208610156131725750805b601f850160051c820191505b818110156131915782815560010161317e565b505050505050565b815167ffffffffffffffff8111156131b3576131b3612bc2565b6131c7816131c18454612f7a565b8461314b565b602080601f8311600181146131fc57600084156131e45750858301515b600019600386901b1c1916600185901b178555613191565b600085815260208120601f198616915b8281101561322b5788860151825594840194600190910190840161320c565b50858210156132495787850151600019600388901b60f8161c191681555b5050505050600190811b01905550565b8381528260208201526060604082015260006132786060830184612b66565b95945050505050565b7f416363657373436f6e74726f6c3a206163636f756e74200000000000000000008152600083516132b9816017850160208801612b42565b7001034b99036b4b9b9b4b733903937b6329607d1b60179184019182015283516132ea816028840160208801612b42565b01602801949350505050565b60006020828403121561330857600080fd5b815161293481612ad1565b6000816133225761332261308e565b506000190190565b6000825161333c818460208701612b42565b919091019291505056fea2646970667358221220cca7169ebd959ee432e8adeecaa480be7e28abdeab79bb6df3aedb267eb459d364736f6c63430008140033",
  "devdoc": {
    "events": {
      "RoleAdminChanged(bytes32,bytes32,bytes32)": {
        "details": "Emitted when `newAdminRole` is set as ``role``'s admin role, replacing `previousAdminRole` `DEFAULT_ADMIN_ROLE` is the starting admin for all roles, despite {RoleAdminChanged} not being emitted signaling this. _Available since v3.1._"
      },
      "RoleGranted(bytes32,address,address)": {
        "details": "Emitted when `account` is granted `role`. `sender` is the account that originated the contract call, an admin role bearer except when using {AccessControl-_setupRole}."
      },
      "RoleRevoked(bytes32,address,address)": {
        "details": "Emitted when `account` is revoked `role`. `sender` is the account that originated the contract call:   - if using `revokeRole`, it is the admin role bearer   - if using `renounceRole`, it is the role bearer (i.e. `account`)"
      }
    },
    "kind": "dev",
    "methods": {
      "getRoleAdmin(bytes32)": {
        "details": "Returns the admin role that controls `role`. See {grantRole} and {revokeRole}. To change a role's admin, use {_setRoleAdmin}."
      },
      "grantRole(bytes32,address)": {
        "details": "Grants `role` to `account`. If `account` had not been already granted `role`, emits a {RoleGranted} event. Requirements: - the caller must have ``role``'s admin role."
      },
      "hasRole(bytes32,address)": {
        "details": "Returns `true` if `account` has been granted `role`."
      },
      "renounceRole(bytes32,address)": {
        "details": "Revokes `role` from the calling account. Roles are often managed via {grantRole} and {revokeRole}: this function's purpose is to provide a mechanism for accounts to lose their privileges if they are compromised (such as when a trusted device is misplaced). If the calling account had been revoked `role`, emits a {RoleRevoked} event. Requirements: - the caller must be `account`."
      },
      "revokeRole(bytes32,address)": {
        "details": "Revokes `role` from `account`. If `account` had been granted `role`, emits a {RoleRevoked} event. Requirements: - the caller must have ``role``'s admin role."
      },
      "supportsInterface(bytes4)": {
        "details": "See {IERC165-supportsInterface}."
      }
    },
    "version": 1
  },
  "userdoc": {
    "kind": "user",
    "methods": {},
    "version": 1
  },
  "storageLayout": {
    "storage": [
      {
        "astId": 70,
        "contract": "contracts/Cohort.sol:Cohort",
        "label": "_roles",
        "offset": 0,
        "slot": "0",
        "type": "t_mapping(t_bytes32,t_struct(RoleData)65_storage)"
      },
      {
        "astId": 554,
        "contract": "contracts/Cohort.sol:Cohort",
        "label": "_status",
        "offset": 0,
        "slot": "1",
        "type": "t_uint256"
      },
      {
        "astId": 1553,
        "contract": "contracts/Cohort.sol:Cohort",
        "label": "cycle",
        "offset": 0,
        "slot": "2",
        "type": "t_uint256"
      },
      {
        "astId": 1555,
        "contract": "contracts/Cohort.sol:Cohort",
        "label": "isERC20",
        "offset": 0,
        "slot": "3",
        "type": "t_bool"
      },
      {
        "astId": 1557,
        "contract": "contracts/Cohort.sol:Cohort",
        "label": "isONETIME",
        "offset": 1,
        "slot": "3",
        "type": "t_bool"
      },
      {
        "astId": 1559,
        "contract": "contracts/Cohort.sol:Cohort",
        "label": "locked",
        "offset": 2,
        "slot": "3",
        "type": "t_bool"
      },
      {
        "astId": 1561,
        "contract": "contracts/Cohort.sol:Cohort",
        "label": "requireApprovalForWithdrawals",
        "offset": 3,
        "slot": "3",
        "type": "t_bool"
      },
      {
        "astId": 1563,
        "contract": "contracts/Cohort.sol:Cohort",
        "label": "name",
        "offset": 0,
        "slot": "4",
        "type": "t_string_storage"
      },
      {
        "astId": 1565,
        "contract": "contracts/Cohort.sol:Cohort",
        "label": "description",
        "offset": 0,
        "slot": "5",
        "type": "t_string_storage"
      },
      {
        "astId": 1567,
        "contract": "contracts/Cohort.sol:Cohort",
        "label": "tokenAddress",
        "offset": 0,
        "slot": "6",
        "type": "t_address"
      },
      {
        "astId": 1569,
        "contract": "contracts/Cohort.sol:Cohort",
        "label": "primaryAdmin",
        "offset": 0,
        "slot": "7",
        "type": "t_address"
      },
      {
        "astId": 1926,
        "contract": "contracts/Cohort.sol:Cohort",
        "label": "withdrawRequests",
        "offset": 0,
        "slot": "8",
        "type": "t_mapping(t_address,t_array(t_struct(WithdrawRequest)1920_storage)dyn_storage)"
      },
      {
        "astId": 1930,
        "contract": "contracts/Cohort.sol:Cohort",
        "label": "requiresApproval",
        "offset": 0,
        "slot": "9",
        "type": "t_mapping(t_address,t_bool)"
      },
      {
        "astId": 1949,
        "contract": "contracts/Cohort.sol:Cohort",
        "label": "streamingBuilders",
        "offset": 0,
        "slot": "10",
        "type": "t_mapping(t_address,t_struct(BuilderStreamInfo)1867_storage)"
      },
      {
        "astId": 1953,
        "contract": "contracts/Cohort.sol:Cohort",
        "label": "builderIndex",
        "offset": 0,
        "slot": "11",
        "type": "t_mapping(t_address,t_uint256)"
      },
      {
        "astId": 1956,
        "contract": "contracts/Cohort.sol:Cohort",
        "label": "activeBuilders",
        "offset": 0,
        "slot": "12",
        "type": "t_array(t_address)dyn_storage"
      },
      {
        "astId": 1960,
        "contract": "contracts/Cohort.sol:Cohort",
        "label": "isAdmin",
        "offset": 0,
        "slot": "13",
        "type": "t_mapping(t_address,t_bool)"
      }
    ],
    "types": {
      "t_address": {
        "encoding": "inplace",
        "label": "address",
        "numberOfBytes": "20"
      },
      "t_array(t_address)dyn_storage": {
        "base": "t_address",
        "encoding": "dynamic_array",
        "label": "address[]",
        "numberOfBytes": "32"
      },
      "t_array(t_struct(WithdrawRequest)1920_storage)dyn_storage": {
        "base": "t_struct(WithdrawRequest)1920_storage",
        "encoding": "dynamic_array",
        "label": "struct Cohort.WithdrawRequest[]",
        "numberOfBytes": "32"
      },
      "t_bool": {
        "encoding": "inplace",
        "label": "bool",
        "numberOfBytes": "1"
      },
      "t_bytes32": {
        "encoding": "inplace",
        "label": "bytes32",
        "numberOfBytes": "32"
      },
      "t_mapping(t_address,t_array(t_struct(WithdrawRequest)1920_storage)dyn_storage)": {
        "encoding": "mapping",
        "key": "t_address",
        "label": "mapping(address => struct Cohort.WithdrawRequest[])",
        "numberOfBytes": "32",
        "value": "t_array(t_struct(WithdrawRequest)1920_storage)dyn_storage"
      },
      "t_mapping(t_address,t_bool)": {
        "encoding": "mapping",
        "key": "t_address",
        "label": "mapping(address => bool)",
        "numberOfBytes": "32",
        "value": "t_bool"
      },
      "t_mapping(t_address,t_struct(BuilderStreamInfo)1867_storage)": {
        "encoding": "mapping",
        "key": "t_address",
        "label": "mapping(address => struct Cohort.BuilderStreamInfo)",
        "numberOfBytes": "32",
        "value": "t_struct(BuilderStreamInfo)1867_storage"
      },
      "t_mapping(t_address,t_uint256)": {
        "encoding": "mapping",
        "key": "t_address",
        "label": "mapping(address => uint256)",
        "numberOfBytes": "32",
        "value": "t_uint256"
      },
      "t_mapping(t_bytes32,t_struct(RoleData)65_storage)": {
        "encoding": "mapping",
        "key": "t_bytes32",
        "label": "mapping(bytes32 => struct AccessControl.RoleData)",
        "numberOfBytes": "32",
        "value": "t_struct(RoleData)65_storage"
      },
      "t_string_storage": {
        "encoding": "bytes",
        "label": "string",
        "numberOfBytes": "32"
      },
      "t_struct(BuilderStreamInfo)1867_storage": {
        "encoding": "inplace",
        "label": "struct Cohort.BuilderStreamInfo",
        "members": [
          {
            "astId": 1864,
            "contract": "contracts/Cohort.sol:Cohort",
            "label": "cap",
            "offset": 0,
            "slot": "0",
            "type": "t_uint256"
          },
          {
            "astId": 1866,
            "contract": "contracts/Cohort.sol:Cohort",
            "label": "last",
            "offset": 0,
            "slot": "1",
            "type": "t_uint256"
          }
        ],
        "numberOfBytes": "64"
      },
      "t_struct(RoleData)65_storage": {
        "encoding": "inplace",
        "label": "struct AccessControl.RoleData",
        "members": [
          {
            "astId": 62,
            "contract": "contracts/Cohort.sol:Cohort",
            "label": "members",
            "offset": 0,
            "slot": "0",
            "type": "t_mapping(t_address,t_bool)"
          },
          {
            "astId": 64,
            "contract": "contracts/Cohort.sol:Cohort",
            "label": "adminRole",
            "offset": 0,
            "slot": "1",
            "type": "t_bytes32"
          }
        ],
        "numberOfBytes": "64"
      },
      "t_struct(WithdrawRequest)1920_storage": {
        "encoding": "inplace",
        "label": "struct Cohort.WithdrawRequest",
        "members": [
          {
            "astId": 1911,
            "contract": "contracts/Cohort.sol:Cohort",
            "label": "amount",
            "offset": 0,
            "slot": "0",
            "type": "t_uint256"
          },
          {
            "astId": 1913,
            "contract": "contracts/Cohort.sol:Cohort",
            "label": "reason",
            "offset": 0,
            "slot": "1",
            "type": "t_string_storage"
          },
          {
            "astId": 1915,
            "contract": "contracts/Cohort.sol:Cohort",
            "label": "approved",
            "offset": 0,
            "slot": "2",
            "type": "t_bool"
          },
          {
            "astId": 1917,
            "contract": "contracts/Cohort.sol:Cohort",
            "label": "completed",
            "offset": 1,
            "slot": "2",
            "type": "t_bool"
          },
          {
            "astId": 1919,
            "contract": "contracts/Cohort.sol:Cohort",
            "label": "requestTime",
            "offset": 0,
            "slot": "3",
            "type": "t_uint256"
          }
        ],
        "numberOfBytes": "128"
      },
      "t_uint256": {
        "encoding": "inplace",
        "label": "uint256",
        "numberOfBytes": "32"
      }
    }
  }
}