{
  "address": "0x7991bdD5371e41CFA37D9223033FEDAe3A02cf08",
  "abi": [
    {
      "inputs": [
        {
          "internalType": "address",
          "name": "_priceFeed",
          "type": "address"
        }
      ],
      "stateMutability": "nonpayable",
      "type": "constructor"
    },
    {
      "inputs": [],
      "name": "FailedToSendETH",
      "type": "error"
    },
    {
      "inputs": [
        {
          "internalType": "uint256",
          "name": "required",
          "type": "uint256"
        },
        {
          "internalType": "uint256",
          "name": "provided",
          "type": "uint256"
        }
      ],
      "name": "InsufficientPayment",
      "type": "error"
    },
    {
      "inputs": [],
      "name": "InvalidFeeAmount",
      "type": "error"
    },
    {
      "inputs": [],
      "name": "PriceFeedInvalid",
      "type": "error"
    },
    {
      "anonymous": false,
      "inputs": [
        {
          "indexed": true,
          "internalType": "address",
          "name": "cohortAddress",
          "type": "address"
        },
        {
          "indexed": true,
          "internalType": "address",
          "name": "primaryAdmin",
          "type": "address"
        },
        {
          "indexed": false,
          "internalType": "string",
          "name": "name",
          "type": "string"
        },
        {
          "indexed": false,
          "internalType": "string",
          "name": "description",
          "type": "string"
        }
      ],
      "name": "CohortCreated",
      "type": "event"
    },
    {
      "anonymous": false,
      "inputs": [
        {
          "indexed": false,
          "internalType": "uint256",
          "name": "oldFee",
          "type": "uint256"
        },
        {
          "indexed": false,
          "internalType": "uint256",
          "name": "newFee",
          "type": "uint256"
        }
      ],
      "name": "CreationFeeUpdated",
      "type": "event"
    },
    {
      "anonymous": false,
      "inputs": [
        {
          "indexed": true,
          "internalType": "address",
          "name": "previousOwner",
          "type": "address"
        },
        {
          "indexed": true,
          "internalType": "address",
          "name": "newOwner",
          "type": "address"
        }
      ],
      "name": "OwnershipTransferred",
      "type": "event"
    },
    {
      "anonymous": false,
      "inputs": [
        {
          "indexed": false,
          "internalType": "address",
          "name": "newPriceFeed",
          "type": "address"
        }
      ],
      "name": "PriceFeedUpdated",
      "type": "event"
    },
    {
      "inputs": [
        {
          "internalType": "uint256",
          "name": "",
          "type": "uint256"
        }
      ],
      "name": "cohortRegistry",
      "outputs": [
        {
          "internalType": "address",
          "name": "cohortAddress",
          "type": "address"
        },
        {
          "internalType": "string",
          "name": "name",
          "type": "string"
        },
        {
          "internalType": "uint256",
          "name": "creationTimestamp",
          "type": "uint256"
        }
      ],
      "stateMutability": "view",
      "type": "function"
    },
    {
      "inputs": [
        {
          "internalType": "address",
          "name": "_primaryAdmin",
          "type": "address"
        },
        {
          "internalType": "address",
          "name": "_tokenAddress",
          "type": "address"
        },
        {
          "internalType": "string",
          "name": "_name",
          "type": "string"
        },
        {
          "internalType": "string",
          "name": "_description",
          "type": "string"
        },
        {
          "internalType": "uint256",
          "name": "_cycle",
          "type": "uint256"
        },
        {
          "internalType": "address[]",
          "name": "_builders",
          "type": "address[]"
        },
        {
          "internalType": "uint256[]",
          "name": "_caps",
          "type": "uint256[]"
        }
      ],
      "name": "createCohort",
      "outputs": [
        {
          "internalType": "address",
          "name": "",
          "type": "address"
        }
      ],
      "stateMutability": "payable",
      "type": "function"
    },
    {
      "inputs": [],
      "name": "creationFeeUSD",
      "outputs": [
        {
          "internalType": "uint256",
          "name": "",
          "type": "uint256"
        }
      ],
      "stateMutability": "view",
      "type": "function"
    },
    {
      "inputs": [],
      "name": "getAllCohorts",
      "outputs": [
        {
          "components": [
            {
              "internalType": "address",
              "name": "cohortAddress",
              "type": "address"
            },
            {
              "internalType": "string",
              "name": "name",
              "type": "string"
            },
            {
              "internalType": "uint256",
              "name": "creationTimestamp",
              "type": "uint256"
            }
          ],
          "internalType": "struct CohortFactory.CohortInfo[]",
          "name": "",
          "type": "tuple[]"
        }
      ],
      "stateMutability": "view",
      "type": "function"
    },
    {
      "inputs": [
        {
          "internalType": "uint256",
          "name": "_index",
          "type": "uint256"
        }
      ],
      "name": "getCohortByIndex",
      "outputs": [
        {
          "components": [
            {
              "internalType": "address",
              "name": "cohortAddress",
              "type": "address"
            },
            {
              "internalType": "string",
              "name": "name",
              "type": "string"
            },
            {
              "internalType": "uint256",
              "name": "creationTimestamp",
              "type": "uint256"
            }
          ],
          "internalType": "struct CohortFactory.CohortInfo",
          "name": "",
          "type": "tuple"
        }
      ],
      "stateMutability": "view",
      "type": "function"
    },
    {
      "inputs": [],
      "name": "getRequiredEthAmount",
      "outputs": [
        {
          "internalType": "uint256",
          "name": "",
          "type": "uint256"
        }
      ],
      "stateMutability": "view",
      "type": "function"
    },
    {
      "inputs": [],
      "name": "getTotalCohorts",
      "outputs": [
        {
          "internalType": "uint256",
          "name": "",
          "type": "uint256"
        }
      ],
      "stateMutability": "view",
      "type": "function"
    },
    {
      "inputs": [
        {
          "internalType": "address",
          "name": "",
          "type": "address"
        }
      ],
      "name": "isCohort",
      "outputs": [
        {
          "internalType": "bool",
          "name": "",
          "type": "bool"
        }
      ],
      "stateMutability": "view",
      "type": "function"
    },
    {
      "inputs": [],
      "name": "owner",
      "outputs": [
        {
          "internalType": "address",
          "name": "",
          "type": "address"
        }
      ],
      "stateMutability": "view",
      "type": "function"
    },
    {
      "inputs": [],
      "name": "renounceOwnership",
      "outputs": [],
      "stateMutability": "nonpayable",
      "type": "function"
    },
    {
      "inputs": [],
      "name": "totalCohorts",
      "outputs": [
        {
          "internalType": "uint256",
          "name": "",
          "type": "uint256"
        }
      ],
      "stateMutability": "view",
      "type": "function"
    },
    {
      "inputs": [
        {
          "internalType": "address",
          "name": "newOwner",
          "type": "address"
        }
      ],
      "name": "transferOwnership",
      "outputs": [],
      "stateMutability": "nonpayable",
      "type": "function"
    },
    {
      "inputs": [
        {
          "internalType": "uint256",
          "name": "_newFeeUSD",
          "type": "uint256"
        }
      ],
      "name": "updateCreationFee",
      "outputs": [],
      "stateMutability": "nonpayable",
      "type": "function"
    },
    {
      "inputs": [
        {
          "internalType": "address",
          "name": "_newPriceFeed",
          "type": "address"
        }
      ],
      "name": "updatePriceFeed",
      "outputs": [],
      "stateMutability": "nonpayable",
      "type": "function"
    }
  ],
  "transactionHash": "0x374fbb87a34d3383bf2b8be48d9b65e16c543418093a6b6edca52d9526a1a7ad",
  "args": [
    "0x61Ec26aA57019C486B10502285c5A3D4A4750AD7"
  ],
  "numDeployments": 7,
  "solcInputHash": "300a0c32a07f031ba83eb8c50dac65c9",
  "bytecode": "0x608060405234801561001057600080fd5b5060405162004f7738038062004f77833981016040819052610031916100e2565b61003a33610092565b6001600160a01b038116610061576040516307806b6560e31b815260040160405180910390fd5b600180546001600160a01b0319166001600160a01b039290921691909117905567016345785d8a0000600255610112565b600080546001600160a01b038381166001600160a01b0319831681178455604051919092169283917f8be0079c531659141344cd1fd0a4f28419497f9722a3daafe3b4186f6b6457e09190a35050565b6000602082840312156100f457600080fd5b81516001600160a01b038116811461010b57600080fd5b9392505050565b614e5580620001226000396000f3fe608060405260043610620000ef5760003560e01c8063715018a6116200008957806395877f78116200006057806395877f7814620002965780639b8a969e14620002bb578063a2299a9d14620002d3578063f2fde38b14620002eb57600080fd5b8063715018a6146200022a5780637659073814620002425780638da5cb5b146200027657600080fd5b80634e73e35511620000ca5780634e73e3551462000194578063595a2dd314620001bb5780636a8479b214620001eb5780636fa23795146200020357600080fd5b8063114be58514620000f45780633d5e5ed914620001195780634bdcda92146200014f575b600080fd5b3480156200010157600080fd5b506005545b6040519081526020015b60405180910390f35b3480156200012657600080fd5b506200013e6200013836600462000ca6565b62000310565b604051620001109392919062000d08565b3480156200015c57600080fd5b50620001836200016e36600462000d5b565b60036020526000908152604090205460ff1681565b604051901515815260200162000110565b348015620001a157600080fd5b50620001ac620003cd565b60405162000110919062000db6565b620001d2620001cc36600462000fe2565b6200056d565b6040516001600160a01b03909116815260200162000110565b348015620001f857600080fd5b506200010660025481565b3480156200021057600080fd5b50620002286200022236600462000ca6565b620007d2565b005b3480156200023757600080fd5b506200022862000865565b3480156200024f57600080fd5b50620002676200026136600462000ca6565b620008a0565b604051620001109190620010cb565b3480156200028357600080fd5b506000546001600160a01b0316620001d2565b348015620002a357600080fd5b5062000228620002b536600462000d5b565b620009ee565b348015620002c857600080fd5b506200010662000a97565b348015620002e057600080fd5b506200010660055481565b348015620002f857600080fd5b50620002286200030a36600462000d5b565b62000ae0565b600460205260009081526040902080546001820180546001600160a01b0390921692916200033e90620010e0565b80601f01602080910402602001604051908101604052809291908181526020018280546200036c90620010e0565b8015620003bd5780601f106200039157610100808354040283529160200191620003bd565b820191906000526020600020905b8154815290600101906020018083116200039f57829003601f168201915b5050505050908060020154905083565b6060600060055467ffffffffffffffff811115620003ef57620003ef62000e1c565b6040519080825280602002602001820160405280156200045057816020015b6200043c604051806060016040528060006001600160a01b0316815260200160608152602001600081525090565b8152602001906001900390816200040e5790505b50905060005b600554811015620005675760008181526004602090815260409182902082516060810190935280546001600160a01b0316835260018101805491928401916200049f90620010e0565b80601f0160208091040260200160405190810160405280929190818152602001828054620004cd90620010e0565b80156200051e5780601f10620004f2576101008083540402835291602001916200051e565b820191906000526020600020905b8154815290600101906020018083116200050057829003601f168201915b5050505050815260200160028201548152505082828151811062000546576200054662001116565b602002602001018190525080806200055e9062001142565b91505062000456565b50919050565b6000806200057a62000a97565b600254600154919250906200059a9034906001600160a01b031662000b82565b1015620005c85760405163b99e2ab760e01b8152600481018290523460248201526044015b60405180910390fd5b600089898989898989604051620005df9062000c98565b620005f197969594939291906200119b565b604051809103906000f0801580156200060e573d6000803e3d6000fd5b5090506000819050600160036000836001600160a01b03166001600160a01b0316815260200190815260200160002060006101000a81548160ff021916908315150217905550600060055490506040518060600160405280836001600160a01b031681526020018b8152602001428152506004600083815260200190815260200160002060008201518160000160006101000a8154816001600160a01b0302191690836001600160a01b031602179055506020820151816001019081620006d6919062001296565b506040919091015160029091015560058054906000620006f68362001142565b9091555050600080546040516001600160a01b039091169034908381818185875af1925050503d80600081146200074a576040519150601f19603f3d011682016040523d82523d6000602084013e6200074f565b606091505b505090508062000772576040516338822c1360e11b815260040160405180910390fd5b8c6001600160a01b0316836001600160a01b03167f570e843f430e9c07b135675740293a86d5c98eb4b737091ea2c5cb61ae9293bf8d8d604051620007b992919062001363565b60405180910390a350909b9a5050505050505050505050565b6000546001600160a01b03163314620007ff5760405162461bcd60e51b8152600401620005bf9062001395565b80600003620008205760405162a4671960e71b815260040160405180910390fd5b600280549082905560408051828152602081018490527f5de302eeb1c80d4fb0c0953b692353f09ddf431411b8eb2034d5e85769561912910160405180910390a15050565b6000546001600160a01b03163314620008925760405162461bcd60e51b8152600401620005bf9062001395565b6200089e600062000bc0565b565b620008ce604051806060016040528060006001600160a01b0316815260200160608152602001600081525090565b6005548210620009175760405162461bcd60e51b8152602060048201526013602482015272496e646578206f7574206f6620626f756e647360681b6044820152606401620005bf565b60008281526004602090815260409182902082516060810190935280546001600160a01b0316835260018101805491928401916200095590620010e0565b80601f01602080910402602001604051908101604052809291908181526020018280546200098390620010e0565b8015620009d45780601f10620009a857610100808354040283529160200191620009d4565b820191906000526020600020905b815481529060010190602001808311620009b657829003601f168201915b505050505081526020016002820154815250509050919050565b6000546001600160a01b0316331462000a1b5760405162461bcd60e51b8152600401620005bf9062001395565b6001600160a01b03811662000a43576040516307806b6560e31b815260040160405180910390fd5b600180546001600160a01b0319166001600160a01b0383169081179091556040519081527fe5b20b8497e4f3e2435ef9c20e2e26b47497ee13745ce1c681ad6640653119e69060200160405180910390a150565b600154600090819062000ab3906001600160a01b031662000c10565b905080600254670de0b6b3a764000062000ace9190620013ca565b62000ada9190620013e4565b91505090565b6000546001600160a01b0316331462000b0d5760405162461bcd60e51b8152600401620005bf9062001395565b6001600160a01b03811662000b745760405162461bcd60e51b815260206004820152602660248201527f4f776e61626c653a206e6577206f776e657220697320746865207a65726f206160448201526564647265737360d01b6064820152608401620005bf565b62000b7f8162000bc0565b50565b60008062000b908362000c10565b90506000670de0b6b3a764000062000ba98684620013ca565b62000bb59190620013e4565b925050505b92915050565b600080546001600160a01b038381166001600160a01b0319831681178455604051919092169283917f8be0079c531659141344cd1fd0a4f28419497f9722a3daafe3b4186f6b6457e09190a35050565b600080826001600160a01b031663feaf968c6040518163ffffffff1660e01b815260040160a060405180830381865afa15801562000c52573d6000803e3d6000fd5b505050506040513d601f19601f8201168201806040525081019062000c78919062001422565b505050915050806402540be40062000c91919062001477565b9392505050565b61397280620014ae83390190565b60006020828403121562000cb957600080fd5b5035919050565b6000815180845260005b8181101562000ce85760208185018101518683018201520162000cca565b506000602082860101526020601f19601f83011685010191505092915050565b6001600160a01b038416815260606020820181905260009062000d2e9083018562000cc0565b9050826040830152949350505050565b80356001600160a01b038116811462000d5657600080fd5b919050565b60006020828403121562000d6e57600080fd5b62000c918262000d3e565b60018060a01b038151168252600060208201516060602085015262000da2606085018262000cc0565b604093840151949093019390935250919050565b6000602080830181845280855180835260408601915060408160051b870101925083870160005b8281101562000e0f57603f1988860301845262000dfc85835162000d79565b9450928501929085019060010162000ddd565b5092979650505050505050565b634e487b7160e01b600052604160045260246000fd5b604051601f8201601f1916810167ffffffffffffffff8111828210171562000e5e5762000e5e62000e1c565b604052919050565b600082601f83011262000e7857600080fd5b813567ffffffffffffffff81111562000e955762000e9562000e1c565b62000eaa601f8201601f191660200162000e32565b81815284602083860101111562000ec057600080fd5b816020850160208301376000918101602001919091529392505050565b600067ffffffffffffffff82111562000efa5762000efa62000e1c565b5060051b60200190565b600082601f83011262000f1657600080fd5b8135602062000f2f62000f298362000edd565b62000e32565b82815260059290921b8401810191818101908684111562000f4f57600080fd5b8286015b8481101562000f755762000f678162000d3e565b835291830191830162000f53565b509695505050505050565b600082601f83011262000f9257600080fd5b8135602062000fa562000f298362000edd565b82815260059290921b8401810191818101908684111562000fc557600080fd5b8286015b8481101562000f75578035835291830191830162000fc9565b600080600080600080600060e0888a03121562000ffe57600080fd5b620010098862000d3e565b9650620010196020890162000d3e565b9550604088013567ffffffffffffffff808211156200103757600080fd5b620010458b838c0162000e66565b965060608a01359150808211156200105c57600080fd5b6200106a8b838c0162000e66565b955060808a0135945060a08a01359150808211156200108857600080fd5b620010968b838c0162000f04565b935060c08a0135915080821115620010ad57600080fd5b50620010bc8a828b0162000f80565b91505092959891949750929550565b60208152600062000c91602083018462000d79565b600181811c90821680620010f557607f821691505b6020821081036200056757634e487b7160e01b600052602260045260246000fd5b634e487b7160e01b600052603260045260246000fd5b634e487b7160e01b600052601160045260246000fd5b6000600182016200115757620011576200112c565b5060010190565b600081518084526020808501945080840160005b83811015620011905781518752958201959082019060010162001172565b509495945050505050565b600060018060a01b03808a1683526020818a168185015260e06040850152620011c860e085018a62000cc0565b8481036060860152620011dc818a62000cc0565b6080860189905285810360a0870152875180825283890192509083019060005b818110156200121c578351861683529284019291840191600101620011fc565b505085810360c08701526200123281886200115e565b9d9c50505050505050505050505050565b601f8211156200129157600081815260208120601f850160051c810160208610156200126c5750805b601f850160051c820191505b818110156200128d5782815560010162001278565b5050505b505050565b815167ffffffffffffffff811115620012b357620012b362000e1c565b620012cb81620012c48454620010e0565b8462001243565b602080601f831160018114620013035760008415620012ea5750858301515b600019600386901b1c1916600185901b1785556200128d565b600085815260208120601f198616915b82811015620013345788860151825594840194600190910190840162001313565b5085821015620013535787850151600019600388901b60f8161c191681555b5050505050600190811b01905550565b60408152600062001378604083018562000cc0565b82810360208401526200138c818562000cc0565b95945050505050565b6020808252818101527f4f776e61626c653a2063616c6c6572206973206e6f7420746865206f776e6572604082015260600190565b808202811582820484141762000bba5762000bba6200112c565b6000826200140257634e487b7160e01b600052601260045260246000fd5b500490565b805169ffffffffffffffffffff8116811462000d5657600080fd5b600080600080600060a086880312156200143b57600080fd5b620014468662001407565b94506020860151935060408601519250606086015191506200146b6080870162001407565b90509295509295909350565b80820260008212600160ff1b841416156200149657620014966200112c565b818105831482151762000bba5762000bba6200112c56fe60806040523480156200001157600080fd5b50604051620039723803806200397283398101604081905262000034916200072f565b600180556200004560008862000352565b6001600160a01b0387166000818152600d60205260409020805460ff19166001179055600780546001600160a01b03191690911790556004620000898682620008a7565b506005620000988582620008a7565b5060028390556001600160a01b03861615620000d9576003805460ff19166001179055600680546001600160a01b0388166001600160a01b03199091161790555b8151156200034557815160198110620001055760405163104e7cef60e31b815260040160405180910390fd5b81518114620001275760405163586cb9e160e01b815260040160405180910390fd5b60005b8181101562000342576200017d8482815181106200014c576200014c62000973565b602002602001015184838151811062000169576200016962000973565b6020026020010151620003db60201b60201c565b60405180604001604052808483815181106200019d576200019d62000973565b602002602001015181526020018642620001b8919062000989565b815250600a6000868481518110620001d457620001d462000973565b60200260200101516001600160a01b03166001600160a01b031681526020019081526020016000206000820151816000015560208201518160010155905050600c8482815181106200022a576200022a62000973565b60209081029190910181015182546001808201855560009485529290932090920180546001600160a01b0319166001600160a01b0390931692909217909155600c5462000278919062000989565b600b600086848151811062000291576200029162000973565b60200260200101516001600160a01b03166001600160a01b0316815260200190815260200160002081905550838181518110620002d257620002d262000973565b60200260200101516001600160a01b03167f49707f6097e3d8b2d861adf67aadfb41a45746f9d46701065ed09ff12f9e41c384838151811062000319576200031962000973565b60200260200101516040516200033191815260200190565b60405180910390a26001016200012a565b50505b50505050505050620009ab565b6200035e82826200050d565b620003d7576000828152602081815260408083206001600160a01b03851684529091529020805460ff19166001179055620003963390565b6001600160a01b0316816001600160a01b0316837f2f8788117e7eff1d82e926ec794901d17c78024a50270940304540a733656f0d60405160405180910390a45b5050565b6509184e72a00081108015620003f4575060035460ff16155b15620004275760405163c281dd3b60e01b8152600481018290526509184e72a00060248201526044015b60405180910390fd5b670de0b6b3a76400008110801562000441575060035460ff165b15620004725760405163c281dd3b60e01b815260048101829052670de0b6b3a764000060248201526044016200041e565b6001600160a01b0382166200049a5760405163094d784960e21b815260040160405180910390fd5b6001600160a01b0382166000908152600d602052604090205460ff1615620004d55760405163094d784960e21b815260040160405180910390fd5b6001600160a01b0382166000908152600a602052604090205415620003d757604051637fe8efbb60e01b815260040160405180910390fd5b6000828152602081815260408083206001600160a01b038516845290915290205460ff165b92915050565b80516001600160a01b03811681146200055057600080fd5b919050565b634e487b7160e01b600052604160045260246000fd5b604051601f8201601f191681016001600160401b038111828210171562000596576200059662000555565b604052919050565b600082601f830112620005b057600080fd5b81516001600160401b03811115620005cc57620005cc62000555565b6020620005e2601f8301601f191682016200056b565b8281528582848701011115620005f757600080fd5b60005b8381101562000617578581018301518282018401528201620005fa565b506000928101909101919091529392505050565b60006001600160401b0382111562000647576200064762000555565b5060051b60200190565b600082601f8301126200066357600080fd5b815160206200067c62000676836200062b565b6200056b565b82815260059290921b840181019181810190868411156200069c57600080fd5b8286015b84811015620006c257620006b48162000538565b8352918301918301620006a0565b509695505050505050565b600082601f830112620006df57600080fd5b81516020620006f262000676836200062b565b82815260059290921b840181019181810190868411156200071257600080fd5b8286015b84811015620006c2578051835291830191830162000716565b600080600080600080600060e0888a0312156200074b57600080fd5b620007568862000538565b9650620007666020890162000538565b60408901519096506001600160401b03808211156200078457600080fd5b620007928b838c016200059e565b965060608a0151915080821115620007a957600080fd5b620007b78b838c016200059e565b955060808a0151945060a08a0151915080821115620007d557600080fd5b620007e38b838c0162000651565b935060c08a0151915080821115620007fa57600080fd5b50620008098a828b01620006cd565b91505092959891949750929550565b600181811c908216806200082d57607f821691505b6020821081036200084e57634e487b7160e01b600052602260045260246000fd5b50919050565b601f821115620008a257600081815260208120601f850160051c810160208610156200087d5750805b601f850160051c820191505b818110156200089e5782815560010162000889565b5050505b505050565b81516001600160401b03811115620008c357620008c362000555565b620008db81620008d4845462000818565b8462000854565b602080601f831160018114620009135760008415620008fa5750858301515b600019600386901b1c1916600185901b1785556200089e565b600085815260208120601f198616915b82811015620009445788860151825594840194600190910190840162000923565b5085821015620009635787850151600019600388901b60f8161c191681555b5050505050600190811b01905550565b634e487b7160e01b600052603260045260246000fd5b818103818111156200053257634e487b7160e01b600052601160045260246000fd5b612fb780620009bb6000396000f3fe6080604052600436106102125760003560e01c80636d6ca319116101185780639de1b23d116100a0578063a78393341161006f578063a78393341461068e578063a8397ddc146106ae578063af402532146106ce578063cf309012146106ee578063d547741f1461070d57600080fd5b80639de1b23d1461060c578063a217fddf1461062c578063a46495ac14610641578063a4adcb611461066e57600080fd5b80638216d506116100e75780638216d5061461055457806382c2aff7146105745780638c0a2d561461059457806391d14854146105b45780639d76ea58146105d457600080fd5b80636d6ca319146104c15780637284e416146104f25780637c6f1b591461050757806380c9b2f61461053457600080fd5b806324d7806c1161019b5780633519a2f81161016a5780633519a2f81461040f57806336568abe14610422578063377c9815146104425780634e1ca1201461048b5780636190c9d5146104ab57600080fd5b806324d7806c1461038557806329d36c46146103b55780632eb67f53146103d55780632f2ff15d146103ef57600080fd5b80630d12cc68116101e25780630d12cc68146102c75780630dd0a042146102e7578063116e72db146103075780632087ed5c14610327578063248a9ca31461034757600080fd5b806208359d1461021e57806301ffc9a71461024057806306fdde0314610275578063070092d41461029757600080fd5b3661021957005b600080fd5b34801561022a57600080fd5b5061023e61023936600461271a565b61072d565b005b34801561024c57600080fd5b5061026061025b366004612753565b6107ff565b60405190151581526020015b60405180910390f35b34801561028157600080fd5b5061028a610836565b60405161026c91906127cd565b3480156102a357600080fd5b506102606102b23660046127e0565b60096020526000908152604090205460ff1681565b3480156102d357600080fd5b5061023e6102e23660046128d3565b6108c4565b3480156102f357600080fd5b5061023e610302366004612995565b610985565b34801561031357600080fd5b5061023e61032236600461271a565b610a01565b34801561033357600080fd5b5061023e6103423660046129b2565b610b43565b34801561035357600080fd5b506103776103623660046129b2565b60009081526020819052604090206001015490565b60405190815260200161026c565b34801561039157600080fd5b506102606103a03660046127e0565b600d6020526000908152604090205460ff1681565b3480156103c157600080fd5b5061023e6103d03660046129cb565b610d47565b3480156103e157600080fd5b506003546102609060ff1681565b3480156103fb57600080fd5b5061023e61040a3660046129f7565b610e5f565b61023e61041d3660046129b2565b610e89565b34801561042e57600080fd5b5061023e61043d3660046129f7565b610f6b565b34801561044e57600080fd5b5061047661045d3660046127e0565b600a602052600090815260409020805460019091015482565b6040805192835260208301919091520161026c565b34801561049757600080fd5b5061023e6104a63660046129cb565b610fe5565b3480156104b757600080fd5b5061037760025481565b3480156104cd57600080fd5b506104e16104dc3660046129cb565b6110fb565b60405161026c959493929190612a1c565b3480156104fe57600080fd5b5061028a6111dd565b34801561051357600080fd5b50610527610522366004612a52565b6111ea565b60405161026c9190612ac7565b34801561054057600080fd5b5061037761054f3660046127e0565b6112e9565b34801561056057600080fd5b5061023e61056f3660046129cb565b6113aa565b34801561058057600080fd5b5061023e61058f3660046129cb565b611515565b3480156105a057600080fd5b5061023e6105af3660046127e0565b61165b565b3480156105c057600080fd5b506102606105cf3660046129f7565b611719565b3480156105e057600080fd5b506006546105f4906001600160a01b031681565b6040516001600160a01b03909116815260200161026c565b34801561061857600080fd5b506007546105f4906001600160a01b031681565b34801561063857600080fd5b50610377600081565b34801561064d57600080fd5b5061037761065c3660046127e0565b600b6020526000908152604090205481565b34801561067a57600080fd5b5061023e6106893660046127e0565b611742565b34801561069a57600080fd5b506105f46106a93660046129b2565b61191f565b3480156106ba57600080fd5b5061023e6106c9366004612b16565b611949565b3480156106da57600080fd5b5061023e6106e93660046127e0565b611a47565b3480156106fa57600080fd5b5060035461026090610100900460ff1681565b34801561071957600080fd5b5061023e6107283660046129f7565b611beb565b610738600033611719565b61075557604051634ca8886760e01b815260040160405180910390fd5b6001600160a01b0382166000908152600a602052604081205483910361079e5760405163f4c8fba360e01b81526001600160a01b03821660048201526024015b60405180910390fd5b6001600160a01b038316600081815260096020908152604091829020805460ff191686151590811790915591519182527f70d2c92da609a3045e6b2a21e9d4cd5dc02f15a3830961912b03f5b236b78c8b91015b60405180910390a2505050565b60006001600160e01b03198216637965db0b60e01b148061083057506301ffc9a760e01b6001600160e01b03198316145b92915050565b6004805461084390612bb5565b80601f016020809104026020016040519081016040528092919081815260200182805461086f90612bb5565b80156108bc5780601f10610891576101008083540402835291602001916108bc565b820191906000526020600020905b81548152906001019060200180831161089f57829003601f168201915b505050505081565b6108cf600033611719565b6108ec57604051634ca8886760e01b815260040160405180910390fd5b81516019811061090f5760405163104e7cef60e31b815260040160405180910390fd5b815181146109305760405163586cb9e160e01b815260040160405180910390fd5b60005b8181101561097f5761097784828151811061095057610950612be9565b602002602001015184838151811061096a5761096a612be9565b6020026020010151611515565b600101610933565b50505050565b610990600033611719565b6109ad57604051634ca8886760e01b815260040160405180910390fd5b600380548215156101000261ff00199091161790556040517fb08f70f6219c5c2ed5e08e7cf45080e4840fde880b27a0841faf45475cd02d2e906109f690831515815260200190565b60405180910390a150565b610a0c600033611719565b610a2957604051634ca8886760e01b815260040160405180910390fd5b8015610abe576001600160a01b0382166000908152600a602052604090205415610a665760405163094d784960e21b815260040160405180910390fd5b610a71600083610e5f565b6001600160a01b0382166000818152600d6020526040808220805460ff19166001179055517f44d6d25963f097ad14f29f06854a01f575648a1ef82f30e562ccd3889717e3399190a25050565b6007546001600160a01b0390811690831603610aed57604051634ca8886760e01b815260040160405180910390fd5b610af8600083611beb565b6001600160a01b0382166000818152600d6020526040808220805460ff19169055517fa3b62bc36326052d97ea62d63c3d60308ed4c3ea8ac079dd8499f1e9c4f80c0f9190a25b5050565b336000818152600a60205260408120549003610b7d5760405163f4c8fba360e01b81526001600160a01b0382166004820152602401610795565b600260015403610b9f5760405162461bcd60e51b815260040161079590612bff565b6002600155600354610100900460ff1615610bcd5760405163af9e1b4360e01b815260040160405180910390fd5b336000908152600860205260409020548210610bfc57604051632bb8b38560e11b815260040160405180910390fd5b336000908152600860205260408120805484908110610c1d57610c1d612be9565b906000526020600020906004020190508060020160019054906101000a900460ff1615610c5d57604051635a4a8a4360e11b815260040160405180910390fd5b3360009081526009602052604090205460ff168015610c815750600281015460ff16155b15610c9f57604051632b811a4760e11b815260040160405180910390fd5b8054610caa90611c10565b60028101805461ff001916610100179055805460405133917f0502837c293951f8cf960d168bcedcf3e4531ffd7010af47fe48bbff7917d9b491610cf691878252602082015260400190565b60405180910390a2805460405133917f485f1bb6524c663555797e00171a10f341656e59b02d6b557a0a38ba7d5d975191610d3691906001860190612c36565b60405180910390a250506001805550565b610d52600033611719565b610d6f57604051634ca8886760e01b815260040160405180910390fd5b6001600160a01b0382166000908152600860205260409020548110610da757604051632bb8b38560e11b815260040160405180910390fd5b6001600160a01b0382166000908152600860205260408120805483908110610dd157610dd1612be9565b906000526020600020906004020190508060020160019054906101000a900460ff1615610e1157604051635a4a8a4360e11b815260040160405180910390fd5b60028101805461ffff19166101001790556040516001600160a01b038416907f019d1297aa228eef7dd79b31640282cbe91fbc09dc0cbf5000ca5abf72805989906107f29085815260200190565b600082815260208190526040902060010154610e7a81611e11565b610e848383611e1b565b505050565b60035460ff16610eec5734600003610eb4576040516327738acf60e21b815260040160405180910390fd5b60405134815233907f8e47b87b0ef542cdfa1659c551d88bad38aa7f452d2bbb349ab7530dfec8be8f9060200160405180910390a250565b80600003610f0d576040516327738acf60e21b815260040160405180910390fd5b600654610f25906001600160a01b0316333084611e9f565b60065460405182815233916001600160a01b0316907fa17c2a1269d65f89b5c5688ce949fa4a7f59d8fcb9bbbac872d27a142b2b49e79060200160405180910390a35b50565b6001600160a01b0381163314610fdb5760405162461bcd60e51b815260206004820152602f60248201527f416363657373436f6e74726f6c3a2063616e206f6e6c792072656e6f756e636560448201526e103937b632b9903337b91039b2b63360891b6064820152608401610795565b610b3f8282611f0a565b610ff0600033611719565b61100d57604051634ca8886760e01b815260040160405180910390fd5b6001600160a01b038216600090815260086020526040902054811061104557604051632bb8b38560e11b815260040160405180910390fd5b6001600160a01b038216600090815260086020526040812080548390811061106f5761106f612be9565b906000526020600020906004020190508060020160019054906101000a900460ff16156110af57604051635a4a8a4360e11b815260040160405180910390fd5b60028101805460ff191660011790556040516001600160a01b038416907f6f856c863eba32b6aca7d24f96817572a1f48382957c3dc9e8d4741f38afd72e906107f29085815260200190565b6008602052816000526040600020818154811061111757600080fd5b90600052602060002090600402016000915091505080600001549080600101805461114190612bb5565b80601f016020809104026020016040519081016040528092919081815260200182805461116d90612bb5565b80156111ba5780601f1061118f576101008083540402835291602001916111ba565b820191906000526020600020905b81548152906001019060200180831161119d57829003601f168201915b505050506002830154600390930154919260ff8082169361010090920416915085565b6005805461084390612bb5565b60608160008167ffffffffffffffff811115611208576112086127fd565b60405190808252806020026020018201604052801561124d57816020015b60408051808201909152600080825260208201528152602001906001900390816112265790505b50905060005b828110156112e057600086868381811061126f5761126f612be9565b905060200201602081019061128491906127e0565b6001600160a01b0381166000908152600a602090815260409182902082518084019093528054835260010154908201528451919250908490849081106112cc576112cc612be9565b602090810291909101015250600101611253565b50949350505050565b6001600160a01b0381166000908152600a60205260408120548290820361132e5760405163f4c8fba360e01b81526001600160a01b0382166004820152602401610795565b6001600160a01b0383166000908152600a6020908152604080832081518083019092528054825260010154918101829052919061136b9042612cdf565b905060025481101561139f5760025482516000919061138a9084612cf2565b6113949190612d09565b94506113a492505050565b505191505b50919050565b6113b5600033611719565b6113d257604051634ca8886760e01b815260040160405180910390fd5b6001600160a01b0382166000908152600a60205260408120548391036114165760405163f4c8fba360e01b81526001600160a01b0382166004820152602401610795565b6509184e72a0008210801561142e575060035460ff16155b1561145b5760405163c281dd3b60e01b8152600481018390526509184e72a0006024820152604401610795565b670de0b6b3a764000082108015611474575060035460ff165b156114a35760405163c281dd3b60e01b815260048101839052670de0b6b3a76400006024820152604401610795565b6001600160a01b0383166000908152600a602052604090208281556002546114cb9042612cdf565b60018201556040518381526001600160a01b038516907f95089b8d5f5b1df642061c1947fbec71ede04a0aaa13de4b3e1054031610a0d5906020015b60405180910390a250505050565b611520600033611719565b61153d57604051634ca8886760e01b815260040160405180910390fd5b600c546019116115605760405163104e7cef60e31b815260040160405180910390fd5b61156a8282611f6f565b6040518060400160405280828152602001600254426115899190612cdf565b90526001600160a01b0383166000818152600a60209081526040822084518155930151600193840155600c80548085018255918190527fdf6966c971051c3d54ec59162606531493a51404a002842f56009d7e5cf4a8c790910180546001600160a01b031916909217909155546116009190612cdf565b6001600160a01b0383166000818152600b6020526040908190209290925590517f49707f6097e3d8b2d861adf67aadfb41a45746f9d46701065ed09ff12f9e41c39061164f9084815260200190565b60405180910390a25050565b6007546001600160a01b031633146116865760405163ea8e4eb560e01b815260040160405180910390fd5b6001600160a01b0381166116ad5760405163b5aaecfd60e01b815260040160405180910390fd5b600780546001600160a01b0319166001600160a01b0383169081179091556116d790600090611f0a565b6116e2600082611e1b565b6040516001600160a01b038216907fb8121b611a666c4d7c03b96ba9dbc315332dc3f1aa77a22c0a1c162e55c5c32b90600090a250565b6000918252602082815260408084206001600160a01b0393909316845291905290205460ff1690565b61174d600033611719565b61176a57604051634ca8886760e01b815260040160405180910390fd5b60026001540361178c5760405162461bcd60e51b815260040161079590612bff565b600260015560006001600160a01b0382166118585750478015611852576007546040516000916001600160a01b03169083908381818185875af1925050503d80600081146117f6576040519150601f19603f3d011682016040523d82523d6000602084013e6117fb565b606091505b505090508061181d57604051637d6a86b760e11b815260040160405180910390fd5b6040518281527f217f10a82904d12e2798042bffcd3f5c3cab8f7ea5638a4c0b804a5d6487c8fa9060200160405180910390a1505b50611918565b6040516370a0823160e01b81523060048201526001600160a01b038316906370a0823190602401602060405180830381865afa15801561189c573d6000803e3d6000fd5b505050506040513d601f19601f820116820180604052508101906118c09190612d2b565b90508015611916576007546118e2906001600160a01b03848116911683612094565b6040518181527f217f10a82904d12e2798042bffcd3f5c3cab8f7ea5638a4c0b804a5d6487c8fa9060200160405180910390a15b505b5060018055565b600c818154811061192f57600080fd5b6000918252602090912001546001600160a01b0316905081565b336000818152600a602052604081205490036119835760405163f4c8fba360e01b81526001600160a01b0382166004820152602401610795565b6002600154036119a55760405162461bcd60e51b815260040161079590612bff565b6002600155600354610100900460ff16156119d35760405163af9e1b4360e01b815260040160405180910390fd5b3360009081526009602052604090205460ff16156119fa576119f583836120c4565b611a3e565b611a0383611c10565b336001600160a01b03167f485f1bb6524c663555797e00171a10f341656e59b02d6b557a0a38ba7d5d97518484604051610d36929190612d44565b50506001805550565b611a52600033611719565b611a6f57604051634ca8886760e01b815260040160405180910390fd5b6001600160a01b0381166000908152600a6020526040812054829103611ab35760405163f4c8fba360e01b81526001600160a01b0382166004820152602401610795565b6001600160a01b0382166000908152600b6020526040812054600c8054919291611adf90600190612cdf565b81548110611aef57611aef612be9565b6000918252602090912001546001600160a01b03908116915084168114611b5e5780600c8381548110611b2457611b24612be9565b600091825260208083209190910180546001600160a01b0319166001600160a01b039485161790559183168152600b909152604090208290555b600c805480611b6f57611b6f612d5d565b60008281526020808220600019908401810180546001600160a01b03191690559092019092556001600160a01b038616808352600a82526040808420848155600101849055600b835280842084905551928352917f95089b8d5f5b1df642061c1947fbec71ede04a0aaa13de4b3e1054031610a0d59101611507565b600082815260208190526040902060010154611c0681611e11565b610e848383611f0a565b6000611c1b336112e9565b905081811015611c485760405163ba49c84f60e01b81526004810183905260248101829052604401610795565b336000908152600a60205260408120600181015460025491929091429190611c709083612cdf565b905080831015611c7e578092505b60035460ff16611d24574786811015611cb457604051631508de4560e01b81526004810188905260248101829052604401610795565b604051600090339089908381818185875af1925050503d8060008114611cf6576040519150601f19603f3d011682016040523d82523d6000602084013e611cfb565b606091505b5050905080611d1d57604051637d6a86b760e11b815260040160405180910390fd5b5050611dd7565b6006546040516370a0823160e01b81523060048201526000916001600160a01b0316906370a0823190602401602060405180830381865afa158015611d6d573d6000803e3d6000fd5b505050506040513d601f19601f82011682018060405250810190611d919190612d2b565b905086811015611dbe57604051631508de4560e01b81526004810188905260248101829052604401610795565b600654611dd5906001600160a01b03163389612094565b505b8486611de38585612cdf565b611ded9190612cf2565b611df79190612d09565b611e019084612d73565b8460010181905550505050505050565b610f68813361229d565b611e258282611719565b610b3f576000828152602081815260408083206001600160a01b03851684529091529020805460ff19166001179055611e5b3390565b6001600160a01b0316816001600160a01b0316837f2f8788117e7eff1d82e926ec794901d17c78024a50270940304540a733656f0d60405160405180910390a45050565b6040516001600160a01b038085166024830152831660448201526064810182905261097f9085906323b872dd60e01b906084015b60408051601f198184030181529190526020810180516001600160e01b03166001600160e01b031990931692909217909152612301565b611f148282611719565b15610b3f576000828152602081815260408083206001600160a01b0385168085529252808320805460ff1916905551339285917ff6391f5c32d9c69d2a47ea670b442974b53935d1edc7fd64eb21e047a839171b9190a45050565b6509184e72a00081108015611f87575060035460ff16155b15611fb45760405163c281dd3b60e01b8152600481018290526509184e72a0006024820152604401610795565b670de0b6b3a764000081108015611fcd575060035460ff165b15611ffc5760405163c281dd3b60e01b815260048101829052670de0b6b3a76400006024820152604401610795565b6001600160a01b0382166120235760405163094d784960e21b815260040160405180910390fd5b6001600160a01b0382166000908152600d602052604090205460ff161561205d5760405163094d784960e21b815260040160405180910390fd5b6001600160a01b0382166000908152600a602052604090205415610b3f57604051637fe8efbb60e01b815260040160405180910390fd5b6040516001600160a01b038316602482015260448101829052610e8490849063a9059cbb60e01b90606401611ed3565b33600081815260086020526040812054815b8181101561213c576001600160a01b038416600090815260086020526040902080548290811061210857612108612be9565b906000526020600020906004020160020160019054906101000a900460ff16612134576001925061213c565b6001016120d6565b50811561215c5760405163ef97f13b60e01b815260040160405180910390fd5b6000612167336112e9565b9050858110156121945760405163ba49c84f60e01b81526004810187905260248101829052604401610795565b336000908152600860209081526040808320815160a0810183528a81528084018a8152928101859052606081018590524260808201528154600181810184559286529390942084516004909402019283559051908201906121f59082612dd4565b50604082810151600283018054606086015115156101000261ff00199315159390931661ffff199091161791909117905560809092015160039091015533600090815260086020529081205461224d90600190612cdf565b9050336001600160a01b03167f0aed8180bd84f93fd8a307d9c534f2081366c2231daec597d51911c89fdae2a682898960405161228c93929190612e94565b60405180910390a250505050505050565b6122a78282611719565b610b3f576122bf816001600160a01b031660146123d3565b6122ca8360206123d3565b6040516020016122db929190612ebc565b60408051601f198184030181529082905262461bcd60e51b8252610795916004016127cd565b6000612356826040518060400160405280602081526020017f5361666545524332303a206c6f772d6c6576656c2063616c6c206661696c6564815250856001600160a01b03166125769092919063ffffffff16565b805190915015610e8457808060200190518101906123749190612f31565b610e845760405162461bcd60e51b815260206004820152602a60248201527f5361666545524332303a204552433230206f7065726174696f6e20646964206e6044820152691bdd081cdd58d8d9595960b21b6064820152608401610795565b606060006123e2836002612cf2565b6123ed906002612d73565b67ffffffffffffffff811115612405576124056127fd565b6040519080825280601f01601f19166020018201604052801561242f576020820181803683370190505b509050600360fc1b8160008151811061244a5761244a612be9565b60200101906001600160f81b031916908160001a905350600f60fb1b8160018151811061247957612479612be9565b60200101906001600160f81b031916908160001a905350600061249d846002612cf2565b6124a8906001612d73565b90505b6001811115612520576f181899199a1a9b1b9c1cb0b131b232b360811b85600f16601081106124dc576124dc612be9565b1a60f81b8282815181106124f2576124f2612be9565b60200101906001600160f81b031916908160001a90535060049490941c9361251981612f4e565b90506124ab565b50831561256f5760405162461bcd60e51b815260206004820181905260248201527f537472696e67733a20686578206c656e67746820696e73756666696369656e746044820152606401610795565b9392505050565b6060612585848460008561258d565b949350505050565b6060824710156125ee5760405162461bcd60e51b815260206004820152602660248201527f416464726573733a20696e73756666696369656e742062616c616e636520666f6044820152651c8818d85b1b60d21b6064820152608401610795565b6001600160a01b0385163b6126455760405162461bcd60e51b815260206004820152601d60248201527f416464726573733a2063616c6c20746f206e6f6e2d636f6e74726163740000006044820152606401610795565b600080866001600160a01b031685876040516126619190612f65565b60006040518083038185875af1925050503d806000811461269e576040519150601f19603f3d011682016040523d82523d6000602084013e6126a3565b606091505b50915091506126b38282866126be565b979650505050505050565b606083156126cd57508161256f565b8251156126dd5782518084602001fd5b8160405162461bcd60e51b815260040161079591906127cd565b6001600160a01b0381168114610f6857600080fd5b8015158114610f6857600080fd5b6000806040838503121561272d57600080fd5b8235612738816126f7565b915060208301356127488161270c565b809150509250929050565b60006020828403121561276557600080fd5b81356001600160e01b03198116811461256f57600080fd5b60005b83811015612798578181015183820152602001612780565b50506000910152565b600081518084526127b981602086016020860161277d565b601f01601f19169290920160200192915050565b60208152600061256f60208301846127a1565b6000602082840312156127f257600080fd5b813561256f816126f7565b634e487b7160e01b600052604160045260246000fd5b604051601f8201601f1916810167ffffffffffffffff8111828210171561283c5761283c6127fd565b604052919050565b600067ffffffffffffffff82111561285e5761285e6127fd565b5060051b60200190565b600082601f83011261287957600080fd5b8135602061288e61288983612844565b612813565b82815260059290921b840181019181810190868411156128ad57600080fd5b8286015b848110156128c857803583529183019183016128b1565b509695505050505050565b600080604083850312156128e657600080fd5b823567ffffffffffffffff808211156128fe57600080fd5b818501915085601f83011261291257600080fd5b8135602061292261288983612844565b82815260059290921b8401810191818101908984111561294157600080fd5b948201945b83861015612968578535612959816126f7565b82529482019490820190612946565b9650508601359250508082111561297e57600080fd5b5061298b85828601612868565b9150509250929050565b6000602082840312156129a757600080fd5b813561256f8161270c565b6000602082840312156129c457600080fd5b5035919050565b600080604083850312156129de57600080fd5b82356129e9816126f7565b946020939093013593505050565b60008060408385031215612a0a57600080fd5b823591506020830135612748816126f7565b85815260a060208201526000612a3560a08301876127a1565b941515604083015250911515606083015260809091015292915050565b60008060208385031215612a6557600080fd5b823567ffffffffffffffff80821115612a7d57600080fd5b818501915085601f830112612a9157600080fd5b813581811115612aa057600080fd5b8660208260051b8501011115612ab557600080fd5b60209290920196919550909350505050565b602080825282518282018190526000919060409081850190868401855b82811015612b0957815180518552860151868501529284019290850190600101612ae4565b5091979650505050505050565b60008060408385031215612b2957600080fd5b8235915060208084013567ffffffffffffffff80821115612b4957600080fd5b818601915086601f830112612b5d57600080fd5b813581811115612b6f57612b6f6127fd565b612b81601f8201601f19168501612813565b91508082528784828501011115612b9757600080fd5b80848401858401376000848284010152508093505050509250929050565b600181811c90821680612bc957607f821691505b6020821081036113a457634e487b7160e01b600052602260045260246000fd5b634e487b7160e01b600052603260045260246000fd5b6020808252601f908201527f5265656e7472616e637947756172643a207265656e7472616e742063616c6c00604082015260600190565b8281526000602060408184015260008454612c5081612bb5565b8060408701526060600180841660008114612c725760018114612c8c57612cba565b60ff1985168984015283151560051b890183019550612cba565b896000528660002060005b85811015612cb25781548b8201860152908301908801612c97565b8a0184019650505b50939998505050505050505050565b634e487b7160e01b600052601160045260246000fd5b8181038181111561083057610830612cc9565b808202811582820484141761083057610830612cc9565b600082612d2657634e487b7160e01b600052601260045260246000fd5b500490565b600060208284031215612d3d57600080fd5b5051919050565b82815260406020820152600061258560408301846127a1565b634e487b7160e01b600052603160045260246000fd5b8082018082111561083057610830612cc9565b601f821115610e8457600081815260208120601f850160051c81016020861015612dad5750805b601f850160051c820191505b81811015612dcc57828155600101612db9565b505050505050565b815167ffffffffffffffff811115612dee57612dee6127fd565b612e0281612dfc8454612bb5565b84612d86565b602080601f831160018114612e375760008415612e1f5750858301515b600019600386901b1c1916600185901b178555612dcc565b600085815260208120601f198616915b82811015612e6657888601518255948401946001909101908401612e47565b5085821015612e845787850151600019600388901b60f8161c191681555b5050505050600190811b01905550565b838152826020820152606060408201526000612eb360608301846127a1565b95945050505050565b7f416363657373436f6e74726f6c3a206163636f756e7420000000000000000000815260008351612ef481601785016020880161277d565b7001034b99036b4b9b9b4b733903937b6329607d1b6017918401918201528351612f2581602884016020880161277d565b01602801949350505050565b600060208284031215612f4357600080fd5b815161256f8161270c565b600081612f5d57612f5d612cc9565b506000190190565b60008251612f7781846020870161277d565b919091019291505056fea264697066735822122038188053f890b3a9c49dac6223fc60d1d3ee3ceb9cf5848385c8be1d01e945df64736f6c63430008140033a2646970667358221220effb1ac3b278319fe4e04a4786d4e0718bf2af48365f4a922008f1f7dbcc763264736f6c63430008140033",
  "devdoc": {
    "details": "Factory contract for deploying new Cohort contracts with an updatable creation fee",
    "kind": "dev",
    "methods": {
      "constructor": {
        "details": "Constructor sets the price feed address and initial creation fee",
        "params": {
          "_priceFeed": "Chainlink price feed address for ETH/USD"
        }
      },
      "createCohort(address,address,string,string,uint256,address[],uint256[])": {
        "details": "Creates a new Cohort contract",
        "params": {
          "_builders": "Array of builder addresses",
          "_caps": "Array of cap values for builders",
          "_cycle": "Cycle duration",
          "_description": "Description of the cohort",
          "_name": "Name of the cohort",
          "_primaryAdmin": "Address of the primary admin",
          "_tokenAddress": "Address of ERC20 token (zero address for ETH)"
        },
        "returns": {
          "_0": "Address of the newly created cohort"
        }
      },
      "getAllCohorts()": {
        "details": "Gets all created cohorts with their information",
        "returns": {
          "_0": "Array of CohortInfo structs"
        }
      },
      "getCohortByIndex(uint256)": {
        "details": "Gets cohort information by index",
        "params": {
          "_index": "Index of the cohort in the registry"
        },
        "returns": {
          "_0": "Cohort information"
        }
      },
      "getRequiredEthAmount()": {
        "details": "Calculates required ETH amount for creation fee based on current ETH price",
        "returns": {
          "_0": "Required ETH amount in wei"
        }
      },
      "getTotalCohorts()": {
        "details": "Gets the total number of created cohorts",
        "returns": {
          "_0": "Number of cohorts"
        }
      },
      "owner()": {
        "details": "Returns the address of the current owner."
      },
      "renounceOwnership()": {
        "details": "Leaves the contract without owner. It will not be possible to call `onlyOwner` functions anymore. Can only be called by the current owner. NOTE: Renouncing ownership will leave the contract without an owner, thereby removing any functionality that is only available to the owner."
      },
      "transferOwnership(address)": {
        "details": "Transfers ownership of the contract to a new account (`newOwner`). Can only be called by the current owner."
      },
      "updateCreationFee(uint256)": {
        "details": "Updates the creation fee amount",
        "params": {
          "_newFeeUSD": "New fee amount in USD (scaled by 1e18)"
        }
      },
      "updatePriceFeed(address)": {
        "details": "Updates the price feed address",
        "params": {
          "_newPriceFeed": "New price feed address"
        }
      }
    },
    "title": "CohortFactory",
    "version": 1
  },
  "userdoc": {
    "kind": "user",
    "methods": {},
    "version": 1
  },
  "storageLayout": {
    "storage": [
      {
        "astId": 446,
        "contract": "contracts/CohortFactory.sol:CohortFactory",
        "label": "_owner",
        "offset": 0,
        "slot": "0",
        "type": "t_address"
      },
      {
        "astId": 3066,
        "contract": "contracts/CohortFactory.sol:CohortFactory",
        "label": "priceFeed",
        "offset": 0,
        "slot": "1",
        "type": "t_contract(AggregatorV3Interface)45"
      },
      {
        "astId": 3068,
        "contract": "contracts/CohortFactory.sol:CohortFactory",
        "label": "creationFeeUSD",
        "offset": 0,
        "slot": "2",
        "type": "t_uint256"
      },
      {
        "astId": 3072,
        "contract": "contracts/CohortFactory.sol:CohortFactory",
        "label": "isCohort",
        "offset": 0,
        "slot": "3",
        "type": "t_mapping(t_address,t_bool)"
      },
      {
        "astId": 3077,
        "contract": "contracts/CohortFactory.sol:CohortFactory",
        "label": "cohortRegistry",
        "offset": 0,
        "slot": "4",
        "type": "t_mapping(t_uint256,t_struct(CohortInfo)3063_storage)"
      },
      {
        "astId": 3079,
        "contract": "contracts/CohortFactory.sol:CohortFactory",
        "label": "totalCohorts",
        "offset": 0,
        "slot": "5",
        "type": "t_uint256"
      }
    ],
    "types": {
      "t_address": {
        "encoding": "inplace",
        "label": "address",
        "numberOfBytes": "20"
      },
      "t_bool": {
        "encoding": "inplace",
        "label": "bool",
        "numberOfBytes": "1"
      },
      "t_contract(AggregatorV3Interface)45": {
        "encoding": "inplace",
        "label": "contract AggregatorV3Interface",
        "numberOfBytes": "20"
      },
      "t_mapping(t_address,t_bool)": {
        "encoding": "mapping",
        "key": "t_address",
        "label": "mapping(address => bool)",
        "numberOfBytes": "32",
        "value": "t_bool"
      },
      "t_mapping(t_uint256,t_struct(CohortInfo)3063_storage)": {
        "encoding": "mapping",
        "key": "t_uint256",
        "label": "mapping(uint256 => struct CohortFactory.CohortInfo)",
        "numberOfBytes": "32",
        "value": "t_struct(CohortInfo)3063_storage"
      },
      "t_string_storage": {
        "encoding": "bytes",
        "label": "string",
        "numberOfBytes": "32"
      },
      "t_struct(CohortInfo)3063_storage": {
        "encoding": "inplace",
        "label": "struct CohortFactory.CohortInfo",
        "members": [
          {
            "astId": 3058,
            "contract": "contracts/CohortFactory.sol:CohortFactory",
            "label": "cohortAddress",
            "offset": 0,
            "slot": "0",
            "type": "t_address"
          },
          {
            "astId": 3060,
            "contract": "contracts/CohortFactory.sol:CohortFactory",
            "label": "name",
            "offset": 0,
            "slot": "1",
            "type": "t_string_storage"
          },
          {
            "astId": 3062,
            "contract": "contracts/CohortFactory.sol:CohortFactory",
            "label": "creationTimestamp",
            "offset": 0,
            "slot": "2",
            "type": "t_uint256"
          }
        ],
        "numberOfBytes": "96"
      },
      "t_uint256": {
        "encoding": "inplace",
        "label": "uint256",
        "numberOfBytes": "32"
      }
    }
  }
}