{
  "address": "0x0abc1D7F4aE715C8b1434eeFE2b38B35CED252d1",
  "abi": [
    {
      "inputs": [
        {
          "internalType": "address",
          "name": "_primaryAdmin",
          "type": "address"
        },
        {
          "internalType": "address",
          "name": "_tokenAddress",
          "type": "address"
        },
        {
          "internalType": "string",
          "name": "_name",
          "type": "string"
        },
        {
          "internalType": "string",
          "name": "_description",
          "type": "string"
        },
        {
          "internalType": "uint256",
          "name": "_cycle",
          "type": "uint256"
        },
        {
          "internalType": "address[]",
          "name": "_builders",
          "type": "address[]"
        },
        {
          "internalType": "uint256[]",
          "name": "_caps",
          "type": "uint256[]"
        },
        {
          "internalType": "bool",
          "name": "_requiresApproval",
          "type": "bool"
        },
        {
          "internalType": "bool",
          "name": "_allowApplications",
          "type": "bool"
        }
      ],
      "stateMutability": "nonpayable",
      "type": "constructor"
    },
    {
      "inputs": [],
      "name": "AccessDenied",
      "type": "error"
    },
    {
      "inputs": [],
      "name": "AlreadyWithdrawnOneTime",
      "type": "error"
    },
    {
      "inputs": [
        {
          "internalType": "uint256",
          "name": "provided",
          "type": "uint256"
        },
        {
          "internalType": "uint256",
          "name": "minimum",
          "type": "uint256"
        }
      ],
      "name": "BelowMinimumCap",
      "type": "error"
    },
    {
      "inputs": [],
      "name": "BuilderAlreadyExists",
      "type": "error"
    },
    {
      "inputs": [],
      "name": "ContractIsLocked",
      "type": "error"
    },
    {
      "inputs": [
        {
          "internalType": "address",
          "name": "token",
          "type": "address"
        },
        {
          "internalType": "address",
          "name": "to",
          "type": "address"
        },
        {
          "internalType": "uint256",
          "name": "amount",
          "type": "uint256"
        }
      ],
      "name": "ERC20FundsTransferFailed",
      "type": "error"
    },
    {
      "inputs": [
        {
          "internalType": "address",
          "name": "token",
          "type": "address"
        },
        {
          "internalType": "address",
          "name": "recipient",
          "type": "address"
        }
      ],
      "name": "ERC20SendingFailed",
      "type": "error"
    },
    {
      "inputs": [],
      "name": "ERC20TransferFailed",
      "type": "error"
    },
    {
      "inputs": [],
      "name": "EtherSendingFailed",
      "type": "error"
    },
    {
      "inputs": [
        {
          "internalType": "uint256",
          "name": "requested",
          "type": "uint256"
        },
        {
          "internalType": "uint256",
          "name": "unlocked",
          "type": "uint256"
        }
      ],
      "name": "InsufficientFundsInContract",
      "type": "error"
    },
    {
      "inputs": [
        {
          "internalType": "uint256",
          "name": "requested",
          "type": "uint256"
        },
        {
          "internalType": "uint256",
          "name": "unlocked",
          "type": "uint256"
        }
      ],
      "name": "InsufficientInStream",
      "type": "error"
    },
    {
      "inputs": [],
      "name": "InvalidBuilderAddress",
      "type": "error"
    },
    {
      "inputs": [],
      "name": "InvalidNewAdminAddress",
      "type": "error"
    },
    {
      "inputs": [],
      "name": "InvalidTokenAddress",
      "type": "error"
    },
    {
      "inputs": [],
      "name": "LengthsMismatch",
      "type": "error"
    },
    {
      "inputs": [],
      "name": "MaxBuildersReached",
      "type": "error"
    },
    {
      "inputs": [
        {
          "internalType": "uint256",
          "name": "providedLength",
          "type": "uint256"
        },
        {
          "internalType": "uint256",
          "name": "maxLength",
          "type": "uint256"
        }
      ],
      "name": "MaxNameLength",
      "type": "error"
    },
    {
      "inputs": [
        {
          "internalType": "address",
          "name": "builder",
          "type": "address"
        }
      ],
      "name": "NoActiveStreamForBuilder",
      "type": "error"
    },
    {
      "inputs": [],
      "name": "NoFundsInContract",
      "type": "error"
    },
    {
      "inputs": [],
      "name": "NoValueSent",
      "type": "error"
    },
    {
      "inputs": [],
      "name": "NoWithdrawRequest",
      "type": "error"
    },
    {
      "inputs": [],
      "name": "NotAuthorized",
      "type": "error"
    },
    {
      "inputs": [],
      "name": "PendingWithdrawRequestExists",
      "type": "error"
    },
    {
      "inputs": [],
      "name": "WithdrawRequestAlreadyCompleted",
      "type": "error"
    },
    {
      "inputs": [],
      "name": "WithdrawRequestNotApproved",
      "type": "error"
    },
    {
      "inputs": [],
      "name": "WithdrawRequestNotFound",
      "type": "error"
    },
    {
      "anonymous": false,
      "inputs": [
        {
          "indexed": true,
          "internalType": "address",
          "name": "to",
          "type": "address"
        },
        {
          "indexed": false,
          "internalType": "uint256",
          "name": "amount",
          "type": "uint256"
        }
      ],
      "name": "AddBuilder",
      "type": "event"
    },
    {
      "anonymous": false,
      "inputs": [
        {
          "indexed": true,
          "internalType": "address",
          "name": "to",
          "type": "address"
        }
      ],
      "name": "AdminAdded",
      "type": "event"
    },
    {
      "anonymous": false,
      "inputs": [
        {
          "indexed": true,
          "internalType": "address",
          "name": "to",
          "type": "address"
        }
      ],
      "name": "AdminRemoved",
      "type": "event"
    },
    {
      "anonymous": false,
      "inputs": [
        {
          "indexed": false,
          "internalType": "bool",
          "name": "allowApplications",
          "type": "bool"
        }
      ],
      "name": "AllowApplicationsChanged",
      "type": "event"
    },
    {
      "anonymous": false,
      "inputs": [
        {
          "indexed": true,
          "internalType": "address",
          "name": "builder",
          "type": "address"
        },
        {
          "indexed": false,
          "internalType": "bool",
          "name": "requiresApproval",
          "type": "bool"
        }
      ],
      "name": "ApprovalRequirementChanged",
      "type": "event"
    },
    {
      "anonymous": false,
      "inputs": [
        {
          "indexed": false,
          "internalType": "uint256",
          "name": "amount",
          "type": "uint256"
        }
      ],
      "name": "ContractDrained",
      "type": "event"
    },
    {
      "anonymous": false,
      "inputs": [
        {
          "indexed": false,
          "internalType": "bool",
          "name": "locked",
          "type": "bool"
        }
      ],
      "name": "ContractLocked",
      "type": "event"
    },
    {
      "anonymous": false,
      "inputs": [
        {
          "indexed": false,
          "internalType": "string",
          "name": "description",
          "type": "string"
        }
      ],
      "name": "DescriptionUpdated",
      "type": "event"
    },
    {
      "anonymous": false,
      "inputs": [
        {
          "indexed": true,
          "internalType": "address",
          "name": "token",
          "type": "address"
        },
        {
          "indexed": true,
          "internalType": "address",
          "name": "from",
          "type": "address"
        },
        {
          "indexed": false,
          "internalType": "uint256",
          "name": "amount",
          "type": "uint256"
        }
      ],
      "name": "ERC20FundsReceived",
      "type": "event"
    },
    {
      "anonymous": false,
      "inputs": [
        {
          "indexed": true,
          "internalType": "address",
          "name": "from",
          "type": "address"
        },
        {
          "indexed": false,
          "internalType": "uint256",
          "name": "amount",
          "type": "uint256"
        }
      ],
      "name": "FundsReceived",
      "type": "event"
    },
    {
      "anonymous": false,
      "inputs": [
        {
          "indexed": true,
          "internalType": "address",
          "name": "newAdmin",
          "type": "address"
        }
      ],
      "name": "PrimaryAdminTransferred",
      "type": "event"
    },
    {
      "anonymous": false,
      "inputs": [
        {
          "indexed": true,
          "internalType": "bytes32",
          "name": "role",
          "type": "bytes32"
        },
        {
          "indexed": true,
          "internalType": "bytes32",
          "name": "previousAdminRole",
          "type": "bytes32"
        },
        {
          "indexed": true,
          "internalType": "bytes32",
          "name": "newAdminRole",
          "type": "bytes32"
        }
      ],
      "name": "RoleAdminChanged",
      "type": "event"
    },
    {
      "anonymous": false,
      "inputs": [
        {
          "indexed": true,
          "internalType": "bytes32",
          "name": "role",
          "type": "bytes32"
        },
        {
          "indexed": true,
          "internalType": "address",
          "name": "account",
          "type": "address"
        },
        {
          "indexed": true,
          "internalType": "address",
          "name": "sender",
          "type": "address"
        }
      ],
      "name": "RoleGranted",
      "type": "event"
    },
    {
      "anonymous": false,
      "inputs": [
        {
          "indexed": true,
          "internalType": "bytes32",
          "name": "role",
          "type": "bytes32"
        },
        {
          "indexed": true,
          "internalType": "address",
          "name": "account",
          "type": "address"
        },
        {
          "indexed": true,
          "internalType": "address",
          "name": "sender",
          "type": "address"
        }
      ],
      "name": "RoleRevoked",
      "type": "event"
    },
    {
      "anonymous": false,
      "inputs": [
        {
          "indexed": true,
          "internalType": "address",
          "name": "to",
          "type": "address"
        },
        {
          "indexed": false,
          "internalType": "uint256",
          "name": "amount",
          "type": "uint256"
        }
      ],
      "name": "UpdateBuilder",
      "type": "event"
    },
    {
      "anonymous": false,
      "inputs": [
        {
          "indexed": true,
          "internalType": "address",
          "name": "to",
          "type": "address"
        },
        {
          "indexed": false,
          "internalType": "uint256",
          "name": "amount",
          "type": "uint256"
        },
        {
          "indexed": false,
          "internalType": "string",
          "name": "reason",
          "type": "string"
        },
        {
          "indexed": false,
          "internalType": "string[]",
          "name": "projectIds",
          "type": "string[]"
        }
      ],
      "name": "Withdraw",
      "type": "event"
    },
    {
      "anonymous": false,
      "inputs": [
        {
          "indexed": true,
          "internalType": "address",
          "name": "builder",
          "type": "address"
        },
        {
          "indexed": false,
          "internalType": "uint256",
          "name": "requestId",
          "type": "uint256"
        }
      ],
      "name": "WithdrawApproved",
      "type": "event"
    },
    {
      "anonymous": false,
      "inputs": [
        {
          "indexed": true,
          "internalType": "address",
          "name": "builder",
          "type": "address"
        },
        {
          "indexed": false,
          "internalType": "uint256",
          "name": "requestId",
          "type": "uint256"
        },
        {
          "indexed": false,
          "internalType": "uint256",
          "name": "amount",
          "type": "uint256"
        }
      ],
      "name": "WithdrawCompleted",
      "type": "event"
    },
    {
      "anonymous": false,
      "inputs": [
        {
          "indexed": true,
          "internalType": "address",
          "name": "builder",
          "type": "address"
        },
        {
          "indexed": false,
          "internalType": "uint256",
          "name": "requestId",
          "type": "uint256"
        }
      ],
      "name": "WithdrawRejected",
      "type": "event"
    },
    {
      "anonymous": false,
      "inputs": [
        {
          "indexed": true,
          "internalType": "address",
          "name": "builder",
          "type": "address"
        },
        {
          "indexed": false,
          "internalType": "uint256",
          "name": "requestId",
          "type": "uint256"
        },
        {
          "indexed": false,
          "internalType": "uint256",
          "name": "amount",
          "type": "uint256"
        },
        {
          "indexed": false,
          "internalType": "string",
          "name": "reason",
          "type": "string"
        },
        {
          "indexed": false,
          "internalType": "string[]",
          "name": "projectIds",
          "type": "string[]"
        }
      ],
      "name": "WithdrawRequested",
      "type": "event"
    },
    {
      "inputs": [],
      "name": "DEFAULT_ADMIN_ROLE",
      "outputs": [
        {
          "internalType": "bytes32",
          "name": "",
          "type": "bytes32"
        }
      ],
      "stateMutability": "view",
      "type": "function"
    },
    {
      "inputs": [
        {
          "internalType": "uint256",
          "name": "",
          "type": "uint256"
        }
      ],
      "name": "activeBuilders",
      "outputs": [
        {
          "internalType": "address",
          "name": "",
          "type": "address"
        }
      ],
      "stateMutability": "view",
      "type": "function"
    },
    {
      "inputs": [
        {
          "internalType": "address[]",
          "name": "_builders",
          "type": "address[]"
        },
        {
          "internalType": "uint256[]",
          "name": "_caps",
          "type": "uint256[]"
        }
      ],
      "name": "addBatch",
      "outputs": [],
      "stateMutability": "nonpayable",
      "type": "function"
    },
    {
      "inputs": [
        {
          "internalType": "address payable",
          "name": "_builder",
          "type": "address"
        },
        {
          "internalType": "uint256",
          "name": "_cap",
          "type": "uint256"
        }
      ],
      "name": "addBuilderStream",
      "outputs": [],
      "stateMutability": "nonpayable",
      "type": "function"
    },
    {
      "inputs": [
        {
          "internalType": "address[]",
          "name": "_builders",
          "type": "address[]"
        }
      ],
      "name": "allBuildersData",
      "outputs": [
        {
          "components": [
            {
              "internalType": "uint256",
              "name": "cap",
              "type": "uint256"
            },
            {
              "internalType": "uint256",
              "name": "last",
              "type": "uint256"
            }
          ],
          "internalType": "struct ICohortStructs.BuilderStreamInfo[]",
          "name": "",
          "type": "tuple[]"
        }
      ],
      "stateMutability": "view",
      "type": "function"
    },
    {
      "inputs": [],
      "name": "allowApplications",
      "outputs": [
        {
          "internalType": "bool",
          "name": "",
          "type": "bool"
        }
      ],
      "stateMutability": "view",
      "type": "function"
    },
    {
      "inputs": [
        {
          "internalType": "address",
          "name": "_builder",
          "type": "address"
        },
        {
          "internalType": "uint256",
          "name": "_requestId",
          "type": "uint256"
        }
      ],
      "name": "approveWithdraw",
      "outputs": [],
      "stateMutability": "nonpayable",
      "type": "function"
    },
    {
      "inputs": [
        {
          "internalType": "address",
          "name": "",
          "type": "address"
        }
      ],
      "name": "builderIndex",
      "outputs": [
        {
          "internalType": "uint256",
          "name": "",
          "type": "uint256"
        }
      ],
      "stateMutability": "view",
      "type": "function"
    },
    {
      "inputs": [],
      "name": "cycle",
      "outputs": [
        {
          "internalType": "uint256",
          "name": "",
          "type": "uint256"
        }
      ],
      "stateMutability": "view",
      "type": "function"
    },
    {
      "inputs": [],
      "name": "description",
      "outputs": [
        {
          "internalType": "string",
          "name": "",
          "type": "string"
        }
      ],
      "stateMutability": "view",
      "type": "function"
    },
    {
      "inputs": [
        {
          "internalType": "address",
          "name": "_token",
          "type": "address"
        }
      ],
      "name": "drainContract",
      "outputs": [],
      "stateMutability": "nonpayable",
      "type": "function"
    },
    {
      "inputs": [
        {
          "internalType": "string",
          "name": "_description",
          "type": "string"
        }
      ],
      "name": "editDescription",
      "outputs": [],
      "stateMutability": "nonpayable",
      "type": "function"
    },
    {
      "inputs": [
        {
          "internalType": "uint256",
          "name": "_amount",
          "type": "uint256"
        }
      ],
      "name": "fundContract",
      "outputs": [],
      "stateMutability": "payable",
      "type": "function"
    },
    {
      "inputs": [
        {
          "internalType": "bytes32",
          "name": "role",
          "type": "bytes32"
        }
      ],
      "name": "getRoleAdmin",
      "outputs": [
        {
          "internalType": "bytes32",
          "name": "",
          "type": "bytes32"
        }
      ],
      "stateMutability": "view",
      "type": "function"
    },
    {
      "inputs": [
        {
          "internalType": "bytes32",
          "name": "role",
          "type": "bytes32"
        },
        {
          "internalType": "address",
          "name": "account",
          "type": "address"
        }
      ],
      "name": "grantRole",
      "outputs": [],
      "stateMutability": "nonpayable",
      "type": "function"
    },
    {
      "inputs": [
        {
          "internalType": "bytes32",
          "name": "role",
          "type": "bytes32"
        },
        {
          "internalType": "address",
          "name": "account",
          "type": "address"
        }
      ],
      "name": "hasRole",
      "outputs": [
        {
          "internalType": "bool",
          "name": "",
          "type": "bool"
        }
      ],
      "stateMutability": "view",
      "type": "function"
    },
    {
      "inputs": [
        {
          "internalType": "address",
          "name": "_address",
          "type": "address"
        }
      ],
      "name": "isAdmin",
      "outputs": [
        {
          "internalType": "bool",
          "name": "",
          "type": "bool"
        }
      ],
      "stateMutability": "view",
      "type": "function"
    },
    {
      "inputs": [],
      "name": "isERC20",
      "outputs": [
        {
          "internalType": "bool",
          "name": "",
          "type": "bool"
        }
      ],
      "stateMutability": "view",
      "type": "function"
    },
    {
      "inputs": [],
      "name": "isONETIME",
      "outputs": [
        {
          "internalType": "bool",
          "name": "",
          "type": "bool"
        }
      ],
      "stateMutability": "view",
      "type": "function"
    },
    {
      "inputs": [],
      "name": "locked",
      "outputs": [
        {
          "internalType": "bool",
          "name": "",
          "type": "bool"
        }
      ],
      "stateMutability": "view",
      "type": "function"
    },
    {
      "inputs": [
        {
          "internalType": "address",
          "name": "adminAddress",
          "type": "address"
        },
        {
          "internalType": "bool",
          "name": "shouldGrant",
          "type": "bool"
        }
      ],
      "name": "modifyAdminRole",
      "outputs": [],
      "stateMutability": "nonpayable",
      "type": "function"
    },
    {
      "inputs": [],
      "name": "name",
      "outputs": [
        {
          "internalType": "string",
          "name": "",
          "type": "string"
        }
      ],
      "stateMutability": "view",
      "type": "function"
    },
    {
      "inputs": [],
      "name": "primaryAdmin",
      "outputs": [
        {
          "internalType": "address",
          "name": "",
          "type": "address"
        }
      ],
      "stateMutability": "view",
      "type": "function"
    },
    {
      "inputs": [
        {
          "internalType": "address",
          "name": "_builder",
          "type": "address"
        },
        {
          "internalType": "uint256",
          "name": "_requestId",
          "type": "uint256"
        }
      ],
      "name": "rejectWithdraw",
      "outputs": [],
      "stateMutability": "nonpayable",
      "type": "function"
    },
    {
      "inputs": [
        {
          "internalType": "address",
          "name": "_builder",
          "type": "address"
        }
      ],
      "name": "removeBuilderStream",
      "outputs": [],
      "stateMutability": "nonpayable",
      "type": "function"
    },
    {
      "inputs": [
        {
          "internalType": "bytes32",
          "name": "role",
          "type": "bytes32"
        },
        {
          "internalType": "address",
          "name": "account",
          "type": "address"
        }
      ],
      "name": "renounceRole",
      "outputs": [],
      "stateMutability": "nonpayable",
      "type": "function"
    },
    {
      "inputs": [],
      "name": "requireApprovalForWithdrawals",
      "outputs": [
        {
          "internalType": "bool",
          "name": "",
          "type": "bool"
        }
      ],
      "stateMutability": "view",
      "type": "function"
    },
    {
      "inputs": [
        {
          "internalType": "address",
          "name": "",
          "type": "address"
        }
      ],
      "name": "requiresApproval",
      "outputs": [
        {
          "internalType": "bool",
          "name": "",
          "type": "bool"
        }
      ],
      "stateMutability": "view",
      "type": "function"
    },
    {
      "inputs": [
        {
          "internalType": "bytes32",
          "name": "role",
          "type": "bytes32"
        },
        {
          "internalType": "address",
          "name": "account",
          "type": "address"
        }
      ],
      "name": "revokeRole",
      "outputs": [],
      "stateMutability": "nonpayable",
      "type": "function"
    },
    {
      "inputs": [
        {
          "internalType": "address",
          "name": "_builder",
          "type": "address"
        },
        {
          "internalType": "bool",
          "name": "_requiresApproval",
          "type": "bool"
        }
      ],
      "name": "setBuilderApprovalRequirement",
      "outputs": [],
      "stateMutability": "nonpayable",
      "type": "function"
    },
    {
      "inputs": [
        {
          "internalType": "uint256",
          "name": "_amount",
          "type": "uint256"
        },
        {
          "internalType": "string",
          "name": "_reason",
          "type": "string"
        },
        {
          "internalType": "string[]",
          "name": "_projectIds",
          "type": "string[]"
        }
      ],
      "name": "streamWithdraw",
      "outputs": [],
      "stateMutability": "nonpayable",
      "type": "function"
    },
    {
      "inputs": [
        {
          "internalType": "address",
          "name": "",
          "type": "address"
        }
      ],
      "name": "streamingBuilders",
      "outputs": [
        {
          "internalType": "uint256",
          "name": "cap",
          "type": "uint256"
        },
        {
          "internalType": "uint256",
          "name": "last",
          "type": "uint256"
        }
      ],
      "stateMutability": "view",
      "type": "function"
    },
    {
      "inputs": [
        {
          "internalType": "bytes4",
          "name": "interfaceId",
          "type": "bytes4"
        }
      ],
      "name": "supportsInterface",
      "outputs": [
        {
          "internalType": "bool",
          "name": "",
          "type": "bool"
        }
      ],
      "stateMutability": "view",
      "type": "function"
    },
    {
      "inputs": [
        {
          "internalType": "bool",
          "name": "_enable",
          "type": "bool"
        }
      ],
      "name": "toggleAllowApplications",
      "outputs": [],
      "stateMutability": "nonpayable",
      "type": "function"
    },
    {
      "inputs": [
        {
          "internalType": "bool",
          "name": "_enable",
          "type": "bool"
        }
      ],
      "name": "toggleContractApprovalRequirement",
      "outputs": [],
      "stateMutability": "nonpayable",
      "type": "function"
    },
    {
      "inputs": [
        {
          "internalType": "bool",
          "name": "_enable",
          "type": "bool"
        }
      ],
      "name": "toggleLock",
      "outputs": [],
      "stateMutability": "nonpayable",
      "type": "function"
    },
    {
      "inputs": [],
      "name": "tokenAddress",
      "outputs": [
        {
          "internalType": "address",
          "name": "",
          "type": "address"
        }
      ],
      "stateMutability": "view",
      "type": "function"
    },
    {
      "inputs": [
        {
          "internalType": "address",
          "name": "newPrimaryAdmin",
          "type": "address"
        }
      ],
      "name": "transferPrimaryAdmin",
      "outputs": [],
      "stateMutability": "nonpayable",
      "type": "function"
    },
    {
      "inputs": [
        {
          "internalType": "address",
          "name": "_builder",
          "type": "address"
        }
      ],
      "name": "unlockedBuilderAmount",
      "outputs": [
        {
          "internalType": "uint256",
          "name": "",
          "type": "uint256"
        }
      ],
      "stateMutability": "view",
      "type": "function"
    },
    {
      "inputs": [
        {
          "internalType": "address payable",
          "name": "_builder",
          "type": "address"
        },
        {
          "internalType": "uint256",
          "name": "_newCap",
          "type": "uint256"
        }
      ],
      "name": "updateBuilderStreamCap",
      "outputs": [],
      "stateMutability": "nonpayable",
      "type": "function"
    },
    {
      "inputs": [
        {
          "internalType": "address",
          "name": "",
          "type": "address"
        },
        {
          "internalType": "uint256",
          "name": "",
          "type": "uint256"
        }
      ],
      "name": "withdrawRequests",
      "outputs": [
        {
          "internalType": "uint256",
          "name": "amount",
          "type": "uint256"
        },
        {
          "internalType": "string",
          "name": "reason",
          "type": "string"
        },
        {
          "internalType": "bool",
          "name": "approved",
          "type": "bool"
        },
        {
          "internalType": "bool",
          "name": "completed",
          "type": "bool"
        },
        {
          "internalType": "uint256",
          "name": "requestTime",
          "type": "uint256"
        }
      ],
      "stateMutability": "view",
      "type": "function"
    },
    {
      "stateMutability": "payable",
      "type": "receive"
    }
  ],
  "transactionHash": "0xba265ab1a04fe0197103704640e3ebf5393c82171c3cfe35f4171f1307cdb78b",
  "args": [
    "0xa8DF02c5607100Eb108B5C39dCdD8c2aE44185Df",
    "0x0000000000000000000000000000000000000000",
    "Cohort",
    "Cohort contract",
    2592000,
    [],
    [],
    false,
    false
  ],
  "numDeployments": 7,
  "solcInputHash": "066548a31036364889074223ad720ab1",
  "bytecode": "0x60806040523480156200001157600080fd5b5060405162004204380380620042048339810160408190526200003491620008de565b888888888888888888600180819055506028875111156200007a57865160405163062a8dff60e41b81526004810191909152602860248201526044015b60405180910390fd5b6200008760008a6200050d565b600780546001600160a01b0319166001600160a01b038b161790556004620000b0888262000a7c565b506005620000bf878262000a7c565b5060028590556003805464ffff000000191663010000008415150260ff60201b191617640100000000831515021790556001600160a01b038816156200012a576003805460ff19166001179055600680546001600160a01b038a166001600160a01b03199091161790555b8460000362000143576003805461ff0019166101001790555b835115620004f5578351601981106200016f5760405163104e7cef60e31b815260040160405180910390fd5b83518114620001915760405163586cb9e160e01b815260040160405180910390fd5b60005b81811015620004f257620001e7868281518110620001b657620001b662000b48565b6020026020010151868381518110620001d357620001d362000b48565b60200260200101516200059660201b60201c565b6002546000036200027557604051806040016040528086838151811062000212576200021262000b48565b60200260200101518152602001600019815250600860008884815181106200023e576200023e62000b48565b6020908102919091018101516001600160a01b031682528181019290925260400160002082518155910151600190910155620002fe565b604051806040016040528086838151811062000295576200029562000b48565b602002602001015181526020018842620002b0919062000b5e565b81525060086000888481518110620002cc57620002cc62000b48565b6020908102919091018101516001600160a01b0316825281810192909252604001600020825181559101516001909101555b600a86828151811062000315576200031562000b48565b60209081029190910181015182546001808201855560009485529290932090920180546001600160a01b0319166001600160a01b0390931692909217909155600a5462000363919062000b5e565b600960008884815181106200037c576200037c62000b48565b60200260200101516001600160a01b03166001600160a01b0316815260200190815260200160002081905550858181518110620003bd57620003bd62000b48565b60200260200101516001600160a01b03167f49707f6097e3d8b2d861adf67aadfb41a45746f9d46701065ed09ff12f9e41c386838151811062000404576200040462000b48565b60200260200101516040516200041c91815260200190565b60405180910390a28315620004e9576001600c600088848151811062000446576200044662000b48565b60200260200101516001600160a01b03166001600160a01b0316815260200190815260200160002060006101000a81548160ff0219169083151502179055508581815181106200049a576200049a62000b48565b60200260200101516001600160a01b03167f70d2c92da609a3045e6b2a21e9d4cd5dc02f15a3830961912b03f5b236b78c8b6001604051620004e0911515815260200190565b60405180910390a25b60010162000194565b50505b50505050505050505050505050505050505062000b80565b620005198282620006ab565b62000592576000828152602081815260408083206001600160a01b03851684529091529020805460ff19166001179055620005513390565b6001600160a01b0316816001600160a01b0316837f2f8788117e7eff1d82e926ec794901d17c78024a50270940304540a733656f0d60405160405180910390a45b5050565b6509184e72a00081108015620005af575060035460ff16155b15620005de5760405163c281dd3b60e01b8152600481018290526509184e72a000602482015260440162000071565b620f424081108015620005f3575060035460ff165b156200061f5760405163c281dd3b60e01b815260048101829052620f4240602482015260440162000071565b6001600160a01b038216620006475760405163094d784960e21b815260040160405180910390fd5b62000654600083620006ab565b15620006735760405163094d784960e21b815260040160405180910390fd5b6001600160a01b038216600090815260086020526040902054156200059257604051637fe8efbb60e01b815260040160405180910390fd5b6000828152602081815260408083206001600160a01b038516845290915290205460ff165b92915050565b80516001600160a01b0381168114620006ee57600080fd5b919050565b634e487b7160e01b600052604160045260246000fd5b604051601f8201601f191681016001600160401b0381118282101715620007345762000734620006f3565b604052919050565b600082601f8301126200074e57600080fd5b81516001600160401b038111156200076a576200076a620006f3565b602062000780601f8301601f1916820162000709565b82815285828487010111156200079557600080fd5b60005b83811015620007b557858101830151828201840152820162000798565b506000928101909101919091529392505050565b60006001600160401b03821115620007e557620007e5620006f3565b5060051b60200190565b600082601f8301126200080157600080fd5b815160206200081a6200081483620007c9565b62000709565b82815260059290921b840181019181810190868411156200083a57600080fd5b8286015b8481101562000860576200085281620006d6565b83529183019183016200083e565b509695505050505050565b600082601f8301126200087d57600080fd5b81516020620008906200081483620007c9565b82815260059290921b84018101918181019086841115620008b057600080fd5b8286015b84811015620008605780518352918301918301620008b4565b80518015158114620006ee57600080fd5b60008060008060008060008060006101208a8c031215620008fe57600080fd5b620009098a620006d6565b98506200091960208b01620006d6565b60408b01519098506001600160401b03808211156200093757600080fd5b620009458d838e016200073c565b985060608c01519150808211156200095c57600080fd5b6200096a8d838e016200073c565b975060808c0151965060a08c01519150808211156200098857600080fd5b620009968d838e01620007ef565b955060c08c0151915080821115620009ad57600080fd5b50620009bc8c828d016200086b565b935050620009cd60e08b01620008cd565b9150620009de6101008b01620008cd565b90509295985092959850929598565b600181811c9082168062000a0257607f821691505b60208210810362000a2357634e487b7160e01b600052602260045260246000fd5b50919050565b601f82111562000a7757600081815260208120601f850160051c8101602086101562000a525750805b601f850160051c820191505b8181101562000a735782815560010162000a5e565b5050505b505050565b81516001600160401b0381111562000a985762000a98620006f3565b62000ab08162000aa98454620009ed565b8462000a29565b602080601f83116001811462000ae8576000841562000acf5750858301515b600019600386901b1c1916600185901b17855562000a73565b600085815260208120601f198616915b8281101562000b195788860151825594840194600190910190840162000af8565b508582101562000b385787850151600019600388901b60f8161c191681555b5050505050600190811b01905550565b634e487b7160e01b600052603260045260246000fd5b81810381811115620006d057634e487b7160e01b600052601160045260246000fd5b6136748062000b906000396000f3fe6080604052600436106102495760003560e01c80637284e41611610139578063a46495ac116100b6578063b19cb8101161007a578063b19cb81014610736578063b5e125b914610755578063ccfeb5c214610775578063cf30901214610797578063d547741f146107b7578063fcb1eb05146107d757600080fd5b8063a46495ac14610689578063a4adcb61146106b6578063a6fedc70146106d6578063a7839334146106f6578063af4025321461071657600080fd5b80638c0a2d56116100fd5780638c0a2d56146105dc57806391d14854146105fc5780639d76ea581461061c5780639de1b23d14610654578063a217fddf1461067457600080fd5b80637284e4161461053a5780637c6f1b591461054f57806380c9b2f61461057c5780638216d5061461059c57806382c2aff7146105bc57600080fd5b80632eb67f53116101c7578063377c98151161018b578063377c98151461046a5780634e1ca120146104b35780636190c9d5146104d357806365cd2a4e146104e95780636d6ca3191461050957600080fd5b80632eb67f53146103dd5780632f2ff15d146103f75780633109b16e146104175780633519a2f81461043757806336568abe1461044a57600080fd5b80630d12cc681161020e5780630d12cc681461031f578063116e72db1461033f578063248a9ca31461035f57806324d7806c1461039d57806329d36c46146103bd57600080fd5b806208359d1461025557806301ffc9a71461027757806306fdde03146102ac578063070092d4146102ce5780630ca2c6a9146102fe57600080fd5b3661025057005b600080fd5b34801561026157600080fd5b50610275610270366004612c1c565b6107f7565b005b34801561028357600080fd5b50610297610292366004612c55565b6108c9565b60405190151581526020015b60405180910390f35b3480156102b857600080fd5b506102c1610900565b6040516102a39190612ccf565b3480156102da57600080fd5b506102976102e9366004612ce2565b600c6020526000908152604090205460ff1681565b34801561030a57600080fd5b50600354610297906301000000900460ff1681565b34801561032b57600080fd5b5061027561033a366004612dd5565b61098e565b34801561034b57600080fd5b5061027561035a366004612c1c565b610a4f565b34801561036b57600080fd5b5061038f61037a366004612e97565b60009081526020819052604090206001015490565b6040519081526020016102a3565b3480156103a957600080fd5b506102976103b8366004612ce2565b610b6a565b3480156103c957600080fd5b506102756103d8366004612eb0565b610b76565b3480156103e957600080fd5b506003546102979060ff1681565b34801561040357600080fd5b50610275610412366004612edc565b610c8e565b34801561042357600080fd5b50610275610432366004612f01565b610cb8565b610275610445366004612e97565b610d3a565b34801561045657600080fd5b50610275610465366004612edc565b610e16565b34801561047657600080fd5b5061049e610485366004612ce2565b6008602052600090815260409020805460019091015482565b604080519283526020830191909152016102a3565b3480156104bf57600080fd5b506102756104ce366004612eb0565b610e90565b3480156104df57600080fd5b5061038f60025481565b3480156104f557600080fd5b50610275610504366004612f01565b6110e0565b34801561051557600080fd5b50610529610524366004612eb0565b61115e565b6040516102a3959493929190612f1e565b34801561054657600080fd5b506102c1611240565b34801561055b57600080fd5b5061056f61056a366004612f54565b61124d565b6040516102a39190612fc9565b34801561058857600080fd5b5061038f610597366004612ce2565b61134c565b3480156105a857600080fd5b506102756105b7366004612eb0565b611441565b3480156105c857600080fd5b506102756105d7366004612eb0565b6115b6565b3480156105e857600080fd5b506102756105f7366004612ce2565b6117cb565b34801561060857600080fd5b50610297610617366004612edc565b611889565b34801561062857600080fd5b5060065461063c906001600160a01b031681565b6040516001600160a01b0390911681526020016102a3565b34801561066057600080fd5b5060075461063c906001600160a01b031681565b34801561068057600080fd5b5061038f600081565b34801561069557600080fd5b5061038f6106a4366004612ce2565b60096020526000908152604090205481565b3480156106c257600080fd5b506102756106d1366004612ce2565b6118b2565b3480156106e257600080fd5b506102756106f1366004613088565b611a8f565b34801561070257600080fd5b5061063c610711366004612e97565b611af3565b34801561072257600080fd5b50610275610731366004612ce2565b611b1d565b34801561074257600080fd5b5060035461029790610100900460ff1681565b34801561076157600080fd5b506102756107703660046130bd565b611cc1565b34801561078157600080fd5b5060035461029790640100000000900460ff1681565b3480156107a357600080fd5b506003546102979062010000900460ff1681565b3480156107c357600080fd5b506102756107d2366004612edc565b611dec565b3480156107e357600080fd5b506102756107f2366004612f01565b611e11565b610802600033611889565b61081f57604051634ca8886760e01b815260040160405180910390fd5b6001600160a01b0382166000908152600860205260408120548391036108685760405163f4c8fba360e01b81526001600160a01b03821660048201526024015b60405180910390fd5b6001600160a01b0383166000818152600c6020908152604091829020805460ff191686151590811790915591519182527f70d2c92da609a3045e6b2a21e9d4cd5dc02f15a3830961912b03f5b236b78c8b91015b60405180910390a2505050565b60006001600160e01b03198216637965db0b60e01b14806108fa57506301ffc9a760e01b6001600160e01b03198316145b92915050565b6004805461090d9061319e565b80601f01602080910402602001604051908101604052809291908181526020018280546109399061319e565b80156109865780601f1061095b57610100808354040283529160200191610986565b820191906000526020600020905b81548152906001019060200180831161096957829003601f168201915b505050505081565b610999600033611889565b6109b657604051634ca8886760e01b815260040160405180910390fd5b8151601981106109d95760405163104e7cef60e31b815260040160405180910390fd5b815181146109fa5760405163586cb9e160e01b815260040160405180910390fd5b60005b81811015610a4957610a41848281518110610a1a57610a1a6131d2565b6020026020010151848381518110610a3457610a346131d2565b60200260200101516115b6565b6001016109fd565b50505050565b610a5a600033611889565b610a7757604051634ca8886760e01b815260040160405180910390fd5b8015610af7576001600160a01b03821660009081526008602052604090205415610ab45760405163094d784960e21b815260040160405180910390fd5b610abf600083610c8e565b6040516001600160a01b038316907f44d6d25963f097ad14f29f06854a01f575648a1ef82f30e562ccd3889717e33990600090a25050565b6007546001600160a01b0390811690831603610b2657604051634ca8886760e01b815260040160405180910390fd5b610b31600083611dec565b6040516001600160a01b038316907fa3b62bc36326052d97ea62d63c3d60308ed4c3ea8ac079dd8499f1e9c4f80c0f90600090a25b5050565b60006108fa8183611889565b610b81600033611889565b610b9e57604051634ca8886760e01b815260040160405180910390fd5b6001600160a01b0382166000908152600b60205260409020548110610bd657604051632bb8b38560e11b815260040160405180910390fd5b6001600160a01b0382166000908152600b60205260408120805483908110610c0057610c006131d2565b906000526020600020906005020190508060020160019054906101000a900460ff1615610c4057604051635a4a8a4360e11b815260040160405180910390fd5b60028101805461ffff19166101001790556040516001600160a01b038416907f019d1297aa228eef7dd79b31640282cbe91fbc09dc0cbf5000ca5abf72805989906108bc9085815260200190565b600082815260208190526040902060010154610ca981611e88565b610cb38383611e92565b505050565b610cc3600033611889565b610ce057604051634ca8886760e01b815260040160405180910390fd5b6003805482151563010000000263ff0000001990911617905560405130907f70d2c92da609a3045e6b2a21e9d4cd5dc02f15a3830961912b03f5b236b78c8b90610d2f90841515815260200190565b60405180910390a250565b60035460ff16610d975734600003610d65576040516327738acf60e21b815260040160405180910390fd5b60405134815233907f8e47b87b0ef542cdfa1659c551d88bad38aa7f452d2bbb349ab7530dfec8be8f90602001610d2f565b80600003610db8576040516327738acf60e21b815260040160405180910390fd5b600654610dd0906001600160a01b0316333084611f16565b60065460405182815233916001600160a01b0316907fa17c2a1269d65f89b5c5688ce949fa4a7f59d8fcb9bbbac872d27a142b2b49e79060200160405180910390a35b50565b6001600160a01b0381163314610e865760405162461bcd60e51b815260206004820152602f60248201527f416363657373436f6e74726f6c3a2063616e206f6e6c792072656e6f756e636560448201526e103937b632b9903337b91039b2b63360891b606482015260840161085f565b610b668282611f81565b610e9b600033611889565b610eb857604051634ca8886760e01b815260040160405180910390fd5b600260015403610eda5760405162461bcd60e51b815260040161085f906131e8565b60026001556001600160a01b0382166000908152600b60205260409020548110610f1757604051632bb8b38560e11b815260040160405180910390fd5b6001600160a01b0382166000908152600b60205260408120805483908110610f4157610f416131d2565b906000526020600020906005020190508060020160019054906101000a900460ff1615610f8157604051635a4a8a4360e11b815260040160405180910390fd5b60028101805460ff191660011790556040516001600160a01b038416907f6f856c863eba32b6aca7d24f96817572a1f48382957c3dc9e8d4741f38afd72e90610fcd9085815260200190565b60405180910390a260035462010000900460ff1615610fff5760405163af9e1b4360e01b815260040160405180910390fd5b600354610100900460ff161561101d5761101883611fe6565b61102b565b61102b838260000154612195565b60028101805461ff00191661010017905580546040516001600160a01b038516917f0502837c293951f8cf960d168bcedcf3e4531ffd7010af47fe48bbff7917d9b49161108091868252602082015260400190565b60405180910390a2826001600160a01b03167f09d77f00a306c55a478fa65582692f6acbb7874b86f1f8f1739889fdade7477a826000015483600101846004016040516110cf9392919061329c565b60405180910390a250506001805550565b6110eb600033611889565b61110857604051634ca8886760e01b815260040160405180910390fd5b60038054821515620100000262ff0000199091161790556040517fb08f70f6219c5c2ed5e08e7cf45080e4840fde880b27a0841faf45475cd02d2e9061115390831515815260200190565b60405180910390a150565b600b602052816000526040600020818154811061117a57600080fd5b9060005260206000209060050201600091509150508060000154908060010180546111a49061319e565b80601f01602080910402602001604051908101604052809291908181526020018280546111d09061319e565b801561121d5780601f106111f25761010080835404028352916020019161121d565b820191906000526020600020905b81548152906001019060200180831161120057829003601f168201915b505050506002830154600390930154919260ff8082169361010090920416915085565b6005805461090d9061319e565b60608160008167ffffffffffffffff81111561126b5761126b612cff565b6040519080825280602002602001820160405280156112b057816020015b60408051808201909152600080825260208201528152602001906001900390816112895790505b50905060005b828110156113435760008686838181106112d2576112d26131d2565b90506020020160208101906112e79190612ce2565b6001600160a01b038116600090815260086020908152604091829020825180840190935280548352600101549082015284519192509084908490811061132f5761132f6131d2565b6020908102919091010152506001016112b6565b50949350505050565b6001600160a01b038116600090815260086020526040812054829082036113915760405163f4c8fba360e01b81526001600160a01b038216600482015260240161085f565b6001600160a01b0383166000908152600860209081526040918290208251808401909352805483526001015490820152600354610100900460ff16156113f0576000198160200151036113e65751915061143b565b600092505061143b565b6000816020015142611402919061332f565b9050600254811015611436576002548251600091906114219084613342565b61142b9190613359565b945061143b92505050565b505191505b50919050565b61144c600033611889565b61146957604051634ca8886760e01b815260040160405180910390fd5b6001600160a01b0382166000908152600860205260408120548391036114ad5760405163f4c8fba360e01b81526001600160a01b038216600482015260240161085f565b6509184e72a000821080156114c5575060035460ff16155b156114f25760405163c281dd3b60e01b8152600481018390526509184e72a000602482015260440161085f565b620f424082108015611506575060035460ff165b156115305760405163c281dd3b60e01b815260048101839052620f4240602482015260440161085f565b6001600160a01b0383166000908152600860205260409020828155600354610100900460ff1661156d57600254611567904261332f565b60018201555b836001600160a01b03167f95089b8d5f5b1df642061c1947fbec71ede04a0aaa13de4b3e1054031610a0d5846040516115a891815260200190565b60405180910390a250505050565b6115c1600033611889565b6115de57604051634ca8886760e01b815260040160405180910390fd5b600a546019116116015760405163104e7cef60e31b815260040160405180910390fd5b61160b82826123a7565b600354610100900460ff161561165b5760408051808201825282815260001960208083019182526001600160a01b03861660009081526008909152929092209051815590516001909101556116a5565b60405180604001604052808281526020016002544261167a919061332f565b90526001600160a01b0383166000908152600860209081526040909120825181559101516001909101555b600a80546001808201835560008390527fc65a7bb8d6351c1cf70c95a316cc6a92839c986682d98bc35f958f4883f9d2a890910180546001600160a01b0319166001600160a01b03861617905590546116fe919061332f565b6001600160a01b0383166000908152600960205260409020556003546301000000900460ff1615611784576001600160a01b0382166000818152600c6020908152604091829020805460ff1916600190811790915591519182527f70d2c92da609a3045e6b2a21e9d4cd5dc02f15a3830961912b03f5b236b78c8b910160405180910390a25b816001600160a01b03167f49707f6097e3d8b2d861adf67aadfb41a45746f9d46701065ed09ff12f9e41c3826040516117bf91815260200190565b60405180910390a25050565b6007546001600160a01b031633146117f65760405163ea8e4eb560e01b815260040160405180910390fd5b6001600160a01b03811661181d5760405163b5aaecfd60e01b815260040160405180910390fd5b600780546001600160a01b0319166001600160a01b03831690811790915561184790600090611f81565b611852600082611e92565b6040516001600160a01b038216907fb8121b611a666c4d7c03b96ba9dbc315332dc3f1aa77a22c0a1c162e55c5c32b90600090a250565b6000918252602082815260408084206001600160a01b0393909316845291905290205460ff1690565b6118bd600033611889565b6118da57604051634ca8886760e01b815260040160405180910390fd5b6002600154036118fc5760405162461bcd60e51b815260040161085f906131e8565b600260015560006001600160a01b0382166119c857504780156119c2576007546040516000916001600160a01b03169083908381818185875af1925050503d8060008114611966576040519150601f19603f3d011682016040523d82523d6000602084013e61196b565b606091505b505090508061198d57604051637d6a86b760e11b815260040160405180910390fd5b6040518281527f217f10a82904d12e2798042bffcd3f5c3cab8f7ea5638a4c0b804a5d6487c8fa9060200160405180910390a1505b50611a88565b6040516370a0823160e01b81523060048201526001600160a01b038316906370a0823190602401602060405180830381865afa158015611a0c573d6000803e3d6000fd5b505050506040513d601f19601f82011682018060405250810190611a30919061337b565b90508015611a8657600754611a52906001600160a01b038481169116836124b1565b6040518181527f217f10a82904d12e2798042bffcd3f5c3cab8f7ea5638a4c0b804a5d6487c8fa9060200160405180910390a15b505b5060018055565b611a9a600033611889565b611ab757604051634ca8886760e01b815260040160405180910390fd5b6005611ac382826133e2565b507fdbdc84bdf4319ffa157f81d25dd54211090e37ca6a9d0b90e2b8098aaceed135816040516111539190612ccf565b600a8181548110611b0357600080fd5b6000918252602090912001546001600160a01b0316905081565b611b28600033611889565b611b4557604051634ca8886760e01b815260040160405180910390fd5b6001600160a01b038116600090815260086020526040812054829103611b895760405163f4c8fba360e01b81526001600160a01b038216600482015260240161085f565b6001600160a01b038216600090815260096020526040812054600a8054919291611bb59060019061332f565b81548110611bc557611bc56131d2565b6000918252602090912001546001600160a01b03908116915084168114611c345780600a8381548110611bfa57611bfa6131d2565b600091825260208083209190910180546001600160a01b0319166001600160a01b0394851617905591831681526009909152604090208290555b600a805480611c4557611c456134a2565b60008281526020808220600019908401810180546001600160a01b03191690559092019092556001600160a01b0386168083526008825260408084208481556001018490556009835280842084905551928352917f95089b8d5f5b1df642061c1947fbec71ede04a0aaa13de4b3e1054031610a0d591016115a8565b336000818152600860205260408120549003611cfb5760405163f4c8fba360e01b81526001600160a01b038216600482015260240161085f565b600260015403611d1d5760405162461bcd60e51b815260040161085f906131e8565b600260015560035462010000900460ff1615611d4c5760405163af9e1b4360e01b815260040160405180910390fd5b336000908152600c602052604090205460ff1615611d7457611d6f8484846124e1565b611de2565b600354610100900460ff1615611d9257611d8d33611fe6565b611d9c565b611d9c3385612195565b336001600160a01b03167f09d77f00a306c55a478fa65582692f6acbb7874b86f1f8f1739889fdade7477a858585604051611dd993929190613500565b60405180910390a25b5050600180555050565b600082815260208190526040902060010154611e0781611e88565b610cb38383611f81565b611e1c600033611889565b611e3957604051634ca8886760e01b815260040160405180910390fd5b600380548215156401000000000264ff00000000199091161790556040517f3c46c937a5f50007b98268a532baaa2cca5ab4e9ef4937d4c6929899e18a9e519061115390831515815260200190565b610e1381336126e2565b611e9c8282611889565b610b66576000828152602081815260408083206001600160a01b03851684529091529020805460ff19166001179055611ed23390565b6001600160a01b0316816001600160a01b0316837f2f8788117e7eff1d82e926ec794901d17c78024a50270940304540a733656f0d60405160405180910390a45050565b6040516001600160a01b0380851660248301528316604482015260648101829052610a499085906323b872dd60e01b906084015b60408051601f198184030181529190526020810180516001600160e01b03166001600160e01b031990931692909217909152612746565b611f8b8282611889565b15610b66576000828152602081815260408083206001600160a01b0385168085529252808320805460ff1916905551339285917ff6391f5c32d9c69d2a47ea670b442974b53935d1edc7fd64eb21e047a839171b9190a45050565b6001600160a01b038116600090815260086020526040902060018101546000191461202457604051632de4346760e11b815260040160405180910390fd5b805460035460ff166120d757478181101561205c57604051631508de4560e01b8152600481018390526024810182905260440161085f565b6000846001600160a01b03168360405160006040518083038185875af1925050503d80600081146120a9576040519150601f19603f3d011682016040523d82523d6000602084013e6120ae565b606091505b50509050806120d057604051637d6a86b760e11b815260040160405180910390fd5b505061218a565b6006546040516370a0823160e01b81523060048201526000916001600160a01b0316906370a0823190602401602060405180830381865afa158015612120573d6000803e3d6000fd5b505050506040513d601f19601f82011682018060405250810190612144919061337b565b90508181101561217157604051631508de4560e01b8152600481018390526024810182905260440161085f565b600654612188906001600160a01b031685846124b1565b505b504260019091015550565b60006121a08361134c565b9050818110156121cd5760405163ba49c84f60e01b8152600481018390526024810182905260440161085f565b6001600160a01b03831660009081526008602052604081206001810154600254919290916121fb904261332f565b905080821015612209578091505b60035460ff166122ba57478581101561223f57604051631508de4560e01b8152600481018790526024810182905260440161085f565b6000876001600160a01b03168760405160006040518083038185875af1925050503d806000811461228c576040519150601f19603f3d011682016040523d82523d6000602084013e612291565b606091505b50509050806122b357604051637d6a86b760e11b815260040160405180910390fd5b505061236d565b6006546040516370a0823160e01b81523060048201526000916001600160a01b0316906370a0823190602401602060405180830381865afa158015612303573d6000803e3d6000fd5b505050506040513d601f19601f82011682018060405250810190612327919061337b565b90508581101561235457604051631508de4560e01b8152600481018790526024810182905260440161085f565b60065461236b906001600160a01b031688886124b1565b505b8385612379844261332f565b6123839190613342565b61238d9190613359565b6123979083613535565b8360010181905550505050505050565b6509184e72a000811080156123bf575060035460ff16155b156123ec5760405163c281dd3b60e01b8152600481018290526509184e72a000602482015260440161085f565b620f424081108015612400575060035460ff165b1561242a5760405163c281dd3b60e01b815260048101829052620f4240602482015260440161085f565b6001600160a01b0382166124515760405163094d784960e21b815260040160405180910390fd5b61245c600083611889565b1561247a5760405163094d784960e21b815260040160405180910390fd5b6001600160a01b03821660009081526008602052604090205415610b6657604051637fe8efbb60e01b815260040160405180910390fd5b6040516001600160a01b038316602482015260448101829052610cb390849063a9059cbb60e01b90606401611f4a565b336000818152600b6020526040812054815b81811015612559576001600160a01b0384166000908152600b60205260409020805482908110612525576125256131d2565b906000526020600020906005020160020160019054906101000a900460ff166125515760019250612559565b6001016124f3565b5081156125795760405163ef97f13b60e01b815260040160405180910390fd5b60006125843361134c565b9050868110156125b15760405163ba49c84f60e01b8152600481018890526024810182905260440161085f565b336000908152600b60209081526040808320815160c0810183528b81528084018b81529281018590526060810185905242608082015260a081018a905281546001818101845592865293909420845160059094020192835590519082019061261990826133e2565b506040820151600282018054606085015115156101000261ff00199315159390931661ffff19909116179190911790556080820151600382015560a0820151805161266e916004840191602090910190612b3c565b5050336000908152600b602052604081205490915061268f9060019061332f565b9050336001600160a01b03167f1a7e8c515eb84c62172170a475f2fb01cc078f35cb211cc490151295ac73307c828a8a8a6040516126d09493929190613548565b60405180910390a25050505050505050565b6126ec8282611889565b610b6657612704816001600160a01b03166014612818565b61270f836020612818565b604051602001612720929190613579565b60408051601f198184030181529082905262461bcd60e51b825261085f91600401612ccf565b600061279b826040518060400160405280602081526020017f5361666545524332303a206c6f772d6c6576656c2063616c6c206661696c6564815250856001600160a01b03166129bb9092919063ffffffff16565b805190915015610cb357808060200190518101906127b991906135ee565b610cb35760405162461bcd60e51b815260206004820152602a60248201527f5361666545524332303a204552433230206f7065726174696f6e20646964206e6044820152691bdd081cdd58d8d9595960b21b606482015260840161085f565b60606000612827836002613342565b612832906002613535565b67ffffffffffffffff81111561284a5761284a612cff565b6040519080825280601f01601f191660200182016040528015612874576020820181803683370190505b509050600360fc1b8160008151811061288f5761288f6131d2565b60200101906001600160f81b031916908160001a905350600f60fb1b816001815181106128be576128be6131d2565b60200101906001600160f81b031916908160001a90535060006128e2846002613342565b6128ed906001613535565b90505b6001811115612965576f181899199a1a9b1b9c1cb0b131b232b360811b85600f1660108110612921576129216131d2565b1a60f81b828281518110612937576129376131d2565b60200101906001600160f81b031916908160001a90535060049490941c9361295e8161360b565b90506128f0565b5083156129b45760405162461bcd60e51b815260206004820181905260248201527f537472696e67733a20686578206c656e67746820696e73756666696369656e74604482015260640161085f565b9392505050565b60606129ca84846000856129d2565b949350505050565b606082471015612a335760405162461bcd60e51b815260206004820152602660248201527f416464726573733a20696e73756666696369656e742062616c616e636520666f6044820152651c8818d85b1b60d21b606482015260840161085f565b6001600160a01b0385163b612a8a5760405162461bcd60e51b815260206004820152601d60248201527f416464726573733a2063616c6c20746f206e6f6e2d636f6e7472616374000000604482015260640161085f565b600080866001600160a01b03168587604051612aa69190613622565b60006040518083038185875af1925050503d8060008114612ae3576040519150601f19603f3d011682016040523d82523d6000602084013e612ae8565b606091505b5091509150612af8828286612b03565b979650505050505050565b60608315612b125750816129b4565b825115612b225782518084602001fd5b8160405162461bcd60e51b815260040161085f9190612ccf565b828054828255906000526020600020908101928215612b82579160200282015b82811115612b825782518290612b7290826133e2565b5091602001919060010190612b5c565b50612b8e929150612b92565b5090565b80821115612b8e576000612ba68282612baf565b50600101612b92565b508054612bbb9061319e565b6000825580601f10612bcb575050565b601f016020900490600052602060002090810190610e1391905b80821115612b8e5760008155600101612be5565b6001600160a01b0381168114610e1357600080fd5b8015158114610e1357600080fd5b60008060408385031215612c2f57600080fd5b8235612c3a81612bf9565b91506020830135612c4a81612c0e565b809150509250929050565b600060208284031215612c6757600080fd5b81356001600160e01b0319811681146129b457600080fd5b60005b83811015612c9a578181015183820152602001612c82565b50506000910152565b60008151808452612cbb816020860160208601612c7f565b601f01601f19169290920160200192915050565b6020815260006129b46020830184612ca3565b600060208284031215612cf457600080fd5b81356129b481612bf9565b634e487b7160e01b600052604160045260246000fd5b604051601f8201601f1916810167ffffffffffffffff81118282101715612d3e57612d3e612cff565b604052919050565b600067ffffffffffffffff821115612d6057612d60612cff565b5060051b60200190565b600082601f830112612d7b57600080fd5b81356020612d90612d8b83612d46565b612d15565b82815260059290921b84018101918181019086841115612daf57600080fd5b8286015b84811015612dca5780358352918301918301612db3565b509695505050505050565b60008060408385031215612de857600080fd5b823567ffffffffffffffff80821115612e0057600080fd5b818501915085601f830112612e1457600080fd5b81356020612e24612d8b83612d46565b82815260059290921b84018101918181019089841115612e4357600080fd5b948201945b83861015612e6a578535612e5b81612bf9565b82529482019490820190612e48565b96505086013592505080821115612e8057600080fd5b50612e8d85828601612d6a565b9150509250929050565b600060208284031215612ea957600080fd5b5035919050565b60008060408385031215612ec357600080fd5b8235612ece81612bf9565b946020939093013593505050565b60008060408385031215612eef57600080fd5b823591506020830135612c4a81612bf9565b600060208284031215612f1357600080fd5b81356129b481612c0e565b85815260a060208201526000612f3760a0830187612ca3565b941515604083015250911515606083015260809091015292915050565b60008060208385031215612f6757600080fd5b823567ffffffffffffffff80821115612f7f57600080fd5b818501915085601f830112612f9357600080fd5b813581811115612fa257600080fd5b8660208260051b8501011115612fb757600080fd5b60209290920196919550909350505050565b602080825282518282018190526000919060409081850190868401855b8281101561300b57815180518552860151868501529284019290850190600101612fe6565b5091979650505050505050565b600082601f83011261302957600080fd5b813567ffffffffffffffff81111561304357613043612cff565b613056601f8201601f1916602001612d15565b81815284602083860101111561306b57600080fd5b816020850160208301376000918101602001919091529392505050565b60006020828403121561309a57600080fd5b813567ffffffffffffffff8111156130b157600080fd5b6129ca84828501613018565b6000806000606084860312156130d257600080fd5b8335925060208085013567ffffffffffffffff808211156130f257600080fd5b6130fe88838901613018565b9450604087013591508082111561311457600080fd5b818701915087601f83011261312857600080fd5b8135613136612d8b82612d46565b81815260059190911b8301840190848101908a83111561315557600080fd5b8585015b8381101561318d578035858111156131715760008081fd5b61317f8d89838a0101613018565b845250918601918601613159565b508096505050505050509250925092565b600181811c908216806131b257607f821691505b60208210810361143b57634e487b7160e01b600052602260045260246000fd5b634e487b7160e01b600052603260045260246000fd5b6020808252601f908201527f5265656e7472616e637947756172643a207265656e7472616e742063616c6c00604082015260600190565b6000815461322c8161319e565b808552602060018381168015613249576001811461326357613291565b60ff1985168884015283151560051b880183019550613291565b866000528260002060005b858110156132895781548a820186015290830190840161326e565b890184019650505b505050505092915050565b838152600060206060818401526132b6606084018661321f565b83810360408501528085548083528383019150838160051b840101876000528460002060005b8381101561330957858303601f190185526132f7838361321f565b948701949250600191820191016132dc565b50909a9950505050505050505050565b634e487b7160e01b600052601160045260246000fd5b818103818111156108fa576108fa613319565b80820281158282048414176108fa576108fa613319565b60008261337657634e487b7160e01b600052601260045260246000fd5b500490565b60006020828403121561338d57600080fd5b5051919050565b601f821115610cb357600081815260208120601f850160051c810160208610156133bb5750805b601f850160051c820191505b818110156133da578281556001016133c7565b505050505050565b815167ffffffffffffffff8111156133fc576133fc612cff565b6134108161340a845461319e565b84613394565b602080601f831160018114613445576000841561342d5750858301515b600019600386901b1c1916600185901b1785556133da565b600085815260208120601f198616915b8281101561347457888601518255948401946001909101908401613455565b50858210156134925787850151600019600388901b60f8161c191681555b5050505050600190811b01905550565b634e487b7160e01b600052603160045260246000fd5b600081518084526020808501808196508360051b8101915082860160005b8581101561300b5782840389526134ee848351612ca3565b988501989350908401906001016134d6565b8381526060602082015260006135196060830185612ca3565b828103604084015261352b81856134b8565b9695505050505050565b808201808211156108fa576108fa613319565b8481528360208201526080604082015260006135676080830185612ca3565b8281036060840152612af881856134b8565b7f416363657373436f6e74726f6c3a206163636f756e74200000000000000000008152600083516135b1816017850160208801612c7f565b7001034b99036b4b9b9b4b733903937b6329607d1b60179184019182015283516135e2816028840160208801612c7f565b01602801949350505050565b60006020828403121561360057600080fd5b81516129b481612c0e565b60008161361a5761361a613319565b506000190190565b60008251613634818460208701612c7f565b919091019291505056fea26469706673582212201618bfb4300ea11e92837a85e9752012e4488415ddc6cc18dbdd3eb8f321eeae64736f6c63430008140033",
  "devdoc": {
    "details": "Main contract for streaming ETH or ERC20 tokens to builders Inherits all functionality from modular contracts",
    "events": {
      "RoleAdminChanged(bytes32,bytes32,bytes32)": {
        "details": "Emitted when `newAdminRole` is set as ``role``'s admin role, replacing `previousAdminRole` `DEFAULT_ADMIN_ROLE` is the starting admin for all roles, despite {RoleAdminChanged} not being emitted signaling this. _Available since v3.1._"
      },
      "RoleGranted(bytes32,address,address)": {
        "details": "Emitted when `account` is granted `role`. `sender` is the account that originated the contract call, an admin role bearer except when using {AccessControl-_setupRole}."
      },
      "RoleRevoked(bytes32,address,address)": {
        "details": "Emitted when `account` is revoked `role`. `sender` is the account that originated the contract call:   - if using `revokeRole`, it is the admin role bearer   - if using `renounceRole`, it is the role bearer (i.e. `account`)"
      }
    },
    "kind": "dev",
    "methods": {
      "addBatch(address[],uint256[])": {
        "details": "Add a batch of builders",
        "params": {
          "_builders": "Array of builder addresses",
          "_caps": "Array of cap values"
        }
      },
      "addBuilderStream(address,uint256)": {
        "details": "Add a new builder's stream",
        "params": {
          "_builder": "Builder address",
          "_cap": "Maximum amount of funds that can be withdrawn in a cycle"
        }
      },
      "allBuildersData(address[])": {
        "details": "Get all builders' data",
        "params": {
          "_builders": "Array of builder addresses"
        },
        "returns": {
          "_0": "Array of BuilderStreamInfo for each builder"
        }
      },
      "approveWithdraw(address,uint256)": {
        "details": "Approve and complete a withdrawal request in one step",
        "params": {
          "_builder": "Builder address",
          "_requestId": "ID of the request to approve and complete"
        }
      },
      "constructor": {
        "details": "Constructor that passes parameters to the base contract",
        "params": {
          "_builders": "Array of builder addresses",
          "_caps": "Array of cap values for builders",
          "_cycle": "Cycle duration",
          "_description": "Description of the cohort",
          "_name": "Name of the cohort",
          "_primaryAdmin": "Address of the primary admin",
          "_requiresApproval": "Whether withdrawals require approval",
          "_tokenAddress": "Address of ERC20 token (zero address for ETH)"
        }
      },
      "drainContract(address)": {
        "details": "Drain the contract to the primary admin address",
        "params": {
          "_token": "Token address (zero address for ETH)"
        }
      },
      "editDescription(string)": {
        "details": "Edit cohort description",
        "params": {
          "_description": "The new description for the cohort"
        }
      },
      "fundContract(uint256)": {
        "details": "Fund the contract with ETH or ERC20 tokens",
        "params": {
          "_amount": "Amount to fund (for ERC20 tokens)"
        }
      },
      "getRoleAdmin(bytes32)": {
        "details": "Returns the admin role that controls `role`. See {grantRole} and {revokeRole}. To change a role's admin, use {_setRoleAdmin}."
      },
      "grantRole(bytes32,address)": {
        "details": "Grants `role` to `account`. If `account` had not been already granted `role`, emits a {RoleGranted} event. Requirements: - the caller must have ``role``'s admin role."
      },
      "hasRole(bytes32,address)": {
        "details": "Returns `true` if `account` has been granted `role`."
      },
      "isAdmin(address)": {
        "details": "Function to check if an address is an admin"
      },
      "modifyAdminRole(address,bool)": {
        "details": "Modify admin roles",
        "params": {
          "adminAddress": "Address to grant/revoke admin role",
          "shouldGrant": "Whether to grant or revoke the role"
        }
      },
      "rejectWithdraw(address,uint256)": {
        "details": "Reject a withdrawal request",
        "params": {
          "_builder": "Builder address",
          "_requestId": "ID of the request to reject"
        }
      },
      "removeBuilderStream(address)": {
        "details": "Remove a builder's stream",
        "params": {
          "_builder": "Builder address"
        }
      },
      "renounceRole(bytes32,address)": {
        "details": "Revokes `role` from the calling account. Roles are often managed via {grantRole} and {revokeRole}: this function's purpose is to provide a mechanism for accounts to lose their privileges if they are compromised (such as when a trusted device is misplaced). If the calling account had been revoked `role`, emits a {RoleRevoked} event. Requirements: - the caller must be `account`."
      },
      "revokeRole(bytes32,address)": {
        "details": "Revokes `role` from `account`. If `account` had been granted `role`, emits a {RoleRevoked} event. Requirements: - the caller must have ``role``'s admin role."
      },
      "setBuilderApprovalRequirement(address,bool)": {
        "details": "Set whether a builder requires approval for withdrawals",
        "params": {
          "_builder": "Builder address",
          "_requiresApproval": "Whether the builder requires approval"
        }
      },
      "streamWithdraw(uint256,string,string[])": {
        "details": "Stream withdraw for a builder",
        "params": {
          "_amount": "Amount to withdraw",
          "_reason": "Reason for withdrawal"
        }
      },
      "supportsInterface(bytes4)": {
        "details": "See {IERC165-supportsInterface}."
      },
      "toggleAllowApplications(bool)": {
        "details": "Allow or disallow applications for new builders",
        "params": {
          "_enable": "Whether to allow applications"
        }
      },
      "toggleContractApprovalRequirement(bool)": {
        "details": "Set whether this contract requires approval for withdrawals",
        "params": {
          "_enable": "Whether to require approval"
        }
      },
      "toggleLock(bool)": {
        "details": "Lock or unlock the contract",
        "params": {
          "_enable": "Whether to lock the contract"
        }
      },
      "transferPrimaryAdmin(address)": {
        "details": "Transfer primary admin role",
        "params": {
          "newPrimaryAdmin": "Address of the new primary admin"
        }
      },
      "unlockedBuilderAmount(address)": {
        "details": "Get the unlocked amount for a builder",
        "params": {
          "_builder": "Builder address"
        },
        "returns": {
          "_0": "Unlocked amount for the builder"
        }
      },
      "updateBuilderStreamCap(address,uint256)": {
        "details": "Update a builder's stream cap",
        "params": {
          "_builder": "Builder address",
          "_newCap": "New cap value"
        }
      }
    },
    "title": "Cohort",
    "version": 1
  },
  "userdoc": {
    "kind": "user",
    "methods": {},
    "version": 1
  },
  "storageLayout": {
    "storage": [
      {
        "astId": 70,
        "contract": "contracts/Cohort.sol:Cohort",
        "label": "_roles",
        "offset": 0,
        "slot": "0",
        "type": "t_mapping(t_bytes32,t_struct(RoleData)65_storage)"
      },
      {
        "astId": 554,
        "contract": "contracts/Cohort.sol:Cohort",
        "label": "_status",
        "offset": 0,
        "slot": "1",
        "type": "t_uint256"
      },
      {
        "astId": 2175,
        "contract": "contracts/Cohort.sol:Cohort",
        "label": "cycle",
        "offset": 0,
        "slot": "2",
        "type": "t_uint256"
      },
      {
        "astId": 2177,
        "contract": "contracts/Cohort.sol:Cohort",
        "label": "isERC20",
        "offset": 0,
        "slot": "3",
        "type": "t_bool"
      },
      {
        "astId": 2179,
        "contract": "contracts/Cohort.sol:Cohort",
        "label": "isONETIME",
        "offset": 1,
        "slot": "3",
        "type": "t_bool"
      },
      {
        "astId": 2181,
        "contract": "contracts/Cohort.sol:Cohort",
        "label": "locked",
        "offset": 2,
        "slot": "3",
        "type": "t_bool"
      },
      {
        "astId": 2183,
        "contract": "contracts/Cohort.sol:Cohort",
        "label": "requireApprovalForWithdrawals",
        "offset": 3,
        "slot": "3",
        "type": "t_bool"
      },
      {
        "astId": 2185,
        "contract": "contracts/Cohort.sol:Cohort",
        "label": "allowApplications",
        "offset": 4,
        "slot": "3",
        "type": "t_bool"
      },
      {
        "astId": 2187,
        "contract": "contracts/Cohort.sol:Cohort",
        "label": "name",
        "offset": 0,
        "slot": "4",
        "type": "t_string_storage"
      },
      {
        "astId": 2189,
        "contract": "contracts/Cohort.sol:Cohort",
        "label": "description",
        "offset": 0,
        "slot": "5",
        "type": "t_string_storage"
      },
      {
        "astId": 2191,
        "contract": "contracts/Cohort.sol:Cohort",
        "label": "tokenAddress",
        "offset": 0,
        "slot": "6",
        "type": "t_address"
      },
      {
        "astId": 2193,
        "contract": "contracts/Cohort.sol:Cohort",
        "label": "primaryAdmin",
        "offset": 0,
        "slot": "7",
        "type": "t_address"
      },
      {
        "astId": 2198,
        "contract": "contracts/Cohort.sol:Cohort",
        "label": "streamingBuilders",
        "offset": 0,
        "slot": "8",
        "type": "t_mapping(t_address,t_struct(BuilderStreamInfo)3329_storage)"
      },
      {
        "astId": 2202,
        "contract": "contracts/Cohort.sol:Cohort",
        "label": "builderIndex",
        "offset": 0,
        "slot": "9",
        "type": "t_mapping(t_address,t_uint256)"
      },
      {
        "astId": 2205,
        "contract": "contracts/Cohort.sol:Cohort",
        "label": "activeBuilders",
        "offset": 0,
        "slot": "10",
        "type": "t_array(t_address)dyn_storage"
      },
      {
        "astId": 2211,
        "contract": "contracts/Cohort.sol:Cohort",
        "label": "withdrawRequests",
        "offset": 0,
        "slot": "11",
        "type": "t_mapping(t_address,t_array(t_struct(WithdrawRequest)3343_storage)dyn_storage)"
      },
      {
        "astId": 2215,
        "contract": "contracts/Cohort.sol:Cohort",
        "label": "requiresApproval",
        "offset": 0,
        "slot": "12",
        "type": "t_mapping(t_address,t_bool)"
      }
    ],
    "types": {
      "t_address": {
        "encoding": "inplace",
        "label": "address",
        "numberOfBytes": "20"
      },
      "t_array(t_address)dyn_storage": {
        "base": "t_address",
        "encoding": "dynamic_array",
        "label": "address[]",
        "numberOfBytes": "32"
      },
      "t_array(t_string_storage)dyn_storage": {
        "base": "t_string_storage",
        "encoding": "dynamic_array",
        "label": "string[]",
        "numberOfBytes": "32"
      },
      "t_array(t_struct(WithdrawRequest)3343_storage)dyn_storage": {
        "base": "t_struct(WithdrawRequest)3343_storage",
        "encoding": "dynamic_array",
        "label": "struct ICohortStructs.WithdrawRequest[]",
        "numberOfBytes": "32"
      },
      "t_bool": {
        "encoding": "inplace",
        "label": "bool",
        "numberOfBytes": "1"
      },
      "t_bytes32": {
        "encoding": "inplace",
        "label": "bytes32",
        "numberOfBytes": "32"
      },
      "t_mapping(t_address,t_array(t_struct(WithdrawRequest)3343_storage)dyn_storage)": {
        "encoding": "mapping",
        "key": "t_address",
        "label": "mapping(address => struct ICohortStructs.WithdrawRequest[])",
        "numberOfBytes": "32",
        "value": "t_array(t_struct(WithdrawRequest)3343_storage)dyn_storage"
      },
      "t_mapping(t_address,t_bool)": {
        "encoding": "mapping",
        "key": "t_address",
        "label": "mapping(address => bool)",
        "numberOfBytes": "32",
        "value": "t_bool"
      },
      "t_mapping(t_address,t_struct(BuilderStreamInfo)3329_storage)": {
        "encoding": "mapping",
        "key": "t_address",
        "label": "mapping(address => struct ICohortStructs.BuilderStreamInfo)",
        "numberOfBytes": "32",
        "value": "t_struct(BuilderStreamInfo)3329_storage"
      },
      "t_mapping(t_address,t_uint256)": {
        "encoding": "mapping",
        "key": "t_address",
        "label": "mapping(address => uint256)",
        "numberOfBytes": "32",
        "value": "t_uint256"
      },
      "t_mapping(t_bytes32,t_struct(RoleData)65_storage)": {
        "encoding": "mapping",
        "key": "t_bytes32",
        "label": "mapping(bytes32 => struct AccessControl.RoleData)",
        "numberOfBytes": "32",
        "value": "t_struct(RoleData)65_storage"
      },
      "t_string_storage": {
        "encoding": "bytes",
        "label": "string",
        "numberOfBytes": "32"
      },
      "t_struct(BuilderStreamInfo)3329_storage": {
        "encoding": "inplace",
        "label": "struct ICohortStructs.BuilderStreamInfo",
        "members": [
          {
            "astId": 3326,
            "contract": "contracts/Cohort.sol:Cohort",
            "label": "cap",
            "offset": 0,
            "slot": "0",
            "type": "t_uint256"
          },
          {
            "astId": 3328,
            "contract": "contracts/Cohort.sol:Cohort",
            "label": "last",
            "offset": 0,
            "slot": "1",
            "type": "t_uint256"
          }
        ],
        "numberOfBytes": "64"
      },
      "t_struct(RoleData)65_storage": {
        "encoding": "inplace",
        "label": "struct AccessControl.RoleData",
        "members": [
          {
            "astId": 62,
            "contract": "contracts/Cohort.sol:Cohort",
            "label": "members",
            "offset": 0,
            "slot": "0",
            "type": "t_mapping(t_address,t_bool)"
          },
          {
            "astId": 64,
            "contract": "contracts/Cohort.sol:Cohort",
            "label": "adminRole",
            "offset": 0,
            "slot": "1",
            "type": "t_bytes32"
          }
        ],
        "numberOfBytes": "64"
      },
      "t_struct(WithdrawRequest)3343_storage": {
        "encoding": "inplace",
        "label": "struct ICohortStructs.WithdrawRequest",
        "members": [
          {
            "astId": 3331,
            "contract": "contracts/Cohort.sol:Cohort",
            "label": "amount",
            "offset": 0,
            "slot": "0",
            "type": "t_uint256"
          },
          {
            "astId": 3333,
            "contract": "contracts/Cohort.sol:Cohort",
            "label": "reason",
            "offset": 0,
            "slot": "1",
            "type": "t_string_storage"
          },
          {
            "astId": 3335,
            "contract": "contracts/Cohort.sol:Cohort",
            "label": "approved",
            "offset": 0,
            "slot": "2",
            "type": "t_bool"
          },
          {
            "astId": 3337,
            "contract": "contracts/Cohort.sol:Cohort",
            "label": "completed",
            "offset": 1,
            "slot": "2",
            "type": "t_bool"
          },
          {
            "astId": 3339,
            "contract": "contracts/Cohort.sol:Cohort",
            "label": "requestTime",
            "offset": 0,
            "slot": "3",
            "type": "t_uint256"
          },
          {
            "astId": 3342,
            "contract": "contracts/Cohort.sol:Cohort",
            "label": "projectIds",
            "offset": 0,
            "slot": "4",
            "type": "t_array(t_string_storage)dyn_storage"
          }
        ],
        "numberOfBytes": "160"
      },
      "t_uint256": {
        "encoding": "inplace",
        "label": "uint256",
        "numberOfBytes": "32"
      }
    }
  }
}