{
  "address": "0x954788679430257718E0D501d515d41f3Fd67741",
  "abi": [
    {
      "inputs": [
        {
          "internalType": "address",
          "name": "_primaryAdmin",
          "type": "address"
        },
        {
          "internalType": "address",
          "name": "_tokenAddress",
          "type": "address"
        },
        {
          "internalType": "string",
          "name": "_name",
          "type": "string"
        },
        {
          "internalType": "string",
          "name": "_description",
          "type": "string"
        },
        {
          "internalType": "uint256",
          "name": "_cycle",
          "type": "uint256"
        },
        {
          "internalType": "address[]",
          "name": "_builders",
          "type": "address[]"
        },
        {
          "internalType": "uint256[]",
          "name": "_caps",
          "type": "uint256[]"
        },
        {
          "internalType": "bool",
          "name": "_requiresApproval",
          "type": "bool"
        }
      ],
      "stateMutability": "nonpayable",
      "type": "constructor"
    },
    {
      "inputs": [],
      "name": "AccessDenied",
      "type": "error"
    },
    {
      "inputs": [],
      "name": "AlreadyWithdrawnOneTime",
      "type": "error"
    },
    {
      "inputs": [
        {
          "internalType": "uint256",
          "name": "provided",
          "type": "uint256"
        },
        {
          "internalType": "uint256",
          "name": "minimum",
          "type": "uint256"
        }
      ],
      "name": "BelowMinimumCap",
      "type": "error"
    },
    {
      "inputs": [],
      "name": "BuilderAlreadyExists",
      "type": "error"
    },
    {
      "inputs": [],
      "name": "ContractIsLocked",
      "type": "error"
    },
    {
      "inputs": [
        {
          "internalType": "address",
          "name": "token",
          "type": "address"
        },
        {
          "internalType": "address",
          "name": "to",
          "type": "address"
        },
        {
          "internalType": "uint256",
          "name": "amount",
          "type": "uint256"
        }
      ],
      "name": "ERC20FundsTransferFailed",
      "type": "error"
    },
    {
      "inputs": [
        {
          "internalType": "address",
          "name": "token",
          "type": "address"
        },
        {
          "internalType": "address",
          "name": "recipient",
          "type": "address"
        }
      ],
      "name": "ERC20SendingFailed",
      "type": "error"
    },
    {
      "inputs": [],
      "name": "ERC20TransferFailed",
      "type": "error"
    },
    {
      "inputs": [],
      "name": "EtherSendingFailed",
      "type": "error"
    },
    {
      "inputs": [
        {
          "internalType": "uint256",
          "name": "requested",
          "type": "uint256"
        },
        {
          "internalType": "uint256",
          "name": "unlocked",
          "type": "uint256"
        }
      ],
      "name": "InsufficientFundsInContract",
      "type": "error"
    },
    {
      "inputs": [
        {
          "internalType": "uint256",
          "name": "requested",
          "type": "uint256"
        },
        {
          "internalType": "uint256",
          "name": "unlocked",
          "type": "uint256"
        }
      ],
      "name": "InsufficientInStream",
      "type": "error"
    },
    {
      "inputs": [],
      "name": "InvalidBuilderAddress",
      "type": "error"
    },
    {
      "inputs": [],
      "name": "InvalidNewAdminAddress",
      "type": "error"
    },
    {
      "inputs": [],
      "name": "InvalidTokenAddress",
      "type": "error"
    },
    {
      "inputs": [],
      "name": "LengthsMismatch",
      "type": "error"
    },
    {
      "inputs": [],
      "name": "MaxBuildersReached",
      "type": "error"
    },
    {
      "inputs": [
        {
          "internalType": "uint256",
          "name": "providedLength",
          "type": "uint256"
        },
        {
          "internalType": "uint256",
          "name": "maxLength",
          "type": "uint256"
        }
      ],
      "name": "MaxNameLength",
      "type": "error"
    },
    {
      "inputs": [
        {
          "internalType": "address",
          "name": "builder",
          "type": "address"
        }
      ],
      "name": "NoActiveStreamForBuilder",
      "type": "error"
    },
    {
      "inputs": [],
      "name": "NoFundsInContract",
      "type": "error"
    },
    {
      "inputs": [],
      "name": "NoValueSent",
      "type": "error"
    },
    {
      "inputs": [],
      "name": "NoWithdrawRequest",
      "type": "error"
    },
    {
      "inputs": [],
      "name": "NotAuthorized",
      "type": "error"
    },
    {
      "inputs": [],
      "name": "PendingWithdrawRequestExists",
      "type": "error"
    },
    {
      "inputs": [],
      "name": "WithdrawRequestAlreadyCompleted",
      "type": "error"
    },
    {
      "inputs": [],
      "name": "WithdrawRequestNotApproved",
      "type": "error"
    },
    {
      "inputs": [],
      "name": "WithdrawRequestNotFound",
      "type": "error"
    },
    {
      "anonymous": false,
      "inputs": [
        {
          "indexed": true,
          "internalType": "address",
          "name": "to",
          "type": "address"
        },
        {
          "indexed": false,
          "internalType": "uint256",
          "name": "amount",
          "type": "uint256"
        }
      ],
      "name": "AddBuilder",
      "type": "event"
    },
    {
      "anonymous": false,
      "inputs": [
        {
          "indexed": true,
          "internalType": "address",
          "name": "to",
          "type": "address"
        }
      ],
      "name": "AdminAdded",
      "type": "event"
    },
    {
      "anonymous": false,
      "inputs": [
        {
          "indexed": true,
          "internalType": "address",
          "name": "to",
          "type": "address"
        }
      ],
      "name": "AdminRemoved",
      "type": "event"
    },
    {
      "anonymous": false,
      "inputs": [
        {
          "indexed": true,
          "internalType": "address",
          "name": "builder",
          "type": "address"
        },
        {
          "indexed": false,
          "internalType": "bool",
          "name": "requiresApproval",
          "type": "bool"
        }
      ],
      "name": "ApprovalRequirementChanged",
      "type": "event"
    },
    {
      "anonymous": false,
      "inputs": [
        {
          "indexed": false,
          "internalType": "uint256",
          "name": "amount",
          "type": "uint256"
        }
      ],
      "name": "ContractDrained",
      "type": "event"
    },
    {
      "anonymous": false,
      "inputs": [
        {
          "indexed": false,
          "internalType": "bool",
          "name": "locked",
          "type": "bool"
        }
      ],
      "name": "ContractLocked",
      "type": "event"
    },
    {
      "anonymous": false,
      "inputs": [
        {
          "indexed": true,
          "internalType": "address",
          "name": "token",
          "type": "address"
        },
        {
          "indexed": true,
          "internalType": "address",
          "name": "from",
          "type": "address"
        },
        {
          "indexed": false,
          "internalType": "uint256",
          "name": "amount",
          "type": "uint256"
        }
      ],
      "name": "ERC20FundsReceived",
      "type": "event"
    },
    {
      "anonymous": false,
      "inputs": [
        {
          "indexed": true,
          "internalType": "address",
          "name": "from",
          "type": "address"
        },
        {
          "indexed": false,
          "internalType": "uint256",
          "name": "amount",
          "type": "uint256"
        }
      ],
      "name": "FundsReceived",
      "type": "event"
    },
    {
      "anonymous": false,
      "inputs": [
        {
          "indexed": true,
          "internalType": "address",
          "name": "newAdmin",
          "type": "address"
        }
      ],
      "name": "PrimaryAdminTransferred",
      "type": "event"
    },
    {
      "anonymous": false,
      "inputs": [
        {
          "indexed": true,
          "internalType": "bytes32",
          "name": "role",
          "type": "bytes32"
        },
        {
          "indexed": true,
          "internalType": "bytes32",
          "name": "previousAdminRole",
          "type": "bytes32"
        },
        {
          "indexed": true,
          "internalType": "bytes32",
          "name": "newAdminRole",
          "type": "bytes32"
        }
      ],
      "name": "RoleAdminChanged",
      "type": "event"
    },
    {
      "anonymous": false,
      "inputs": [
        {
          "indexed": true,
          "internalType": "bytes32",
          "name": "role",
          "type": "bytes32"
        },
        {
          "indexed": true,
          "internalType": "address",
          "name": "account",
          "type": "address"
        },
        {
          "indexed": true,
          "internalType": "address",
          "name": "sender",
          "type": "address"
        }
      ],
      "name": "RoleGranted",
      "type": "event"
    },
    {
      "anonymous": false,
      "inputs": [
        {
          "indexed": true,
          "internalType": "bytes32",
          "name": "role",
          "type": "bytes32"
        },
        {
          "indexed": true,
          "internalType": "address",
          "name": "account",
          "type": "address"
        },
        {
          "indexed": true,
          "internalType": "address",
          "name": "sender",
          "type": "address"
        }
      ],
      "name": "RoleRevoked",
      "type": "event"
    },
    {
      "anonymous": false,
      "inputs": [
        {
          "indexed": true,
          "internalType": "address",
          "name": "to",
          "type": "address"
        },
        {
          "indexed": false,
          "internalType": "uint256",
          "name": "amount",
          "type": "uint256"
        }
      ],
      "name": "UpdateBuilder",
      "type": "event"
    },
    {
      "anonymous": false,
      "inputs": [
        {
          "indexed": true,
          "internalType": "address",
          "name": "to",
          "type": "address"
        },
        {
          "indexed": false,
          "internalType": "uint256",
          "name": "amount",
          "type": "uint256"
        },
        {
          "indexed": false,
          "internalType": "string",
          "name": "reason",
          "type": "string"
        }
      ],
      "name": "Withdraw",
      "type": "event"
    },
    {
      "anonymous": false,
      "inputs": [
        {
          "indexed": true,
          "internalType": "address",
          "name": "builder",
          "type": "address"
        },
        {
          "indexed": false,
          "internalType": "uint256",
          "name": "requestId",
          "type": "uint256"
        }
      ],
      "name": "WithdrawApproved",
      "type": "event"
    },
    {
      "anonymous": false,
      "inputs": [
        {
          "indexed": true,
          "internalType": "address",
          "name": "builder",
          "type": "address"
        },
        {
          "indexed": false,
          "internalType": "uint256",
          "name": "requestId",
          "type": "uint256"
        },
        {
          "indexed": false,
          "internalType": "uint256",
          "name": "amount",
          "type": "uint256"
        }
      ],
      "name": "WithdrawCompleted",
      "type": "event"
    },
    {
      "anonymous": false,
      "inputs": [
        {
          "indexed": true,
          "internalType": "address",
          "name": "builder",
          "type": "address"
        },
        {
          "indexed": false,
          "internalType": "uint256",
          "name": "requestId",
          "type": "uint256"
        }
      ],
      "name": "WithdrawRejected",
      "type": "event"
    },
    {
      "anonymous": false,
      "inputs": [
        {
          "indexed": true,
          "internalType": "address",
          "name": "builder",
          "type": "address"
        },
        {
          "indexed": false,
          "internalType": "uint256",
          "name": "requestId",
          "type": "uint256"
        },
        {
          "indexed": false,
          "internalType": "uint256",
          "name": "amount",
          "type": "uint256"
        },
        {
          "indexed": false,
          "internalType": "string",
          "name": "reason",
          "type": "string"
        }
      ],
      "name": "WithdrawRequested",
      "type": "event"
    },
    {
      "inputs": [],
      "name": "DEFAULT_ADMIN_ROLE",
      "outputs": [
        {
          "internalType": "bytes32",
          "name": "",
          "type": "bytes32"
        }
      ],
      "stateMutability": "view",
      "type": "function"
    },
    {
      "inputs": [
        {
          "internalType": "uint256",
          "name": "",
          "type": "uint256"
        }
      ],
      "name": "activeBuilders",
      "outputs": [
        {
          "internalType": "address",
          "name": "",
          "type": "address"
        }
      ],
      "stateMutability": "view",
      "type": "function"
    },
    {
      "inputs": [
        {
          "internalType": "address[]",
          "name": "_builders",
          "type": "address[]"
        },
        {
          "internalType": "uint256[]",
          "name": "_caps",
          "type": "uint256[]"
        }
      ],
      "name": "addBatch",
      "outputs": [],
      "stateMutability": "nonpayable",
      "type": "function"
    },
    {
      "inputs": [
        {
          "internalType": "address payable",
          "name": "_builder",
          "type": "address"
        },
        {
          "internalType": "uint256",
          "name": "_cap",
          "type": "uint256"
        }
      ],
      "name": "addBuilderStream",
      "outputs": [],
      "stateMutability": "nonpayable",
      "type": "function"
    },
    {
      "inputs": [
        {
          "internalType": "address[]",
          "name": "_builders",
          "type": "address[]"
        }
      ],
      "name": "allBuildersData",
      "outputs": [
        {
          "components": [
            {
              "internalType": "uint256",
              "name": "cap",
              "type": "uint256"
            },
            {
              "internalType": "uint256",
              "name": "last",
              "type": "uint256"
            }
          ],
          "internalType": "struct ICohortStructs.BuilderStreamInfo[]",
          "name": "",
          "type": "tuple[]"
        }
      ],
      "stateMutability": "view",
      "type": "function"
    },
    {
      "inputs": [
        {
          "internalType": "address",
          "name": "_builder",
          "type": "address"
        },
        {
          "internalType": "uint256",
          "name": "_requestId",
          "type": "uint256"
        }
      ],
      "name": "approveWithdraw",
      "outputs": [],
      "stateMutability": "nonpayable",
      "type": "function"
    },
    {
      "inputs": [
        {
          "internalType": "address",
          "name": "",
          "type": "address"
        }
      ],
      "name": "builderIndex",
      "outputs": [
        {
          "internalType": "uint256",
          "name": "",
          "type": "uint256"
        }
      ],
      "stateMutability": "view",
      "type": "function"
    },
    {
      "inputs": [],
      "name": "cycle",
      "outputs": [
        {
          "internalType": "uint256",
          "name": "",
          "type": "uint256"
        }
      ],
      "stateMutability": "view",
      "type": "function"
    },
    {
      "inputs": [],
      "name": "description",
      "outputs": [
        {
          "internalType": "string",
          "name": "",
          "type": "string"
        }
      ],
      "stateMutability": "view",
      "type": "function"
    },
    {
      "inputs": [
        {
          "internalType": "address",
          "name": "_token",
          "type": "address"
        }
      ],
      "name": "drainContract",
      "outputs": [],
      "stateMutability": "nonpayable",
      "type": "function"
    },
    {
      "inputs": [
        {
          "internalType": "uint256",
          "name": "_amount",
          "type": "uint256"
        }
      ],
      "name": "fundContract",
      "outputs": [],
      "stateMutability": "payable",
      "type": "function"
    },
    {
      "inputs": [
        {
          "internalType": "bytes32",
          "name": "role",
          "type": "bytes32"
        }
      ],
      "name": "getRoleAdmin",
      "outputs": [
        {
          "internalType": "bytes32",
          "name": "",
          "type": "bytes32"
        }
      ],
      "stateMutability": "view",
      "type": "function"
    },
    {
      "inputs": [
        {
          "internalType": "bytes32",
          "name": "role",
          "type": "bytes32"
        },
        {
          "internalType": "address",
          "name": "account",
          "type": "address"
        }
      ],
      "name": "grantRole",
      "outputs": [],
      "stateMutability": "nonpayable",
      "type": "function"
    },
    {
      "inputs": [
        {
          "internalType": "bytes32",
          "name": "role",
          "type": "bytes32"
        },
        {
          "internalType": "address",
          "name": "account",
          "type": "address"
        }
      ],
      "name": "hasRole",
      "outputs": [
        {
          "internalType": "bool",
          "name": "",
          "type": "bool"
        }
      ],
      "stateMutability": "view",
      "type": "function"
    },
    {
      "inputs": [
        {
          "internalType": "address",
          "name": "_address",
          "type": "address"
        }
      ],
      "name": "isAdmin",
      "outputs": [
        {
          "internalType": "bool",
          "name": "",
          "type": "bool"
        }
      ],
      "stateMutability": "view",
      "type": "function"
    },
    {
      "inputs": [],
      "name": "isERC20",
      "outputs": [
        {
          "internalType": "bool",
          "name": "",
          "type": "bool"
        }
      ],
      "stateMutability": "view",
      "type": "function"
    },
    {
      "inputs": [],
      "name": "isONETIME",
      "outputs": [
        {
          "internalType": "bool",
          "name": "",
          "type": "bool"
        }
      ],
      "stateMutability": "view",
      "type": "function"
    },
    {
      "inputs": [],
      "name": "locked",
      "outputs": [
        {
          "internalType": "bool",
          "name": "",
          "type": "bool"
        }
      ],
      "stateMutability": "view",
      "type": "function"
    },
    {
      "inputs": [
        {
          "internalType": "address",
          "name": "adminAddress",
          "type": "address"
        },
        {
          "internalType": "bool",
          "name": "shouldGrant",
          "type": "bool"
        }
      ],
      "name": "modifyAdminRole",
      "outputs": [],
      "stateMutability": "nonpayable",
      "type": "function"
    },
    {
      "inputs": [],
      "name": "name",
      "outputs": [
        {
          "internalType": "string",
          "name": "",
          "type": "string"
        }
      ],
      "stateMutability": "view",
      "type": "function"
    },
    {
      "inputs": [],
      "name": "primaryAdmin",
      "outputs": [
        {
          "internalType": "address",
          "name": "",
          "type": "address"
        }
      ],
      "stateMutability": "view",
      "type": "function"
    },
    {
      "inputs": [
        {
          "internalType": "address",
          "name": "_builder",
          "type": "address"
        },
        {
          "internalType": "uint256",
          "name": "_requestId",
          "type": "uint256"
        }
      ],
      "name": "rejectWithdraw",
      "outputs": [],
      "stateMutability": "nonpayable",
      "type": "function"
    },
    {
      "inputs": [
        {
          "internalType": "address",
          "name": "_builder",
          "type": "address"
        }
      ],
      "name": "removeBuilderStream",
      "outputs": [],
      "stateMutability": "nonpayable",
      "type": "function"
    },
    {
      "inputs": [
        {
          "internalType": "bytes32",
          "name": "role",
          "type": "bytes32"
        },
        {
          "internalType": "address",
          "name": "account",
          "type": "address"
        }
      ],
      "name": "renounceRole",
      "outputs": [],
      "stateMutability": "nonpayable",
      "type": "function"
    },
    {
      "inputs": [],
      "name": "requireApprovalForWithdrawals",
      "outputs": [
        {
          "internalType": "bool",
          "name": "",
          "type": "bool"
        }
      ],
      "stateMutability": "view",
      "type": "function"
    },
    {
      "inputs": [
        {
          "internalType": "address",
          "name": "",
          "type": "address"
        }
      ],
      "name": "requiresApproval",
      "outputs": [
        {
          "internalType": "bool",
          "name": "",
          "type": "bool"
        }
      ],
      "stateMutability": "view",
      "type": "function"
    },
    {
      "inputs": [
        {
          "internalType": "bytes32",
          "name": "role",
          "type": "bytes32"
        },
        {
          "internalType": "address",
          "name": "account",
          "type": "address"
        }
      ],
      "name": "revokeRole",
      "outputs": [],
      "stateMutability": "nonpayable",
      "type": "function"
    },
    {
      "inputs": [
        {
          "internalType": "address",
          "name": "_builder",
          "type": "address"
        },
        {
          "internalType": "bool",
          "name": "_requiresApproval",
          "type": "bool"
        }
      ],
      "name": "setBuilderApprovalRequirement",
      "outputs": [],
      "stateMutability": "nonpayable",
      "type": "function"
    },
    {
      "inputs": [
        {
          "internalType": "uint256",
          "name": "_amount",
          "type": "uint256"
        },
        {
          "internalType": "string",
          "name": "_reason",
          "type": "string"
        }
      ],
      "name": "streamWithdraw",
      "outputs": [],
      "stateMutability": "nonpayable",
      "type": "function"
    },
    {
      "inputs": [
        {
          "internalType": "address",
          "name": "",
          "type": "address"
        }
      ],
      "name": "streamingBuilders",
      "outputs": [
        {
          "internalType": "uint256",
          "name": "cap",
          "type": "uint256"
        },
        {
          "internalType": "uint256",
          "name": "last",
          "type": "uint256"
        }
      ],
      "stateMutability": "view",
      "type": "function"
    },
    {
      "inputs": [
        {
          "internalType": "bytes4",
          "name": "interfaceId",
          "type": "bytes4"
        }
      ],
      "name": "supportsInterface",
      "outputs": [
        {
          "internalType": "bool",
          "name": "",
          "type": "bool"
        }
      ],
      "stateMutability": "view",
      "type": "function"
    },
    {
      "inputs": [
        {
          "internalType": "bool",
          "name": "_enable",
          "type": "bool"
        }
      ],
      "name": "toggleContractApprovalRequirement",
      "outputs": [],
      "stateMutability": "nonpayable",
      "type": "function"
    },
    {
      "inputs": [
        {
          "internalType": "bool",
          "name": "_enable",
          "type": "bool"
        }
      ],
      "name": "toggleLock",
      "outputs": [],
      "stateMutability": "nonpayable",
      "type": "function"
    },
    {
      "inputs": [],
      "name": "tokenAddress",
      "outputs": [
        {
          "internalType": "address",
          "name": "",
          "type": "address"
        }
      ],
      "stateMutability": "view",
      "type": "function"
    },
    {
      "inputs": [
        {
          "internalType": "address",
          "name": "newPrimaryAdmin",
          "type": "address"
        }
      ],
      "name": "transferPrimaryAdmin",
      "outputs": [],
      "stateMutability": "nonpayable",
      "type": "function"
    },
    {
      "inputs": [
        {
          "internalType": "address",
          "name": "_builder",
          "type": "address"
        }
      ],
      "name": "unlockedBuilderAmount",
      "outputs": [
        {
          "internalType": "uint256",
          "name": "",
          "type": "uint256"
        }
      ],
      "stateMutability": "view",
      "type": "function"
    },
    {
      "inputs": [
        {
          "internalType": "address payable",
          "name": "_builder",
          "type": "address"
        },
        {
          "internalType": "uint256",
          "name": "_newCap",
          "type": "uint256"
        }
      ],
      "name": "updateBuilderStreamCap",
      "outputs": [],
      "stateMutability": "nonpayable",
      "type": "function"
    },
    {
      "inputs": [
        {
          "internalType": "address",
          "name": "",
          "type": "address"
        },
        {
          "internalType": "uint256",
          "name": "",
          "type": "uint256"
        }
      ],
      "name": "withdrawRequests",
      "outputs": [
        {
          "internalType": "uint256",
          "name": "amount",
          "type": "uint256"
        },
        {
          "internalType": "string",
          "name": "reason",
          "type": "string"
        },
        {
          "internalType": "bool",
          "name": "approved",
          "type": "bool"
        },
        {
          "internalType": "bool",
          "name": "completed",
          "type": "bool"
        },
        {
          "internalType": "uint256",
          "name": "requestTime",
          "type": "uint256"
        }
      ],
      "stateMutability": "view",
      "type": "function"
    },
    {
      "stateMutability": "payable",
      "type": "receive"
    }
  ],
  "transactionHash": "0x433da0a9a3132052f7529486952ef7023a236cf22ba781c7fa655a99d7d829aa",
  "args": [
    "0xa8DF02c5607100Eb108B5C39dCdD8c2aE44185Df",
    "0x0000000000000000000000000000000000000000",
    "Cohort",
    "Cohort contract",
    2592000,
    [],
    [],
    false
  ],
  "numDeployments": 4,
  "solcInputHash": "fd11aef28685d0d86ac42acdbf19eca0",
  "bytecode": "0x60806040523480156200001157600080fd5b5060405162003dcb38038062003dcb8339810160408190526200003491620008c8565b8787878787878787600180819055506028865111156200007957855160405163062a8dff60e41b81526004810191909152602860248201526044015b60405180910390fd5b62000086600089620004f7565b600780546001600160a01b0319166001600160a01b038a161790556004620000af878262000a53565b506005620000be868262000a53565b5060028490556003805463ff00000019166301000000831515021790556001600160a01b0387161562000116576003805460ff19166001179055600680546001600160a01b0389166001600160a01b03199091161790555b836000036200012f576003805461ff0019166101001790555b825115620004e1578251601981106200015b5760405163104e7cef60e31b815260040160405180910390fd5b825181146200017d5760405163586cb9e160e01b815260040160405180910390fd5b60005b81811015620004de57620001d3858281518110620001a257620001a262000b1f565b6020026020010151858381518110620001bf57620001bf62000b1f565b60200260200101516200058060201b60201c565b60025460000362000261576040518060400160405280858381518110620001fe57620001fe62000b1f565b60200260200101518152602001600019815250600860008784815181106200022a576200022a62000b1f565b6020908102919091018101516001600160a01b031682528181019290925260400160002082518155910151600190910155620002ea565b604051806040016040528085838151811062000281576200028162000b1f565b6020026020010151815260200187426200029c919062000b35565b81525060086000878481518110620002b857620002b862000b1f565b6020908102919091018101516001600160a01b0316825281810192909252604001600020825181559101516001909101555b600a85828151811062000301576200030162000b1f565b60209081029190910181015182546001808201855560009485529290932090920180546001600160a01b0319166001600160a01b0390931692909217909155600a546200034f919062000b35565b6009600087848151811062000368576200036862000b1f565b60200260200101516001600160a01b03166001600160a01b0316815260200190815260200160002081905550848181518110620003a957620003a962000b1f565b60200260200101516001600160a01b03167f49707f6097e3d8b2d861adf67aadfb41a45746f9d46701065ed09ff12f9e41c3858381518110620003f057620003f062000b1f565b60200260200101516040516200040891815260200190565b60405180910390a28215620004d5576001600c600087848151811062000432576200043262000b1f565b60200260200101516001600160a01b03166001600160a01b0316815260200190815260200160002060006101000a81548160ff02191690831515021790555084818151811062000486576200048662000b1f565b60200260200101516001600160a01b03167f70d2c92da609a3045e6b2a21e9d4cd5dc02f15a3830961912b03f5b236b78c8b6001604051620004cc911515815260200190565b60405180910390a25b60010162000180565b50505b5050505050505050505050505050505062000b57565b62000503828262000695565b6200057c576000828152602081815260408083206001600160a01b03851684529091529020805460ff191660011790556200053b3390565b6001600160a01b0316816001600160a01b0316837f2f8788117e7eff1d82e926ec794901d17c78024a50270940304540a733656f0d60405160405180910390a45b5050565b6509184e72a0008110801562000599575060035460ff16155b15620005c85760405163c281dd3b60e01b8152600481018290526509184e72a000602482015260440162000070565b620f424081108015620005dd575060035460ff165b15620006095760405163c281dd3b60e01b815260048101829052620f4240602482015260440162000070565b6001600160a01b038216620006315760405163094d784960e21b815260040160405180910390fd5b6200063e60008362000695565b156200065d5760405163094d784960e21b815260040160405180910390fd5b6001600160a01b038216600090815260086020526040902054156200057c57604051637fe8efbb60e01b815260040160405180910390fd5b6000828152602081815260408083206001600160a01b038516845290915290205460ff165b92915050565b80516001600160a01b0381168114620006d857600080fd5b919050565b634e487b7160e01b600052604160045260246000fd5b604051601f8201601f191681016001600160401b03811182821017156200071e576200071e620006dd565b604052919050565b600082601f8301126200073857600080fd5b81516001600160401b03811115620007545762000754620006dd565b60206200076a601f8301601f19168201620006f3565b82815285828487010111156200077f57600080fd5b60005b838110156200079f57858101830151828201840152820162000782565b506000928101909101919091529392505050565b60006001600160401b03821115620007cf57620007cf620006dd565b5060051b60200190565b600082601f830112620007eb57600080fd5b8151602062000804620007fe83620007b3565b620006f3565b82815260059290921b840181019181810190868411156200082457600080fd5b8286015b848110156200084a576200083c81620006c0565b835291830191830162000828565b509695505050505050565b600082601f8301126200086757600080fd5b815160206200087a620007fe83620007b3565b82815260059290921b840181019181810190868411156200089a57600080fd5b8286015b848110156200084a57805183529183019183016200089e565b80518015158114620006d857600080fd5b600080600080600080600080610100898b031215620008e657600080fd5b620008f189620006c0565b97506200090160208a01620006c0565b60408a01519097506001600160401b03808211156200091f57600080fd5b6200092d8c838d0162000726565b975060608b01519150808211156200094457600080fd5b620009528c838d0162000726565b965060808b0151955060a08b01519150808211156200097057600080fd5b6200097e8c838d01620007d9565b945060c08b01519150808211156200099557600080fd5b50620009a48b828c0162000855565b925050620009b560e08a01620008b7565b90509295985092959890939650565b600181811c90821680620009d957607f821691505b602082108103620009fa57634e487b7160e01b600052602260045260246000fd5b50919050565b601f82111562000a4e57600081815260208120601f850160051c8101602086101562000a295750805b601f850160051c820191505b8181101562000a4a5782815560010162000a35565b5050505b505050565b81516001600160401b0381111562000a6f5762000a6f620006dd565b62000a878162000a808454620009c4565b8462000a00565b602080601f83116001811462000abf576000841562000aa65750858301515b600019600386901b1c1916600185901b17855562000a4a565b600085815260208120601f198616915b8281101562000af05788860151825594840194600190910190840162000acf565b508582101562000b0f5787850151600019600388901b60f8161c191681555b5050505050600190811b01905550565b634e487b7160e01b600052603260045260246000fd5b81810381811115620006ba57634e487b7160e01b600052601160045260246000fd5b6132648062000b676000396000f3fe6080604052600436106102285760003560e01c80636d6ca319116101235780639de1b23d116100ab578063a8397ddc1161006f578063a8397ddc146106d5578063af402532146106f5578063b19cb81014610715578063cf30901214610734578063d547741f1461075457600080fd5b80639de1b23d14610633578063a217fddf14610653578063a46495ac14610668578063a4adcb6114610695578063a7839334146106b557600080fd5b80638216d506116100f25780638216d5061461057b57806382c2aff71461059b5780638c0a2d56146105bb57806391d14854146105db5780639d76ea58146105fb57600080fd5b80636d6ca319146104e85780637284e416146105195780637c6f1b591461052e57806380c9b2f61461055b57600080fd5b806329d36c46116101b157806336568abe1161017557806336568abe14610429578063377c9815146104495780634e1ca120146104925780636190c9d5146104b257806365cd2a4e146104c857600080fd5b806329d36c461461039c5780632eb67f53146103bc5780632f2ff15d146103d65780633109b16e146103f65780633519a2f81461041657600080fd5b80630ca2c6a9116101f85780630ca2c6a9146102dd5780630d12cc68146102fe578063116e72db1461031e578063248a9ca31461033e57806324d7806c1461037c57600080fd5b806208359d1461023457806301ffc9a71461025657806306fdde031461028b578063070092d4146102ad57600080fd5b3661022f57005b600080fd5b34801561024057600080fd5b5061025461024f3660046129c7565b610774565b005b34801561026257600080fd5b50610276610271366004612a00565b610846565b60405190151581526020015b60405180910390f35b34801561029757600080fd5b506102a061087d565b6040516102829190612a7a565b3480156102b957600080fd5b506102766102c8366004612a8d565b600c6020526000908152604090205460ff1681565b3480156102e957600080fd5b50600354610276906301000000900460ff1681565b34801561030a57600080fd5b50610254610319366004612b80565b61090b565b34801561032a57600080fd5b506102546103393660046129c7565b6109cc565b34801561034a57600080fd5b5061036e610359366004612c42565b60009081526020819052604090206001015490565b604051908152602001610282565b34801561038857600080fd5b50610276610397366004612a8d565b610ae7565b3480156103a857600080fd5b506102546103b7366004612c5b565b610af3565b3480156103c857600080fd5b506003546102769060ff1681565b3480156103e257600080fd5b506102546103f1366004612c87565b610c0b565b34801561040257600080fd5b50610254610411366004612cac565b610c35565b610254610424366004612c42565b610cb7565b34801561043557600080fd5b50610254610444366004612c87565b610d93565b34801561045557600080fd5b5061047d610464366004612a8d565b6008602052600090815260409020805460019091015482565b60408051928352602083019190915201610282565b34801561049e57600080fd5b506102546104ad366004612c5b565b610e0d565b3480156104be57600080fd5b5061036e60025481565b3480156104d457600080fd5b506102546104e3366004612cac565b611058565b3480156104f457600080fd5b50610508610503366004612c5b565b6110d6565b604051610282959493929190612cc9565b34801561052557600080fd5b506102a06111b8565b34801561053a57600080fd5b5061054e610549366004612cff565b6111c5565b6040516102829190612d74565b34801561056757600080fd5b5061036e610576366004612a8d565b6112c4565b34801561058757600080fd5b50610254610596366004612c5b565b6113b9565b3480156105a757600080fd5b506102546105b6366004612c5b565b61152e565b3480156105c757600080fd5b506102546105d6366004612a8d565b611743565b3480156105e757600080fd5b506102766105f6366004612c87565b611801565b34801561060757600080fd5b5060065461061b906001600160a01b031681565b6040516001600160a01b039091168152602001610282565b34801561063f57600080fd5b5060075461061b906001600160a01b031681565b34801561065f57600080fd5b5061036e600081565b34801561067457600080fd5b5061036e610683366004612a8d565b60096020526000908152604090205481565b3480156106a157600080fd5b506102546106b0366004612a8d565b61182a565b3480156106c157600080fd5b5061061b6106d0366004612c42565b611a07565b3480156106e157600080fd5b506102546106f0366004612dc3565b611a31565b34801561070157600080fd5b50610254610710366004612a8d565b611b4f565b34801561072157600080fd5b5060035461027690610100900460ff1681565b34801561074057600080fd5b506003546102769062010000900460ff1681565b34801561076057600080fd5b5061025461076f366004612c87565b611cf3565b61077f600033611801565b61079c57604051634ca8886760e01b815260040160405180910390fd5b6001600160a01b0382166000908152600860205260408120548391036107e55760405163f4c8fba360e01b81526001600160a01b03821660048201526024015b60405180910390fd5b6001600160a01b0383166000818152600c6020908152604091829020805460ff191686151590811790915591519182527f70d2c92da609a3045e6b2a21e9d4cd5dc02f15a3830961912b03f5b236b78c8b91015b60405180910390a2505050565b60006001600160e01b03198216637965db0b60e01b148061087757506301ffc9a760e01b6001600160e01b03198316145b92915050565b6004805461088a90612e62565b80601f01602080910402602001604051908101604052809291908181526020018280546108b690612e62565b80156109035780601f106108d857610100808354040283529160200191610903565b820191906000526020600020905b8154815290600101906020018083116108e657829003601f168201915b505050505081565b610916600033611801565b61093357604051634ca8886760e01b815260040160405180910390fd5b8151601981106109565760405163104e7cef60e31b815260040160405180910390fd5b815181146109775760405163586cb9e160e01b815260040160405180910390fd5b60005b818110156109c6576109be84828151811061099757610997612e96565b60200260200101518483815181106109b1576109b1612e96565b602002602001015161152e565b60010161097a565b50505050565b6109d7600033611801565b6109f457604051634ca8886760e01b815260040160405180910390fd5b8015610a74576001600160a01b03821660009081526008602052604090205415610a315760405163094d784960e21b815260040160405180910390fd5b610a3c600083610c0b565b6040516001600160a01b038316907f44d6d25963f097ad14f29f06854a01f575648a1ef82f30e562ccd3889717e33990600090a25050565b6007546001600160a01b0390811690831603610aa357604051634ca8886760e01b815260040160405180910390fd5b610aae600083611cf3565b6040516001600160a01b038316907fa3b62bc36326052d97ea62d63c3d60308ed4c3ea8ac079dd8499f1e9c4f80c0f90600090a25b5050565b60006108778183611801565b610afe600033611801565b610b1b57604051634ca8886760e01b815260040160405180910390fd5b6001600160a01b0382166000908152600b60205260409020548110610b5357604051632bb8b38560e11b815260040160405180910390fd5b6001600160a01b0382166000908152600b60205260408120805483908110610b7d57610b7d612e96565b906000526020600020906004020190508060020160019054906101000a900460ff1615610bbd57604051635a4a8a4360e11b815260040160405180910390fd5b60028101805461ffff19166101001790556040516001600160a01b038416907f019d1297aa228eef7dd79b31640282cbe91fbc09dc0cbf5000ca5abf72805989906108399085815260200190565b600082815260208190526040902060010154610c2681611d18565b610c308383611d22565b505050565b610c40600033611801565b610c5d57604051634ca8886760e01b815260040160405180910390fd5b6003805482151563010000000263ff0000001990911617905560405130907f70d2c92da609a3045e6b2a21e9d4cd5dc02f15a3830961912b03f5b236b78c8b90610cac90841515815260200190565b60405180910390a250565b60035460ff16610d145734600003610ce2576040516327738acf60e21b815260040160405180910390fd5b60405134815233907f8e47b87b0ef542cdfa1659c551d88bad38aa7f452d2bbb349ab7530dfec8be8f90602001610cac565b80600003610d35576040516327738acf60e21b815260040160405180910390fd5b600654610d4d906001600160a01b0316333084611da6565b60065460405182815233916001600160a01b0316907fa17c2a1269d65f89b5c5688ce949fa4a7f59d8fcb9bbbac872d27a142b2b49e79060200160405180910390a35b50565b6001600160a01b0381163314610e035760405162461bcd60e51b815260206004820152602f60248201527f416363657373436f6e74726f6c3a2063616e206f6e6c792072656e6f756e636560448201526e103937b632b9903337b91039b2b63360891b60648201526084016107dc565b610ae38282611e11565b610e18600033611801565b610e3557604051634ca8886760e01b815260040160405180910390fd5b600260015403610e575760405162461bcd60e51b81526004016107dc90612eac565b60026001556001600160a01b0382166000908152600b60205260409020548110610e9457604051632bb8b38560e11b815260040160405180910390fd5b6001600160a01b0382166000908152600b60205260408120805483908110610ebe57610ebe612e96565b906000526020600020906004020190508060020160019054906101000a900460ff1615610efe57604051635a4a8a4360e11b815260040160405180910390fd5b60028101805460ff191660011790556040516001600160a01b038416907f6f856c863eba32b6aca7d24f96817572a1f48382957c3dc9e8d4741f38afd72e90610f4a9085815260200190565b60405180910390a260035462010000900460ff1615610f7c5760405163af9e1b4360e01b815260040160405180910390fd5b600354610100900460ff1615610f9a57610f9583611e76565b610fa8565b610fa8838260000154612025565b60028101805461ff00191661010017905580546040516001600160a01b038516917f0502837c293951f8cf960d168bcedcf3e4531ffd7010af47fe48bbff7917d9b491610ffd91868252602082015260400190565b60405180910390a2826001600160a01b03167f485f1bb6524c663555797e00171a10f341656e59b02d6b557a0a38ba7d5d9751826000015483600101604051611047929190612ee3565b60405180910390a250506001805550565b611063600033611801565b61108057604051634ca8886760e01b815260040160405180910390fd5b60038054821515620100000262ff0000199091161790556040517fb08f70f6219c5c2ed5e08e7cf45080e4840fde880b27a0841faf45475cd02d2e906110cb90831515815260200190565b60405180910390a150565b600b60205281600052604060002081815481106110f257600080fd5b90600052602060002090600402016000915091505080600001549080600101805461111c90612e62565b80601f016020809104026020016040519081016040528092919081815260200182805461114890612e62565b80156111955780601f1061116a57610100808354040283529160200191611195565b820191906000526020600020905b81548152906001019060200180831161117857829003601f168201915b505050506002830154600390930154919260ff8082169361010090920416915085565b6005805461088a90612e62565b60608160008167ffffffffffffffff8111156111e3576111e3612aaa565b60405190808252806020026020018201604052801561122857816020015b60408051808201909152600080825260208201528152602001906001900390816112015790505b50905060005b828110156112bb57600086868381811061124a5761124a612e96565b905060200201602081019061125f9190612a8d565b6001600160a01b03811660009081526008602090815260409182902082518084019093528054835260010154908201528451919250908490849081106112a7576112a7612e96565b60209081029190910101525060010161122e565b50949350505050565b6001600160a01b038116600090815260086020526040812054829082036113095760405163f4c8fba360e01b81526001600160a01b03821660048201526024016107dc565b6001600160a01b0383166000908152600860209081526040918290208251808401909352805483526001015490820152600354610100900460ff16156113685760001981602001510361135e575191506113b3565b60009250506113b3565b600081602001514261137a9190612f8c565b90506002548110156113ae576002548251600091906113999084612f9f565b6113a39190612fb6565b94506113b392505050565b505191505b50919050565b6113c4600033611801565b6113e157604051634ca8886760e01b815260040160405180910390fd5b6001600160a01b0382166000908152600860205260408120548391036114255760405163f4c8fba360e01b81526001600160a01b03821660048201526024016107dc565b6509184e72a0008210801561143d575060035460ff16155b1561146a5760405163c281dd3b60e01b8152600481018390526509184e72a00060248201526044016107dc565b620f42408210801561147e575060035460ff165b156114a85760405163c281dd3b60e01b815260048101839052620f424060248201526044016107dc565b6001600160a01b0383166000908152600860205260409020828155600354610100900460ff166114e5576002546114df9042612f8c565b60018201555b836001600160a01b03167f95089b8d5f5b1df642061c1947fbec71ede04a0aaa13de4b3e1054031610a0d58460405161152091815260200190565b60405180910390a250505050565b611539600033611801565b61155657604051634ca8886760e01b815260040160405180910390fd5b600a546019116115795760405163104e7cef60e31b815260040160405180910390fd5b6115838282612237565b600354610100900460ff16156115d35760408051808201825282815260001960208083019182526001600160a01b038616600090815260089091529290922090518155905160019091015561161d565b6040518060400160405280828152602001600254426115f29190612f8c565b90526001600160a01b0383166000908152600860209081526040909120825181559101516001909101555b600a80546001808201835560008390527fc65a7bb8d6351c1cf70c95a316cc6a92839c986682d98bc35f958f4883f9d2a890910180546001600160a01b0319166001600160a01b03861617905590546116769190612f8c565b6001600160a01b0383166000908152600960205260409020556003546301000000900460ff16156116fc576001600160a01b0382166000818152600c6020908152604091829020805460ff1916600190811790915591519182527f70d2c92da609a3045e6b2a21e9d4cd5dc02f15a3830961912b03f5b236b78c8b910160405180910390a25b816001600160a01b03167f49707f6097e3d8b2d861adf67aadfb41a45746f9d46701065ed09ff12f9e41c38260405161173791815260200190565b60405180910390a25050565b6007546001600160a01b0316331461176e5760405163ea8e4eb560e01b815260040160405180910390fd5b6001600160a01b0381166117955760405163b5aaecfd60e01b815260040160405180910390fd5b600780546001600160a01b0319166001600160a01b0383169081179091556117bf90600090611e11565b6117ca600082611d22565b6040516001600160a01b038216907fb8121b611a666c4d7c03b96ba9dbc315332dc3f1aa77a22c0a1c162e55c5c32b90600090a250565b6000918252602082815260408084206001600160a01b0393909316845291905290205460ff1690565b611835600033611801565b61185257604051634ca8886760e01b815260040160405180910390fd5b6002600154036118745760405162461bcd60e51b81526004016107dc90612eac565b600260015560006001600160a01b038216611940575047801561193a576007546040516000916001600160a01b03169083908381818185875af1925050503d80600081146118de576040519150601f19603f3d011682016040523d82523d6000602084013e6118e3565b606091505b505090508061190557604051637d6a86b760e11b815260040160405180910390fd5b6040518281527f217f10a82904d12e2798042bffcd3f5c3cab8f7ea5638a4c0b804a5d6487c8fa9060200160405180910390a1505b50611a00565b6040516370a0823160e01b81523060048201526001600160a01b038316906370a0823190602401602060405180830381865afa158015611984573d6000803e3d6000fd5b505050506040513d601f19601f820116820180604052508101906119a89190612fd8565b905080156119fe576007546119ca906001600160a01b03848116911683612341565b6040518181527f217f10a82904d12e2798042bffcd3f5c3cab8f7ea5638a4c0b804a5d6487c8fa9060200160405180910390a15b505b5060018055565b600a8181548110611a1757600080fd5b6000918252602090912001546001600160a01b0316905081565b336000818152600860205260408120549003611a6b5760405163f4c8fba360e01b81526001600160a01b03821660048201526024016107dc565b600260015403611a8d5760405162461bcd60e51b81526004016107dc90612eac565b600260015560035462010000900460ff1615611abc5760405163af9e1b4360e01b815260040160405180910390fd5b336000908152600c602052604090205460ff1615611ae357611ade8383612371565b611b46565b600354610100900460ff1615611b0157611afc33611e76565b611b0b565b611b0b3384612025565b336001600160a01b03167f485f1bb6524c663555797e00171a10f341656e59b02d6b557a0a38ba7d5d97518484604051611047929190612ff1565b50506001805550565b611b5a600033611801565b611b7757604051634ca8886760e01b815260040160405180910390fd5b6001600160a01b038116600090815260086020526040812054829103611bbb5760405163f4c8fba360e01b81526001600160a01b03821660048201526024016107dc565b6001600160a01b038216600090815260096020526040812054600a8054919291611be790600190612f8c565b81548110611bf757611bf7612e96565b6000918252602090912001546001600160a01b03908116915084168114611c665780600a8381548110611c2c57611c2c612e96565b600091825260208083209190910180546001600160a01b0319166001600160a01b0394851617905591831681526009909152604090208290555b600a805480611c7757611c7761300a565b60008281526020808220600019908401810180546001600160a01b03191690559092019092556001600160a01b0386168083526008825260408084208481556001018490556009835280842084905551928352917f95089b8d5f5b1df642061c1947fbec71ede04a0aaa13de4b3e1054031610a0d59101611520565b600082815260208190526040902060010154611d0e81611d18565b610c308383611e11565b610d90813361254a565b611d2c8282611801565b610ae3576000828152602081815260408083206001600160a01b03851684529091529020805460ff19166001179055611d623390565b6001600160a01b0316816001600160a01b0316837f2f8788117e7eff1d82e926ec794901d17c78024a50270940304540a733656f0d60405160405180910390a45050565b6040516001600160a01b03808516602483015283166044820152606481018290526109c69085906323b872dd60e01b906084015b60408051601f198184030181529190526020810180516001600160e01b03166001600160e01b0319909316929092179091526125ae565b611e1b8282611801565b15610ae3576000828152602081815260408083206001600160a01b0385168085529252808320805460ff1916905551339285917ff6391f5c32d9c69d2a47ea670b442974b53935d1edc7fd64eb21e047a839171b9190a45050565b6001600160a01b0381166000908152600860205260409020600181015460001914611eb457604051632de4346760e11b815260040160405180910390fd5b805460035460ff16611f67574781811015611eec57604051631508de4560e01b815260048101839052602481018290526044016107dc565b6000846001600160a01b03168360405160006040518083038185875af1925050503d8060008114611f39576040519150601f19603f3d011682016040523d82523d6000602084013e611f3e565b606091505b5050905080611f6057604051637d6a86b760e11b815260040160405180910390fd5b505061201a565b6006546040516370a0823160e01b81523060048201526000916001600160a01b0316906370a0823190602401602060405180830381865afa158015611fb0573d6000803e3d6000fd5b505050506040513d601f19601f82011682018060405250810190611fd49190612fd8565b90508181101561200157604051631508de4560e01b815260048101839052602481018290526044016107dc565b600654612018906001600160a01b03168584612341565b505b504260019091015550565b6000612030836112c4565b90508181101561205d5760405163ba49c84f60e01b815260048101839052602481018290526044016107dc565b6001600160a01b038316600090815260086020526040812060018101546002549192909161208b9042612f8c565b905080821015612099578091505b60035460ff1661214a5747858110156120cf57604051631508de4560e01b815260048101879052602481018290526044016107dc565b6000876001600160a01b03168760405160006040518083038185875af1925050503d806000811461211c576040519150601f19603f3d011682016040523d82523d6000602084013e612121565b606091505b505090508061214357604051637d6a86b760e11b815260040160405180910390fd5b50506121fd565b6006546040516370a0823160e01b81523060048201526000916001600160a01b0316906370a0823190602401602060405180830381865afa158015612193573d6000803e3d6000fd5b505050506040513d601f19601f820116820180604052508101906121b79190612fd8565b9050858110156121e457604051631508de4560e01b815260048101879052602481018290526044016107dc565b6006546121fb906001600160a01b03168888612341565b505b83856122098442612f8c565b6122139190612f9f565b61221d9190612fb6565b6122279083613020565b8360010181905550505050505050565b6509184e72a0008110801561224f575060035460ff16155b1561227c5760405163c281dd3b60e01b8152600481018290526509184e72a00060248201526044016107dc565b620f424081108015612290575060035460ff165b156122ba5760405163c281dd3b60e01b815260048101829052620f424060248201526044016107dc565b6001600160a01b0382166122e15760405163094d784960e21b815260040160405180910390fd5b6122ec600083611801565b1561230a5760405163094d784960e21b815260040160405180910390fd5b6001600160a01b03821660009081526008602052604090205415610ae357604051637fe8efbb60e01b815260040160405180910390fd5b6040516001600160a01b038316602482015260448101829052610c3090849063a9059cbb60e01b90606401611dda565b336000818152600b6020526040812054815b818110156123e9576001600160a01b0384166000908152600b602052604090208054829081106123b5576123b5612e96565b906000526020600020906004020160020160019054906101000a900460ff166123e157600192506123e9565b600101612383565b5081156124095760405163ef97f13b60e01b815260040160405180910390fd5b6000612414336112c4565b9050858110156124415760405163ba49c84f60e01b815260048101879052602481018290526044016107dc565b336000908152600b60209081526040808320815160a0810183528a81528084018a8152928101859052606081018590524260808201528154600181810184559286529390942084516004909402019283559051908201906124a29082613081565b50604082810151600283018054606086015115156101000261ff00199315159390931661ffff1990911617919091179055608090920151600390910155336000908152600b602052908120546124fa90600190612f8c565b9050336001600160a01b03167f0aed8180bd84f93fd8a307d9c534f2081366c2231daec597d51911c89fdae2a682898960405161253993929190613141565b60405180910390a250505050505050565b6125548282611801565b610ae35761256c816001600160a01b03166014612680565b612577836020612680565b604051602001612588929190613169565b60408051601f198184030181529082905262461bcd60e51b82526107dc91600401612a7a565b6000612603826040518060400160405280602081526020017f5361666545524332303a206c6f772d6c6576656c2063616c6c206661696c6564815250856001600160a01b03166128239092919063ffffffff16565b805190915015610c30578080602001905181019061262191906131de565b610c305760405162461bcd60e51b815260206004820152602a60248201527f5361666545524332303a204552433230206f7065726174696f6e20646964206e6044820152691bdd081cdd58d8d9595960b21b60648201526084016107dc565b6060600061268f836002612f9f565b61269a906002613020565b67ffffffffffffffff8111156126b2576126b2612aaa565b6040519080825280601f01601f1916602001820160405280156126dc576020820181803683370190505b509050600360fc1b816000815181106126f7576126f7612e96565b60200101906001600160f81b031916908160001a905350600f60fb1b8160018151811061272657612726612e96565b60200101906001600160f81b031916908160001a905350600061274a846002612f9f565b612755906001613020565b90505b60018111156127cd576f181899199a1a9b1b9c1cb0b131b232b360811b85600f166010811061278957612789612e96565b1a60f81b82828151811061279f5761279f612e96565b60200101906001600160f81b031916908160001a90535060049490941c936127c6816131fb565b9050612758565b50831561281c5760405162461bcd60e51b815260206004820181905260248201527f537472696e67733a20686578206c656e67746820696e73756666696369656e7460448201526064016107dc565b9392505050565b6060612832848460008561283a565b949350505050565b60608247101561289b5760405162461bcd60e51b815260206004820152602660248201527f416464726573733a20696e73756666696369656e742062616c616e636520666f6044820152651c8818d85b1b60d21b60648201526084016107dc565b6001600160a01b0385163b6128f25760405162461bcd60e51b815260206004820152601d60248201527f416464726573733a2063616c6c20746f206e6f6e2d636f6e747261637400000060448201526064016107dc565b600080866001600160a01b0316858760405161290e9190613212565b60006040518083038185875af1925050503d806000811461294b576040519150601f19603f3d011682016040523d82523d6000602084013e612950565b606091505b509150915061296082828661296b565b979650505050505050565b6060831561297a57508161281c565b82511561298a5782518084602001fd5b8160405162461bcd60e51b81526004016107dc9190612a7a565b6001600160a01b0381168114610d9057600080fd5b8015158114610d9057600080fd5b600080604083850312156129da57600080fd5b82356129e5816129a4565b915060208301356129f5816129b9565b809150509250929050565b600060208284031215612a1257600080fd5b81356001600160e01b03198116811461281c57600080fd5b60005b83811015612a45578181015183820152602001612a2d565b50506000910152565b60008151808452612a66816020860160208601612a2a565b601f01601f19169290920160200192915050565b60208152600061281c6020830184612a4e565b600060208284031215612a9f57600080fd5b813561281c816129a4565b634e487b7160e01b600052604160045260246000fd5b604051601f8201601f1916810167ffffffffffffffff81118282101715612ae957612ae9612aaa565b604052919050565b600067ffffffffffffffff821115612b0b57612b0b612aaa565b5060051b60200190565b600082601f830112612b2657600080fd5b81356020612b3b612b3683612af1565b612ac0565b82815260059290921b84018101918181019086841115612b5a57600080fd5b8286015b84811015612b755780358352918301918301612b5e565b509695505050505050565b60008060408385031215612b9357600080fd5b823567ffffffffffffffff80821115612bab57600080fd5b818501915085601f830112612bbf57600080fd5b81356020612bcf612b3683612af1565b82815260059290921b84018101918181019089841115612bee57600080fd5b948201945b83861015612c15578535612c06816129a4565b82529482019490820190612bf3565b96505086013592505080821115612c2b57600080fd5b50612c3885828601612b15565b9150509250929050565b600060208284031215612c5457600080fd5b5035919050565b60008060408385031215612c6e57600080fd5b8235612c79816129a4565b946020939093013593505050565b60008060408385031215612c9a57600080fd5b8235915060208301356129f5816129a4565b600060208284031215612cbe57600080fd5b813561281c816129b9565b85815260a060208201526000612ce260a0830187612a4e565b941515604083015250911515606083015260809091015292915050565b60008060208385031215612d1257600080fd5b823567ffffffffffffffff80821115612d2a57600080fd5b818501915085601f830112612d3e57600080fd5b813581811115612d4d57600080fd5b8660208260051b8501011115612d6257600080fd5b60209290920196919550909350505050565b602080825282518282018190526000919060409081850190868401855b82811015612db657815180518552860151868501529284019290850190600101612d91565b5091979650505050505050565b60008060408385031215612dd657600080fd5b8235915060208084013567ffffffffffffffff80821115612df657600080fd5b818601915086601f830112612e0a57600080fd5b813581811115612e1c57612e1c612aaa565b612e2e601f8201601f19168501612ac0565b91508082528784828501011115612e4457600080fd5b80848401858401376000848284010152508093505050509250929050565b600181811c90821680612e7657607f821691505b6020821081036113b357634e487b7160e01b600052602260045260246000fd5b634e487b7160e01b600052603260045260246000fd5b6020808252601f908201527f5265656e7472616e637947756172643a207265656e7472616e742063616c6c00604082015260600190565b8281526000602060408184015260008454612efd81612e62565b8060408701526060600180841660008114612f1f5760018114612f3957612f67565b60ff1985168984015283151560051b890183019550612f67565b896000528660002060005b85811015612f5f5781548b8201860152908301908801612f44565b8a0184019650505b50939998505050505050505050565b634e487b7160e01b600052601160045260246000fd5b8181038181111561087757610877612f76565b808202811582820484141761087757610877612f76565b600082612fd357634e487b7160e01b600052601260045260246000fd5b500490565b600060208284031215612fea57600080fd5b5051919050565b8281526040602082015260006128326040830184612a4e565b634e487b7160e01b600052603160045260246000fd5b8082018082111561087757610877612f76565b601f821115610c3057600081815260208120601f850160051c8101602086101561305a5750805b601f850160051c820191505b8181101561307957828155600101613066565b505050505050565b815167ffffffffffffffff81111561309b5761309b612aaa565b6130af816130a98454612e62565b84613033565b602080601f8311600181146130e457600084156130cc5750858301515b600019600386901b1c1916600185901b178555613079565b600085815260208120601f198616915b82811015613113578886015182559484019460019091019084016130f4565b50858210156131315787850151600019600388901b60f8161c191681555b5050505050600190811b01905550565b8381528260208201526060604082015260006131606060830184612a4e565b95945050505050565b7f416363657373436f6e74726f6c3a206163636f756e74200000000000000000008152600083516131a1816017850160208801612a2a565b7001034b99036b4b9b9b4b733903937b6329607d1b60179184019182015283516131d2816028840160208801612a2a565b01602801949350505050565b6000602082840312156131f057600080fd5b815161281c816129b9565b60008161320a5761320a612f76565b506000190190565b60008251613224818460208701612a2a565b919091019291505056fea26469706673582212202735e9a11286120f879a3b90d1d981491bddbf1d8546c227d0452044b887210764736f6c63430008140033",
  "devdoc": {
    "details": "Main contract for streaming ETH or ERC20 tokens to builders Inherits all functionality from modular contracts",
    "events": {
      "RoleAdminChanged(bytes32,bytes32,bytes32)": {
        "details": "Emitted when `newAdminRole` is set as ``role``'s admin role, replacing `previousAdminRole` `DEFAULT_ADMIN_ROLE` is the starting admin for all roles, despite {RoleAdminChanged} not being emitted signaling this. _Available since v3.1._"
      },
      "RoleGranted(bytes32,address,address)": {
        "details": "Emitted when `account` is granted `role`. `sender` is the account that originated the contract call, an admin role bearer except when using {AccessControl-_setupRole}."
      },
      "RoleRevoked(bytes32,address,address)": {
        "details": "Emitted when `account` is revoked `role`. `sender` is the account that originated the contract call:   - if using `revokeRole`, it is the admin role bearer   - if using `renounceRole`, it is the role bearer (i.e. `account`)"
      }
    },
    "kind": "dev",
    "methods": {
      "addBatch(address[],uint256[])": {
        "details": "Add a batch of builders",
        "params": {
          "_builders": "Array of builder addresses",
          "_caps": "Array of cap values"
        }
      },
      "addBuilderStream(address,uint256)": {
        "details": "Add a new builder's stream",
        "params": {
          "_builder": "Builder address",
          "_cap": "Maximum amount of funds that can be withdrawn in a cycle"
        }
      },
      "allBuildersData(address[])": {
        "details": "Get all builders' data",
        "params": {
          "_builders": "Array of builder addresses"
        },
        "returns": {
          "_0": "Array of BuilderStreamInfo for each builder"
        }
      },
      "approveWithdraw(address,uint256)": {
        "details": "Approve and complete a withdrawal request in one step",
        "params": {
          "_builder": "Builder address",
          "_requestId": "ID of the request to approve and complete"
        }
      },
      "constructor": {
        "details": "Constructor that passes parameters to the base contract",
        "params": {
          "_builders": "Array of builder addresses",
          "_caps": "Array of cap values for builders",
          "_cycle": "Cycle duration",
          "_description": "Description of the cohort",
          "_name": "Name of the cohort",
          "_primaryAdmin": "Address of the primary admin",
          "_requiresApproval": "Whether withdrawals require approval",
          "_tokenAddress": "Address of ERC20 token (zero address for ETH)"
        }
      },
      "drainContract(address)": {
        "details": "Drain the contract to the primary admin address",
        "params": {
          "_token": "Token address (zero address for ETH)"
        }
      },
      "fundContract(uint256)": {
        "details": "Fund the contract with ETH or ERC20 tokens",
        "params": {
          "_amount": "Amount to fund (for ERC20 tokens)"
        }
      },
      "getRoleAdmin(bytes32)": {
        "details": "Returns the admin role that controls `role`. See {grantRole} and {revokeRole}. To change a role's admin, use {_setRoleAdmin}."
      },
      "grantRole(bytes32,address)": {
        "details": "Grants `role` to `account`. If `account` had not been already granted `role`, emits a {RoleGranted} event. Requirements: - the caller must have ``role``'s admin role."
      },
      "hasRole(bytes32,address)": {
        "details": "Returns `true` if `account` has been granted `role`."
      },
      "isAdmin(address)": {
        "details": "Function to check if an address is an admin"
      },
      "modifyAdminRole(address,bool)": {
        "details": "Modify admin roles",
        "params": {
          "adminAddress": "Address to grant/revoke admin role",
          "shouldGrant": "Whether to grant or revoke the role"
        }
      },
      "rejectWithdraw(address,uint256)": {
        "details": "Reject a withdrawal request",
        "params": {
          "_builder": "Builder address",
          "_requestId": "ID of the request to reject"
        }
      },
      "removeBuilderStream(address)": {
        "details": "Remove a builder's stream",
        "params": {
          "_builder": "Builder address"
        }
      },
      "renounceRole(bytes32,address)": {
        "details": "Revokes `role` from the calling account. Roles are often managed via {grantRole} and {revokeRole}: this function's purpose is to provide a mechanism for accounts to lose their privileges if they are compromised (such as when a trusted device is misplaced). If the calling account had been revoked `role`, emits a {RoleRevoked} event. Requirements: - the caller must be `account`."
      },
      "revokeRole(bytes32,address)": {
        "details": "Revokes `role` from `account`. If `account` had been granted `role`, emits a {RoleRevoked} event. Requirements: - the caller must have ``role``'s admin role."
      },
      "setBuilderApprovalRequirement(address,bool)": {
        "details": "Set whether a builder requires approval for withdrawals",
        "params": {
          "_builder": "Builder address",
          "_requiresApproval": "Whether the builder requires approval"
        }
      },
      "streamWithdraw(uint256,string)": {
        "details": "Stream withdraw for a builder",
        "params": {
          "_amount": "Amount to withdraw",
          "_reason": "Reason for withdrawal"
        }
      },
      "supportsInterface(bytes4)": {
        "details": "See {IERC165-supportsInterface}."
      },
      "toggleContractApprovalRequirement(bool)": {
        "details": "Set whether this contract requires approval for withdrawals",
        "params": {
          "_enable": "Whether to require approval"
        }
      },
      "toggleLock(bool)": {
        "details": "Lock or unlock the contract",
        "params": {
          "_enable": "Whether to lock the contract"
        }
      },
      "transferPrimaryAdmin(address)": {
        "details": "Transfer primary admin role",
        "params": {
          "newPrimaryAdmin": "Address of the new primary admin"
        }
      },
      "unlockedBuilderAmount(address)": {
        "details": "Get the unlocked amount for a builder",
        "params": {
          "_builder": "Builder address"
        },
        "returns": {
          "_0": "Unlocked amount for the builder"
        }
      },
      "updateBuilderStreamCap(address,uint256)": {
        "details": "Update a builder's stream cap",
        "params": {
          "_builder": "Builder address",
          "_newCap": "New cap value"
        }
      }
    },
    "title": "Cohort",
    "version": 1
  },
  "userdoc": {
    "kind": "user",
    "methods": {},
    "version": 1
  },
  "storageLayout": {
    "storage": [
      {
        "astId": 70,
        "contract": "contracts/Cohort.sol:Cohort",
        "label": "_roles",
        "offset": 0,
        "slot": "0",
        "type": "t_mapping(t_bytes32,t_struct(RoleData)65_storage)"
      },
      {
        "astId": 554,
        "contract": "contracts/Cohort.sol:Cohort",
        "label": "_status",
        "offset": 0,
        "slot": "1",
        "type": "t_uint256"
      },
      {
        "astId": 2139,
        "contract": "contracts/Cohort.sol:Cohort",
        "label": "cycle",
        "offset": 0,
        "slot": "2",
        "type": "t_uint256"
      },
      {
        "astId": 2141,
        "contract": "contracts/Cohort.sol:Cohort",
        "label": "isERC20",
        "offset": 0,
        "slot": "3",
        "type": "t_bool"
      },
      {
        "astId": 2143,
        "contract": "contracts/Cohort.sol:Cohort",
        "label": "isONETIME",
        "offset": 1,
        "slot": "3",
        "type": "t_bool"
      },
      {
        "astId": 2145,
        "contract": "contracts/Cohort.sol:Cohort",
        "label": "locked",
        "offset": 2,
        "slot": "3",
        "type": "t_bool"
      },
      {
        "astId": 2147,
        "contract": "contracts/Cohort.sol:Cohort",
        "label": "requireApprovalForWithdrawals",
        "offset": 3,
        "slot": "3",
        "type": "t_bool"
      },
      {
        "astId": 2149,
        "contract": "contracts/Cohort.sol:Cohort",
        "label": "name",
        "offset": 0,
        "slot": "4",
        "type": "t_string_storage"
      },
      {
        "astId": 2151,
        "contract": "contracts/Cohort.sol:Cohort",
        "label": "description",
        "offset": 0,
        "slot": "5",
        "type": "t_string_storage"
      },
      {
        "astId": 2153,
        "contract": "contracts/Cohort.sol:Cohort",
        "label": "tokenAddress",
        "offset": 0,
        "slot": "6",
        "type": "t_address"
      },
      {
        "astId": 2155,
        "contract": "contracts/Cohort.sol:Cohort",
        "label": "primaryAdmin",
        "offset": 0,
        "slot": "7",
        "type": "t_address"
      },
      {
        "astId": 2160,
        "contract": "contracts/Cohort.sol:Cohort",
        "label": "streamingBuilders",
        "offset": 0,
        "slot": "8",
        "type": "t_mapping(t_address,t_struct(BuilderStreamInfo)3261_storage)"
      },
      {
        "astId": 2164,
        "contract": "contracts/Cohort.sol:Cohort",
        "label": "builderIndex",
        "offset": 0,
        "slot": "9",
        "type": "t_mapping(t_address,t_uint256)"
      },
      {
        "astId": 2167,
        "contract": "contracts/Cohort.sol:Cohort",
        "label": "activeBuilders",
        "offset": 0,
        "slot": "10",
        "type": "t_array(t_address)dyn_storage"
      },
      {
        "astId": 2173,
        "contract": "contracts/Cohort.sol:Cohort",
        "label": "withdrawRequests",
        "offset": 0,
        "slot": "11",
        "type": "t_mapping(t_address,t_array(t_struct(WithdrawRequest)3272_storage)dyn_storage)"
      },
      {
        "astId": 2177,
        "contract": "contracts/Cohort.sol:Cohort",
        "label": "requiresApproval",
        "offset": 0,
        "slot": "12",
        "type": "t_mapping(t_address,t_bool)"
      }
    ],
    "types": {
      "t_address": {
        "encoding": "inplace",
        "label": "address",
        "numberOfBytes": "20"
      },
      "t_array(t_address)dyn_storage": {
        "base": "t_address",
        "encoding": "dynamic_array",
        "label": "address[]",
        "numberOfBytes": "32"
      },
      "t_array(t_struct(WithdrawRequest)3272_storage)dyn_storage": {
        "base": "t_struct(WithdrawRequest)3272_storage",
        "encoding": "dynamic_array",
        "label": "struct ICohortStructs.WithdrawRequest[]",
        "numberOfBytes": "32"
      },
      "t_bool": {
        "encoding": "inplace",
        "label": "bool",
        "numberOfBytes": "1"
      },
      "t_bytes32": {
        "encoding": "inplace",
        "label": "bytes32",
        "numberOfBytes": "32"
      },
      "t_mapping(t_address,t_array(t_struct(WithdrawRequest)3272_storage)dyn_storage)": {
        "encoding": "mapping",
        "key": "t_address",
        "label": "mapping(address => struct ICohortStructs.WithdrawRequest[])",
        "numberOfBytes": "32",
        "value": "t_array(t_struct(WithdrawRequest)3272_storage)dyn_storage"
      },
      "t_mapping(t_address,t_bool)": {
        "encoding": "mapping",
        "key": "t_address",
        "label": "mapping(address => bool)",
        "numberOfBytes": "32",
        "value": "t_bool"
      },
      "t_mapping(t_address,t_struct(BuilderStreamInfo)3261_storage)": {
        "encoding": "mapping",
        "key": "t_address",
        "label": "mapping(address => struct ICohortStructs.BuilderStreamInfo)",
        "numberOfBytes": "32",
        "value": "t_struct(BuilderStreamInfo)3261_storage"
      },
      "t_mapping(t_address,t_uint256)": {
        "encoding": "mapping",
        "key": "t_address",
        "label": "mapping(address => uint256)",
        "numberOfBytes": "32",
        "value": "t_uint256"
      },
      "t_mapping(t_bytes32,t_struct(RoleData)65_storage)": {
        "encoding": "mapping",
        "key": "t_bytes32",
        "label": "mapping(bytes32 => struct AccessControl.RoleData)",
        "numberOfBytes": "32",
        "value": "t_struct(RoleData)65_storage"
      },
      "t_string_storage": {
        "encoding": "bytes",
        "label": "string",
        "numberOfBytes": "32"
      },
      "t_struct(BuilderStreamInfo)3261_storage": {
        "encoding": "inplace",
        "label": "struct ICohortStructs.BuilderStreamInfo",
        "members": [
          {
            "astId": 3258,
            "contract": "contracts/Cohort.sol:Cohort",
            "label": "cap",
            "offset": 0,
            "slot": "0",
            "type": "t_uint256"
          },
          {
            "astId": 3260,
            "contract": "contracts/Cohort.sol:Cohort",
            "label": "last",
            "offset": 0,
            "slot": "1",
            "type": "t_uint256"
          }
        ],
        "numberOfBytes": "64"
      },
      "t_struct(RoleData)65_storage": {
        "encoding": "inplace",
        "label": "struct AccessControl.RoleData",
        "members": [
          {
            "astId": 62,
            "contract": "contracts/Cohort.sol:Cohort",
            "label": "members",
            "offset": 0,
            "slot": "0",
            "type": "t_mapping(t_address,t_bool)"
          },
          {
            "astId": 64,
            "contract": "contracts/Cohort.sol:Cohort",
            "label": "adminRole",
            "offset": 0,
            "slot": "1",
            "type": "t_bytes32"
          }
        ],
        "numberOfBytes": "64"
      },
      "t_struct(WithdrawRequest)3272_storage": {
        "encoding": "inplace",
        "label": "struct ICohortStructs.WithdrawRequest",
        "members": [
          {
            "astId": 3263,
            "contract": "contracts/Cohort.sol:Cohort",
            "label": "amount",
            "offset": 0,
            "slot": "0",
            "type": "t_uint256"
          },
          {
            "astId": 3265,
            "contract": "contracts/Cohort.sol:Cohort",
            "label": "reason",
            "offset": 0,
            "slot": "1",
            "type": "t_string_storage"
          },
          {
            "astId": 3267,
            "contract": "contracts/Cohort.sol:Cohort",
            "label": "approved",
            "offset": 0,
            "slot": "2",
            "type": "t_bool"
          },
          {
            "astId": 3269,
            "contract": "contracts/Cohort.sol:Cohort",
            "label": "completed",
            "offset": 1,
            "slot": "2",
            "type": "t_bool"
          },
          {
            "astId": 3271,
            "contract": "contracts/Cohort.sol:Cohort",
            "label": "requestTime",
            "offset": 0,
            "slot": "3",
            "type": "t_uint256"
          }
        ],
        "numberOfBytes": "128"
      },
      "t_uint256": {
        "encoding": "inplace",
        "label": "uint256",
        "numberOfBytes": "32"
      }
    }
  }
}