{
  "address": "0x31581aC1754A51237d5F44B4f8ccaa296E98f403",
  "abi": [
    {
      "inputs": [
        {
          "internalType": "address",
          "name": "_priceFeed",
          "type": "address"
        }
      ],
      "stateMutability": "nonpayable",
      "type": "constructor"
    },
    {
      "inputs": [],
      "name": "FailedToSendETH",
      "type": "error"
    },
    {
      "inputs": [
        {
          "internalType": "uint256",
          "name": "required",
          "type": "uint256"
        },
        {
          "internalType": "uint256",
          "name": "provided",
          "type": "uint256"
        }
      ],
      "name": "InsufficientPayment",
      "type": "error"
    },
    {
      "inputs": [],
      "name": "InvalidFeeAmount",
      "type": "error"
    },
    {
      "inputs": [],
      "name": "PriceFeedInvalid",
      "type": "error"
    },
    {
      "inputs": [],
      "name": "StalePrice",
      "type": "error"
    },
    {
      "anonymous": false,
      "inputs": [
        {
          "indexed": true,
          "internalType": "address",
          "name": "cohortAddress",
          "type": "address"
        },
        {
          "indexed": true,
          "internalType": "address",
          "name": "primaryAdmin",
          "type": "address"
        },
        {
          "indexed": false,
          "internalType": "string",
          "name": "name",
          "type": "string"
        },
        {
          "indexed": false,
          "internalType": "string",
          "name": "description",
          "type": "string"
        }
      ],
      "name": "CohortCreated",
      "type": "event"
    },
    {
      "anonymous": false,
      "inputs": [
        {
          "indexed": false,
          "internalType": "uint256",
          "name": "oldFee",
          "type": "uint256"
        },
        {
          "indexed": false,
          "internalType": "uint256",
          "name": "newFee",
          "type": "uint256"
        }
      ],
      "name": "CreationFeeUpdated",
      "type": "event"
    },
    {
      "anonymous": false,
      "inputs": [
        {
          "indexed": true,
          "internalType": "address",
          "name": "previousOwner",
          "type": "address"
        },
        {
          "indexed": true,
          "internalType": "address",
          "name": "newOwner",
          "type": "address"
        }
      ],
      "name": "OwnershipTransferred",
      "type": "event"
    },
    {
      "anonymous": false,
      "inputs": [
        {
          "indexed": false,
          "internalType": "address",
          "name": "newPriceFeed",
          "type": "address"
        }
      ],
      "name": "PriceFeedUpdated",
      "type": "event"
    },
    {
      "inputs": [
        {
          "internalType": "uint256",
          "name": "",
          "type": "uint256"
        }
      ],
      "name": "cohortRegistry",
      "outputs": [
        {
          "internalType": "address",
          "name": "cohortAddress",
          "type": "address"
        },
        {
          "internalType": "string",
          "name": "name",
          "type": "string"
        },
        {
          "internalType": "uint256",
          "name": "creationTimestamp",
          "type": "uint256"
        }
      ],
      "stateMutability": "view",
      "type": "function"
    },
    {
      "inputs": [
        {
          "internalType": "address",
          "name": "_primaryAdmin",
          "type": "address"
        },
        {
          "internalType": "address",
          "name": "_tokenAddress",
          "type": "address"
        },
        {
          "internalType": "string",
          "name": "_name",
          "type": "string"
        },
        {
          "internalType": "string",
          "name": "_description",
          "type": "string"
        },
        {
          "internalType": "uint256",
          "name": "_cycle",
          "type": "uint256"
        },
        {
          "internalType": "address[]",
          "name": "_builders",
          "type": "address[]"
        },
        {
          "internalType": "uint256[]",
          "name": "_caps",
          "type": "uint256[]"
        },
        {
          "internalType": "bool",
          "name": "_requiresApproval",
          "type": "bool"
        }
      ],
      "name": "createCohort",
      "outputs": [
        {
          "internalType": "address",
          "name": "",
          "type": "address"
        }
      ],
      "stateMutability": "payable",
      "type": "function"
    },
    {
      "inputs": [],
      "name": "creationFeeUSD",
      "outputs": [
        {
          "internalType": "uint256",
          "name": "",
          "type": "uint256"
        }
      ],
      "stateMutability": "view",
      "type": "function"
    },
    {
      "inputs": [],
      "name": "getAllCohorts",
      "outputs": [
        {
          "components": [
            {
              "internalType": "address",
              "name": "cohortAddress",
              "type": "address"
            },
            {
              "internalType": "string",
              "name": "name",
              "type": "string"
            },
            {
              "internalType": "uint256",
              "name": "creationTimestamp",
              "type": "uint256"
            }
          ],
          "internalType": "struct CohortFactory.CohortInfo[]",
          "name": "",
          "type": "tuple[]"
        }
      ],
      "stateMutability": "view",
      "type": "function"
    },
    {
      "inputs": [
        {
          "internalType": "uint256",
          "name": "_index",
          "type": "uint256"
        }
      ],
      "name": "getCohortByIndex",
      "outputs": [
        {
          "components": [
            {
              "internalType": "address",
              "name": "cohortAddress",
              "type": "address"
            },
            {
              "internalType": "string",
              "name": "name",
              "type": "string"
            },
            {
              "internalType": "uint256",
              "name": "creationTimestamp",
              "type": "uint256"
            }
          ],
          "internalType": "struct CohortFactory.CohortInfo",
          "name": "",
          "type": "tuple"
        }
      ],
      "stateMutability": "view",
      "type": "function"
    },
    {
      "inputs": [],
      "name": "getRequiredEthAmount",
      "outputs": [
        {
          "internalType": "uint256",
          "name": "",
          "type": "uint256"
        }
      ],
      "stateMutability": "view",
      "type": "function"
    },
    {
      "inputs": [],
      "name": "getTotalCohorts",
      "outputs": [
        {
          "internalType": "uint256",
          "name": "",
          "type": "uint256"
        }
      ],
      "stateMutability": "view",
      "type": "function"
    },
    {
      "inputs": [
        {
          "internalType": "address",
          "name": "",
          "type": "address"
        }
      ],
      "name": "isCohort",
      "outputs": [
        {
          "internalType": "bool",
          "name": "",
          "type": "bool"
        }
      ],
      "stateMutability": "view",
      "type": "function"
    },
    {
      "inputs": [],
      "name": "owner",
      "outputs": [
        {
          "internalType": "address",
          "name": "",
          "type": "address"
        }
      ],
      "stateMutability": "view",
      "type": "function"
    },
    {
      "inputs": [],
      "name": "renounceOwnership",
      "outputs": [],
      "stateMutability": "nonpayable",
      "type": "function"
    },
    {
      "inputs": [],
      "name": "totalCohorts",
      "outputs": [
        {
          "internalType": "uint256",
          "name": "",
          "type": "uint256"
        }
      ],
      "stateMutability": "view",
      "type": "function"
    },
    {
      "inputs": [
        {
          "internalType": "address",
          "name": "newOwner",
          "type": "address"
        }
      ],
      "name": "transferOwnership",
      "outputs": [],
      "stateMutability": "nonpayable",
      "type": "function"
    },
    {
      "inputs": [
        {
          "internalType": "uint256",
          "name": "_newFeeUSD",
          "type": "uint256"
        }
      ],
      "name": "updateCreationFee",
      "outputs": [],
      "stateMutability": "nonpayable",
      "type": "function"
    },
    {
      "inputs": [
        {
          "internalType": "address",
          "name": "_newPriceFeed",
          "type": "address"
        }
      ],
      "name": "updatePriceFeed",
      "outputs": [],
      "stateMutability": "nonpayable",
      "type": "function"
    }
  ],
  "transactionHash": "0xa3cbc1e229f068450c06569e992cc00414669278583dbaac0d5c47b1eb4d2a6a",
  "args": [
    "0x639Fe6ab55C921f74e7fac1ee960C0B6293ba612"
  ],
  "numDeployments": 6,
  "solcInputHash": "604d78eb139b3995f1df2b8c15494f92",
  "bytecode": "0x608060405234801561001057600080fd5b50604051620055af380380620055af833981016040819052610031916100e2565b61003a33610092565b6001600160a01b038116610061576040516307806b6560e31b815260040160405180910390fd5b600180546001600160a01b0319166001600160a01b039290921691909117905567016345785d8a0000600255610112565b600080546001600160a01b038381166001600160a01b0319831681178455604051919092169283917f8be0079c531659141344cd1fd0a4f28419497f9722a3daafe3b4186f6b6457e09190a35050565b6000602082840312156100f457600080fd5b81516001600160a01b038116811461010b57600080fd5b9392505050565b61548d80620001226000396000f3fe608060405260043610620000ef5760003560e01c806376590738116200008957806395877f78116200006057806395877f7814620002965780639b8a969e14620002bb578063a2299a9d14620002d3578063f2fde38b14620002eb57600080fd5b806376590738146200021257806382954b8b14620002465780638da5cb5b146200027657600080fd5b80634e73e35511620000ca5780634e73e35514620001945780636a8479b214620001bb5780636fa2379514620001d3578063715018a614620001fa57600080fd5b8063114be58514620000f45780633d5e5ed914620001195780634bdcda92146200014f575b600080fd5b3480156200010157600080fd5b506005545b6040519081526020015b60405180910390f35b3480156200012657600080fd5b506200013e6200013836600462000d44565b62000310565b604051620001109392919062000da6565b3480156200015c57600080fd5b50620001836200016e36600462000df9565b60036020526000908152604090205460ff1681565b604051901515815260200162000110565b348015620001a157600080fd5b50620001ac620003cd565b60405162000110919062000e5b565b348015620001c857600080fd5b506200010660025481565b348015620001e057600080fd5b50620001f8620001f236600462000d44565b6200056d565b005b3480156200020757600080fd5b50620001f862000609565b3480156200021f57600080fd5b50620002376200023136600462000d44565b62000644565b60405162000110919062000ec1565b6200025d62000257366004620010ad565b62000792565b6040516001600160a01b03909116815260200162000110565b3480156200028357600080fd5b506000546001600160a01b03166200025d565b348015620002a357600080fd5b50620001f8620002b536600462000df9565b620009fb565b348015620002c857600080fd5b506200010662000aa4565b348015620002e057600080fd5b506200010660055481565b348015620002f857600080fd5b50620001f86200030a36600462000df9565b62000af3565b600460205260009081526040902080546001820180546001600160a01b0390921692916200033e90620011a9565b80601f01602080910402602001604051908101604052809291908181526020018280546200036c90620011a9565b8015620003bd5780601f106200039157610100808354040283529160200191620003bd565b820191906000526020600020905b8154815290600101906020018083116200039f57829003601f168201915b5050505050908060020154905083565b6060600060055467ffffffffffffffff811115620003ef57620003ef62000ed6565b6040519080825280602002602001820160405280156200045057816020015b6200043c604051806060016040528060006001600160a01b0316815260200160608152602001600081525090565b8152602001906001900390816200040e5790505b50905060005b600554811015620005675760008181526004602090815260409182902082516060810190935280546001600160a01b0316835260018101805491928401916200049f90620011a9565b80601f0160208091040260200160405190810160405280929190818152602001828054620004cd90620011a9565b80156200051e5780601f10620004f2576101008083540402835291602001916200051e565b820191906000526020600020905b8154815290600101906020018083116200050057829003601f168201915b50505050508152602001600282015481525050828281518110620005465762000546620011df565b602002602001018190525080806200055e906200120b565b91505062000456565b50919050565b6000546001600160a01b03163314620005a35760405162461bcd60e51b81526004016200059a9062001227565b60405180910390fd5b80600003620005c45760405162a4671960e71b815260040160405180910390fd5b600280549082905560408051828152602081018490527f5de302eeb1c80d4fb0c0953b692353f09ddf431411b8eb2034d5e85769561912910160405180910390a15050565b6000546001600160a01b03163314620006365760405162461bcd60e51b81526004016200059a9062001227565b62000642600062000b95565b565b62000672604051806060016040528060006001600160a01b0316815260200160608152602001600081525090565b6005548210620006bb5760405162461bcd60e51b8152602060048201526013602482015272496e646578206f7574206f6620626f756e647360681b60448201526064016200059a565b60008281526004602090815260409182902082516060810190935280546001600160a01b031683526001810180549192840191620006f990620011a9565b80601f01602080910402602001604051908101604052809291908181526020018280546200072790620011a9565b8015620007785780601f106200074c5761010080835404028352916020019162000778565b820191906000526020600020905b8154815290600101906020018083116200075a57829003601f168201915b505050505081526020016002820154815250509050919050565b6000806200079f62000aa4565b600254600154919250610e1091620007c39034906001600160a01b03168462000be5565b1015620007ed5760405163b99e2ab760e01b8152600481018390523460248201526044016200059a565b60008b8b8b8b8b8b8b8b604051620008059062000d36565b6200081898979695949392919062001299565b604051809103906000f08015801562000835573d6000803e3d6000fd5b5090506000819050600160036000836001600160a01b03166001600160a01b0316815260200190815260200160002060006101000a81548160ff021916908315150217905550600060055490506040518060600160405280836001600160a01b031681526020018d8152602001428152506004600083815260200190815260200160002060008201518160000160006101000a8154816001600160a01b0302191690836001600160a01b031602179055506020820151816001019081620008fd9190620013a8565b5060409190910151600290910155600580549060006200091d836200120b565b9091555050600080546040516001600160a01b039091169034908381818185875af1925050503d806000811462000971576040519150601f19603f3d011682016040523d82523d6000602084013e62000976565b606091505b505090508062000999576040516338822c1360e11b815260040160405180910390fd5b8e6001600160a01b0316836001600160a01b03167f570e843f430e9c07b135675740293a86d5c98eb4b737091ea2c5cb61ae9293bf8f8f604051620009e092919062001475565b60405180910390a350909d9c50505050505050505050505050565b6000546001600160a01b0316331462000a285760405162461bcd60e51b81526004016200059a9062001227565b6001600160a01b03811662000a50576040516307806b6560e31b815260040160405180910390fd5b600180546001600160a01b0319166001600160a01b0383169081179091556040519081527fe5b20b8497e4f3e2435ef9c20e2e26b47497ee13745ce1c681ad6640653119e69060200160405180910390a150565b600154600090610e1090829062000ac5906001600160a01b03168362000c23565b905080600254670de0b6b3a764000062000ae09190620014a7565b62000aec9190620014c1565b9250505090565b6000546001600160a01b0316331462000b205760405162461bcd60e51b81526004016200059a9062001227565b6001600160a01b03811662000b875760405162461bcd60e51b815260206004820152602660248201527f4f776e61626c653a206e6577206f776e657220697320746865207a65726f206160448201526564647265737360d01b60648201526084016200059a565b62000b928162000b95565b50565b600080546001600160a01b038381166001600160a01b0319831681178455604051919092169283917f8be0079c531659141344cd1fd0a4f28419497f9722a3daafe3b4186f6b6457e09190a35050565b60008062000bf4848462000c23565b90506000670de0b6b3a764000062000c0d8784620014a7565b62000c199190620014c1565b9695505050505050565b6000806000806000866001600160a01b031663feaf968c6040518163ffffffff1660e01b815260040160a060405180830381865afa15801562000c6a573d6000803e3d6000fd5b505050506040513d601f19601f8201168201806040525081019062000c909190620014ff565b9450945050935093508369ffffffffffffffffffff166000148062000cb6575060008313155b8062000cc0575081155b8062000ce357508369ffffffffffffffffffff168169ffffffffffffffffffff16105b8062000cf957508562000cf7834262001554565b115b1562000d1857604051630cd5fa0760e11b815260040160405180910390fd5b62000d29836402540be4006200156a565b9450505050505b92915050565b613eb780620015a183390190565b60006020828403121562000d5757600080fd5b5035919050565b6000815180845260005b8181101562000d865760208185018101518683018201520162000d68565b506000602082860101526020601f19601f83011685010191505092915050565b6001600160a01b038416815260606020820181905260009062000dcc9083018562000d5e565b9050826040830152949350505050565b80356001600160a01b038116811462000df457600080fd5b919050565b60006020828403121562000e0c57600080fd5b62000e178262000ddc565b9392505050565b60018060a01b038151168252600060208201516060602085015262000e47606085018262000d5e565b604093840151949093019390935250919050565b6000602080830181845280855180835260408601915060408160051b870101925083870160005b8281101562000eb457603f1988860301845262000ea185835162000e1e565b9450928501929085019060010162000e82565b5092979650505050505050565b60208152600062000e17602083018462000e1e565b634e487b7160e01b600052604160045260246000fd5b604051601f8201601f1916810167ffffffffffffffff8111828210171562000f185762000f1862000ed6565b604052919050565b600082601f83011262000f3257600080fd5b813567ffffffffffffffff81111562000f4f5762000f4f62000ed6565b62000f64601f8201601f191660200162000eec565b81815284602083860101111562000f7a57600080fd5b816020850160208301376000918101602001919091529392505050565b600067ffffffffffffffff82111562000fb45762000fb462000ed6565b5060051b60200190565b600082601f83011262000fd057600080fd5b8135602062000fe962000fe38362000f97565b62000eec565b82815260059290921b840181019181810190868411156200100957600080fd5b8286015b848110156200102f57620010218162000ddc565b83529183019183016200100d565b509695505050505050565b600082601f8301126200104c57600080fd5b813560206200105f62000fe38362000f97565b82815260059290921b840181019181810190868411156200107f57600080fd5b8286015b848110156200102f578035835291830191830162001083565b8035801515811462000df457600080fd5b600080600080600080600080610100898b031215620010cb57600080fd5b620010d68962000ddc565b9750620010e660208a0162000ddc565b9650604089013567ffffffffffffffff808211156200110457600080fd5b620011128c838d0162000f20565b975060608b01359150808211156200112957600080fd5b620011378c838d0162000f20565b965060808b0135955060a08b01359150808211156200115557600080fd5b620011638c838d0162000fbe565b945060c08b01359150808211156200117a57600080fd5b50620011898b828c016200103a565b9250506200119a60e08a016200109c565b90509295985092959890939650565b600181811c90821680620011be57607f821691505b6020821081036200056757634e487b7160e01b600052602260045260246000fd5b634e487b7160e01b600052603260045260246000fd5b634e487b7160e01b600052601160045260246000fd5b600060018201620012205762001220620011f5565b5060010190565b6020808252818101527f4f776e61626c653a2063616c6c6572206973206e6f7420746865206f776e6572604082015260600190565b600081518084526020808501945080840160005b838110156200128e5781518752958201959082019060010162001270565b509495945050505050565b600061010060018060a01b03808c1684526020818c1681860152826040860152620012c78386018c62000d5e565b92508483036060860152620012dd838b62000d5e565b608086018a905285810360a08701528851808252828a0194509082019060005b818110156200131d578551851683529483019491830191600101620012fd565b505085810360c08701526200133381896200125c565b9450505050506200134860e083018415159052565b9998505050505050505050565b601f821115620013a357600081815260208120601f850160051c810160208610156200137e5750805b601f850160051c820191505b818110156200139f578281556001016200138a565b5050505b505050565b815167ffffffffffffffff811115620013c557620013c562000ed6565b620013dd81620013d68454620011a9565b8462001355565b602080601f831160018114620014155760008415620013fc5750858301515b600019600386901b1c1916600185901b1785556200139f565b600085815260208120601f198616915b82811015620014465788860151825594840194600190910190840162001425565b5085821015620014655787850151600019600388901b60f8161c191681555b5050505050600190811b01905550565b6040815260006200148a604083018562000d5e565b82810360208401526200149e818562000d5e565b95945050505050565b808202811582820484141762000d305762000d30620011f5565b600082620014df57634e487b7160e01b600052601260045260246000fd5b500490565b805169ffffffffffffffffffff8116811462000df457600080fd5b600080600080600060a086880312156200151857600080fd5b6200152386620014e4565b94506020860151935060408601519250606086015191506200154860808701620014e4565b90509295509295909350565b8181038181111562000d305762000d30620011f5565b80820260008212600160ff1b84141615620015895762001589620011f5565b818105831482151762000d305762000d30620011f556fe60806040523480156200001157600080fd5b5060405162003eb738038062003eb78339810160408190526200003491620008c8565b8787878787878787600180819055506028865111156200007957855160405163062a8dff60e41b81526004810191909152602860248201526044015b60405180910390fd5b62000086600089620004f7565b600780546001600160a01b0319166001600160a01b038a161790556004620000af878262000a53565b506005620000be868262000a53565b5060028490556003805463ff00000019166301000000831515021790556001600160a01b0387161562000116576003805460ff19166001179055600680546001600160a01b0389166001600160a01b03199091161790555b836000036200012f576003805461ff0019166101001790555b825115620004e1578251601981106200015b5760405163104e7cef60e31b815260040160405180910390fd5b825181146200017d5760405163586cb9e160e01b815260040160405180910390fd5b60005b81811015620004de57620001d3858281518110620001a257620001a262000b1f565b6020026020010151858381518110620001bf57620001bf62000b1f565b60200260200101516200058060201b60201c565b60025460000362000261576040518060400160405280858381518110620001fe57620001fe62000b1f565b60200260200101518152602001600019815250600860008784815181106200022a576200022a62000b1f565b6020908102919091018101516001600160a01b031682528181019290925260400160002082518155910151600190910155620002ea565b604051806040016040528085838151811062000281576200028162000b1f565b6020026020010151815260200187426200029c919062000b35565b81525060086000878481518110620002b857620002b862000b1f565b6020908102919091018101516001600160a01b0316825281810192909252604001600020825181559101516001909101555b600a85828151811062000301576200030162000b1f565b60209081029190910181015182546001808201855560009485529290932090920180546001600160a01b0319166001600160a01b0390931692909217909155600a546200034f919062000b35565b6009600087848151811062000368576200036862000b1f565b60200260200101516001600160a01b03166001600160a01b0316815260200190815260200160002081905550848181518110620003a957620003a962000b1f565b60200260200101516001600160a01b03167f49707f6097e3d8b2d861adf67aadfb41a45746f9d46701065ed09ff12f9e41c3858381518110620003f057620003f062000b1f565b60200260200101516040516200040891815260200190565b60405180910390a28215620004d5576001600c600087848151811062000432576200043262000b1f565b60200260200101516001600160a01b03166001600160a01b0316815260200190815260200160002060006101000a81548160ff02191690831515021790555084818151811062000486576200048662000b1f565b60200260200101516001600160a01b03167f70d2c92da609a3045e6b2a21e9d4cd5dc02f15a3830961912b03f5b236b78c8b6001604051620004cc911515815260200190565b60405180910390a25b60010162000180565b50505b5050505050505050505050505050505062000b57565b62000503828262000695565b6200057c576000828152602081815260408083206001600160a01b03851684529091529020805460ff191660011790556200053b3390565b6001600160a01b0316816001600160a01b0316837f2f8788117e7eff1d82e926ec794901d17c78024a50270940304540a733656f0d60405160405180910390a45b5050565b6509184e72a0008110801562000599575060035460ff16155b15620005c85760405163c281dd3b60e01b8152600481018290526509184e72a000602482015260440162000070565b620f424081108015620005dd575060035460ff165b15620006095760405163c281dd3b60e01b815260048101829052620f4240602482015260440162000070565b6001600160a01b038216620006315760405163094d784960e21b815260040160405180910390fd5b6200063e60008362000695565b156200065d5760405163094d784960e21b815260040160405180910390fd5b6001600160a01b038216600090815260086020526040902054156200057c57604051637fe8efbb60e01b815260040160405180910390fd5b6000828152602081815260408083206001600160a01b038516845290915290205460ff165b92915050565b80516001600160a01b0381168114620006d857600080fd5b919050565b634e487b7160e01b600052604160045260246000fd5b604051601f8201601f191681016001600160401b03811182821017156200071e576200071e620006dd565b604052919050565b600082601f8301126200073857600080fd5b81516001600160401b03811115620007545762000754620006dd565b60206200076a601f8301601f19168201620006f3565b82815285828487010111156200077f57600080fd5b60005b838110156200079f57858101830151828201840152820162000782565b506000928101909101919091529392505050565b60006001600160401b03821115620007cf57620007cf620006dd565b5060051b60200190565b600082601f830112620007eb57600080fd5b8151602062000804620007fe83620007b3565b620006f3565b82815260059290921b840181019181810190868411156200082457600080fd5b8286015b848110156200084a576200083c81620006c0565b835291830191830162000828565b509695505050505050565b600082601f8301126200086757600080fd5b815160206200087a620007fe83620007b3565b82815260059290921b840181019181810190868411156200089a57600080fd5b8286015b848110156200084a57805183529183019183016200089e565b80518015158114620006d857600080fd5b600080600080600080600080610100898b031215620008e657600080fd5b620008f189620006c0565b97506200090160208a01620006c0565b60408a01519097506001600160401b03808211156200091f57600080fd5b6200092d8c838d0162000726565b975060608b01519150808211156200094457600080fd5b620009528c838d0162000726565b965060808b0151955060a08b01519150808211156200097057600080fd5b6200097e8c838d01620007d9565b945060c08b01519150808211156200099557600080fd5b50620009a48b828c0162000855565b925050620009b560e08a01620008b7565b90509295985092959890939650565b600181811c90821680620009d957607f821691505b602082108103620009fa57634e487b7160e01b600052602260045260246000fd5b50919050565b601f82111562000a4e57600081815260208120601f850160051c8101602086101562000a295750805b601f850160051c820191505b8181101562000a4a5782815560010162000a35565b5050505b505050565b81516001600160401b0381111562000a6f5762000a6f620006dd565b62000a878162000a808454620009c4565b8462000a00565b602080601f83116001811462000abf576000841562000aa65750858301515b600019600386901b1c1916600185901b17855562000a4a565b600085815260208120601f198616915b8281101562000af05788860151825594840194600190910190840162000acf565b508582101562000b0f5787850151600019600388901b60f8161c191681555b5050505050600190811b01905550565b634e487b7160e01b600052603260045260246000fd5b81810381811115620006ba57634e487b7160e01b600052601160045260246000fd5b6133508062000b676000396000f3fe6080604052600436106102335760003560e01c806365cd2a4e1161012e5780639de1b23d116100ab578063a8397ddc1161006f578063a8397ddc14610700578063af40253214610720578063b19cb81014610740578063cf3090121461075f578063d547741f1461077f57600080fd5b80639de1b23d1461065e578063a217fddf1461067e578063a46495ac14610693578063a4adcb61146106c0578063a7839334146106e057600080fd5b80638216d506116100f25780638216d506146105a657806382c2aff7146105c65780638c0a2d56146105e657806391d14854146106065780639d76ea581461062657600080fd5b806365cd2a4e146104f35780636d6ca319146105135780637284e416146105445780637c6f1b591461055957806380c9b2f61461058657600080fd5b806324d7806c116101bc5780633519a2f8116101805780633519a2f81461044157806336568abe14610454578063377c9815146104745780634e1ca120146104bd5780636190c9d5146104dd57600080fd5b806324d7806c146103a757806329d36c46146103c75780632eb67f53146103e75780632f2ff15d146104015780633109b16e1461042157600080fd5b80630ca2c6a9116102035780630ca2c6a9146102e85780630d12cc6814610309578063116e72db146103295780632087ed5c14610349578063248a9ca31461036957600080fd5b806208359d1461023f57806301ffc9a71461026157806306fdde0314610296578063070092d4146102b857600080fd5b3661023a57005b600080fd5b34801561024b57600080fd5b5061025f61025a366004612ab3565b61079f565b005b34801561026d57600080fd5b5061028161027c366004612aec565b610871565b60405190151581526020015b60405180910390f35b3480156102a257600080fd5b506102ab6108a8565b60405161028d9190612b66565b3480156102c457600080fd5b506102816102d3366004612b79565b600c6020526000908152604090205460ff1681565b3480156102f457600080fd5b50600354610281906301000000900460ff1681565b34801561031557600080fd5b5061025f610324366004612c6c565b610936565b34801561033557600080fd5b5061025f610344366004612ab3565b6109f7565b34801561035557600080fd5b5061025f610364366004612d2e565b610b12565b34801561037557600080fd5b50610399610384366004612d2e565b60009081526020819052604090206001015490565b60405190815260200161028d565b3480156103b357600080fd5b506102816103c2366004612b79565b610d34565b3480156103d357600080fd5b5061025f6103e2366004612d47565b610d40565b3480156103f357600080fd5b506003546102819060ff1681565b34801561040d57600080fd5b5061025f61041c366004612d73565b610e58565b34801561042d57600080fd5b5061025f61043c366004612d98565b610e82565b61025f61044f366004612d2e565b610f04565b34801561046057600080fd5b5061025f61046f366004612d73565b610fe0565b34801561048057600080fd5b506104a861048f366004612b79565b6008602052600090815260409020805460019091015482565b6040805192835260208301919091520161028d565b3480156104c957600080fd5b5061025f6104d8366004612d47565b61105a565b3480156104e957600080fd5b5061039960025481565b3480156104ff57600080fd5b5061025f61050e366004612d98565b611170565b34801561051f57600080fd5b5061053361052e366004612d47565b6111ee565b60405161028d959493929190612db5565b34801561055057600080fd5b506102ab6112d0565b34801561056557600080fd5b50610579610574366004612deb565b6112dd565b60405161028d9190612e60565b34801561059257600080fd5b506103996105a1366004612b79565b6113dc565b3480156105b257600080fd5b5061025f6105c1366004612d47565b6114d1565b3480156105d257600080fd5b5061025f6105e1366004612d47565b611646565b3480156105f257600080fd5b5061025f610601366004612b79565b61185b565b34801561061257600080fd5b50610281610621366004612d73565b611919565b34801561063257600080fd5b50600654610646906001600160a01b031681565b6040516001600160a01b03909116815260200161028d565b34801561066a57600080fd5b50600754610646906001600160a01b031681565b34801561068a57600080fd5b50610399600081565b34801561069f57600080fd5b506103996106ae366004612b79565b60096020526000908152604090205481565b3480156106cc57600080fd5b5061025f6106db366004612b79565b611942565b3480156106ec57600080fd5b506106466106fb366004612d2e565b611b1f565b34801561070c57600080fd5b5061025f61071b366004612eaf565b611b49565b34801561072c57600080fd5b5061025f61073b366004612b79565b611c65565b34801561074c57600080fd5b5060035461028190610100900460ff1681565b34801561076b57600080fd5b506003546102819062010000900460ff1681565b34801561078b57600080fd5b5061025f61079a366004612d73565b611e09565b6107aa600033611919565b6107c757604051634ca8886760e01b815260040160405180910390fd5b6001600160a01b0382166000908152600860205260408120548391036108105760405163f4c8fba360e01b81526001600160a01b03821660048201526024015b60405180910390fd5b6001600160a01b0383166000818152600c6020908152604091829020805460ff191686151590811790915591519182527f70d2c92da609a3045e6b2a21e9d4cd5dc02f15a3830961912b03f5b236b78c8b91015b60405180910390a2505050565b60006001600160e01b03198216637965db0b60e01b14806108a257506301ffc9a760e01b6001600160e01b03198316145b92915050565b600480546108b590612f4e565b80601f01602080910402602001604051908101604052809291908181526020018280546108e190612f4e565b801561092e5780601f106109035761010080835404028352916020019161092e565b820191906000526020600020905b81548152906001019060200180831161091157829003601f168201915b505050505081565b610941600033611919565b61095e57604051634ca8886760e01b815260040160405180910390fd5b8151601981106109815760405163104e7cef60e31b815260040160405180910390fd5b815181146109a25760405163586cb9e160e01b815260040160405180910390fd5b60005b818110156109f1576109e98482815181106109c2576109c2612f82565b60200260200101518483815181106109dc576109dc612f82565b6020026020010151611646565b6001016109a5565b50505050565b610a02600033611919565b610a1f57604051634ca8886760e01b815260040160405180910390fd5b8015610a9f576001600160a01b03821660009081526008602052604090205415610a5c5760405163094d784960e21b815260040160405180910390fd5b610a67600083610e58565b6040516001600160a01b038316907f44d6d25963f097ad14f29f06854a01f575648a1ef82f30e562ccd3889717e33990600090a25050565b6007546001600160a01b0390811690831603610ace57604051634ca8886760e01b815260040160405180910390fd5b610ad9600083611e09565b6040516001600160a01b038316907fa3b62bc36326052d97ea62d63c3d60308ed4c3ea8ac079dd8499f1e9c4f80c0f90600090a25b5050565b336000818152600860205260408120549003610b4c5760405163f4c8fba360e01b81526001600160a01b0382166004820152602401610807565b600260015403610b6e5760405162461bcd60e51b815260040161080790612f98565b600260015560035462010000900460ff1615610b9d5760405163af9e1b4360e01b815260040160405180910390fd5b336000908152600b60205260409020548210610bcc57604051632bb8b38560e11b815260040160405180910390fd5b336000908152600b60205260408120805484908110610bed57610bed612f82565b906000526020600020906004020190508060020160019054906101000a900460ff1615610c2d57604051635a4a8a4360e11b815260040160405180910390fd5b336000908152600c602052604090205460ff168015610c515750600281015460ff16155b15610c6f57604051632b811a4760e11b815260040160405180910390fd5b600354610100900460ff1615610c8c57610c87611e2e565b610c97565b8054610c9790611fc8565b60028101805461ff001916610100179055805460405133917f0502837c293951f8cf960d168bcedcf3e4531ffd7010af47fe48bbff7917d9b491610ce391878252602082015260400190565b60405180910390a2805460405133917f485f1bb6524c663555797e00171a10f341656e59b02d6b557a0a38ba7d5d975191610d2391906001860190612fcf565b60405180910390a250506001805550565b60006108a28183611919565b610d4b600033611919565b610d6857604051634ca8886760e01b815260040160405180910390fd5b6001600160a01b0382166000908152600b60205260409020548110610da057604051632bb8b38560e11b815260040160405180910390fd5b6001600160a01b0382166000908152600b60205260408120805483908110610dca57610dca612f82565b906000526020600020906004020190508060020160019054906101000a900460ff1615610e0a57604051635a4a8a4360e11b815260040160405180910390fd5b60028101805461ffff19166101001790556040516001600160a01b038416907f019d1297aa228eef7dd79b31640282cbe91fbc09dc0cbf5000ca5abf72805989906108649085815260200190565b600082815260208190526040902060010154610e73816121c5565b610e7d83836121cf565b505050565b610e8d600033611919565b610eaa57604051634ca8886760e01b815260040160405180910390fd5b6003805482151563010000000263ff0000001990911617905560405130907f70d2c92da609a3045e6b2a21e9d4cd5dc02f15a3830961912b03f5b236b78c8b90610ef990841515815260200190565b60405180910390a250565b60035460ff16610f615734600003610f2f576040516327738acf60e21b815260040160405180910390fd5b60405134815233907f8e47b87b0ef542cdfa1659c551d88bad38aa7f452d2bbb349ab7530dfec8be8f90602001610ef9565b80600003610f82576040516327738acf60e21b815260040160405180910390fd5b600654610f9a906001600160a01b0316333084612253565b60065460405182815233916001600160a01b0316907fa17c2a1269d65f89b5c5688ce949fa4a7f59d8fcb9bbbac872d27a142b2b49e79060200160405180910390a35b50565b6001600160a01b03811633146110505760405162461bcd60e51b815260206004820152602f60248201527f416363657373436f6e74726f6c3a2063616e206f6e6c792072656e6f756e636560448201526e103937b632b9903337b91039b2b63360891b6064820152608401610807565b610b0e82826122be565b611065600033611919565b61108257604051634ca8886760e01b815260040160405180910390fd5b6001600160a01b0382166000908152600b602052604090205481106110ba57604051632bb8b38560e11b815260040160405180910390fd5b6001600160a01b0382166000908152600b602052604081208054839081106110e4576110e4612f82565b906000526020600020906004020190508060020160019054906101000a900460ff161561112457604051635a4a8a4360e11b815260040160405180910390fd5b60028101805460ff191660011790556040516001600160a01b038416907f6f856c863eba32b6aca7d24f96817572a1f48382957c3dc9e8d4741f38afd72e906108649085815260200190565b61117b600033611919565b61119857604051634ca8886760e01b815260040160405180910390fd5b60038054821515620100000262ff0000199091161790556040517fb08f70f6219c5c2ed5e08e7cf45080e4840fde880b27a0841faf45475cd02d2e906111e390831515815260200190565b60405180910390a150565b600b602052816000526040600020818154811061120a57600080fd5b90600052602060002090600402016000915091505080600001549080600101805461123490612f4e565b80601f016020809104026020016040519081016040528092919081815260200182805461126090612f4e565b80156112ad5780601f10611282576101008083540402835291602001916112ad565b820191906000526020600020905b81548152906001019060200180831161129057829003601f168201915b505050506002830154600390930154919260ff8082169361010090920416915085565b600580546108b590612f4e565b60608160008167ffffffffffffffff8111156112fb576112fb612b96565b60405190808252806020026020018201604052801561134057816020015b60408051808201909152600080825260208201528152602001906001900390816113195790505b50905060005b828110156113d357600086868381811061136257611362612f82565b90506020020160208101906113779190612b79565b6001600160a01b03811660009081526008602090815260409182902082518084019093528054835260010154908201528451919250908490849081106113bf576113bf612f82565b602090810291909101015250600101611346565b50949350505050565b6001600160a01b038116600090815260086020526040812054829082036114215760405163f4c8fba360e01b81526001600160a01b0382166004820152602401610807565b6001600160a01b0383166000908152600860209081526040918290208251808401909352805483526001015490820152600354610100900460ff161561148057600019816020015103611476575191506114cb565b60009250506114cb565b60008160200151426114929190613078565b90506002548110156114c6576002548251600091906114b1908461308b565b6114bb91906130a2565b94506114cb92505050565b505191505b50919050565b6114dc600033611919565b6114f957604051634ca8886760e01b815260040160405180910390fd5b6001600160a01b03821660009081526008602052604081205483910361153d5760405163f4c8fba360e01b81526001600160a01b0382166004820152602401610807565b6509184e72a00082108015611555575060035460ff16155b156115825760405163c281dd3b60e01b8152600481018390526509184e72a0006024820152604401610807565b620f424082108015611596575060035460ff165b156115c05760405163c281dd3b60e01b815260048101839052620f42406024820152604401610807565b6001600160a01b0383166000908152600860205260409020828155600354610100900460ff166115fd576002546115f79042613078565b60018201555b836001600160a01b03167f95089b8d5f5b1df642061c1947fbec71ede04a0aaa13de4b3e1054031610a0d58460405161163891815260200190565b60405180910390a250505050565b611651600033611919565b61166e57604051634ca8886760e01b815260040160405180910390fd5b600a546019116116915760405163104e7cef60e31b815260040160405180910390fd5b61169b8282612323565b600354610100900460ff16156116eb5760408051808201825282815260001960208083019182526001600160a01b0386166000908152600890915292909220905181559051600190910155611735565b60405180604001604052808281526020016002544261170a9190613078565b90526001600160a01b0383166000908152600860209081526040909120825181559101516001909101555b600a80546001808201835560008390527fc65a7bb8d6351c1cf70c95a316cc6a92839c986682d98bc35f958f4883f9d2a890910180546001600160a01b0319166001600160a01b038616179055905461178e9190613078565b6001600160a01b0383166000908152600960205260409020556003546301000000900460ff1615611814576001600160a01b0382166000818152600c6020908152604091829020805460ff1916600190811790915591519182527f70d2c92da609a3045e6b2a21e9d4cd5dc02f15a3830961912b03f5b236b78c8b910160405180910390a25b816001600160a01b03167f49707f6097e3d8b2d861adf67aadfb41a45746f9d46701065ed09ff12f9e41c38260405161184f91815260200190565b60405180910390a25050565b6007546001600160a01b031633146118865760405163ea8e4eb560e01b815260040160405180910390fd5b6001600160a01b0381166118ad5760405163b5aaecfd60e01b815260040160405180910390fd5b600780546001600160a01b0319166001600160a01b0383169081179091556118d7906000906122be565b6118e26000826121cf565b6040516001600160a01b038216907fb8121b611a666c4d7c03b96ba9dbc315332dc3f1aa77a22c0a1c162e55c5c32b90600090a250565b6000918252602082815260408084206001600160a01b0393909316845291905290205460ff1690565b61194d600033611919565b61196a57604051634ca8886760e01b815260040160405180910390fd5b60026001540361198c5760405162461bcd60e51b815260040161080790612f98565b600260015560006001600160a01b038216611a585750478015611a52576007546040516000916001600160a01b03169083908381818185875af1925050503d80600081146119f6576040519150601f19603f3d011682016040523d82523d6000602084013e6119fb565b606091505b5050905080611a1d57604051637d6a86b760e11b815260040160405180910390fd5b6040518281527f217f10a82904d12e2798042bffcd3f5c3cab8f7ea5638a4c0b804a5d6487c8fa9060200160405180910390a1505b50611b18565b6040516370a0823160e01b81523060048201526001600160a01b038316906370a0823190602401602060405180830381865afa158015611a9c573d6000803e3d6000fd5b505050506040513d601f19601f82011682018060405250810190611ac091906130c4565b90508015611b1657600754611ae2906001600160a01b0384811691168361242d565b6040518181527f217f10a82904d12e2798042bffcd3f5c3cab8f7ea5638a4c0b804a5d6487c8fa9060200160405180910390a15b505b5060018055565b600a8181548110611b2f57600080fd5b6000918252602090912001546001600160a01b0316905081565b336000818152600860205260408120549003611b835760405163f4c8fba360e01b81526001600160a01b0382166004820152602401610807565b600260015403611ba55760405162461bcd60e51b815260040161080790612f98565b600260015560035462010000900460ff1615611bd45760405163af9e1b4360e01b815260040160405180910390fd5b336000908152600c602052604090205460ff1615611bfb57611bf6838361245d565b611c5c565b600354610100900460ff1615611c1857611c13611e2e565b611c21565b611c2183611fc8565b336001600160a01b03167f485f1bb6524c663555797e00171a10f341656e59b02d6b557a0a38ba7d5d97518484604051610d239291906130dd565b50506001805550565b611c70600033611919565b611c8d57604051634ca8886760e01b815260040160405180910390fd5b6001600160a01b038116600090815260086020526040812054829103611cd15760405163f4c8fba360e01b81526001600160a01b0382166004820152602401610807565b6001600160a01b038216600090815260096020526040812054600a8054919291611cfd90600190613078565b81548110611d0d57611d0d612f82565b6000918252602090912001546001600160a01b03908116915084168114611d7c5780600a8381548110611d4257611d42612f82565b600091825260208083209190910180546001600160a01b0319166001600160a01b0394851617905591831681526009909152604090208290555b600a805480611d8d57611d8d6130f6565b60008281526020808220600019908401810180546001600160a01b03191690559092019092556001600160a01b0386168083526008825260408084208481556001018490556009835280842084905551928352917f95089b8d5f5b1df642061c1947fbec71ede04a0aaa13de4b3e1054031610a0d59101611638565b600082815260208190526040902060010154611e24816121c5565b610e7d83836122be565b336000908152600860205260409020600181015460001914611e6357604051632de4346760e11b815260040160405180910390fd5b805460035460ff16611f0b574781811015611e9b57604051631508de4560e01b81526004810183905260248101829052604401610807565b604051600090339084908381818185875af1925050503d8060008114611edd576040519150601f19603f3d011682016040523d82523d6000602084013e611ee2565b606091505b5050905080611f0457604051637d6a86b760e11b815260040160405180910390fd5b5050611fbe565b6006546040516370a0823160e01b81523060048201526000916001600160a01b0316906370a0823190602401602060405180830381865afa158015611f54573d6000803e3d6000fd5b505050506040513d601f19601f82011682018060405250810190611f7891906130c4565b905081811015611fa557604051631508de4560e01b81526004810183905260248101829052604401610807565b600654611fbc906001600160a01b0316338461242d565b505b5042600190910155565b6000611fd3336113dc565b9050818110156120005760405163ba49c84f60e01b81526004810183905260248101829052604401610807565b3360009081526008602052604081206001810154600254919290916120259042613078565b905080821015612033578091505b60035460ff166120d957478581101561206957604051631508de4560e01b81526004810187905260248101829052604401610807565b604051600090339088908381818185875af1925050503d80600081146120ab576040519150601f19603f3d011682016040523d82523d6000602084013e6120b0565b606091505b50509050806120d257604051637d6a86b760e11b815260040160405180910390fd5b505061218c565b6006546040516370a0823160e01b81523060048201526000916001600160a01b0316906370a0823190602401602060405180830381865afa158015612122573d6000803e3d6000fd5b505050506040513d601f19601f8201168201806040525081019061214691906130c4565b90508581101561217357604051631508de4560e01b81526004810187905260248101829052604401610807565b60065461218a906001600160a01b0316338861242d565b505b83856121988442613078565b6121a2919061308b565b6121ac91906130a2565b6121b6908361310c565b83600101819055505050505050565b610fdd8133612636565b6121d98282611919565b610b0e576000828152602081815260408083206001600160a01b03851684529091529020805460ff1916600117905561220f3390565b6001600160a01b0316816001600160a01b0316837f2f8788117e7eff1d82e926ec794901d17c78024a50270940304540a733656f0d60405160405180910390a45050565b6040516001600160a01b03808516602483015283166044820152606481018290526109f19085906323b872dd60e01b906084015b60408051601f198184030181529190526020810180516001600160e01b03166001600160e01b03199093169290921790915261269a565b6122c88282611919565b15610b0e576000828152602081815260408083206001600160a01b0385168085529252808320805460ff1916905551339285917ff6391f5c32d9c69d2a47ea670b442974b53935d1edc7fd64eb21e047a839171b9190a45050565b6509184e72a0008110801561233b575060035460ff16155b156123685760405163c281dd3b60e01b8152600481018290526509184e72a0006024820152604401610807565b620f42408110801561237c575060035460ff165b156123a65760405163c281dd3b60e01b815260048101829052620f42406024820152604401610807565b6001600160a01b0382166123cd5760405163094d784960e21b815260040160405180910390fd5b6123d8600083611919565b156123f65760405163094d784960e21b815260040160405180910390fd5b6001600160a01b03821660009081526008602052604090205415610b0e57604051637fe8efbb60e01b815260040160405180910390fd5b6040516001600160a01b038316602482015260448101829052610e7d90849063a9059cbb60e01b90606401612287565b336000818152600b6020526040812054815b818110156124d5576001600160a01b0384166000908152600b602052604090208054829081106124a1576124a1612f82565b906000526020600020906004020160020160019054906101000a900460ff166124cd57600192506124d5565b60010161246f565b5081156124f55760405163ef97f13b60e01b815260040160405180910390fd5b6000612500336113dc565b90508581101561252d5760405163ba49c84f60e01b81526004810187905260248101829052604401610807565b336000908152600b60209081526040808320815160a0810183528a81528084018a81529281018590526060810185905242608082015281546001818101845592865293909420845160049094020192835590519082019061258e908261316d565b50604082810151600283018054606086015115156101000261ff00199315159390931661ffff1990911617919091179055608090920151600390910155336000908152600b602052908120546125e690600190613078565b9050336001600160a01b03167f0aed8180bd84f93fd8a307d9c534f2081366c2231daec597d51911c89fdae2a68289896040516126259392919061322d565b60405180910390a250505050505050565b6126408282611919565b610b0e57612658816001600160a01b0316601461276c565b61266383602061276c565b604051602001612674929190613255565b60408051601f198184030181529082905262461bcd60e51b825261080791600401612b66565b60006126ef826040518060400160405280602081526020017f5361666545524332303a206c6f772d6c6576656c2063616c6c206661696c6564815250856001600160a01b031661290f9092919063ffffffff16565b805190915015610e7d578080602001905181019061270d91906132ca565b610e7d5760405162461bcd60e51b815260206004820152602a60248201527f5361666545524332303a204552433230206f7065726174696f6e20646964206e6044820152691bdd081cdd58d8d9595960b21b6064820152608401610807565b6060600061277b83600261308b565b61278690600261310c565b67ffffffffffffffff81111561279e5761279e612b96565b6040519080825280601f01601f1916602001820160405280156127c8576020820181803683370190505b509050600360fc1b816000815181106127e3576127e3612f82565b60200101906001600160f81b031916908160001a905350600f60fb1b8160018151811061281257612812612f82565b60200101906001600160f81b031916908160001a905350600061283684600261308b565b61284190600161310c565b90505b60018111156128b9576f181899199a1a9b1b9c1cb0b131b232b360811b85600f166010811061287557612875612f82565b1a60f81b82828151811061288b5761288b612f82565b60200101906001600160f81b031916908160001a90535060049490941c936128b2816132e7565b9050612844565b5083156129085760405162461bcd60e51b815260206004820181905260248201527f537472696e67733a20686578206c656e67746820696e73756666696369656e746044820152606401610807565b9392505050565b606061291e8484600085612926565b949350505050565b6060824710156129875760405162461bcd60e51b815260206004820152602660248201527f416464726573733a20696e73756666696369656e742062616c616e636520666f6044820152651c8818d85b1b60d21b6064820152608401610807565b6001600160a01b0385163b6129de5760405162461bcd60e51b815260206004820152601d60248201527f416464726573733a2063616c6c20746f206e6f6e2d636f6e74726163740000006044820152606401610807565b600080866001600160a01b031685876040516129fa91906132fe565b60006040518083038185875af1925050503d8060008114612a37576040519150601f19603f3d011682016040523d82523d6000602084013e612a3c565b606091505b5091509150612a4c828286612a57565b979650505050505050565b60608315612a66575081612908565b825115612a765782518084602001fd5b8160405162461bcd60e51b81526004016108079190612b66565b6001600160a01b0381168114610fdd57600080fd5b8015158114610fdd57600080fd5b60008060408385031215612ac657600080fd5b8235612ad181612a90565b91506020830135612ae181612aa5565b809150509250929050565b600060208284031215612afe57600080fd5b81356001600160e01b03198116811461290857600080fd5b60005b83811015612b31578181015183820152602001612b19565b50506000910152565b60008151808452612b52816020860160208601612b16565b601f01601f19169290920160200192915050565b6020815260006129086020830184612b3a565b600060208284031215612b8b57600080fd5b813561290881612a90565b634e487b7160e01b600052604160045260246000fd5b604051601f8201601f1916810167ffffffffffffffff81118282101715612bd557612bd5612b96565b604052919050565b600067ffffffffffffffff821115612bf757612bf7612b96565b5060051b60200190565b600082601f830112612c1257600080fd5b81356020612c27612c2283612bdd565b612bac565b82815260059290921b84018101918181019086841115612c4657600080fd5b8286015b84811015612c615780358352918301918301612c4a565b509695505050505050565b60008060408385031215612c7f57600080fd5b823567ffffffffffffffff80821115612c9757600080fd5b818501915085601f830112612cab57600080fd5b81356020612cbb612c2283612bdd565b82815260059290921b84018101918181019089841115612cda57600080fd5b948201945b83861015612d01578535612cf281612a90565b82529482019490820190612cdf565b96505086013592505080821115612d1757600080fd5b50612d2485828601612c01565b9150509250929050565b600060208284031215612d4057600080fd5b5035919050565b60008060408385031215612d5a57600080fd5b8235612d6581612a90565b946020939093013593505050565b60008060408385031215612d8657600080fd5b823591506020830135612ae181612a90565b600060208284031215612daa57600080fd5b813561290881612aa5565b85815260a060208201526000612dce60a0830187612b3a565b941515604083015250911515606083015260809091015292915050565b60008060208385031215612dfe57600080fd5b823567ffffffffffffffff80821115612e1657600080fd5b818501915085601f830112612e2a57600080fd5b813581811115612e3957600080fd5b8660208260051b8501011115612e4e57600080fd5b60209290920196919550909350505050565b602080825282518282018190526000919060409081850190868401855b82811015612ea257815180518552860151868501529284019290850190600101612e7d565b5091979650505050505050565b60008060408385031215612ec257600080fd5b8235915060208084013567ffffffffffffffff80821115612ee257600080fd5b818601915086601f830112612ef657600080fd5b813581811115612f0857612f08612b96565b612f1a601f8201601f19168501612bac565b91508082528784828501011115612f3057600080fd5b80848401858401376000848284010152508093505050509250929050565b600181811c90821680612f6257607f821691505b6020821081036114cb57634e487b7160e01b600052602260045260246000fd5b634e487b7160e01b600052603260045260246000fd5b6020808252601f908201527f5265656e7472616e637947756172643a207265656e7472616e742063616c6c00604082015260600190565b8281526000602060408184015260008454612fe981612f4e565b806040870152606060018084166000811461300b576001811461302557613053565b60ff1985168984015283151560051b890183019550613053565b896000528660002060005b8581101561304b5781548b8201860152908301908801613030565b8a0184019650505b50939998505050505050505050565b634e487b7160e01b600052601160045260246000fd5b818103818111156108a2576108a2613062565b80820281158282048414176108a2576108a2613062565b6000826130bf57634e487b7160e01b600052601260045260246000fd5b500490565b6000602082840312156130d657600080fd5b5051919050565b82815260406020820152600061291e6040830184612b3a565b634e487b7160e01b600052603160045260246000fd5b808201808211156108a2576108a2613062565b601f821115610e7d57600081815260208120601f850160051c810160208610156131465750805b601f850160051c820191505b8181101561316557828155600101613152565b505050505050565b815167ffffffffffffffff81111561318757613187612b96565b61319b816131958454612f4e565b8461311f565b602080601f8311600181146131d057600084156131b85750858301515b600019600386901b1c1916600185901b178555613165565b600085815260208120601f198616915b828110156131ff578886015182559484019460019091019084016131e0565b508582101561321d5787850151600019600388901b60f8161c191681555b5050505050600190811b01905550565b83815282602082015260606040820152600061324c6060830184612b3a565b95945050505050565b7f416363657373436f6e74726f6c3a206163636f756e742000000000000000000081526000835161328d816017850160208801612b16565b7001034b99036b4b9b9b4b733903937b6329607d1b60179184019182015283516132be816028840160208801612b16565b01602801949350505050565b6000602082840312156132dc57600080fd5b815161290881612aa5565b6000816132f6576132f6613062565b506000190190565b60008251613310818460208701612b16565b919091019291505056fea2646970667358221220d06b566b72462f4b182656620beb5fe486f668c98698950a5c8986f1319de88f64736f6c63430008140033a26469706673582212207aa0baa6eab006269ce8891c604e0d8bc74a877b982f123770a2cfde23252ab564736f6c63430008140033",
  "devdoc": {
    "details": "Factory contract for deploying new Cohort contracts with an updatable creation fee",
    "kind": "dev",
    "methods": {
      "constructor": {
        "details": "Constructor sets the price feed address and initial creation fee",
        "params": {
          "_priceFeed": "Chainlink price feed address for ETH/USD"
        }
      },
      "createCohort(address,address,string,string,uint256,address[],uint256[],bool)": {
        "details": "Creates a new Cohort contract",
        "params": {
          "_builders": "Array of builder addresses",
          "_caps": "Array of cap values for builders",
          "_cycle": "Cycle duration",
          "_description": "Description of the cohort",
          "_name": "Name of the cohort",
          "_primaryAdmin": "Address of the primary admin",
          "_tokenAddress": "Address of ERC20 token (zero address for ETH)"
        },
        "returns": {
          "_0": "Address of the newly created cohort"
        }
      },
      "getAllCohorts()": {
        "details": "Gets all created cohorts with their information",
        "returns": {
          "_0": "Array of CohortInfo structs"
        }
      },
      "getCohortByIndex(uint256)": {
        "details": "Gets cohort information by index",
        "params": {
          "_index": "Index of the cohort in the registry"
        },
        "returns": {
          "_0": "Cohort information"
        }
      },
      "getRequiredEthAmount()": {
        "details": "Calculates required ETH amount for creation fee based on current ETH price",
        "returns": {
          "_0": "Required ETH amount in wei"
        }
      },
      "getTotalCohorts()": {
        "details": "Gets the total number of created cohorts",
        "returns": {
          "_0": "Number of cohorts"
        }
      },
      "owner()": {
        "details": "Returns the address of the current owner."
      },
      "renounceOwnership()": {
        "details": "Leaves the contract without owner. It will not be possible to call `onlyOwner` functions anymore. Can only be called by the current owner. NOTE: Renouncing ownership will leave the contract without an owner, thereby removing any functionality that is only available to the owner."
      },
      "transferOwnership(address)": {
        "details": "Transfers ownership of the contract to a new account (`newOwner`). Can only be called by the current owner."
      },
      "updateCreationFee(uint256)": {
        "details": "Updates the creation fee amount",
        "params": {
          "_newFeeUSD": "New fee amount in USD (scaled by 1e18)"
        }
      },
      "updatePriceFeed(address)": {
        "details": "Updates the price feed address",
        "params": {
          "_newPriceFeed": "New price feed address"
        }
      }
    },
    "title": "CohortFactory",
    "version": 1
  },
  "userdoc": {
    "kind": "user",
    "methods": {},
    "version": 1
  },
  "storageLayout": {
    "storage": [
      {
        "astId": 446,
        "contract": "contracts/CohortFactory.sol:CohortFactory",
        "label": "_owner",
        "offset": 0,
        "slot": "0",
        "type": "t_address"
      },
      {
        "astId": 3456,
        "contract": "contracts/CohortFactory.sol:CohortFactory",
        "label": "priceFeed",
        "offset": 0,
        "slot": "1",
        "type": "t_contract(AggregatorV3Interface)45"
      },
      {
        "astId": 3458,
        "contract": "contracts/CohortFactory.sol:CohortFactory",
        "label": "creationFeeUSD",
        "offset": 0,
        "slot": "2",
        "type": "t_uint256"
      },
      {
        "astId": 3462,
        "contract": "contracts/CohortFactory.sol:CohortFactory",
        "label": "isCohort",
        "offset": 0,
        "slot": "3",
        "type": "t_mapping(t_address,t_bool)"
      },
      {
        "astId": 3467,
        "contract": "contracts/CohortFactory.sol:CohortFactory",
        "label": "cohortRegistry",
        "offset": 0,
        "slot": "4",
        "type": "t_mapping(t_uint256,t_struct(CohortInfo)3453_storage)"
      },
      {
        "astId": 3469,
        "contract": "contracts/CohortFactory.sol:CohortFactory",
        "label": "totalCohorts",
        "offset": 0,
        "slot": "5",
        "type": "t_uint256"
      }
    ],
    "types": {
      "t_address": {
        "encoding": "inplace",
        "label": "address",
        "numberOfBytes": "20"
      },
      "t_bool": {
        "encoding": "inplace",
        "label": "bool",
        "numberOfBytes": "1"
      },
      "t_contract(AggregatorV3Interface)45": {
        "encoding": "inplace",
        "label": "contract AggregatorV3Interface",
        "numberOfBytes": "20"
      },
      "t_mapping(t_address,t_bool)": {
        "encoding": "mapping",
        "key": "t_address",
        "label": "mapping(address => bool)",
        "numberOfBytes": "32",
        "value": "t_bool"
      },
      "t_mapping(t_uint256,t_struct(CohortInfo)3453_storage)": {
        "encoding": "mapping",
        "key": "t_uint256",
        "label": "mapping(uint256 => struct CohortFactory.CohortInfo)",
        "numberOfBytes": "32",
        "value": "t_struct(CohortInfo)3453_storage"
      },
      "t_string_storage": {
        "encoding": "bytes",
        "label": "string",
        "numberOfBytes": "32"
      },
      "t_struct(CohortInfo)3453_storage": {
        "encoding": "inplace",
        "label": "struct CohortFactory.CohortInfo",
        "members": [
          {
            "astId": 3448,
            "contract": "contracts/CohortFactory.sol:CohortFactory",
            "label": "cohortAddress",
            "offset": 0,
            "slot": "0",
            "type": "t_address"
          },
          {
            "astId": 3450,
            "contract": "contracts/CohortFactory.sol:CohortFactory",
            "label": "name",
            "offset": 0,
            "slot": "1",
            "type": "t_string_storage"
          },
          {
            "astId": 3452,
            "contract": "contracts/CohortFactory.sol:CohortFactory",
            "label": "creationTimestamp",
            "offset": 0,
            "slot": "2",
            "type": "t_uint256"
          }
        ],
        "numberOfBytes": "96"
      },
      "t_uint256": {
        "encoding": "inplace",
        "label": "uint256",
        "numberOfBytes": "32"
      }
    }
  }
}